{
	"data": {
		"bytecode": {
			"linkReferences": {},
			"object": "61016060405273da82d8e188e355c380d77616b2b63b0267aa68ed60075f6101000a81548173ffffffffffffffffffffffffffffffffffffffff021916908373ffffffffffffffffffffffffffffffffffffffff16021790555073a0fddc85da6fbe53d2e7d55cbda9a22c3620816c60085f6101000a81548173ffffffffffffffffffffffffffffffffffffffff021916908373ffffffffffffffffffffffffffffffffffffffff1602179055507358e4a1126170cfa7ccf016a9362ae1a9f1c7091460095f6101000a81548173ffffffffffffffffffffffffffffffffffffffff021916908373ffffffffffffffffffffffffffffffffffffffff16021790555073b6458438e80ad9bd3dd3ddb5fb1942a139c1ffd3600a5f6101000a81548173ffffffffffffffffffffffffffffffffffffffff021916908373ffffffffffffffffffffffffffffffffffffffff16021790555073812f7c9c267b3b24fc81d8f6cddb9482d2b992df600b5f6101000a81548173ffffffffffffffffffffffffffffffffffffffff021916908373ffffffffffffffffffffffffffffffffffffffff1602179055506002600e556003600f5560016010553480156101c3575f80fd5b506040518060400160405280600981526020017f44616f53797374656d0000000000000000000000000000000000000000000000815250806102096106fb60201b60201c565b61021c5f8361073860201b90919060201c565b610120818152505061023860018261073860201b90919060201c565b6101408181525050818051906020012060e08181525050808051906020012061010081815250504660a0818152505061027561078560201b60201c565b608081815250503073ffffffffffffffffffffffffffffffffffffffff1660c08173ffffffffffffffffffffffffffffffffffffffff1681525050505080600390816102c19190610bb7565b5050620186a06040516102d39061096f565b6102dd9190610d63565b604051809103905ff0801580156102f6573d5f803e3d5ffd5b50600c5f6101000a81548173ffffffffffffffffffffffffffffffffffffffff021916908373ffffffffffffffffffffffffffffffffffffffff1602179055506301312d006040516103479061096f565b6103519190610e6f565b604051809103905ff08015801561036a573d5f803e3d5ffd5b50600d5f6101000a81548173ffffffffffffffffffffffffffffffffffffffff021916908373ffffffffffffffffffffffffffffffffffffffff160217905550600c5f9054906101000a900473ffffffffffffffffffffffffffffffffffffffff1673ffffffffffffffffffffffffffffffffffffffff1663fa8ba66e6040518163ffffffff1660e01b81526004015f604051808303815f87803b158015610410575f80fd5b505af1158015610422573d5f803e3d5ffd5b50505050600d5f9054906101000a900473ffffffffffffffffffffffffffffffffffffffff1673ffffffffffffffffffffffffffffffffffffffff166340c10f1930600c5f9054906101000a900473ffffffffffffffffffffffffffffffffffffffff1673ffffffffffffffffffffffffffffffffffffffff1663313ce5676040518163ffffffff1660e01b8152600401602060405180830381865afa1580156104ce573d5f803e3d5ffd5b505050506040513d601f19601f820116820180604052508101906104f29190610ee8565b600a6104fe919061106f565b6301312d0061050d91906110b9565b6040518363ffffffff1660e01b815260040161052a929190611148565b5f604051808303815f87803b158015610541575f80fd5b505af1158015610553573d5f803e3d5ffd5b505050506105bf60075f9054906101000a900473ffffffffffffffffffffffffffffffffffffffff166040518060400160405280600381526020017f546f6d000000000000000000000000000000000000000000000000000000000081525060016107df60201b60201c565b61062760085f9054906101000a900473ffffffffffffffffffffffffffffffffffffffff166040518060400160405280600381526020017f42656e000000000000000000000000000000000000000000000000000000000081525060016107df60201b60201c565b61068f60095f9054906101000a900473ffffffffffffffffffffffffffffffffffffffff166040518060400160405280600481526020017f5269636b0000000000000000000000000000000000000000000000000000000081525060016107df60201b60201c565b6106f6600a5f9054906101000a900473ffffffffffffffffffffffffffffffffffffffff166040518060400160405280600481526020017f4a61636b000000000000000000000000000000000000000000000000000000008152505f6107df60201b60201c565b61130e565b60606040518060400160405280600181526020017f3100000000000000000000000000000000000000000000000000000000000000815250905090565b5f602083511015610759576107528361090160201b60201c565b905061077f565b826107698361096660201b60201c565b5f0190816107779190610bb7565b5060ff5f1b90505b92915050565b5f7f8b73c3c69bb8fe3d512ecc4cf759cc79239f7b179b0ffacaa9a75d522b39400f60e0516101005146306040516020016107c4959493929190611187565b60405160208183030381529060405280519060200120905090565b60405180608001604052808381526020018473ffffffffffffffffffffffffffffffffffffffff16815260200182600281111561081f5761081e6111d8565b5b81526020015f81525060165f8573ffffffffffffffffffffffffffffffffffffffff1673ffffffffffffffffffffffffffffffffffffffff1681526020019081526020015f205f820151815f0190816108789190610bb7565b506020820151816001015f6101000a81548173ffffffffffffffffffffffffffffffffffffffff021916908373ffffffffffffffffffffffffffffffffffffffff16021790555060408201518160010160146101000a81548160ff021916908360028111156108ea576108e96111d8565b5b021790555060608201518160020155905050505050565b5f80829050601f8151111561094d57826040517f305a27a9000000000000000000000000000000000000000000000000000000008152600401610944919061125b565b60405180910390fd5b805181610959906112a8565b5f1c175f1b915050919050565b5f819050919050565b6145d4806200b99783390190565b5f81519050919050565b7f4e487b71000000000000000000000000000000000000000000000000000000005f52604160045260245ffd5b7f4e487b71000000000000000000000000000000000000000000000000000000005f52602260045260245ffd5b5f60028204905060018216806109f857607f821691505b602082108103610a0b57610a0a6109b4565b5b50919050565b5f819050815f5260205f209050919050565b5f6020601f8301049050919050565b5f82821b905092915050565b5f60088302610a6d7fffffffffffffffffffffffffffffffffffffffffffffffffffffffffffffffff82610a32565b610a778683610a32565b95508019841693508086168417925050509392505050565b5f819050919050565b5f819050919050565b5f610abb610ab6610ab184610a8f565b610a98565b610a8f565b9050919050565b5f819050919050565b610ad483610aa1565b610ae8610ae082610ac2565b848454610a3e565b825550505050565b5f90565b610afc610af0565b610b07818484610acb565b505050565b5b81811015610b2a57610b1f5f82610af4565b600181019050610b0d565b5050565b601f821115610b6f57610b4081610a11565b610b4984610a23565b81016020851015610b58578190505b610b6c610b6485610a23565b830182610b0c565b50505b505050565b5f82821c905092915050565b5f610b8f5f1984600802610b74565b1980831691505092915050565b5f610ba78383610b80565b9150826002028217905092915050565b610bc08261097d565b67ffffffffffffffff811115610bd957610bd8610987565b5b610be382546109e1565b610bee828285610b2e565b5f60209050601f831160018114610c1f575f8415610c0d578287015190505b610c178582610b9c565b865550610c7e565b601f198416610c2d86610a11565b5f5b82811015610c5457848901518255600182019150602085019450602081019050610c2f565b86831015610c715784890151610c6d601f891682610b80565b8355505b6001600288020188555050505b505050505050565b5f82825260208201905092915050565b7f50726f66657373696f6e616c00000000000000000000000000000000000000005f82015250565b5f610cca600c83610c86565b9150610cd582610c96565b602082019050919050565b7f50524f46490000000000000000000000000000000000000000000000000000005f82015250565b5f610d14600583610c86565b9150610d1f82610ce0565b602082019050919050565b5f819050919050565b5f610d4d610d48610d4384610d2a565b610a98565b610a8f565b9050919050565b610d5d81610d33565b82525050565b5f6060820190508181035f830152610d7a81610cbe565b90508181036020830152610d8d81610d08565b9050610d9c6040830184610d54565b92915050565b7f52544b436f696e000000000000000000000000000000000000000000000000005f82015250565b5f610dd6600783610c86565b9150610de182610da2565b602082019050919050565b7f52544b00000000000000000000000000000000000000000000000000000000005f82015250565b5f610e20600383610c86565b9150610e2b82610dec565b602082019050919050565b5f819050919050565b5f610e59610e54610e4f84610e36565b610a98565b610a8f565b9050919050565b610e6981610e3f565b82525050565b5f6060820190508181035f830152610e8681610dca565b90508181036020830152610e9981610e14565b9050610ea86040830184610e60565b92915050565b5f80fd5b5f60ff82169050919050565b610ec781610eb2565b8114610ed1575f80fd5b50565b5f81519050610ee281610ebe565b92915050565b5f60208284031215610efd57610efc610eae565b5b5f610f0a84828501610ed4565b91505092915050565b7f4e487b71000000000000000000000000000000000000000000000000000000005f52601160045260245ffd5b5f8160011c9050919050565b5f808291508390505b6001851115610f9557808604811115610f7157610f70610f13565b5b6001851615610f805780820291505b8081029050610f8e85610f40565b9450610f55565b94509492505050565b5f82610fad5760019050611068565b81610fba575f9050611068565b8160018114610fd05760028114610fda57611009565b6001915050611068565b60ff841115610fec57610feb610f13565b5b8360020a91508482111561100357611002610f13565b5b50611068565b5060208310610133831016604e8410600b841016171561103e5782820a90508381111561103957611038610f13565b5b611068565b61104b8484846001610f4c565b9250905081840481111561106257611061610f13565b5b81810290505b9392505050565b5f61107982610a8f565b915061108483610eb2565b92506110b17fffffffffffffffffffffffffffffffffffffffffffffffffffffffffffffffff8484610f9e565b905092915050565b5f6110c382610a8f565b91506110ce83610a8f565b92508282026110dc81610a8f565b915082820484148315176110f3576110f2610f13565b5b5092915050565b5f73ffffffffffffffffffffffffffffffffffffffff82169050919050565b5f611123826110fa565b9050919050565b61113381611119565b82525050565b61114281610a8f565b82525050565b5f60408201905061115b5f83018561112a565b6111686020830184611139565b9392505050565b5f819050919050565b6111818161116f565b82525050565b5f60a08201905061119a5f830188611178565b6111a76020830187611178565b6111b46040830186611178565b6111c16060830185611139565b6111ce608083018461112a565b9695505050505050565b7f4e487b71000000000000000000000000000000000000000000000000000000005f52602160045260245ffd5b8281835e5f83830152505050565b5f601f19601f8301169050919050565b5f61122d8261097d565b6112378185610c86565b9350611247818560208601611205565b61125081611213565b840191505092915050565b5f6020820190508181035f8301526112738184611223565b905092915050565b5f81519050919050565b5f819050602082019050919050565b5f61129f825161116f565b80915050919050565b5f6112b28261127b565b826112bc84611285565b90506112c781611294565b92506020821015611307576113027fffffffffffffffffffffffffffffffffffffffffffffffffffffffffffffffff83602003600802610a32565b831692505b5050919050565b60805160a05160c05160e05161010051610120516101405161a637620013605f395f61665d01525f61662201525f616f2201525f616f0101525f61687701525f6168cd01525f6168f6015261a6375ff3fe608060405260043610610384575f3560e01c80637d5e81e2116101d0578063c28bc2fa11610101578063d4f168c21161009f578063eb9019d41161006e578063eb9019d414610ee3578063f23a6e6114610f1f578063f8ce560a14610f5b578063fc13f6af14610f97576103f7565b8063d4f168c214610e3f578063dd4e2ba514610e67578063deaaa7cc14610e91578063e20615e614610ebb576103f7565b8063cac26ce2116100db578063cac26ce214610d6f578063cf71a80a14610d8b578063d23254b414610dc7578063d4a8dd9814610e03576103f7565b8063c28bc2fa14610cdb578063c59057e414610cf7578063c7f758a814610d33576103f7565b80639a802a6d1161016e578063ab58fb8e11610148578063ab58fb8e14610bfd578063b58131b014610c39578063bc197c8114610c63578063c01f9e3714610c9f576103f7565b80639a802a6d14610b41578063a598d03c14610b7d578063a9a9529414610bc1576103f7565b80638ff262e3116101aa5780638ff262e314610a7457806390fe560914610ab057806391ddadf414610ad8578063992703b414610b02576103f7565b80637d5e81e2146109cc5780637ecebe0014610a0857806384b0196e14610a44576103f7565b80633e4f49e6116102b557806354fd4d50116102535780636036e9e0116102225780636036e9e0146109025780636f77926b1461092a578063740c3b98146109665780637b3c71d314610990576103f7565b806354fd4d5014610824578063567813881461084e5780635b8d0e0d1461088a5780635f398a14146108c6576103f7565b8063452115d61161028f578063452115d61461075a5780634bf5d7e9146107965780634f7a0dbe146107c0578063549bdd6e146107fc576103f7565b80633e4f49e6146106ba5780634348a4dd146106f6578063438596321461071e576103f7565b8063150b7a02116103225780632d63f693116102fc5780632d63f693146106025780632fe3e2611461063e5780633932abb1146106685780633e13540014610692576103f7565b8063150b7a021461055a578063160cbed7146105965780632656227d146105d2576103f7565b806306fdde031161035e57806306fdde03146104a457806308eaef12146104ce5780630d61b519146104f6578063143489d01461051e576103f7565b8063013cf08b146103fb57806301ffc9a71461043e57806302a251a31461047a576103f7565b366103f7573073ffffffffffffffffffffffffffffffffffffffff166103a8610fbf565b73ffffffffffffffffffffffffffffffffffffffff16146103f5576040517fe90a651e00000000000000000000000000000000000000000000000000000000815260040160405180910390fd5b005b5f80fd5b348015610406575f80fd5b50610421600480360381019061041c91906174be565b610fc6565b604051610435989796959493929190617634565b60405180910390f35b348015610449575f80fd5b50610464600480360381019061045f919061770c565b6110e8565b6040516104719190617737565b60405180910390f35b348015610485575f80fd5b5061048e6111c9565b60405161049b9190617750565b60405180910390f35b3480156104af575f80fd5b506104b86111d1565b6040516104c59190617769565b60405180910390f35b3480156104d9575f80fd5b506104f460048036038101906104ef9190617925565b611261565b005b348015610501575f80fd5b5061051c600480360381019061051791906174be565b6118a8565b005b348015610529575f80fd5b50610544600480360381019061053f91906174be565b611c8d565b60405161055191906179b8565b60405180910390f35b348015610565575f80fd5b50610580600480360381019061057b9190617a6f565b611cc8565b60405161058d9190617afe565b60405180910390f35b3480156105a1575f80fd5b506105bc60048036038101906105b79190617dac565b611d47565b6040516105c99190617750565b60405180910390f35b6105ec60048036038101906105e79190617dac565b611e3d565b6040516105f99190617750565b60405180910390f35b34801561060d575f80fd5b50610628600480360381019061062391906174be565b612017565b6040516106359190617750565b60405180910390f35b348015610649575f80fd5b5061065261204d565b60405161065f9190617e73565b60405180910390f35b348015610673575f80fd5b5061067c612071565b6040516106899190617750565b60405180910390f35b34801561069d575f80fd5b506106b860048036038101906106b391906174be565b612079565b005b3480156106c5575f80fd5b506106e060048036038101906106db91906174be565b61236a565b6040516106ed9190617ed2565b60405180910390f35b348015610701575f80fd5b5061071c60048036038101906107179190617eeb565b6124c1565b005b348015610729575f80fd5b50610744600480360381019061073f9190617f29565b612513565b6040516107519190617737565b60405180910390f35b348015610765575f80fd5b50610780600480360381019061077b9190617dac565b61256b565b60405161078d9190617750565b60405180910390f35b3480156107a1575f80fd5b506107aa61262b565b6040516107b79190617769565b60405180910390f35b3480156107cb575f80fd5b506107e660048036038101906107e19190617f67565b612668565b6040516107f39190617750565b60405180910390f35b348015610807575f80fd5b50610822600480360381019061081d91906174be565b612709565b005b34801561082f575f80fd5b50610838612cca565b6040516108459190617769565b60405180910390f35b348015610859575f80fd5b50610874600480360381019061086f9190617fc8565b612d07565b6040516108819190617750565b60405180910390f35b348015610895575f80fd5b506108b060048036038101906108ab919061805f565b612d36565b6040516108bd9190617750565b60405180910390f35b3480156108d1575f80fd5b506108ec60048036038101906108e79190618141565b612e65565b6040516108f99190617750565b60405180910390f35b34801561090d575f80fd5b506109286004803603810190610923919061820b565b612ecd565b005b348015610935575f80fd5b50610950600480360381019061094b9190617f67565b6136fd565b60405161095d9190618367565b60405180910390f35b348015610971575f80fd5b5061097a61387d565b6040516109879190617750565b60405180910390f35b34801561099b575f80fd5b506109b660048036038101906109b19190618387565b613883565b6040516109c39190617750565b60405180910390f35b3480156109d7575f80fd5b506109f260048036038101906109ed91906183f8565b6138e9565b6040516109ff9190617750565b60405180910390f35b348015610a13575f80fd5b50610a2e6004803603810190610a299190617f67565b6139df565b604051610a3b9190617750565b60405180910390f35b348015610a4f575f80fd5b50610a58613a25565b604051610a6b97969594939291906185ae565b60405180910390f35b348015610a7f575f80fd5b50610a9a6004803603810190610a959190618630565b613aca565b604051610aa79190617750565b60405180910390f35b348015610abb575f80fd5b50610ad66004803603810190610ad191906186b0565b613b9e565b005b348015610ae3575f80fd5b50610aec613deb565b604051610af9919061870e565b60405180910390f35b348015610b0d575f80fd5b50610b286004803603810190610b239190617f29565b613df2565b604051610b389493929190618727565b60405180910390f35b348015610b4c575f80fd5b50610b676004803603810190610b62919061876a565b613e54565b604051610b749190617750565b60405180910390f35b348015610b88575f80fd5b50610ba36004803603810190610b9e91906174be565b613e69565b604051610bb899989796959493929190618862565b60405180910390f35b348015610bcc575f80fd5b50610be76004803603810190610be291906174be565b613f71565b604051610bf49190617737565b60405180910390f35b348015610c08575f80fd5b50610c236004803603810190610c1e91906174be565b613f77565b604051610c309190617750565b60405180910390f35b348015610c44575f80fd5b50610c4d613fad565b604051610c5a9190617750565b60405180910390f35b348015610c6e575f80fd5b50610c896004803603810190610c8491906188f4565b613fb1565b604051610c969190617afe565b60405180910390f35b348015610caa575f80fd5b50610cc56004803603810190610cc091906174be565b614031565b604051610cd29190617750565b60405180910390f35b610cf56004803603810190610cf09190618a14565b61409b565b005b348015610d02575f80fd5b50610d1d6004803603810190610d189190617dac565b614124565b604051610d2a9190617750565b60405180910390f35b348015610d3e575f80fd5b50610d596004803603810190610d5491906174be565b61415e565b604051610d669190618b50565b60405180910390f35b610d896004803603810190610d8491906174be565b614337565b005b348015610d96575f80fd5b50610db16004803603810190610dac9190618b93565b6145c0565b604051610dbe9190617750565b60405180910390f35b348015610dd2575f80fd5b50610ded6004803603810190610de89190617f29565b6145eb565b604051610dfa9190617750565b60405180910390f35b348015610e0e575f80fd5b50610e296004803603810190610e2491906174be565b61460b565b604051610e369190617737565b60405180910390f35b348015610e4a575f80fd5b50610e656004803603810190610e609190617f67565b614881565b005b348015610e72575f80fd5b50610e7b6149a0565b604051610e889190617769565b60405180910390f35b348015610e9c575f80fd5b50610ea56149c0565b604051610eb29190617e73565b60405180910390f35b348015610ec6575f80fd5b50610ee16004803603810190610edc9190618bd1565b6149e4565b005b348015610eee575f80fd5b50610f096004803603810190610f049190617eeb565b615067565b604051610f169190617750565b60405180910390f35b348015610f2a575f80fd5b50610f456004803603810190610f409190618c21565b615082565b604051610f529190617afe565b60405180910390f35b348015610f66575f80fd5b50610f816004803603810190610f7c91906174be565b615102565b604051610f8e9190617750565b60405180910390f35b348015610fa2575f80fd5b50610fbd6004803603810190610fb89190618cd7565b61510c565b005b5f30905090565b6014602052805f5260405f205f91509050805f015490806001015f9054906101000a900473ffffffffffffffffffffffffffffffffffffffff169080600201805461101090618d70565b80601f016020809104026020016040519081016040528092919081815260200182805461103c90618d70565b80156110875780601f1061105e57610100808354040283529160200191611087565b820191905f5260205f20905b81548152906001019060200180831161106a57829003601f168201915b505050505090806003015490806004015f9054906101000a900460ff16908060040160019054906101000a900460ff16908060040160029054906101000a900473ffffffffffffffffffffffffffffffffffffffff16908060050154905088565b5f7f65455a86000000000000000000000000000000000000000000000000000000007bffffffffffffffffffffffffffffffffffffffffffffffffffffffff1916827bffffffffffffffffffffffffffffffffffffffffffffffffffffffff191614806111b257507f4e2312e0000000000000000000000000000000000000000000000000000000007bffffffffffffffffffffffffffffffffffffffffffffffffffffffff1916827bffffffffffffffffffffffffffffffffffffffffffffffffffffffff1916145b806111c257506111c18261522e565b5b9050919050565b5f6096905090565b6060600380546111e090618d70565b80601f016020809104026020016040519081016040528092919081815260200182805461120c90618d70565b80156112575780601f1061122e57610100808354040283529160200191611257565b820191905f5260205f20905b81548152906001019060200180831161123a57829003601f168201915b5050505050905090565b60016002811115611275576112746175c1565b5b60165f3373ffffffffffffffffffffffffffffffffffffffff1673ffffffffffffffffffffffffffffffffffffffff1681526020019081526020015f2060010160149054906101000a900460ff1660028111156112d5576112d46175c1565b5b146112de575f80fd5b5f600167ffffffffffffffff8111156112fa576112f96177b4565b5b6040519080825280602002602001820160405280156113285781602001602082028036833780820191505090505b5090505f600167ffffffffffffffff811115611347576113466177b4565b5b6040519080825280602002602001820160405280156113755781602001602082028036833780820191505090505b5090505f600167ffffffffffffffff811115611394576113936177b4565b5b6040519080825280602002602001820160405280156113c757816020015b60608152602001906001900390816113b25790505b50905030835f815181106113de576113dd618da0565b5b602002602001019073ffffffffffffffffffffffffffffffffffffffff16908173ffffffffffffffffffffffffffffffffffffffff16815250505f825f8151811061142c5761142b618da0565b5b6020026020010181815250505f600481111561144b5761144a6175c1565b5b88600481111561145e5761145d6175c1565b5b03611516578484604051602401611476929190618dcd565b6040516020818303038152906040527f05795ae5000000000000000000000000000000000000000000000000000000007bffffffffffffffffffffffffffffffffffffffffffffffffffffffff19166020820180517bffffffffffffffffffffffffffffffffffffffffffffffffffffffff8381831617835250505050815f8151811061150657611505618da0565b5b602002602001018190525061188d565b6001600481111561152a576115296175c1565b5b88600481111561153d5761153c6175c1565b5b036115f5578484604051602401611555929190618dcd565b6040516020818303038152906040527fdff9fed2000000000000000000000000000000000000000000000000000000007bffffffffffffffffffffffffffffffffffffffffffffffffffffffff19166020820180517bffffffffffffffffffffffffffffffffffffffffffffffffffffffff8381831617835250505050815f815181106115e5576115e4618da0565b5b602002602001018190525061188c565b60026004811115611609576116086175c1565b5b88600481111561161c5761161b6175c1565b5b036116d2578460405160240161163291906179b8565b6040516020818303038152906040527f5f6bbf38000000000000000000000000000000000000000000000000000000007bffffffffffffffffffffffffffffffffffffffffffffffffffffffff19166020820180517bffffffffffffffffffffffffffffffffffffffffffffffffffffffff8381831617835250505050815f815181106116c2576116c1618da0565b5b602002602001018190525061188b565b600360048111156116e6576116e56175c1565b5b8860048111156116f9576116f86175c1565b5b036117af578460405160240161170f91906179b8565b6040516020818303038152906040527fd4f168c2000000000000000000000000000000000000000000000000000000007bffffffffffffffffffffffffffffffffffffffffffffffffffffffff19166020820180517bffffffffffffffffffffffffffffffffffffffffffffffffffffffff8381831617835250505050815f8151811061179f5761179e618da0565b5b602002602001018190525061188a565b6004808111156117c2576117c16175c1565b5b8860048111156117d5576117d46175c1565b5b036118895784846040516024016117ed929190618dcd565b6040516020818303038152906040527f2b44e599000000000000000000000000000000000000000000000000000000007bffffffffffffffffffffffffffffffffffffffffffffffffffffffff19166020820180517bffffffffffffffffffffffffffffffffffffffffffffffffffffffff8381831617835250505050815f8151811061187d5761187c618da0565b5b60200260200101819052505b5b5b5b5b61189d8383838a8a8d8b8b615297565b505050505050505050565b5f60145f8381526020019081526020015f2090505f60155f836003015481526020019081526020015f209050611aff81604051806101400160405290815f82015f9054906101000a900473ffffffffffffffffffffffffffffffffffffffff1673ffffffffffffffffffffffffffffffffffffffff1673ffffffffffffffffffffffffffffffffffffffff16815260200160018201805461194890618d70565b80601f016020809104026020016040519081016040528092919081815260200182805461197490618d70565b80156119bf5780601f10611996576101008083540402835291602001916119bf565b820191905f5260205f20905b8154815290600101906020018083116119a257829003601f168201915b505050505081526020016002820154815260200160038201548152602001600482015f9054906101000a900460ff166004811115611a00576119ff6175c1565b5b6004811115611a1257611a116175c1565b5b81526020016004820160019054906101000a900460ff166002811115611a3b57611a3a6175c1565b5b6002811115611a4d57611a4c6175c1565b5b815260200160058201548152602001600682015481526020016007820154815260200160088201805480602002602001604051908101604052809291908181526020018280548015611af157602002820191905f5260205f20905b815f9054906101000a900473ffffffffffffffffffffffffffffffffffffffff1673ffffffffffffffffffffffffffffffffffffffff1681526020019060010190808311611aa8575b5050505050815250506156b2565b816004015f9054906101000a900460ff1615611b50576040517f08c379a0000000000000000000000000000000000000000000000000000000008152600401611b4790618e3e565b60405180910390fd5b80600301544211611b96576040517f08c379a0000000000000000000000000000000000000000000000000000000008152600401611b8d90618ea6565b60405180910390fd5b611b9f8361460b565b8015611bb05750611baf83615767565b5b15611c0b576002816004015f6101000a81548160ff02191690836004811115611bdc57611bdb6175c1565b5b02179055506001826004015f6101000a81548160ff021916908315150217905550611c068361578f565b611c38565b6001816004015f6101000a81548160ff02191690836004811115611c3257611c316175c1565b5b02179055505b806004015f9054906101000a900460ff166004811115611c5b57611c5a6175c1565b5b837f5b9614f21773d68c0b149bda804ff3d491c8bc8795f7ed236cc97804cd00538960405160405180910390a3505050565b5f60045f8381526020019081526020015f205f015f9054906101000a900473ffffffffffffffffffffffffffffffffffffffff169050919050565b5f3073ffffffffffffffffffffffffffffffffffffffff16611ce8610fbf565b73ffffffffffffffffffffffffffffffffffffffff1614611d35576040517fe90a651e00000000000000000000000000000000000000000000000000000000815260040160405180910390fd5b63150b7a0260e01b9050949350505050565b5f80611d5586868686614124565b9050611d6a81611d656004615aa0565b615ac4565b505f611d798288888888615b2f565b90505f8165ffffffffffff1614611dfe578060045f8481526020019081526020015f206001015f6101000a81548165ffffffffffff021916908365ffffffffffff1602179055507f9a2e42fd6722813d69113e7d0079d3d940171428df7373df9c7f7617cfda28928282604051611df1929190618efd565b60405180910390a1611e30565b6040517f90884a4600000000000000000000000000000000000000000000000000000000815260040160405180910390fd5b8192505050949350505050565b5f80611e4b86868686614124565b9050611e6b81611e5b6005615aa0565b611e656004615aa0565b17615ac4565b50600160045f8381526020019081526020015f205f01601e6101000a81548160ff0219169083151502179055503073ffffffffffffffffffffffffffffffffffffffff16611eb7610fbf565b73ffffffffffffffffffffffffffffffffffffffff1614611f6d575f5b8651811015611f6b573073ffffffffffffffffffffffffffffffffffffffff16878281518110611f0757611f06618da0565b5b602002602001015173ffffffffffffffffffffffffffffffffffffffff1603611f6057611f5f858281518110611f4057611f3f618da0565b5b6020026020010151805190602001206005615b3990919063ffffffff16565b5b806001019050611ed4565b505b611f7a8187878787615c31565b3073ffffffffffffffffffffffffffffffffffffffff16611f99610fbf565b73ffffffffffffffffffffffffffffffffffffffff1614158015611fc45750611fc26005615d16565b155b15611fd457611fd36005615d82565b5b7f712ae1383f79ac853f8d882153778e0260ef8f03b504e2866e0593e04d2b291f816040516120039190617750565b60405180910390a180915050949350505050565b5f60045f8381526020019081526020015f205f0160149054906101000a900465ffffffffffff1665ffffffffffff169050919050565b7f3e83946653575f9a39005e1545185629e92736b7528ab20ca3816f315424a81181565b5f6001905090565b5f600e54826120889190618f51565b9050600c5f9054906101000a900473ffffffffffffffffffffffffffffffffffffffff1673ffffffffffffffffffffffffffffffffffffffff1663a64b6e5f3330600c5f9054906101000a900473ffffffffffffffffffffffffffffffffffffffff1673ffffffffffffffffffffffffffffffffffffffff1663313ce5676040518163ffffffff1660e01b8152600401602060405180830381865afa158015612133573d5f803e3d5ffd5b505050506040513d601f19601f820116820180604052508101906121579190618fa6565b600a6121639190619100565b8561216e9190618f51565b6040518463ffffffff1660e01b815260040161218c9392919061914a565b6020604051808303815f875af11580156121a8573d5f803e3d5ffd5b505050506040513d601f19601f820116820180604052508101906121cc9190619193565b50600d5f9054906101000a900473ffffffffffffffffffffffffffffffffffffffff1673ffffffffffffffffffffffffffffffffffffffff1663a64b6e5f3033600d5f9054906101000a900473ffffffffffffffffffffffffffffffffffffffff1673ffffffffffffffffffffffffffffffffffffffff1663313ce5676040518163ffffffff1660e01b8152600401602060405180830381865afa158015612276573d5f803e3d5ffd5b505050506040513d601f19601f8201168201806040525081019061229a9190618fa6565b600a6122a69190619100565b856122b19190618f51565b6040518463ffffffff1660e01b81526004016122cf9392919061914a565b6020604051808303815f875af11580156122eb573d5f803e3d5ffd5b505050506040513d601f19601f8201168201806040525081019061230f9190619193565b508160165f3373ffffffffffffffffffffffffffffffffffffffff1673ffffffffffffffffffffffffffffffffffffffff1681526020019081526020015f206002015f82825461235f91906191be565b925050819055505050565b5f8060045f8481526020019081526020015f2090505f815f01601e9054906101000a900460ff1690505f825f01601f9054906101000a900460ff16905081156123b957600793505050506124bc565b80156123cb57600293505050506124bc565b5f6123d586612017565b90505f810361241b57856040517f6ad060750000000000000000000000000000000000000000000000000000000081526004016124129190617750565b60405180910390fd5b5f612424613deb565b65ffffffffffff169050808210612442575f955050505050506124bc565b5f61244c88614031565b905081811061246457600196505050505050506124bc565b61246d88615df8565b158061247f575061247d88615767565b155b1561249357600396505050505050506124bc565b5f61249d89613f77565b036124b157600496505050505050506124bc565b600596505050505050505b919050565b8173ffffffffffffffffffffffffffffffffffffffff167f8594b6ec50dc6d717d6e9cace88338a5eedb2517861dcfab8656725b4806ac5c826040516125079190617750565b60405180910390a25050565b5f8060125f8581526020019081526020015f205f8473ffffffffffffffffffffffffffffffffffffffff1673ffffffffffffffffffffffffffffffffffffffff1681526020019081526020015f205411905092915050565b5f8061257986868686614124565b905061258d816125885f615aa0565b615ac4565b5061259781611c8d565b73ffffffffffffffffffffffffffffffffffffffff166125b5615e46565b73ffffffffffffffffffffffffffffffffffffffff1614612614576125d8615e46565b6040517f233d98e300000000000000000000000000000000000000000000000000000000815260040161260b91906179b8565b60405180910390fd5b61262086868686615e4d565b915050949350505050565b60606040518060400160405280601d81526020017f6d6f64653d626c6f636b6e756d6265722666726f6d3d64656661756c74000000815250905090565b5f600c5f9054906101000a900473ffffffffffffffffffffffffffffffffffffffff1673ffffffffffffffffffffffffffffffffffffffff166370a08231836040518263ffffffff1660e01b81526004016126c391906179b8565b602060405180830381865afa1580156126de573d5f803e3d5ffd5b505050506040513d601f19601f820116820180604052508101906127029190619205565b9050919050565b6001600281111561271d5761271c6175c1565b5b60165f3373ffffffffffffffffffffffffffffffffffffffff1673ffffffffffffffffffffffffffffffffffffffff1681526020019081526020015f2060010160149054906101000a900460ff16600281111561277d5761277c6175c1565b5b14612786575f80fd5b5f60155f8381526020019081526020015f2090506129c581604051806101400160405290815f82015f9054906101000a900473ffffffffffffffffffffffffffffffffffffffff1673ffffffffffffffffffffffffffffffffffffffff1673ffffffffffffffffffffffffffffffffffffffff16815260200160018201805461280e90618d70565b80601f016020809104026020016040519081016040528092919081815260200182805461283a90618d70565b80156128855780601f1061285c57610100808354040283529160200191612885565b820191905f5260205f20905b81548152906001019060200180831161286857829003601f168201915b505050505081526020016002820154815260200160038201548152602001600482015f9054906101000a900460ff1660048111156128c6576128c56175c1565b5b60048111156128d8576128d76175c1565b5b81526020016004820160019054906101000a900460ff166002811115612901576129006175c1565b5b6002811115612913576129126175c1565b5b8152602001600582015481526020016006820154815260200160078201548152602001600882018054806020026020016040519081016040528092919081815260200182805480156129b757602002820191905f5260205f20905b815f9054906101000a900473ffffffffffffffffffffffffffffffffffffffff1673ffffffffffffffffffffffffffffffffffffffff168152602001906001019080831161296e575b5050505050815250506156b2565b805f015f9054906101000a900473ffffffffffffffffffffffffffffffffffffffff1673ffffffffffffffffffffffffffffffffffffffff163373ffffffffffffffffffffffffffffffffffffffff1614612a55576040517f08c379a0000000000000000000000000000000000000000000000000000000008152600401612a4c9061927a565b60405180910390fd5b5f5b8160080180549050811015612c5d575f826008018281548110612a7d57612a7c618da0565b5b905f5260205f20015f9054906101000a900473ffffffffffffffffffffffffffffffffffffffff1690505f60125f8681526020019081526020015f205f8373ffffffffffffffffffffffffffffffffffffffff1673ffffffffffffffffffffffffffffffffffffffff1681526020019081526020015f205490505f811115612c4e5760125f8681526020019081526020015f205f8373ffffffffffffffffffffffffffffffffffffffff1673ffffffffffffffffffffffffffffffffffffffff1681526020019081526020015f205f9055600c5f9054906101000a900473ffffffffffffffffffffffffffffffffffffffff1673ffffffffffffffffffffffffffffffffffffffff166323b872dd855f015f9054906101000a900473ffffffffffffffffffffffffffffffffffffffff1684846040518463ffffffff1660e01b8152600401612bce9392919061914a565b6020604051808303815f875af1158015612bea573d5f803e3d5ffd5b505050506040513d601f19601f82011682018060405250810190612c0e9190619193565b612c4d576040517f08c379a0000000000000000000000000000000000000000000000000000000008152600401612c44906192e2565b60405180910390fd5b5b50508080600101915050612a57565b50806008015f612c6d91906172ef565b6004816004015f6101000a81548160ff02191690836004811115612c9457612c936175c1565b5b0217905550817ff13e8f8b0ed8f20f2cda40bcfa6edb3798685fae4068797eed2e10cd54374eb660405160405180910390a25050565b60606040518060400160405280600181526020017f3100000000000000000000000000000000000000000000000000000000000000815250905090565b5f80612d11615e46565b9050612d2d84828560405180602001604052805f815250615f2f565b91505092915050565b5f80612dc387612dbd7f3e83946653575f9a39005e1545185629e92736b7528ab20ca3816f315424a8118c8c8c612d6c8e615f4e565b8d8d604051612d7c92919061932e565b60405180910390208c80519060200120604051602001612da29796959493929190619355565b60405160208183030381529060405280519060200120615fa1565b85615fba565b905080612e0757866040517f94ab6c07000000000000000000000000000000000000000000000000000000008152600401612dfe91906179b8565b60405180910390fd5b612e5789888a89898080601f0160208091040260200160405190810160405280939291908181526020018383808284375f81840152601f19601f8201169050808301925050505050505088616066565b915050979650505050505050565b5f80612e6f615e46565b9050612ec187828888888080601f0160208091040260200160405190810160405280939291908181526020018383808284375f81840152601f19601f8201169050808301925050505050505087616066565b91505095945050505050565b60016002811115612ee157612ee06175c1565b5b60165f3373ffffffffffffffffffffffffffffffffffffffff1673ffffffffffffffffffffffffffffffffffffffff1681526020019081526020015f2060010160149054906101000a900460ff166002811115612f4157612f406175c1565b5b14612f4a575f80fd5b5f60155f8581526020019081526020015f20905061318981604051806101400160405290815f82015f9054906101000a900473ffffffffffffffffffffffffffffffffffffffff1673ffffffffffffffffffffffffffffffffffffffff1673ffffffffffffffffffffffffffffffffffffffff168152602001600182018054612fd290618d70565b80601f0160208091040260200160405190810160405280929190818152602001828054612ffe90618d70565b80156130495780601f1061302057610100808354040283529160200191613049565b820191905f5260205f20905b81548152906001019060200180831161302c57829003601f168201915b505050505081526020016002820154815260200160038201548152602001600482015f9054906101000a900460ff16600481111561308a576130896175c1565b5b600481111561309c5761309b6175c1565b5b81526020016004820160019054906101000a900460ff1660028111156130c5576130c46175c1565b5b60028111156130d7576130d66175c1565b5b81526020016005820154815260200160068201548152602001600782015481526020016008820180548060200260200160405190810160405280929190818152602001828054801561317b57602002820191905f5260205f20905b815f9054906101000a900473ffffffffffffffffffffffffffffffffffffffff1673ffffffffffffffffffffffffffffffffffffffff1681526020019060010190808311613132575b5050505050815250506156b2565b6131938433612513565b156131d3576040517f08c379a00000000000000000000000000000000000000000000000000000000081526004016131ca9061940c565b60405180910390fd5b3373ffffffffffffffffffffffffffffffffffffffff1660145f8681526020019081526020015f206001015f9054906101000a900473ffffffffffffffffffffffffffffffffffffffff1673ffffffffffffffffffffffffffffffffffffffff1603613274576040517f08c379a000000000000000000000000000000000000000000000000000000000815260040161326b90619474565b60405180910390fd5b5f806004811115613288576132876175c1565b5b60145f8781526020019081526020015f2060040160019054906101000a900460ff1660048111156132bc576132bb6175c1565b5b148061330d5750600160048111156132d7576132d66175c1565b5b60145f8781526020019081526020015f2060040160019054906101000a900460ff16600481111561330b5761330a6175c1565b5b145b1561331a57829050613362565b6003831461335d576040517f08c379a000000000000000000000000000000000000000000000000000000000815260040161335490619502565b60405180910390fd5b600390505b82600c5f9054906101000a900473ffffffffffffffffffffffffffffffffffffffff1673ffffffffffffffffffffffffffffffffffffffff166370a08231336040518263ffffffff1660e01b81526004016133bd91906179b8565b602060405180830381865afa1580156133d8573d5f803e3d5ffd5b505050506040513d601f19601f820116820180604052508101906133fc9190619205565b101561343d576040517f08c379a00000000000000000000000000000000000000000000000000000000081526004016134349061956a565b60405180910390fd5b600c5f9054906101000a900473ffffffffffffffffffffffffffffffffffffffff1673ffffffffffffffffffffffffffffffffffffffff1663a64b6e5f3330600c5f9054906101000a900473ffffffffffffffffffffffffffffffffffffffff1673ffffffffffffffffffffffffffffffffffffffff1663313ce5676040518163ffffffff1660e01b8152600401602060405180830381865afa1580156134e6573d5f803e3d5ffd5b505050506040513d601f19601f8201168201806040525081019061350a9190618fa6565b600a6135169190619100565b876135219190618f51565b6040518463ffffffff1660e01b815260040161353f9392919061914a565b6020604051808303815f875af115801561355b573d5f803e3d5ffd5b505050506040513d601f19601f8201168201806040525081019061357f9190619193565b506135a8853386613590575f613593565b60015b8460405180602001604052805f815250616170565b508160080133908060018154018082558091505060019003905f5260205f20015f9091909190916101000a81548173ffffffffffffffffffffffffffffffffffffffff021916908373ffffffffffffffffffffffffffffffffffffffff160217905550843373ffffffffffffffffffffffffffffffffffffffff167fefa3d674e0475fb6175e081d7938ee5c64950b1a41fabffb968a8ed87482f4848684600c5f9054906101000a900473ffffffffffffffffffffffffffffffffffffffff1673ffffffffffffffffffffffffffffffffffffffff166370a08231336040518263ffffffff1660e01b81526004016136a091906179b8565b602060405180830381865afa1580156136bb573d5f803e3d5ffd5b505050506040513d601f19601f820116820180604052508101906136df9190619205565b6040516136ee93929190619588565b60405180910390a35050505050565b61370561730d565b60165f8373ffffffffffffffffffffffffffffffffffffffff1673ffffffffffffffffffffffffffffffffffffffff1681526020019081526020015f206040518060800160405290815f8201805461375c90618d70565b80601f016020809104026020016040519081016040528092919081815260200182805461378890618d70565b80156137d35780601f106137aa576101008083540402835291602001916137d3565b820191905f5260205f20905b8154815290600101906020018083116137b657829003601f168201915b50505050508152602001600182015f9054906101000a900473ffffffffffffffffffffffffffffffffffffffff1673ffffffffffffffffffffffffffffffffffffffff1673ffffffffffffffffffffffffffffffffffffffff1681526020016001820160149054906101000a900460ff166002811115613856576138556175c1565b5b6002811115613868576138676175c1565b5b81526020016002820154815250509050919050565b60105481565b5f8061388d615e46565b90506138de86828787878080601f0160208091040260200160405190810160405280939291908181526020018383808284375f81840152601f19601f82011690508083019250505050505050615f2f565b915050949350505050565b5f806138f3615e46565b90506138ff81846162af565b61394057806040517fd9b3955700000000000000000000000000000000000000000000000000000000815260040161393791906179b8565b60405180910390fd5b5f613949613fad565b90505f8111156139c6575f613979836001613962613deb565b61396c91906195bd565b65ffffffffffff16615067565b9050818110156139c4578281836040517fc242ee160000000000000000000000000000000000000000000000000000000081526004016139bb939291906195f6565b60405180910390fd5b505b6139d38787878786616395565b92505050949350505050565b5f60025f8373ffffffffffffffffffffffffffffffffffffffff1673ffffffffffffffffffffffffffffffffffffffff1681526020019081526020015f20549050919050565b5f6060805f805f6060613a3661661a565b613a3e616654565b46305f801b5f67ffffffffffffffff811115613a5d57613a5c6177b4565b5b604051908082528060200260200182016040528015613a8b5781602001602082028036833780820191505090505b507f0f00000000000000000000000000000000000000000000000000000000000000959493929190965096509650965096509650965090919293949596565b5f80613b3584613b2f7ff2aad550cf55f045cb27e9c559f9889fdfb6e6cdaa032301d6ea397784ae51d7898989613b008b615f4e565b604051602001613b1495949392919061962b565b60405160208183030381529060405280519060200120615fa1565b85615fba565b905080613b7957836040517f94ab6c07000000000000000000000000000000000000000000000000000000008152600401613b7091906179b8565b60405180910390fd5b613b9386858760405180602001604052805f815250615f2f565b915050949350505050565b5f60145f8481526020019081526020015f2090503373ffffffffffffffffffffffffffffffffffffffff16816001015f9054906101000a900473ffffffffffffffffffffffffffffffffffffffff1673ffffffffffffffffffffffffffffffffffffffff1614613c43576040517f08c379a0000000000000000000000000000000000000000000000000000000008152600401613c3a906196c6565b60405180910390fd5b5f60155f836003015481526020019081526020015f206002015414613c9d576040517f08c379a0000000000000000000000000000000000000000000000000000000008152600401613c949061972e565b60405180910390fd5b5f60155f836003015481526020019081526020015f2090504281600201819055508242613cca91906191be565b81600301819055506003816004015f6101000a81548160ff02191690836004811115613cf957613cf86175c1565b5b021790555060135f60036004811115613d1557613d146175c1565b5b6004811115613d2757613d266175c1565b5b81526020019081526020015f2084908060018154018082558091505060019003905f5260205f20015f9091909190915055806004015f9054906101000a900460ff166004811115613d7b57613d7a6175c1565b5b3373ffffffffffffffffffffffffffffffffffffffff16857f99d78b542bd982a5d7a220b4bdacdfd4725ae20142054dd98360c8ddc84d17fd846002015485600301548660050154876006015488600101604051613ddd9594939291906197df565b60405180910390a450505050565b5f42905090565b6011602052815f5260405f20602052805f5260405f205f9150915050805f015490806001015f9054906101000a900473ffffffffffffffffffffffffffffffffffffffff1690806002015490806003015f9054906101000a900460ff16905084565b5f613e6084848461668f565b90509392505050565b6015602052805f5260405f205f91509050805f015f9054906101000a900473ffffffffffffffffffffffffffffffffffffffff1690806001018054613ead90618d70565b80601f0160208091040260200160405190810160405280929190818152602001828054613ed990618d70565b8015613f245780601f10613efb57610100808354040283529160200191613f24565b820191905f5260205f20905b815481529060010190602001808311613f0757829003601f168201915b505050505090806002015490806003015490806004015f9054906101000a900460ff16908060040160019054906101000a900460ff16908060050154908060060154908060070154905089565b5f919050565b5f60045f8381526020019081526020015f206001015f9054906101000a900465ffffffffffff1665ffffffffffff169050919050565b5f90565b5f3073ffffffffffffffffffffffffffffffffffffffff16613fd1610fbf565b73ffffffffffffffffffffffffffffffffffffffff161461401e576040517fe90a651e00000000000000000000000000000000000000000000000000000000815260040160405180910390fd5b63bc197c8160e01b905095945050505050565b5f60045f8381526020019081526020015f205f01601a9054906101000a900463ffffffff1663ffffffff1660045f8481526020019081526020015f205f0160149054906101000a900465ffffffffffff1661408c9190619837565b65ffffffffffff169050919050565b6140a3616734565b5f808573ffffffffffffffffffffffffffffffffffffffff168585856040516140cd92919061932e565b5f6040518083038185875af1925050503d805f8114614107576040519150601f19603f3d011682016040523d82523d5f602084013e61410c565b606091505b509150915061411b8282616829565b50505050505050565b5f8484848460405160200161413c9493929190619a25565b604051602081830303815290604052805190602001205f1c9050949350505050565b61416661735a565b60145f8381526020019081526020015f20604051806101000160405290815f8201548152602001600182015f9054906101000a900473ffffffffffffffffffffffffffffffffffffffff1673ffffffffffffffffffffffffffffffffffffffff1673ffffffffffffffffffffffffffffffffffffffff1681526020016002820180546141f190618d70565b80601f016020809104026020016040519081016040528092919081815260200182805461421d90618d70565b80156142685780601f1061423f57610100808354040283529160200191614268565b820191905f5260205f20905b81548152906001019060200180831161424b57829003601f168201915b5050505050815260200160038201548152602001600482015f9054906101000a900460ff161515151581526020016004820160019054906101000a900460ff1660048111156142ba576142b96175c1565b5b60048111156142cc576142cb6175c1565b5b81526020016004820160029054906101000a900473ffffffffffffffffffffffffffffffffffffffff1673ffffffffffffffffffffffffffffffffffffffff1673ffffffffffffffffffffffffffffffffffffffff1681526020016005820154815250509050919050565b5f601054826143469190618f51565b905080600d5f9054906101000a900473ffffffffffffffffffffffffffffffffffffffff1673ffffffffffffffffffffffffffffffffffffffff166370a08231306040518263ffffffff1660e01b81526004016143a391906179b8565b602060405180830381865afa1580156143be573d5f803e3d5ffd5b505050506040513d601f19601f820116820180604052508101906143e29190619205565b1015614423576040517f08c379a000000000000000000000000000000000000000000000000000000000815260040161441a90619aed565b60405180910390fd5b600d5f9054906101000a900473ffffffffffffffffffffffffffffffffffffffff1673ffffffffffffffffffffffffffffffffffffffff1663a64b6e5f3033600d5f9054906101000a900473ffffffffffffffffffffffffffffffffffffffff1673ffffffffffffffffffffffffffffffffffffffff1663313ce5676040518163ffffffff1660e01b8152600401602060405180830381865afa1580156144cc573d5f803e3d5ffd5b505050506040513d601f19601f820116820180604052508101906144f09190618fa6565b600a6144fc9190619100565b856145079190618f51565b6040518463ffffffff1660e01b81526004016145259392919061914a565b6020604051808303815f875af1158015614541573d5f803e3d5ffd5b505050506040513d601f19601f820116820180604052508101906145659190619193565b508160165f3373ffffffffffffffffffffffffffffffffffffffff1673ffffffffffffffffffffffffffffffffffffffff1681526020019081526020015f206002015f8282546145b591906191be565b925050819055505050565b6013602052815f5260405f2081815481106145d9575f80fd5b905f5260205f20015f91509150505481565b6012602052815f5260405f20602052805f5260405f205f91509150505481565b5f8060155f8481526020019081526020015f2090505f60145f8581526020019081526020015f2090505f6004811115614647576146466175c1565b5b8160040160019054906101000a900460ff16600481111561466b5761466a6175c1565b5b14806146ac575060016004811115614686576146856175c1565b5b8160040160019054906101000a900460ff1660048111156146aa576146a96175c1565b5b145b15614779575f6064601e600f54600c5f9054906101000a900473ffffffffffffffffffffffffffffffffffffffff1673ffffffffffffffffffffffffffffffffffffffff166318160ddd6040518163ffffffff1660e01b8152600401602060405180830381865afa158015614723573d5f803e3d5ffd5b505050506040513d601f19601f820116820180604052508101906147479190619205565b6147519190619b38565b61475b9190618f51565b6147659190619b38565b90508083600501541015935050505061487c565b5f600281111561478c5761478b6175c1565b5b8260040160019054906101000a900460ff1660028111156147b0576147af6175c1565b5b036147c95781600601548260050154119250505061487c565b600160028111156147dd576147dc6175c1565b5b8260040160019054906101000a900460ff166002811115614801576148006175c1565b5b0361484157600360028360060154846005015461481e91906191be565b6148289190618f51565b6148329190619b38565b8260050154119250505061487c565b6040517f08c379a000000000000000000000000000000000000000000000000000000000815260040161487390619bb2565b60405180910390fd5b919050565b60016002811115614895576148946175c1565b5b60165f8373ffffffffffffffffffffffffffffffffffffffff1673ffffffffffffffffffffffffffffffffffffffff1681526020019081526020015f2060010160149054906101000a900460ff1660028111156148f5576148f46175c1565b5b14614935576040517f08c379a000000000000000000000000000000000000000000000000000000000815260040161492c90619c1a565b60405180910390fd5b5f60165f8373ffffffffffffffffffffffffffffffffffffffff1673ffffffffffffffffffffffffffffffffffffffff1681526020019081526020015f2060010160146101000a81548160ff02191690836002811115614998576149976175c1565b5b021790555050565b606060405180606001604052806028815260200161a5da60289139905090565b7ff2aad550cf55f045cb27e9c559f9889fdfb6e6cdaa032301d6ea397784ae51d781565b5f60155f8581526020019081526020015f209050614c2381604051806101400160405290815f82015f9054906101000a900473ffffffffffffffffffffffffffffffffffffffff1673ffffffffffffffffffffffffffffffffffffffff1673ffffffffffffffffffffffffffffffffffffffff168152602001600182018054614a6c90618d70565b80601f0160208091040260200160405190810160405280929190818152602001828054614a9890618d70565b8015614ae35780601f10614aba57610100808354040283529160200191614ae3565b820191905f5260205f20905b815481529060010190602001808311614ac657829003601f168201915b505050505081526020016002820154815260200160038201548152602001600482015f9054906101000a900460ff166004811115614b2457614b236175c1565b5b6004811115614b3657614b356175c1565b5b81526020016004820160019054906101000a900460ff166002811115614b5f57614b5e6175c1565b5b6002811115614b7157614b706175c1565b5b815260200160058201548152602001600682015481526020016007820154815260200160088201805480602002602001604051908101604052809291908181526020018280548015614c1557602002820191905f5260205f20905b815f9054906101000a900473ffffffffffffffffffffffffffffffffffffffff1673ffffffffffffffffffffffffffffffffffffffff1681526020019060010190808311614bcc575b5050505050815250506156b2565b5f60125f8681526020019081526020015f205f8573ffffffffffffffffffffffffffffffffffffffff1673ffffffffffffffffffffffffffffffffffffffff1681526020019081526020015f205490505f8111614cb5576040517f08c379a0000000000000000000000000000000000000000000000000000000008152600401614cac90619ca8565b60405180910390fd5b82600d5f9054906101000a900473ffffffffffffffffffffffffffffffffffffffff1673ffffffffffffffffffffffffffffffffffffffff166370a08231336040518263ffffffff1660e01b8152600401614d1091906179b8565b602060405180830381865afa158015614d2b573d5f803e3d5ffd5b505050506040513d601f19601f82011682018060405250810190614d4f9190619205565b1015614d90576040517f08c379a0000000000000000000000000000000000000000000000000000000008152600401614d8790619d10565b60405180910390fd5b5f600e5484614d9f9190619b38565b9050600d5f9054906101000a900473ffffffffffffffffffffffffffffffffffffffff1673ffffffffffffffffffffffffffffffffffffffff1663a64b6e5f3330876040518463ffffffff1660e01b8152600401614dff9392919061914a565b6020604051808303815f875af1158015614e1b573d5f803e3d5ffd5b505050506040513d601f19601f82011682018060405250810190614e3f9190619193565b505f60115f8881526020019081526020015f205f8773ffffffffffffffffffffffffffffffffffffffff1673ffffffffffffffffffffffffffffffffffffffff1681526020019081526020015f206003015f9054906101000a900460ff1690508015614ec45781846005015f828254614eb891906191be565b92505081905550614edf565b81846006015f828254614ed791906191be565b925050819055505b81846007015f828254614ef291906191be565b9250508190555060405180608001604052808881526020018773ffffffffffffffffffffffffffffffffffffffff16815260200186815260200182151581525060115f8981526020019081526020015f205f3373ffffffffffffffffffffffffffffffffffffffff1673ffffffffffffffffffffffffffffffffffffffff1681526020019081526020015f205f820151815f01556020820151816001015f6101000a81548173ffffffffffffffffffffffffffffffffffffffff021916908373ffffffffffffffffffffffffffffffffffffffff160217905550604082015181600201556060820151816003015f6101000a81548160ff021916908315150217905550905050868673ffffffffffffffffffffffffffffffffffffffff163373ffffffffffffffffffffffffffffffffffffffff167f3963b9e28ceb6fe524e7c84764f3c60d1286239a6761033bb6b1f43fed1ed122856040516150569190617750565b60405180910390a450505050505050565b5f61507a838361507561684d565b61668f565b905092915050565b5f3073ffffffffffffffffffffffffffffffffffffffff166150a2610fbf565b73ffffffffffffffffffffffffffffffffffffffff16146150ef576040517fe90a651e00000000000000000000000000000000000000000000000000000000815260040160405180910390fd5b63f23a6e6160e01b905095945050505050565b5f60019050919050565b60405180608001604052808381526020018473ffffffffffffffffffffffffffffffffffffffff16815260200182600281111561514c5761514b6175c1565b5b81526020015f81525060165f8573ffffffffffffffffffffffffffffffffffffffff1673ffffffffffffffffffffffffffffffffffffffff1681526020019081526020015f205f820151815f0190816151a59190619eb0565b506020820151816001015f6101000a81548173ffffffffffffffffffffffffffffffffffffffff021916908373ffffffffffffffffffffffffffffffffffffffff16021790555060408201518160010160146101000a81548160ff02191690836002811115615217576152166175c1565b5b021790555060608201518160020155905050505050565b5f7f01ffc9a7000000000000000000000000000000000000000000000000000000007bffffffffffffffffffffffffffffffffffffffffffffffffffffffff1916827bffffffffffffffffffffffffffffffffffffffffffffffffffffffff1916149050919050565b5f806152a58a8a8a8a6138e9565b90506040518061010001604052808281526020013373ffffffffffffffffffffffffffffffffffffffff1681526020018881526020018281526020015f151581526020018660048111156152fc576152fb6175c1565b5b81526020018573ffffffffffffffffffffffffffffffffffffffff1681526020018481525060145f8381526020019081526020015f205f820151815f01556020820151816001015f6101000a81548173ffffffffffffffffffffffffffffffffffffffff021916908373ffffffffffffffffffffffffffffffffffffffff16021790555060408201518160020190816153959190619eb0565b50606082015181600301556080820151816004015f6101000a81548160ff02191690831515021790555060a08201518160040160016101000a81548160ff021916908360048111156153ea576153e96175c1565b5b021790555060c08201518160040160026101000a81548173ffffffffffffffffffffffffffffffffffffffff021916908373ffffffffffffffffffffffffffffffffffffffff16021790555060e082015181600501559050506040518061014001604052803373ffffffffffffffffffffffffffffffffffffffff1681526020018881526020015f81526020015f81526020015f60048111156154905761548f6175c1565b5b81526020018760028111156154a8576154a76175c1565b5b81526020015f81526020015f81526020015f81526020015f67ffffffffffffffff8111156154d9576154d86177b4565b5b6040519080825280602002602001820160405280156155075781602001602082028036833780820191505090505b5081525060155f8381526020019081526020015f205f820151815f015f6101000a81548173ffffffffffffffffffffffffffffffffffffffff021916908373ffffffffffffffffffffffffffffffffffffffff16021790555060208201518160010190816155759190619eb0565b5060408201518160020155606082015181600301556080820151816004015f6101000a81548160ff021916908360048111156155b4576155b36175c1565b5b021790555060a08201518160040160016101000a81548160ff021916908360028111156155e4576155e36175c1565b5b021790555060c0820151816005015560e0820151816006015561010082015181600701556101208201518160080190805190602001906156259291906173d8565b5090505060145f8281526020019081526020015f206004015f9054906101000a900460ff1615153373ffffffffffffffffffffffffffffffffffffffff167f6e5ff65942168f407267df52322b098c97c30a36b8d1ca3ca159a1542a30922283888b898960405161569a959493929190619f7f565b60405180910390a38091505098975050505050505050565b600360048111156156c6576156c56175c1565b5b816080015160048111156156dd576156dc6175c1565b5b1461571d576040517f08c379a00000000000000000000000000000000000000000000000000000000081526004016157149061a021565b60405180910390fd5b8060600151421115615764576040517f08c379a000000000000000000000000000000000000000000000000000000000815260040161575b9061a089565b60405180910390fd5b50565b5f8060155f8481526020019081526020015f2090508060060154816005015411915050919050565b5f60145f8381526020019081526020015f2090505f60048111156157b6576157b56175c1565b5b8160040160019054906101000a900460ff1660048111156157da576157d96175c1565b5b0361585a578060040160029054906101000a900473ffffffffffffffffffffffffffffffffffffffff1673ffffffffffffffffffffffffffffffffffffffff167f8594b6ec50dc6d717d6e9cace88338a5eedb2517861dcfab8656725b4806ac5c826005015460405161584d9190617750565b60405180910390a2615a9c565b6001600481111561586e5761586d6175c1565b5b8160040160019054906101000a900460ff166004811115615892576158916175c1565b5b03615912578060040160029054906101000a900473ffffffffffffffffffffffffffffffffffffffff1673ffffffffffffffffffffffffffffffffffffffff167f52a0b53decb6eafa5de58e85e03cb356d11e53bfc08c4087ecf3cad05a52348882600501546040516159059190617750565b60405180910390a2615a9b565b60026004811115615926576159256175c1565b5b8160040160019054906101000a900460ff16600481111561594a576159496175c1565b5b036159e157600160165f8360040160029054906101000a900473ffffffffffffffffffffffffffffffffffffffff1673ffffffffffffffffffffffffffffffffffffffff1673ffffffffffffffffffffffffffffffffffffffff1681526020019081526020015f2060010160146101000a81548160ff021916908360028111156159d7576159d66175c1565b5b0217905550615a9a565b6004808111156159f4576159f36175c1565b5b8160040160019054906101000a900460ff166004811115615a1857615a176175c1565b5b03615a2d578060050154600e81905550615a99565b60036004811115615a4157615a406175c1565b5b8160040160019054906101000a900460ff166004811115615a6557615a646175c1565b5b03615a9857615a978160040160029054906101000a900473ffffffffffffffffffffffffffffffffffffffff16614881565b5b5b5b5b5b5050565b5f816007811115615ab457615ab36175c1565b5b60ff166001901b5f1b9050919050565b5f80615acf8461236a565b90505f801b83615ade83615aa0565b1603615b25578381846040517f31b75e4d000000000000000000000000000000000000000000000000000000008152600401615b1c9392919061a0a7565b60405180910390fd5b8091505092915050565b5f95945050505050565b5f825f0160109054906101000a90046fffffffffffffffffffffffffffffffff169050825f015f9054906101000a90046fffffffffffffffffffffffffffffffff166fffffffffffffffffffffffffffffffff16600182016fffffffffffffffffffffffffffffffff1603615bb357615bb26041616863565b5b81836001015f836fffffffffffffffffffffffffffffffff166fffffffffffffffffffffffffffffffff1681526020019081526020015f208190555060018101835f0160106101000a8154816fffffffffffffffffffffffffffffffff02191690836fffffffffffffffffffffffffffffffff160217905550505050565b5f5b8451811015615d0e575f80868381518110615c5157615c50618da0565b5b602002602001015173ffffffffffffffffffffffffffffffffffffffff16868481518110615c8257615c81618da0565b5b6020026020010151868581518110615c9d57615c9c618da0565b5b6020026020010151604051615cb2919061a10c565b5f6040518083038185875af1925050503d805f8114615cec576040519150601f19603f3d011682016040523d82523d5f602084013e615cf1565b606091505b5091509150615d008282616829565b505050806001019050615c33565b505050505050565b5f815f015f9054906101000a90046fffffffffffffffffffffffffffffffff166fffffffffffffffffffffffffffffffff16825f0160109054906101000a90046fffffffffffffffffffffffffffffffff166fffffffffffffffffffffffffffffffff16149050919050565b5f815f015f6101000a8154816fffffffffffffffffffffffffffffffff02191690836fffffffffffffffffffffffffffffffff1602179055505f815f0160106101000a8154816fffffffffffffffffffffffffffffffff02191690836fffffffffffffffffffffffffffffffff16021790555050565b5f8060155f8481526020019081526020015f2090505f6001600282615e1d9190619b38565b615e2791906191be565b82600601548360050154615e3b91906191be565b101592505050919050565b5f33905090565b5f80615e5b86868686614124565b9050615ebf81615e6b6007615aa0565b615e756006615aa0565b615e7f6002615aa0565b600180600780811115615e9557615e946175c1565b5b615e9f919061a122565b6002615eab9190619100565b615eb5919061a156565b5f1b181818615ac4565b50600160045f8381526020019081526020015f205f01601f6101000a81548160ff0219169083151502179055507f789cf55be980739dad1d0699b93b58e806b51c9d96619bfa8fe0a28abaa7b30c81604051615f1b9190617750565b60405180910390a180915050949350505050565b5f615f4485858585615f3f61684d565b616066565b9050949350505050565b5f60025f8373ffffffffffffffffffffffffffffffffffffffff1673ffffffffffffffffffffffffffffffffffffffff1681526020019081526020015f205f815480929190600101919050559050919050565b5f615fb3615fad616874565b8361692a565b9050919050565b5f808473ffffffffffffffffffffffffffffffffffffffff163b03616051575f80615fe5858561696a565b50915091505f6003811115615ffd57615ffc6175c1565b5b8160038111156160105761600f6175c1565b5b14801561604857508573ffffffffffffffffffffffffffffffffffffffff168273ffffffffffffffffffffffffffffffffffffffff16145b9250505061605f565b61605c8484846169bf565b90505b9392505050565b5f61607a866160756001615aa0565b615ac4565b505f61608f8661608989612017565b8561668f565b90505f61609f8888888588616170565b90505f845103616102578673ffffffffffffffffffffffffffffffffffffffff167fb8e138887d0aa13bab447e82de9d5c1777041ecd21ca36ba824ff1e6c07ddda4898884896040516160f5949392919061a189565b60405180910390a2616159565b8673ffffffffffffffffffffffffffffffffffffffff167fe2babfbac5889a709b63bb7f598b324e08bc5a4fb9ec647fb3cbc9ec07eb8712898884898960405161615095949392919061a21b565b60405180910390a25b61616288616ade565b809250505095945050505050565b5f8060155f8881526020019081526020015f20905061618f8787612513565b156161cf576040517f08c379a00000000000000000000000000000000000000000000000000000000081526004016161c69061940c565b60405180910390fd5b60018560ff1603616205576003846161e79190619b38565b816005015f8282546161f991906191be565b92505081905550616237565b5f8560ff16036162365760038461621c9190619b38565b816006015f82825461622e91906191be565b925050819055505b5b83816007015f82825461624a91906191be565b925050819055508360125f8981526020019081526020015f205f8873ffffffffffffffffffffffffffffffffffffffff1673ffffffffffffffffffffffffffffffffffffffff1681526020019081526020015f20819055508391505095945050505050565b5f808251905060348110156162c857600191505061638f565b5f6162d68460348403616ae1565b90507f2370726f706f7365723d0000000000000000000000000000000000000000000075ffffffffffffffffffffffffffffffffffffffffffff19168175ffffffffffffffffffffffffffffffffffffffffffff19161461633c5760019250505061638f565b5f8061634c86602a860386616af1565b9150915081158061638857508673ffffffffffffffffffffffffffffffffffffffff168173ffffffffffffffffffffffffffffffffffffffff16145b9450505050505b92915050565b5f6163a98686868680519060200120614124565b9050845186511415806163be57508351865114155b806163c957505f8651145b15616412578551845186516040517f447b05d00000000000000000000000000000000000000000000000000000000081526004016164099392919061a27a565b60405180910390fd5b5f60045f8381526020019081526020015f205f0160149054906101000a900465ffffffffffff1665ffffffffffff161461649157806164508261236a565b5f801b6040517f31b75e4d0000000000000000000000000000000000000000000000000000000081526004016164889392919061a0a7565b60405180910390fd5b5f61649a612071565b6164a2613deb565b65ffffffffffff166164b491906191be565b90505f6164bf6111c9565b90505f60045f8581526020019081526020015f20905084815f015f6101000a81548173ffffffffffffffffffffffffffffffffffffffff021916908373ffffffffffffffffffffffffffffffffffffffff16021790555061651f83616c02565b815f0160146101000a81548165ffffffffffff021916908365ffffffffffff16021790555061654d82616c5b565b815f01601a6101000a81548163ffffffff021916908363ffffffff1602179055507f7d84a6263ae0d98d3329bd7b46bb4e8d6f98cd35a7adb45c274c8b7fd5ebd5e084868b8b8d5167ffffffffffffffff8111156165ae576165ad6177b4565b5b6040519080825280602002602001820160405280156165e157816020015b60608152602001906001900390816165cc5790505b508c89898b6165f091906191be565b8e6040516166069998979695949392919061a36a565b60405180910390a150505095945050505050565b606061664f5f7f0000000000000000000000000000000000000000000000000000000000000000616cb290919063ffffffff16565b905090565b606061668a60017f0000000000000000000000000000000000000000000000000000000000000000616cb290919063ffffffff16565b905090565b5f600c5f9054906101000a900473ffffffffffffffffffffffffffffffffffffffff1673ffffffffffffffffffffffffffffffffffffffff16633a46b1a885856040518363ffffffff1660e01b81526004016166ec929190618dcd565b602060405180830381865afa158015616707573d5f803e3d5ffd5b505050506040513d601f19601f8201168201806040525081019061672b9190619205565b90509392505050565b61673c615e46565b73ffffffffffffffffffffffffffffffffffffffff1661675a610fbf565b73ffffffffffffffffffffffffffffffffffffffff16146167b95761677d615e46565b6040517f47096e470000000000000000000000000000000000000000000000000000000081526004016167b091906179b8565b60405180910390fd5b3073ffffffffffffffffffffffffffffffffffffffff166167d8610fbf565b73ffffffffffffffffffffffffffffffffffffffff1614616827575f6167fc616d5f565b60405161680a92919061932e565b604051809103902090505b806168206005616d6b565b0361681557505b565b60608261683e5761683982616e99565b616846565b819050616847565b5b92915050565b606060405180602001604052805f815250905090565b634e487b715f52806020526024601cfd5b5f7f000000000000000000000000000000000000000000000000000000000000000073ffffffffffffffffffffffffffffffffffffffff163073ffffffffffffffffffffffffffffffffffffffff161480156168ef57507f000000000000000000000000000000000000000000000000000000000000000046145b1561691c577f00000000000000000000000000000000000000000000000000000000000000009050616927565b616924616edd565b90505b90565b5f6040517f190100000000000000000000000000000000000000000000000000000000000081528360028201528260228201526042812091505092915050565b5f805f60418451036169aa575f805f602087015192506040870151915060608701515f1a905061699c88828585616f72565b9550955095505050506169b8565b5f600285515f1b9250925092505b9250925092565b5f805f8573ffffffffffffffffffffffffffffffffffffffff1685856040516024016169ec92919061a418565b604051602081830303815290604052631626ba7e60e01b6020820180517bffffffffffffffffffffffffffffffffffffffffffffffffffffffff8381831617835250505050604051616a3e919061a10c565b5f60405180830381855afa9150503d805f8114616a76576040519150601f19603f3d011682016040523d82523d5f602084013e616a7b565b606091505b5091509150818015616a8f57506020815110155b8015616ad35750631626ba7e60e01b7bffffffffffffffffffffffffffffffffffffffffffffffffffffffff191681806020019051810190616ad1919061a45a565b145b925050509392505050565b50565b5f81602001830151905092915050565b5f808451831180616b0157508284115b15616b11575f8091509150616bfa565b5f600185616b1f91906191be565b84118015616b9757507f30780000000000000000000000000000000000000000000000000000000000007dffffffffffffffffffffffffffffffffffffffffffffffffffffffffffff1916616b748787617059565b7dffffffffffffffffffffffffffffffffffffffffffffffffffffffffffff1916145b90505f6002616ba7831515617069565b616bb19190618f51565b6028616bbd91906191be565b9050808686616bcc919061a156565b03616bf1575f80616bde898989617074565b9150915081819550955050505050616bfa565b5f809350935050505b935093915050565b5f65ffffffffffff8016821115616c53576030826040517f6dfcc650000000000000000000000000000000000000000000000000000000008152600401616c4a92919061a4be565b60405180910390fd5b819050919050565b5f63ffffffff8016821115616caa576020826040517f6dfcc650000000000000000000000000000000000000000000000000000000008152600401616ca192919061a51e565b60405180910390fd5b819050919050565b606060ff5f1b8314616cce57616cc78361719f565b9050616d59565b818054616cda90618d70565b80601f0160208091040260200160405190810160405280929190818152602001828054616d0690618d70565b8015616d515780601f10616d2857610100808354040283529160200191616d51565b820191905f5260205f20905b815481529060010190602001808311616d3457829003601f168201915b505050505090505b92915050565b365f8036915091509091565b5f80825f015f9054906101000a90046fffffffffffffffffffffffffffffffff169050825f0160109054906101000a90046fffffffffffffffffffffffffffffffff166fffffffffffffffffffffffffffffffff16816fffffffffffffffffffffffffffffffff1603616de357616de26031616863565b5b826001015f826fffffffffffffffffffffffffffffffff166fffffffffffffffffffffffffffffffff1681526020019081526020015f20549150826001015f826fffffffffffffffffffffffffffffffff166fffffffffffffffffffffffffffffffff1681526020019081526020015f205f905560018101835f015f6101000a8154816fffffffffffffffffffffffffffffffff02191690836fffffffffffffffffffffffffffffffff16021790555050919050565b5f81511115616eab5780518082602001fd5b6040517fd6bda27500000000000000000000000000000000000000000000000000000000815260040160405180910390fd5b5f7f8b73c3c69bb8fe3d512ecc4cf759cc79239f7b179b0ffacaa9a75d522b39400f7f00000000000000000000000000000000000000000000000000000000000000007f00000000000000000000000000000000000000000000000000000000000000004630604051602001616f5795949392919061a545565b60405160208183030381529060405280519060200120905090565b5f805f7f7fffffffffffffffffffffffffffffff5d576e7357a4501ddfe92f46681b20a0845f1c1115616fae575f60038592509250925061704f565b5f6001888888886040515f8152602001604052604051616fd1949392919061a596565b6020604051602081039080840390855afa158015616ff1573d5f803e3d5ffd5b5050506020604051035190505f73ffffffffffffffffffffffffffffffffffffffff168173ffffffffffffffffffffffffffffffffffffffff1603617042575f60015f801b9350935093505061704f565b805f805f1b935093509350505b9450945094915050565b5f81602001830151905092915050565b5f8115159050919050565b5f805f8590505f60018661708891906191be565b8511801561710057507f30780000000000000000000000000000000000000000000000000000000000007dffffffffffffffffffffffffffffffffffffffffffffffffffffffffffff19166170dd8388617059565b7dffffffffffffffffffffffffffffffffffffffffffffffffffffffffffff1916145b90505f6002617110831515617069565b61711a9190618f51565b90505f80828961712a91906191be565b90505b8781101561718a575f6171486171438784617059565b617211565b9050600f8160ff161115617167575f8097509750505050505050617197565b6010836171749190618f51565b92508060ff16830192505080600101905061712d565b5060018195509550505050505b935093915050565b60605f6171ab836172a1565b90505f602067ffffffffffffffff8111156171c9576171c86177b4565b5b6040519080825280601f01601f1916602001820160405280156171fb5781602001600182028036833780820191505090505b5090508181528360208201528092505050919050565b5f808260f81c9050602f8160ff1611801561722f5750603a8160ff16105b1561723f57603081039050617297565b60608160ff16118015617255575060678160ff16105b1561726557605781039050617296565b60408160ff1611801561727b575060478160ff16105b1561728b57603781039050617295565b60ff91505061729c565b5b5b809150505b919050565b5f8060ff835f1c169050601f8111156172e6576040517fb3512b0c00000000000000000000000000000000000000000000000000000000815260040160405180910390fd5b80915050919050565b5080545f8255905f5260205f209081019061730a919061745f565b50565b6040518060800160405280606081526020015f73ffffffffffffffffffffffffffffffffffffffff1681526020015f600281111561734e5761734d6175c1565b5b81526020015f81525090565b6040518061010001604052805f81526020015f73ffffffffffffffffffffffffffffffffffffffff168152602001606081526020015f81526020015f151581526020015f60048111156173b0576173af6175c1565b5b81526020015f73ffffffffffffffffffffffffffffffffffffffff1681526020015f81525090565b828054828255905f5260205f2090810192821561744e579160200282015b8281111561744d578251825f6101000a81548173ffffffffffffffffffffffffffffffffffffffff021916908373ffffffffffffffffffffffffffffffffffffffff160217905550916020019190600101906173f6565b5b50905061745b919061745f565b5090565b5b80821115617476575f815f905550600101617460565b5090565b5f604051905090565b5f80fd5b5f80fd5b5f819050919050565b61749d8161748b565b81146174a7575f80fd5b50565b5f813590506174b881617494565b92915050565b5f602082840312156174d3576174d2617483565b5b5f6174e0848285016174aa565b91505092915050565b6174f28161748b565b82525050565b5f73ffffffffffffffffffffffffffffffffffffffff82169050919050565b5f617521826174f8565b9050919050565b61753181617517565b82525050565b5f81519050919050565b5f82825260208201905092915050565b8281835e5f83830152505050565b5f601f19601f8301169050919050565b5f61757982617537565b6175838185617541565b9350617593818560208601617551565b61759c8161755f565b840191505092915050565b5f8115159050919050565b6175bb816175a7565b82525050565b7f4e487b71000000000000000000000000000000000000000000000000000000005f52602160045260245ffd5b600581106175ff576175fe6175c1565b5b50565b5f81905061760f826175ee565b919050565b5f61761e82617602565b9050919050565b61762e81617614565b82525050565b5f610100820190506176485f83018b6174e9565b617655602083018a617528565b8181036040830152617667818961756f565b905061767660608301886174e9565b61768360808301876175b2565b61769060a0830186617625565b61769d60c0830185617528565b6176aa60e08301846174e9565b9998505050505050505050565b5f7fffffffff0000000000000000000000000000000000000000000000000000000082169050919050565b6176eb816176b7565b81146176f5575f80fd5b50565b5f81359050617706816176e2565b92915050565b5f6020828403121561772157617720617483565b5b5f61772e848285016176f8565b91505092915050565b5f60208201905061774a5f8301846175b2565b92915050565b5f6020820190506177635f8301846174e9565b92915050565b5f6020820190508181035f830152617781818461756f565b905092915050565b60058110617795575f80fd5b50565b5f813590506177a681617789565b92915050565b5f80fd5b5f80fd5b7f4e487b71000000000000000000000000000000000000000000000000000000005f52604160045260245ffd5b6177ea8261755f565b810181811067ffffffffffffffff82111715617809576178086177b4565b5b80604052505050565b5f61781b61747a565b905061782782826177e1565b919050565b5f67ffffffffffffffff821115617846576178456177b4565b5b61784f8261755f565b9050602081019050919050565b828183375f83830152505050565b5f61787c6178778461782c565b617812565b905082815260208101848484011115617898576178976177b0565b5b6178a384828561785c565b509392505050565b5f82601f8301126178bf576178be6177ac565b5b81356178cf84826020860161786a565b91505092915050565b600381106178e4575f80fd5b50565b5f813590506178f5816178d8565b92915050565b61790481617517565b811461790e575f80fd5b50565b5f8135905061791f816178fb565b92915050565b5f805f805f60a0868803121561793e5761793d617483565b5b5f61794b88828901617798565b955050602086013567ffffffffffffffff81111561796c5761796b617487565b5b617978888289016178ab565b9450506040617989888289016178e7565b935050606061799a88828901617911565b92505060806179ab888289016174aa565b9150509295509295909350565b5f6020820190506179cb5f830184617528565b92915050565b5f67ffffffffffffffff8211156179eb576179ea6177b4565b5b6179f48261755f565b9050602081019050919050565b5f617a13617a0e846179d1565b617812565b905082815260208101848484011115617a2f57617a2e6177b0565b5b617a3a84828561785c565b509392505050565b5f82601f830112617a5657617a556177ac565b5b8135617a66848260208601617a01565b91505092915050565b5f805f8060808587031215617a8757617a86617483565b5b5f617a9487828801617911565b9450506020617aa587828801617911565b9350506040617ab6878288016174aa565b925050606085013567ffffffffffffffff811115617ad757617ad6617487565b5b617ae387828801617a42565b91505092959194509250565b617af8816176b7565b82525050565b5f602082019050617b115f830184617aef565b92915050565b5f67ffffffffffffffff821115617b3157617b306177b4565b5b602082029050602081019050919050565b5f80fd5b5f617b58617b5384617b17565b617812565b90508083825260208201905060208402830185811115617b7b57617b7a617b42565b5b835b81811015617ba45780617b908882617911565b845260208401935050602081019050617b7d565b5050509392505050565b5f82601f830112617bc257617bc16177ac565b5b8135617bd2848260208601617b46565b91505092915050565b5f67ffffffffffffffff821115617bf557617bf46177b4565b5b602082029050602081019050919050565b5f617c18617c1384617bdb565b617812565b90508083825260208201905060208402830185811115617c3b57617c3a617b42565b5b835b81811015617c645780617c5088826174aa565b845260208401935050602081019050617c3d565b5050509392505050565b5f82601f830112617c8257617c816177ac565b5b8135617c92848260208601617c06565b91505092915050565b5f67ffffffffffffffff821115617cb557617cb46177b4565b5b602082029050602081019050919050565b5f617cd8617cd384617c9b565b617812565b90508083825260208201905060208402830185811115617cfb57617cfa617b42565b5b835b81811015617d4257803567ffffffffffffffff811115617d2057617d1f6177ac565b5b808601617d2d8982617a42565b85526020850194505050602081019050617cfd565b5050509392505050565b5f82601f830112617d6057617d5f6177ac565b5b8135617d70848260208601617cc6565b91505092915050565b5f819050919050565b617d8b81617d79565b8114617d95575f80fd5b50565b5f81359050617da681617d82565b92915050565b5f805f8060808587031215617dc457617dc3617483565b5b5f85013567ffffffffffffffff811115617de157617de0617487565b5b617ded87828801617bae565b945050602085013567ffffffffffffffff811115617e0e57617e0d617487565b5b617e1a87828801617c6e565b935050604085013567ffffffffffffffff811115617e3b57617e3a617487565b5b617e4787828801617d4c565b9250506060617e5887828801617d98565b91505092959194509250565b617e6d81617d79565b82525050565b5f602082019050617e865f830184617e64565b92915050565b60088110617e9d57617e9c6175c1565b5b50565b5f819050617ead82617e8c565b919050565b5f617ebc82617ea0565b9050919050565b617ecc81617eb2565b82525050565b5f602082019050617ee55f830184617ec3565b92915050565b5f8060408385031215617f0157617f00617483565b5b5f617f0e85828601617911565b9250506020617f1f858286016174aa565b9150509250929050565b5f8060408385031215617f3f57617f3e617483565b5b5f617f4c858286016174aa565b9250506020617f5d85828601617911565b9150509250929050565b5f60208284031215617f7c57617f7b617483565b5b5f617f8984828501617911565b91505092915050565b5f60ff82169050919050565b617fa781617f92565b8114617fb1575f80fd5b50565b5f81359050617fc281617f9e565b92915050565b5f8060408385031215617fde57617fdd617483565b5b5f617feb858286016174aa565b9250506020617ffc85828601617fb4565b9150509250929050565b5f80fd5b5f8083601f84011261801f5761801e6177ac565b5b8235905067ffffffffffffffff81111561803c5761803b618006565b5b60208301915083600182028301111561805857618057617b42565b5b9250929050565b5f805f805f805f60c0888a03121561807a57618079617483565b5b5f6180878a828b016174aa565b97505060206180988a828b01617fb4565b96505060406180a98a828b01617911565b955050606088013567ffffffffffffffff8111156180ca576180c9617487565b5b6180d68a828b0161800a565b9450945050608088013567ffffffffffffffff8111156180f9576180f8617487565b5b6181058a828b01617a42565b92505060a088013567ffffffffffffffff81111561812657618125617487565b5b6181328a828b01617a42565b91505092959891949750929550565b5f805f805f6080868803121561815a57618159617483565b5b5f618167888289016174aa565b955050602061817888828901617fb4565b945050604086013567ffffffffffffffff81111561819957618198617487565b5b6181a58882890161800a565b9350935050606086013567ffffffffffffffff8111156181c8576181c7617487565b5b6181d488828901617a42565b9150509295509295909350565b6181ea816175a7565b81146181f4575f80fd5b50565b5f81359050618205816181e1565b92915050565b5f805f6060848603121561822257618221617483565b5b5f61822f868287016174aa565b9350506020618240868287016181f7565b9250506040618251868287016174aa565b9150509250925092565b5f82825260208201905092915050565b5f61827582617537565b61827f818561825b565b935061828f818560208601617551565b6182988161755f565b840191505092915050565b6182ac81617517565b82525050565b600381106182c3576182c26175c1565b5b50565b5f8190506182d3826182b2565b919050565b5f6182e2826182c6565b9050919050565b6182f2816182d8565b82525050565b6183018161748b565b82525050565b5f608083015f8301518482035f860152618321828261826b565b915050602083015161833660208601826182a3565b50604083015161834960408601826182e9565b50606083015161835c60608601826182f8565b508091505092915050565b5f6020820190508181035f83015261837f8184618307565b905092915050565b5f805f806060858703121561839f5761839e617483565b5b5f6183ac878288016174aa565b94505060206183bd87828801617fb4565b935050604085013567ffffffffffffffff8111156183de576183dd617487565b5b6183ea8782880161800a565b925092505092959194509250565b5f805f80608085870312156184105761840f617483565b5b5f85013567ffffffffffffffff81111561842d5761842c617487565b5b61843987828801617bae565b945050602085013567ffffffffffffffff81111561845a57618459617487565b5b61846687828801617c6e565b935050604085013567ffffffffffffffff81111561848757618486617487565b5b61849387828801617d4c565b925050606085013567ffffffffffffffff8111156184b4576184b3617487565b5b6184c0878288016178ab565b91505092959194509250565b5f7fff0000000000000000000000000000000000000000000000000000000000000082169050919050565b618500816184cc565b82525050565b5f81519050919050565b5f82825260208201905092915050565b5f819050602082019050919050565b5f61853a83836182f8565b60208301905092915050565b5f602082019050919050565b5f61855c82618506565b6185668185618510565b935061857183618520565b805f5b838110156185a1578151618588888261852f565b975061859383618546565b925050600181019050618574565b5085935050505092915050565b5f60e0820190506185c15f83018a6184f7565b81810360208301526185d3818961756f565b905081810360408301526185e7818861756f565b90506185f660608301876174e9565b6186036080830186617528565b61861060a0830185617e64565b81810360c08301526186228184618552565b905098975050505050505050565b5f805f806080858703121561864857618647617483565b5b5f618655878288016174aa565b945050602061866687828801617fb4565b935050604061867787828801617911565b925050606085013567ffffffffffffffff81111561869857618697617487565b5b6186a487828801617a42565b91505092959194509250565b5f80604083850312156186c6576186c5617483565b5b5f6186d3858286016174aa565b92505060206186e4858286016174aa565b9150509250929050565b5f65ffffffffffff82169050919050565b618708816186ee565b82525050565b5f6020820190506187215f8301846186ff565b92915050565b5f60808201905061873a5f8301876174e9565b6187476020830186617528565b61875460408301856174e9565b61876160608301846175b2565b95945050505050565b5f805f6060848603121561878157618780617483565b5b5f61878e86828701617911565b935050602061879f868287016174aa565b925050604084013567ffffffffffffffff8111156187c0576187bf617487565b5b6187cc86828701617a42565b9150509250925092565b600581106187e7576187e66175c1565b5b50565b5f8190506187f7826187d6565b919050565b5f618806826187ea565b9050919050565b618816816187fc565b82525050565b6003811061882d5761882c6175c1565b5b50565b5f81905061883d8261881c565b919050565b5f61884c82618830565b9050919050565b61885c81618842565b82525050565b5f610120820190506188765f83018c617528565b8181036020830152618888818b61756f565b9050618897604083018a6174e9565b6188a460608301896174e9565b6188b1608083018861880d565b6188be60a0830187618853565b6188cb60c08301866174e9565b6188d860e08301856174e9565b6188e66101008301846174e9565b9a9950505050505050505050565b5f805f805f60a0868803121561890d5761890c617483565b5b5f61891a88828901617911565b955050602061892b88828901617911565b945050604086013567ffffffffffffffff81111561894c5761894b617487565b5b61895888828901617c6e565b935050606086013567ffffffffffffffff81111561897957618978617487565b5b61898588828901617c6e565b925050608086013567ffffffffffffffff8111156189a6576189a5617487565b5b6189b288828901617a42565b9150509295509295909350565b5f8083601f8401126189d4576189d36177ac565b5b8235905067ffffffffffffffff8111156189f1576189f0618006565b5b602083019150836001820283011115618a0d57618a0c617b42565b5b9250929050565b5f805f8060608587031215618a2c57618a2b617483565b5b5f618a3987828801617911565b9450506020618a4a878288016174aa565b935050604085013567ffffffffffffffff811115618a6b57618a6a617487565b5b618a77878288016189bf565b925092505092959194509250565b618a8e816175a7565b82525050565b618a9d81617614565b82525050565b5f61010083015f830151618ab95f8601826182f8565b506020830151618acc60208601826182a3565b5060408301518482036040860152618ae4828261826b565b9150506060830151618af960608601826182f8565b506080830151618b0c6080860182618a85565b5060a0830151618b1f60a0860182618a94565b5060c0830151618b3260c08601826182a3565b5060e0830151618b4560e08601826182f8565b508091505092915050565b5f6020820190508181035f830152618b688184618aa3565b905092915050565b60058110618b7c575f80fd5b50565b5f81359050618b8d81618b70565b92915050565b5f8060408385031215618ba957618ba8617483565b5b5f618bb685828601618b7f565b9250506020618bc7858286016174aa565b9150509250929050565b5f805f60608486031215618be857618be7617483565b5b5f618bf5868287016174aa565b9350506020618c0686828701617911565b9250506040618c17868287016174aa565b9150509250925092565b5f805f805f60a08688031215618c3a57618c39617483565b5b5f618c4788828901617911565b9550506020618c5888828901617911565b9450506040618c69888289016174aa565b9350506060618c7a888289016174aa565b925050608086013567ffffffffffffffff811115618c9b57618c9a617487565b5b618ca788828901617a42565b9150509295509295909350565b60038110618cc0575f80fd5b50565b5f81359050618cd181618cb4565b92915050565b5f805f60608486031215618cee57618ced617483565b5b5f618cfb86828701617911565b935050602084013567ffffffffffffffff811115618d1c57618d1b617487565b5b618d28868287016178ab565b9250506040618d3986828701618cc3565b9150509250925092565b7f4e487b71000000000000000000000000000000000000000000000000000000005f52602260045260245ffd5b5f6002820490506001821680618d8757607f821691505b602082108103618d9a57618d99618d43565b5b50919050565b7f4e487b71000000000000000000000000000000000000000000000000000000005f52603260045260245ffd5b5f604082019050618de05f830185617528565b618ded60208301846174e9565b9392505050565b7f50726f706f73616c20616c7265616479206578656375746564000000000000005f82015250565b5f618e28601983617541565b9150618e3382618df4565b602082019050919050565b5f6020820190508181035f830152618e5581618e1c565b9050919050565b7f566f74696e67206973207374696c6c206f6e676f696e670000000000000000005f82015250565b5f618e90601783617541565b9150618e9b82618e5c565b602082019050919050565b5f6020820190508181035f830152618ebd81618e84565b9050919050565b5f819050919050565b5f618ee7618ee2618edd846186ee565b618ec4565b61748b565b9050919050565b618ef781618ecd565b82525050565b5f604082019050618f105f8301856174e9565b618f1d6020830184618eee565b9392505050565b7f4e487b71000000000000000000000000000000000000000000000000000000005f52601160045260245ffd5b5f618f5b8261748b565b9150618f668361748b565b9250828202618f748161748b565b91508282048414831517618f8b57618f8a618f24565b5b5092915050565b5f81519050618fa081617f9e565b92915050565b5f60208284031215618fbb57618fba617483565b5b5f618fc884828501618f92565b91505092915050565b5f8160011c9050919050565b5f808291508390505b60018511156190265780860481111561900257619001618f24565b5b60018516156190115780820291505b808102905061901f85618fd1565b9450618fe6565b94509492505050565b5f8261903e57600190506190f9565b8161904b575f90506190f9565b8160018114619061576002811461906b5761909a565b60019150506190f9565b60ff84111561907d5761907c618f24565b5b8360020a91508482111561909457619093618f24565b5b506190f9565b5060208310610133831016604e8410600b84101617156190cf5782820a9050838111156190ca576190c9618f24565b5b6190f9565b6190dc8484846001618fdd565b925090508184048111156190f3576190f2618f24565b5b81810290505b9392505050565b5f61910a8261748b565b915061911583617f92565b92506191427fffffffffffffffffffffffffffffffffffffffffffffffffffffffffffffffff848461902f565b905092915050565b5f60608201905061915d5f830186617528565b61916a6020830185617528565b61917760408301846174e9565b949350505050565b5f8151905061918d816181e1565b92915050565b5f602082840312156191a8576191a7617483565b5b5f6191b58482850161917f565b91505092915050565b5f6191c88261748b565b91506191d38361748b565b92508282019050808211156191eb576191ea618f24565b5b92915050565b5f815190506191ff81617494565b92915050565b5f6020828403121561921a57619219617483565b5b5f619227848285016191f1565b91505092915050565b7f4f6e6c7920696e69746961746f722063616e2063616e63656c000000000000005f82015250565b5f619264601983617541565b915061926f82619230565b602082019050919050565b5f6020820190508181035f83015261929181619258565b9050919050565b7f546f6b656e207472616e73666572206661696c656400000000000000000000005f82015250565b5f6192cc601583617541565b91506192d782619298565b602082019050919050565b5f6020820190508181035f8301526192f9816192c0565b9050919050565b5f81905092915050565b5f6193158385619300565b935061932283858461785c565b82840190509392505050565b5f61933a82848661930a565b91508190509392505050565b61934f81617f92565b82525050565b5f60e0820190506193685f83018a617e64565b61937560208301896174e9565b6193826040830188619346565b61938f6060830187617528565b61939c60808301866174e9565b6193a960a0830185617e64565b6193b660c0830184617e64565b98975050505050505050565b7f416c726561647920766f746564000000000000000000000000000000000000005f82015250565b5f6193f6600d83617541565b9150619401826193c2565b602082019050919050565b5f6020820190508181035f830152619423816193ea565b9050919050565b7f43616e277420766f746520627920796f757273656c66000000000000000000005f82015250565b5f61945e601683617541565b91506194698261942a565b602082019050919050565b5f6020820190508181035f83015261948b81619452565b9050919050565b7f496e76616c696420746f6b656e20616d6f756e7420666f72206e6f6e2d696e765f8201527f6573746d656e742070726f706f73616c73000000000000000000000000000000602082015250565b5f6194ec603183617541565b91506194f782619492565b604082019050919050565b5f6020820190508181035f830152619519816194e0565b9050919050565b7f4e6f7420656e6f7567682050726f666920746f6b656e730000000000000000005f82015250565b5f619554601783617541565b915061955f82619520565b602082019050919050565b5f6020820190508181035f83015261958181619548565b9050919050565b5f60608201905061959b5f8301866175b2565b6195a860208301856174e9565b6195b560408301846174e9565b949350505050565b5f6195c7826186ee565b91506195d2836186ee565b9250828203905065ffffffffffff8111156195f0576195ef618f24565b5b92915050565b5f6060820190506196095f830186617528565b61961660208301856174e9565b61962360408301846174e9565b949350505050565b5f60a08201905061963e5f830188617e64565b61964b60208301876174e9565b6196586040830186619346565b6196656060830185617528565b61967260808301846174e9565b9695505050505050565b7f4f6e6c792070726f706f7365722063616e20737461727420766f74696e6700005f82015250565b5f6196b0601e83617541565b91506196bb8261967c565b602082019050919050565b5f6020820190508181035f8301526196dd816196a4565b9050919050565b7f566f74696e6720616c72656164792073746172746564000000000000000000005f82015250565b5f619718601683617541565b9150619723826196e4565b602082019050919050565b5f6020820190508181035f8301526197458161970c565b9050919050565b5f819050815f5260205f209050919050565b5f815461976a81618d70565b6197748186617541565b9450600182165f811461978e57600181146197a4576197d6565b60ff1983168652811515602002860193506197d6565b6197ad8561974c565b5f5b838110156197ce578154818901526001820191506020810190506197af565b808801955050505b50505092915050565b5f60a0820190506197f25f8301886174e9565b6197ff60208301876174e9565b61980c60408301866174e9565b61981960608301856174e9565b818103608083015261982b818461975e565b90509695505050505050565b5f619841826186ee565b915061984c836186ee565b9250828201905065ffffffffffff81111561986a57619869618f24565b5b92915050565b5f81519050919050565b5f82825260208201905092915050565b5f819050602082019050919050565b5f6198a483836182a3565b60208301905092915050565b5f602082019050919050565b5f6198c682619870565b6198d0818561987a565b93506198db8361988a565b805f5b8381101561990b5781516198f28882619899565b97506198fd836198b0565b9250506001810190506198de565b5085935050505092915050565b5f81519050919050565b5f82825260208201905092915050565b5f819050602082019050919050565b5f81519050919050565b5f82825260208201905092915050565b5f61996582619941565b61996f818561994b565b935061997f818560208601617551565b6199888161755f565b840191505092915050565b5f61999e838361995b565b905092915050565b5f602082019050919050565b5f6199bc82619918565b6199c68185619922565b9350836020820285016199d885619932565b805f5b85811015619a1357848403895281516199f48582619993565b94506199ff836199a6565b925060208a019950506001810190506199db565b50829750879550505050505092915050565b5f6080820190508181035f830152619a3d81876198bc565b90508181036020830152619a518186618552565b90508181036040830152619a6581856199b2565b9050619a746060830184617e64565b95945050505050565b7f4e6f7420656e6f756768205752415020746f6b656e7320696e20636f6e7472615f8201527f6374000000000000000000000000000000000000000000000000000000000000602082015250565b5f619ad7602283617541565b9150619ae282619a7d565b604082019050919050565b5f6020820190508181035f830152619b0481619acb565b9050919050565b7f4e487b71000000000000000000000000000000000000000000000000000000005f52601260045260245ffd5b5f619b428261748b565b9150619b4d8361748b565b925082619b5d57619b5c619b0b565b5b828204905092915050565b7f496e76616c69642071756f72756d20636f6e646974696f6e73000000000000005f82015250565b5f619b9c601983617541565b9150619ba782619b68565b602082019050919050565b5f6020820190508181035f830152619bc981619b90565b9050919050565b7f55736572206973206e6f742061206d656d6265720000000000000000000000005f82015250565b5f619c04601483617541565b9150619c0f82619bd0565b602082019050919050565b5f6020820190508181035f830152619c3181619bf8565b9050919050565b7f54686520737570706f72746564207573657220686173206e6f7420766f7465645f8201527f2079657400000000000000000000000000000000000000000000000000000000602082015250565b5f619c92602483617541565b9150619c9d82619c38565b604082019050919050565b5f6020820190508181035f830152619cbf81619c86565b9050919050565b7f4e6f7420656e6f756768207772617020746f6b656e73000000000000000000005f82015250565b5f619cfa601683617541565b9150619d0582619cc6565b602082019050919050565b5f6020820190508181035f830152619d2781619cee565b9050919050565b5f6020601f8301049050919050565b5f82821b905092915050565b5f60088302619d787fffffffffffffffffffffffffffffffffffffffffffffffffffffffffffffffff82619d3d565b619d828683619d3d565b95508019841693508086168417925050509392505050565b5f619db4619daf619daa8461748b565b618ec4565b61748b565b9050919050565b5f819050919050565b619dcd83619d9a565b619de1619dd982619dbb565b848454619d49565b825550505050565b5f90565b619df5619de9565b619e00818484619dc4565b505050565b5b81811015619e2357619e185f82619ded565b600181019050619e06565b5050565b601f821115619e6857619e398161974c565b619e4284619d2e565b81016020851015619e51578190505b619e65619e5d85619d2e565b830182619e05565b50505b505050565b5f82821c905092915050565b5f619e885f1984600802619e6d565b1980831691505092915050565b5f619ea08383619e79565b9150826002028217905092915050565b619eb982617537565b67ffffffffffffffff811115619ed257619ed16177b4565b5b619edc8254618d70565b619ee7828285619e27565b5f60209050601f831160018114619f18575f8415619f06578287015190505b619f108582619e95565b865550619f77565b601f198416619f268661974c565b5f5b82811015619f4d57848901518255600182019150602085019450602081019050619f28565b86831015619f6a5784890151619f66601f891682619e79565b8355505b6001600288020188555050505b505050505050565b5f60a082019050619f925f8301886174e9565b619f9f6020830187617625565b8181036040830152619fb1818661756f565b9050619fc06060830185617528565b619fcd60808301846174e9565b9695505050505050565b7f566f74696e67206973206e6f74206163746976650000000000000000000000005f82015250565b5f61a00b601483617541565b915061a01682619fd7565b602082019050919050565b5f6020820190508181035f83015261a03881619fff565b9050919050565b7f566f74696e6720706572696f642068617320656e6465640000000000000000005f82015250565b5f61a073601783617541565b915061a07e8261a03f565b602082019050919050565b5f6020820190508181035f83015261a0a08161a067565b9050919050565b5f60608201905061a0ba5f8301866174e9565b61a0c76020830185617ec3565b61a0d46040830184617e64565b949350505050565b5f61a0e682619941565b61a0f08185619300565b935061a100818560208601617551565b80840191505092915050565b5f61a117828461a0dc565b915081905092915050565b5f61a12c82617f92565b915061a13783617f92565b9250828201905060ff81111561a1505761a14f618f24565b5b92915050565b5f61a1608261748b565b915061a16b8361748b565b925082820390508181111561a1835761a182618f24565b5b92915050565b5f60808201905061a19c5f8301876174e9565b61a1a96020830186619346565b61a1b660408301856174e9565b818103606083015261a1c8818461756f565b905095945050505050565b5f82825260208201905092915050565b5f61a1ed82619941565b61a1f7818561a1d3565b935061a207818560208601617551565b61a2108161755f565b840191505092915050565b5f60a08201905061a22e5f8301886174e9565b61a23b6020830187619346565b61a24860408301866174e9565b818103606083015261a25a818561756f565b9050818103608083015261a26e818461a1e3565b90509695505050505050565b5f60608201905061a28d5f8301866174e9565b61a29a60208301856174e9565b61a2a760408301846174e9565b949350505050565b5f81519050919050565b5f82825260208201905092915050565b5f819050602082019050919050565b5f61a2e3838361826b565b905092915050565b5f602082019050919050565b5f61a3018261a2af565b61a30b818561a2b9565b93508360208202850161a31d8561a2c9565b805f5b8581101561a358578484038952815161a339858261a2d8565b945061a3448361a2eb565b925060208a0199505060018101905061a320565b50829750879550505050505092915050565b5f6101208201905061a37e5f83018c6174e9565b61a38b602083018b617528565b818103604083015261a39d818a6198bc565b9050818103606083015261a3b18189618552565b9050818103608083015261a3c5818861a2f7565b905081810360a083015261a3d981876199b2565b905061a3e860c08301866174e9565b61a3f560e08301856174e9565b81810361010083015261a408818461756f565b90509a9950505050505050505050565b5f60408201905061a42b5f830185617e64565b818103602083015261a43d818461a1e3565b90509392505050565b5f8151905061a45481617d82565b92915050565b5f6020828403121561a46f5761a46e617483565b5b5f61a47c8482850161a446565b91505092915050565b5f819050919050565b5f61a4a861a4a361a49e8461a485565b618ec4565b617f92565b9050919050565b61a4b88161a48e565b82525050565b5f60408201905061a4d15f83018561a4af565b61a4de60208301846174e9565b9392505050565b5f819050919050565b5f61a50861a50361a4fe8461a4e5565b618ec4565b617f92565b9050919050565b61a5188161a4ee565b82525050565b5f60408201905061a5315f83018561a50f565b61a53e60208301846174e9565b9392505050565b5f60a08201905061a5585f830188617e64565b61a5656020830187617e64565b61a5726040830186617e64565b61a57f60608301856174e9565b61a58c6080830184617528565b9695505050505050565b5f60808201905061a5a95f830187617e64565b61a5b66020830186619346565b61a5c36040830185617e64565b61a5d06060830184617e64565b9594505050505056fe737570706f72743d627261766f2671756f72756d3d616761696e73742c666f722c6162737461696ea2646970667358221220376161fd36c684f325285992bd032b40630d3f5bcfdc1cffd420a69604c5613664736f6c634300081a003361016060405273da82d8e188e355c380d77616b2b63b0267aa68ed600b5f6101000a81548173ffffffffffffffffffffffffffffffffffffffff021916908373ffffffffffffffffffffffffffffffffffffffff16021790555073a0fddc85da6fbe53d2e7d55cbda9a22c3620816c600c5f6101000a81548173ffffffffffffffffffffffffffffffffffffffff021916908373ffffffffffffffffffffffffffffffffffffffff1602179055507358e4a1126170cfa7ccf016a9362ae1a9f1c70914600d5f6101000a81548173ffffffffffffffffffffffffffffffffffffffff021916908373ffffffffffffffffffffffffffffffffffffffff16021790555073b6458438e80ad9bd3dd3ddb5fb1942a139c1ffd3600e5f6101000a81548173ffffffffffffffffffffffffffffffffffffffff021916908373ffffffffffffffffffffffffffffffffffffffff160217905550348015610160575f80fd5b506040516145d43803806145d48339818101604052810190610182919061052d565b82806040518060400160405280600181526020017f3100000000000000000000000000000000000000000000000000000000000000815250858581600390816101cb91906107b9565b5080600490816101db91906107b9565b5050506101f260058361029860201b90919060201c565b610120818152505061020e60068261029860201b90919060201c565b6101408181525050818051906020012060e08181525050808051906020012061010081815250504660a0818152505061024b6102e560201b60201c565b608081815250503073ffffffffffffffffffffffffffffffffffffffff1660c08173ffffffffffffffffffffffffffffffffffffffff168152505050505080600f81905550505050610a3a565b5f6020835110156102b9576102b28361033f60201b60201c565b90506102df565b826102c9836103a460201b60201c565b5f0190816102d791906107b9565b5060ff5f1b90505b92915050565b5f7f8b73c3c69bb8fe3d512ecc4cf759cc79239f7b179b0ffacaa9a75d522b39400f60e0516101005146306040516020016103249594939291906108ee565b60405160208183030381529060405280519060200120905090565b5f80829050601f8151111561038b57826040517f305a27a90000000000000000000000000000000000000000000000000000000081526004016103829190610987565b60405180910390fd5b805181610397906109d4565b5f1c175f1b915050919050565b5f819050919050565b5f604051905090565b5f80fd5b5f80fd5b5f80fd5b5f80fd5b5f601f19601f8301169050919050565b7f4e487b71000000000000000000000000000000000000000000000000000000005f52604160045260245ffd5b61040c826103c6565b810181811067ffffffffffffffff8211171561042b5761042a6103d6565b5b80604052505050565b5f61043d6103ad565b90506104498282610403565b919050565b5f67ffffffffffffffff821115610468576104676103d6565b5b610471826103c6565b9050602081019050919050565b8281835e5f83830152505050565b5f61049e6104998461044e565b610434565b9050828152602081018484840111156104ba576104b96103c2565b5b6104c584828561047e565b509392505050565b5f82601f8301126104e1576104e06103be565b5b81516104f184826020860161048c565b91505092915050565b5f819050919050565b61050c816104fa565b8114610516575f80fd5b50565b5f8151905061052781610503565b92915050565b5f805f60608486031215610544576105436103b6565b5b5f84015167ffffffffffffffff811115610561576105606103ba565b5b61056d868287016104cd565b935050602084015167ffffffffffffffff81111561058e5761058d6103ba565b5b61059a868287016104cd565b92505060406105ab86828701610519565b9150509250925092565b5f81519050919050565b7f4e487b71000000000000000000000000000000000000000000000000000000005f52602260045260245ffd5b5f600282049050600182168061060357607f821691505b602082108103610616576106156105bf565b5b50919050565b5f819050815f5260205f209050919050565b5f6020601f8301049050919050565b5f82821b905092915050565b5f600883026106787fffffffffffffffffffffffffffffffffffffffffffffffffffffffffffffffff8261063d565b610682868361063d565b95508019841693508086168417925050509392505050565b5f819050919050565b5f6106bd6106b86106b3846104fa565b61069a565b6104fa565b9050919050565b5f819050919050565b6106d6836106a3565b6106ea6106e2826106c4565b848454610649565b825550505050565b5f90565b6106fe6106f2565b6107098184846106cd565b505050565b5b8181101561072c576107215f826106f6565b60018101905061070f565b5050565b601f821115610771576107428161061c565b61074b8461062e565b8101602085101561075a578190505b61076e6107668561062e565b83018261070e565b50505b505050565b5f82821c905092915050565b5f6107915f1984600802610776565b1980831691505092915050565b5f6107a98383610782565b9150826002028217905092915050565b6107c2826105b5565b67ffffffffffffffff8111156107db576107da6103d6565b5b6107e582546105ec565b6107f0828285610730565b5f60209050601f831160018114610821575f841561080f578287015190505b610819858261079e565b865550610880565b601f19841661082f8661061c565b5f5b8281101561085657848901518255600182019150602085019450602081019050610831565b86831015610873578489015161086f601f891682610782565b8355505b6001600288020188555050505b505050505050565b5f819050919050565b61089a81610888565b82525050565b6108a9816104fa565b82525050565b5f73ffffffffffffffffffffffffffffffffffffffff82169050919050565b5f6108d8826108af565b9050919050565b6108e8816108ce565b82525050565b5f60a0820190506109015f830188610891565b61090e6020830187610891565b61091b6040830186610891565b61092860608301856108a0565b61093560808301846108df565b9695505050505050565b5f82825260208201905092915050565b5f610959826105b5565b610963818561093f565b935061097381856020860161047e565b61097c816103c6565b840191505092915050565b5f6020820190508181035f83015261099f818461094f565b905092915050565b5f81519050919050565b5f819050602082019050919050565b5f6109cb8251610888565b80915050919050565b5f6109de826109a7565b826109e8846109b1565b90506109f3816109c0565b92506020821015610a3357610a2e7fffffffffffffffffffffffffffffffffffffffffffffffffffffffffffffffff8360200360080261063d565b831692505b5050919050565b60805160a05160c05160e051610100516101205161014051613b49610a8b5f395f61158b01525f61155001525f61199301525f61197201525f61113801525f61118e01525f6111b70152613b495ff3fe608060405234801561000f575f80fd5b50600436106101d8575f3560e01c806370d20fde11610102578063a64b6e5f116100a0578063d616f1bd1161006f578063d616f1bd146105ac578063dd62ed3e146105ca578063f1127ed8146105fa578063fa8ba66e1461062a576101d8565b8063a64b6e5f14610514578063a9059cbb14610544578063c3cda52014610574578063d505accf14610590576101d8565b80638e539e8c116100dc5780638e539e8c1461047857806391ddadf4146104a857806395d89b41146104c65780639ab24eb0146104e4576101d8565b806370d20fde146104065780637ecebe001461042457806384b0196e14610454576101d8565b80633644e5151161017a578063587cde1e11610149578063587cde1e1461035a5780635c19a95c1461038a5780636fcfff45146103a657806370a08231146103d6576101d8565b80633644e515146102d25780633a46b1a8146102f057806340c10f19146103205780634bf5d7e91461033c576101d8565b80630b8b4b24116101b65780630b8b4b241461024857806318160ddd1461026657806323b872dd14610284578063313ce567146102b4576101d8565b8063057d2c17146101dc57806306fdde03146101fa578063095ea7b314610218575b5f80fd5b6101e4610634565b6040516101f19190612c81565b60405180910390f35b610202610659565b60405161020f9190612d0a565b60405180910390f35b610232600480360381019061022d9190612d8b565b6106e9565b60405161023f9190612de3565b60405180910390f35b61025061070b565b60405161025d9190612c81565b60405180910390f35b61026e610730565b60405161027b9190612e0b565b60405180910390f35b61029e60048036038101906102999190612e24565b610739565b6040516102ab9190612de3565b60405180910390f35b6102bc610767565b6040516102c99190612e8f565b60405180910390f35b6102da61076f565b6040516102e79190612ec0565b60405180910390f35b61030a60048036038101906103059190612d8b565b61077d565b6040516103179190612e0b565b60405180910390f35b61033a60048036038101906103359190612d8b565b6107f9565b005b610344610825565b6040516103519190612d0a565b60405180910390f35b610374600480360381019061036f9190612ed9565b6108b9565b6040516103819190612c81565b60405180910390f35b6103a4600480360381019061039f9190612ed9565b61091e565b005b6103c060048036038101906103bb9190612ed9565b610937565b6040516103cd9190612f22565b60405180910390f35b6103f060048036038101906103eb9190612ed9565b610948565b6040516103fd9190612e0b565b60405180910390f35b61040e61098d565b60405161041b9190612c81565b60405180910390f35b61043e60048036038101906104399190612ed9565b6109b2565b60405161044b9190612e0b565b60405180910390f35b61045c6109c3565b60405161046f979695949392919061302c565b60405180910390f35b610492600480360381019061048d91906130ae565b610a68565b60405161049f9190612e0b565b60405180910390f35b6104b0610aa8565b6040516104bd91906130f9565b60405180910390f35b6104ce610ab6565b6040516104db9190612d0a565b60405180910390f35b6104fe60048036038101906104f99190612ed9565b610b46565b60405161050b9190612e0b565b60405180910390f35b61052e60048036038101906105299190612e24565b610baf565b60405161053b9190612de3565b60405180910390f35b61055e60048036038101906105599190612d8b565b610bc6565b60405161056b9190612de3565b60405180910390f35b61058e60048036038101906105899190613166565b610be8565b005b6105aa60048036038101906105a591906131ef565b610cad565b005b6105b4610df2565b6040516105c19190612c81565b60405180910390f35b6105e460048036038101906105df919061328c565b610e17565b6040516105f19190612e0b565b60405180910390f35b610614600480360381019061060f91906132f4565b610e99565b60405161062191906133a2565b60405180910390f35b610632610eb3565b005b600e5f9054906101000a900473ffffffffffffffffffffffffffffffffffffffff1681565b606060038054610668906133e8565b80601f0160208091040260200160405190810160405280929190818152602001828054610694906133e8565b80156106df5780601f106106b6576101008083540402835291602001916106df565b820191905f5260205f20905b8154815290600101906020018083116106c257829003601f168201915b5050505050905090565b5f806106f3610f99565b9050610700818585610fa0565b600191505092915050565b600b5f9054906101000a900473ffffffffffffffffffffffffffffffffffffffff1681565b5f600254905090565b5f80610743610f99565b9050610750858285610fb2565b61075b858585611045565b60019150509392505050565b5f600c905090565b5f610778611135565b905090565b5f6107d561078a836111eb565b60095f8673ffffffffffffffffffffffffffffffffffffffff1673ffffffffffffffffffffffffffffffffffffffff1681526020019081526020015f2061125690919063ffffffff16565b79ffffffffffffffffffffffffffffffffffffffffffffffffffff16905092915050565b61082182610805610767565b600a6108119190613574565b8361081c91906135be565b611343565b5050565b606061082f6113c2565b65ffffffffffff1661083f610aa8565b65ffffffffffff161461087e576040517f6ff0714000000000000000000000000000000000000000000000000000000000815260040160405180910390fd5b6040518060400160405280601d81526020017f6d6f64653d626c6f636b6e756d6265722666726f6d3d64656661756c74000000815250905090565b5f60085f8373ffffffffffffffffffffffffffffffffffffffff1673ffffffffffffffffffffffffffffffffffffffff1681526020019081526020015f205f9054906101000a900473ffffffffffffffffffffffffffffffffffffffff169050919050565b5f610927610f99565b905061093381836113d1565b5050565b5f610941826114e1565b9050919050565b5f805f8373ffffffffffffffffffffffffffffffffffffffff1673ffffffffffffffffffffffffffffffffffffffff1681526020019081526020015f20549050919050565b600d5f9054906101000a900473ffffffffffffffffffffffffffffffffffffffff1681565b5f6109bc82611536565b9050919050565b5f6060805f805f60606109d4611547565b6109dc611582565b46305f801b5f67ffffffffffffffff8111156109fb576109fa6135ff565b5b604051908082528060200260200182016040528015610a295781602001602082028036833780820191505090505b507f0f00000000000000000000000000000000000000000000000000000000000000959493929190965096509650965096509650965090919293949596565b5f610a85610a75836111eb565b600a61125690919063ffffffff16565b79ffffffffffffffffffffffffffffffffffffffffffffffffffff169050919050565b5f610ab16113c2565b905090565b606060048054610ac5906133e8565b80601f0160208091040260200160405190810160405280929190818152602001828054610af1906133e8565b8015610b3c5780601f10610b1357610100808354040283529160200191610b3c565b820191905f5260205f20905b815481529060010190602001808311610b1f57829003601f168201915b5050505050905090565b5f610b8c60095f8473ffffffffffffffffffffffffffffffffffffffff1673ffffffffffffffffffffffffffffffffffffffff1681526020019081526020015f206115bd565b79ffffffffffffffffffffffffffffffffffffffffffffffffffff169050919050565b5f610bbb848484611045565b600190509392505050565b5f80610bd0610f99565b9050610bdd818585611045565b600191505092915050565b83421115610c2d57836040517f4683af0e000000000000000000000000000000000000000000000000000000008152600401610c249190612e0b565b60405180910390fd5b5f610c8e610c867fe48329057bfd03d55e49b547132e39cffd9c1820ad7b9d4c5307691425d15adf898989604051602001610c6b949392919061362c565b6040516020818303038152906040528051906020012061161f565b858585611638565b9050610c9a8187611666565b610ca481886113d1565b50505050505050565b83421115610cf257836040517f62791302000000000000000000000000000000000000000000000000000000008152600401610ce99190612e0b565b60405180910390fd5b5f7f6e71edae12b1b97f4d1f60370fef10105fa2faae0126114a169c64845d6126c9888888610d208c6116bd565b89604051602001610d369695949392919061366f565b6040516020818303038152906040528051906020012090505f610d588261161f565b90505f610d6782878787611638565b90508973ffffffffffffffffffffffffffffffffffffffff168173ffffffffffffffffffffffffffffffffffffffff1614610ddb57808a6040517f4b800e46000000000000000000000000000000000000000000000000000000008152600401610dd29291906136ce565b60405180910390fd5b610de68a8a8a610fa0565b50505050505050505050565b600c5f9054906101000a900473ffffffffffffffffffffffffffffffffffffffff1681565b5f60015f8473ffffffffffffffffffffffffffffffffffffffff1673ffffffffffffffffffffffffffffffffffffffff1681526020019081526020015f205f8373ffffffffffffffffffffffffffffffffffffffff1673ffffffffffffffffffffffffffffffffffffffff1681526020019081526020015f2054905092915050565b610ea1612c06565b610eab8383611710565b905092915050565b610eec600b5f9054906101000a900473ffffffffffffffffffffffffffffffffffffffff166004600f54610ee79190613722565b6107f9565b610f25600c5f9054906101000a900473ffffffffffffffffffffffffffffffffffffffff166004600f54610f209190613722565b6107f9565b610f5e600d5f9054906101000a900473ffffffffffffffffffffffffffffffffffffffff166004600f54610f599190613722565b6107f9565b610f97600e5f9054906101000a900473ffffffffffffffffffffffffffffffffffffffff166004600f54610f929190613722565b6107f9565b565b5f33905090565b610fad838383600161176f565b505050565b5f610fbd8484610e17565b90507fffffffffffffffffffffffffffffffffffffffffffffffffffffffffffffffff81101561103f5781811015611030578281836040517ffb8f41b200000000000000000000000000000000000000000000000000000000815260040161102793929190613752565b60405180910390fd5b61103e84848484035f61176f565b5b50505050565b5f73ffffffffffffffffffffffffffffffffffffffff168373ffffffffffffffffffffffffffffffffffffffff16036110b5575f6040517f96c6fd1e0000000000000000000000000000000000000000000000000000000081526004016110ac9190612c81565b60405180910390fd5b5f73ffffffffffffffffffffffffffffffffffffffff168273ffffffffffffffffffffffffffffffffffffffff1603611125575f6040517fec442f0500000000000000000000000000000000000000000000000000000000815260040161111c9190612c81565b60405180910390fd5b61113083838361193e565b505050565b5f7f000000000000000000000000000000000000000000000000000000000000000073ffffffffffffffffffffffffffffffffffffffff163073ffffffffffffffffffffffffffffffffffffffff161480156111b057507f000000000000000000000000000000000000000000000000000000000000000046145b156111dd577f000000000000000000000000000000000000000000000000000000000000000090506111e8565b6111e561194e565b90505b90565b5f806111f5610aa8565b90508065ffffffffffff1683106112455782816040517fecd3f81e00000000000000000000000000000000000000000000000000000000815260040161123c929190613787565b60405180910390fd5b61124e836119e3565b915050919050565b5f80835f018054905090505f8082905060058311156112d7575f61127984611a3c565b8461128491906137ae565b9050611292875f0182611bd6565b5f015f9054906101000a900465ffffffffffff1665ffffffffffff168665ffffffffffff1610156112c5578091506112d5565b6001816112d291906137e1565b92505b505b5f6112e6875f01878585611be8565b90505f811461133557611307875f0160018361130291906137ae565b611bd6565b5f0160069054906101000a900479ffffffffffffffffffffffffffffffffffffffffffffffffffff16611337565b5f5b94505050505092915050565b5f73ffffffffffffffffffffffffffffffffffffffff168273ffffffffffffffffffffffffffffffffffffffff16036113b3575f6040517fec442f050000000000000000000000000000000000000000000000000000000081526004016113aa9190612c81565b60405180910390fd5b6113be5f838361193e565b5050565b5f6113cc436119e3565b905090565b5f6113db836108b9565b90508160085f8573ffffffffffffffffffffffffffffffffffffffff1673ffffffffffffffffffffffffffffffffffffffff1681526020019081526020015f205f6101000a81548173ffffffffffffffffffffffffffffffffffffffff021916908373ffffffffffffffffffffffffffffffffffffffff1602179055508173ffffffffffffffffffffffffffffffffffffffff168173ffffffffffffffffffffffffffffffffffffffff168473ffffffffffffffffffffffffffffffffffffffff167f3134e8a2e6d97e929a7e54011ea5485d7d196dd5f0ba4d4ef95803e8e3fc257f60405160405180910390a46114dc81836114d786611c5d565b611c6e565b505050565b5f61152f61152a60095f8573ffffffffffffffffffffffffffffffffffffffff1673ffffffffffffffffffffffffffffffffffffffff1681526020019081526020015f20611ede565b611eed565b9050919050565b5f61154082611f44565b9050919050565b606061157d60057f0000000000000000000000000000000000000000000000000000000000000000611f8a90919063ffffffff16565b905090565b60606115b860067f0000000000000000000000000000000000000000000000000000000000000000611f8a90919063ffffffff16565b905090565b5f80825f018054905090505f8114611615576115e7835f016001836115e291906137ae565b611bd6565b5f0160069054906101000a900479ffffffffffffffffffffffffffffffffffffffffffffffffffff16611617565b5f5b915050919050565b5f61163161162b611135565b83612037565b9050919050565b5f805f8061164888888888612077565b925092509250611658828261215e565b829350505050949350505050565b5f611670836116bd565b90508082146116b85782816040517f752d88c00000000000000000000000000000000000000000000000000000000081526004016116af929190613814565b60405180910390fd5b505050565b5f60075f8373ffffffffffffffffffffffffffffffffffffffff1673ffffffffffffffffffffffffffffffffffffffff1681526020019081526020015f205f815480929190600101919050559050919050565b611718612c06565b6117678260095f8673ffffffffffffffffffffffffffffffffffffffff1673ffffffffffffffffffffffffffffffffffffffff1681526020019081526020015f206122c090919063ffffffff16565b905092915050565b5f73ffffffffffffffffffffffffffffffffffffffff168473ffffffffffffffffffffffffffffffffffffffff16036117df575f6040517fe602df050000000000000000000000000000000000000000000000000000000081526004016117d69190612c81565b60405180910390fd5b5f73ffffffffffffffffffffffffffffffffffffffff168373ffffffffffffffffffffffffffffffffffffffff160361184f575f6040517f94280d620000000000000000000000000000000000000000000000000000000081526004016118469190612c81565b60405180910390fd5b8160015f8673ffffffffffffffffffffffffffffffffffffffff1673ffffffffffffffffffffffffffffffffffffffff1681526020019081526020015f205f8573ffffffffffffffffffffffffffffffffffffffff1673ffffffffffffffffffffffffffffffffffffffff1681526020019081526020015f20819055508015611938578273ffffffffffffffffffffffffffffffffffffffff168473ffffffffffffffffffffffffffffffffffffffff167f8c5be1e5ebec7d5bd14f71427d1e84f3dd0314c0f7b2291e5b200ac8c7c3b9258460405161192f9190612e0b565b60405180910390a35b50505050565b61194983838361238f565b505050565b5f7f8b73c3c69bb8fe3d512ecc4cf759cc79239f7b179b0ffacaa9a75d522b39400f7f00000000000000000000000000000000000000000000000000000000000000007f000000000000000000000000000000000000000000000000000000000000000046306040516020016119c895949392919061383b565b60405160208183030381529060405280519060200120905090565b5f65ffffffffffff8016821115611a34576030826040517f6dfcc650000000000000000000000000000000000000000000000000000000008152600401611a2b9291906138ce565b60405180910390fd5b819050919050565b5f60018211611a4d57819050611bd1565b5f8290505f600190507001000000000000000000000000000000008210611a7d57608082901c9150604081901b90505b680100000000000000008210611a9c57604082901c9150602081901b90505b6401000000008210611ab757602082901c9150601081901b90505b620100008210611ad057601082901c9150600881901b90505b6101008210611ae857600882901c9150600481901b90505b60108210611aff57600482901c9150600281901b90505b60048210611b0f57600181901b90505b600181600302901c90506001818581611b2b57611b2a6136f5565b5b048201901c90506001818581611b4457611b436136f5565b5b048201901c90506001818581611b5d57611b5c6136f5565b5b048201901c90506001818581611b7657611b756136f5565b5b048201901c90506001818581611b8f57611b8e6136f5565b5b048201901c90506001818581611ba857611ba76136f5565b5b048201901c9050611bca818581611bc257611bc16136f5565b5b04821161243d565b8103925050505b919050565b5f825f528160205f2001905092915050565b5f5b81831015611c52575f611bfd8484612448565b90508465ffffffffffff16611c128783611bd6565b5f015f9054906101000a900465ffffffffffff1665ffffffffffff161115611c3c57809250611c4c565b600181611c4991906137e1565b93505b50611bea565b819050949350505050565b5f611c6782610948565b9050919050565b8173ffffffffffffffffffffffffffffffffffffffff168373ffffffffffffffffffffffffffffffffffffffff1614158015611ca957505f81115b15611ed9575f73ffffffffffffffffffffffffffffffffffffffff168373ffffffffffffffffffffffffffffffffffffffff1614611dc3575f80611d3460095f8773ffffffffffffffffffffffffffffffffffffffff1673ffffffffffffffffffffffffffffffffffffffff1681526020019081526020015f2061246d611d2f86612482565b6124ef565b79ffffffffffffffffffffffffffffffffffffffffffffffffffff16915079ffffffffffffffffffffffffffffffffffffffffffffffffffff1691508473ffffffffffffffffffffffffffffffffffffffff167fdec2bacdd2f05b59de34da9b523dff8be42e5e38e818c82fdb0bae774387a7248383604051611db89291906138f5565b60405180910390a250505b5f73ffffffffffffffffffffffffffffffffffffffff168273ffffffffffffffffffffffffffffffffffffffff1614611ed8575f80611e4960095f8673ffffffffffffffffffffffffffffffffffffffff1673ffffffffffffffffffffffffffffffffffffffff1681526020019081526020015f2061252e611e4486612482565b6124ef565b79ffffffffffffffffffffffffffffffffffffffffffffffffffff16915079ffffffffffffffffffffffffffffffffffffffffffffffffffff1691508373ffffffffffffffffffffffffffffffffffffffff167fdec2bacdd2f05b59de34da9b523dff8be42e5e38e818c82fdb0bae774387a7248383604051611ecd9291906138f5565b60405180910390a250505b5b505050565b5f815f01805490509050919050565b5f63ffffffff8016821115611f3c576020826040517f6dfcc650000000000000000000000000000000000000000000000000000000008152600401611f33929190613955565b60405180910390fd5b819050919050565b5f60075f8373ffffffffffffffffffffffffffffffffffffffff1673ffffffffffffffffffffffffffffffffffffffff1681526020019081526020015f20549050919050565b606060ff5f1b8314611fa657611f9f83612543565b9050612031565b818054611fb2906133e8565b80601f0160208091040260200160405190810160405280929190818152602001828054611fde906133e8565b80156120295780601f1061200057610100808354040283529160200191612029565b820191905f5260205f20905b81548152906001019060200180831161200c57829003601f168201915b505050505090505b92915050565b5f6040517f190100000000000000000000000000000000000000000000000000000000000081528360028201528260228201526042812091505092915050565b5f805f7f7fffffffffffffffffffffffffffffff5d576e7357a4501ddfe92f46681b20a0845f1c11156120b3575f600385925092509250612154565b5f6001888888886040515f81526020016040526040516120d6949392919061397c565b6020604051602081039080840390855afa1580156120f6573d5f803e3d5ffd5b5050506020604051035190505f73ffffffffffffffffffffffffffffffffffffffff168173ffffffffffffffffffffffffffffffffffffffff1603612147575f60015f801b93509350935050612154565b805f805f1b935093509350505b9450945094915050565b5f6003811115612171576121706139bf565b5b826003811115612184576121836139bf565b5b03156122bc576001600381111561219e5761219d6139bf565b5b8260038111156121b1576121b06139bf565b5b036121e8576040517ff645eedf00000000000000000000000000000000000000000000000000000000815260040160405180910390fd5b600260038111156121fc576121fb6139bf565b5b82600381111561220f5761220e6139bf565b5b0361225357805f1c6040517ffce698f700000000000000000000000000000000000000000000000000000000815260040161224a9190612e0b565b60405180910390fd5b600380811115612266576122656139bf565b5b826003811115612279576122786139bf565b5b036122bb57806040517fd78bce0c0000000000000000000000000000000000000000000000000000000081526004016122b29190612ec0565b60405180910390fd5b5b5050565b6122c8612c06565b825f018263ffffffff16815481106122e3576122e26139ec565b5b905f5260205f20016040518060400160405290815f82015f9054906101000a900465ffffffffffff1665ffffffffffff1665ffffffffffff1681526020015f820160069054906101000a900479ffffffffffffffffffffffffffffffffffffffffffffffffffff1679ffffffffffffffffffffffffffffffffffffffffffffffffffff1679ffffffffffffffffffffffffffffffffffffffffffffffffffff1681525050905092915050565b61239a8383836125b5565b5f73ffffffffffffffffffffffffffffffffffffffff168373ffffffffffffffffffffffffffffffffffffffff160361242d575f6123d6610730565b90505f6123e16127ce565b90508082111561242a5781816040517f1cb15d260000000000000000000000000000000000000000000000000000000081526004016124219291906138f5565b60405180910390fd5b50505b6124388383836127f1565b505050565b5f8115159050919050565b5f60028284186124589190613722565b82841661246591906137e1565b905092915050565b5f818361247a9190613a19565b905092915050565b5f79ffffffffffffffffffffffffffffffffffffffffffffffffffff80168211156124e75760d0826040517f6dfcc6500000000000000000000000000000000000000000000000000000000081526004016124de929190613a9f565b60405180910390fd5b819050919050565b5f806125226124fc610aa8565b612512612508886115bd565b868863ffffffff16565b876128a99092919063ffffffff16565b91509150935093915050565b5f818361253b9190613ac6565b905092915050565b60605f61254f836128c4565b90505f602067ffffffffffffffff81111561256d5761256c6135ff565b5b6040519080825280601f01601f19166020018201604052801561259f5781602001600182028036833780820191505090505b5090508181528360208201528092505050919050565b5f73ffffffffffffffffffffffffffffffffffffffff168373ffffffffffffffffffffffffffffffffffffffff1603612605578060025f8282546125f991906137e1565b925050819055506126d3565b5f805f8573ffffffffffffffffffffffffffffffffffffffff1673ffffffffffffffffffffffffffffffffffffffff1681526020019081526020015f205490508181101561268e578381836040517fe450d38c00000000000000000000000000000000000000000000000000000000815260040161268593929190613752565b60405180910390fd5b8181035f808673ffffffffffffffffffffffffffffffffffffffff1673ffffffffffffffffffffffffffffffffffffffff1681526020019081526020015f2081905550505b5f73ffffffffffffffffffffffffffffffffffffffff168273ffffffffffffffffffffffffffffffffffffffff160361271a578060025f8282540392505081905550612764565b805f808473ffffffffffffffffffffffffffffffffffffffff1673ffffffffffffffffffffffffffffffffffffffff1681526020019081526020015f205f82825401925050819055505b8173ffffffffffffffffffffffffffffffffffffffff168373ffffffffffffffffffffffffffffffffffffffff167fddf252ad1be2c89b69c2b068fc378daa952ba7f163c4a11628f55a4df523b3ef836040516127c19190612e0b565b60405180910390a3505050565b5f79ffffffffffffffffffffffffffffffffffffffffffffffffffff8016905090565b5f73ffffffffffffffffffffffffffffffffffffffff168373ffffffffffffffffffffffffffffffffffffffff160361283d5761283a600a61252e61283584612482565b6124ef565b50505b5f73ffffffffffffffffffffffffffffffffffffffff168273ffffffffffffffffffffffffffffffffffffffff160361288957612886600a61246d61288184612482565b6124ef565b50505b6128a4612895846108b9565b61289e846108b9565b83611c6e565b505050565b5f806128b8855f018585612912565b91509150935093915050565b5f8060ff835f1c169050601f811115612909576040517fb3512b0c00000000000000000000000000000000000000000000000000000000815260040160405180910390fd5b80915050919050565b5f805f858054905090505f811115612b1e575f61293b8760018461293691906137ae565b611bd6565b90505f815f015f9054906101000a900465ffffffffffff1690505f825f0160069054906101000a900479ffffffffffffffffffffffffffffffffffffffffffffffffffff1690508765ffffffffffff168265ffffffffffff1611156129cc576040517f2520601d00000000000000000000000000000000000000000000000000000000815260040160405180910390fd5b8765ffffffffffff168265ffffffffffff1603612a365786835f0160066101000a81548179ffffffffffffffffffffffffffffffffffffffffffffffffffff021916908379ffffffffffffffffffffffffffffffffffffffffffffffffffff160217905550612b0f565b8860405180604001604052808a65ffffffffffff1681526020018979ffffffffffffffffffffffffffffffffffffffffffffffffffff16815250908060018154018082558091505060019003905f5260205f20015f909190919091505f820151815f015f6101000a81548165ffffffffffff021916908365ffffffffffff1602179055506020820151815f0160066101000a81548179ffffffffffffffffffffffffffffffffffffffffffffffffffff021916908379ffffffffffffffffffffffffffffffffffffffffffffffffffff16021790555050505b80879550955050505050612bfe565b8560405180604001604052808765ffffffffffff1681526020018679ffffffffffffffffffffffffffffffffffffffffffffffffffff16815250908060018154018082558091505060019003905f5260205f20015f909190919091505f820151815f015f6101000a81548165ffffffffffff021916908365ffffffffffff1602179055506020820151815f0160066101000a81548179ffffffffffffffffffffffffffffffffffffffffffffffffffff021916908379ffffffffffffffffffffffffffffffffffffffffffffffffffff16021790555050505f8492509250505b935093915050565b60405180604001604052805f65ffffffffffff1681526020015f79ffffffffffffffffffffffffffffffffffffffffffffffffffff1681525090565b5f73ffffffffffffffffffffffffffffffffffffffff82169050919050565b5f612c6b82612c42565b9050919050565b612c7b81612c61565b82525050565b5f602082019050612c945f830184612c72565b92915050565b5f81519050919050565b5f82825260208201905092915050565b8281835e5f83830152505050565b5f601f19601f8301169050919050565b5f612cdc82612c9a565b612ce68185612ca4565b9350612cf6818560208601612cb4565b612cff81612cc2565b840191505092915050565b5f6020820190508181035f830152612d228184612cd2565b905092915050565b5f80fd5b612d3781612c61565b8114612d41575f80fd5b50565b5f81359050612d5281612d2e565b92915050565b5f819050919050565b612d6a81612d58565b8114612d74575f80fd5b50565b5f81359050612d8581612d61565b92915050565b5f8060408385031215612da157612da0612d2a565b5b5f612dae85828601612d44565b9250506020612dbf85828601612d77565b9150509250929050565b5f8115159050919050565b612ddd81612dc9565b82525050565b5f602082019050612df65f830184612dd4565b92915050565b612e0581612d58565b82525050565b5f602082019050612e1e5f830184612dfc565b92915050565b5f805f60608486031215612e3b57612e3a612d2a565b5b5f612e4886828701612d44565b9350506020612e5986828701612d44565b9250506040612e6a86828701612d77565b9150509250925092565b5f60ff82169050919050565b612e8981612e74565b82525050565b5f602082019050612ea25f830184612e80565b92915050565b5f819050919050565b612eba81612ea8565b82525050565b5f602082019050612ed35f830184612eb1565b92915050565b5f60208284031215612eee57612eed612d2a565b5b5f612efb84828501612d44565b91505092915050565b5f63ffffffff82169050919050565b612f1c81612f04565b82525050565b5f602082019050612f355f830184612f13565b92915050565b5f7fff0000000000000000000000000000000000000000000000000000000000000082169050919050565b612f6f81612f3b565b82525050565b5f81519050919050565b5f82825260208201905092915050565b5f819050602082019050919050565b612fa781612d58565b82525050565b5f612fb88383612f9e565b60208301905092915050565b5f602082019050919050565b5f612fda82612f75565b612fe48185612f7f565b9350612fef83612f8f565b805f5b8381101561301f5781516130068882612fad565b975061301183612fc4565b925050600181019050612ff2565b5085935050505092915050565b5f60e08201905061303f5f83018a612f66565b81810360208301526130518189612cd2565b905081810360408301526130658188612cd2565b90506130746060830187612dfc565b6130816080830186612c72565b61308e60a0830185612eb1565b81810360c08301526130a08184612fd0565b905098975050505050505050565b5f602082840312156130c3576130c2612d2a565b5b5f6130d084828501612d77565b91505092915050565b5f65ffffffffffff82169050919050565b6130f3816130d9565b82525050565b5f60208201905061310c5f8301846130ea565b92915050565b61311b81612e74565b8114613125575f80fd5b50565b5f8135905061313681613112565b92915050565b61314581612ea8565b811461314f575f80fd5b50565b5f813590506131608161313c565b92915050565b5f805f805f8060c087890312156131805761317f612d2a565b5b5f61318d89828a01612d44565b965050602061319e89828a01612d77565b95505060406131af89828a01612d77565b94505060606131c089828a01613128565b93505060806131d189828a01613152565b92505060a06131e289828a01613152565b9150509295509295509295565b5f805f805f805f60e0888a03121561320a57613209612d2a565b5b5f6132178a828b01612d44565b97505060206132288a828b01612d44565b96505060406132398a828b01612d77565b955050606061324a8a828b01612d77565b945050608061325b8a828b01613128565b93505060a061326c8a828b01613152565b92505060c061327d8a828b01613152565b91505092959891949750929550565b5f80604083850312156132a2576132a1612d2a565b5b5f6132af85828601612d44565b92505060206132c085828601612d44565b9150509250929050565b6132d381612f04565b81146132dd575f80fd5b50565b5f813590506132ee816132ca565b92915050565b5f806040838503121561330a57613309612d2a565b5b5f61331785828601612d44565b9250506020613328858286016132e0565b9150509250929050565b61333b816130d9565b82525050565b5f79ffffffffffffffffffffffffffffffffffffffffffffffffffff82169050919050565b61336f81613341565b82525050565b604082015f8201516133895f850182613332565b50602082015161339c6020850182613366565b50505050565b5f6040820190506133b55f830184613375565b92915050565b7f4e487b71000000000000000000000000000000000000000000000000000000005f52602260045260245ffd5b5f60028204905060018216806133ff57607f821691505b602082108103613412576134116133bb565b5b50919050565b7f4e487b71000000000000000000000000000000000000000000000000000000005f52601160045260245ffd5b5f8160011c9050919050565b5f808291508390505b600185111561349a5780860481111561347657613475613418565b5b60018516156134855780820291505b808102905061349385613445565b945061345a565b94509492505050565b5f826134b2576001905061356d565b816134bf575f905061356d565b81600181146134d557600281146134df5761350e565b600191505061356d565b60ff8411156134f1576134f0613418565b5b8360020a91508482111561350857613507613418565b5b5061356d565b5060208310610133831016604e8410600b84101617156135435782820a90508381111561353e5761353d613418565b5b61356d565b6135508484846001613451565b9250905081840481111561356757613566613418565b5b81810290505b9392505050565b5f61357e82612d58565b915061358983612e74565b92506135b67fffffffffffffffffffffffffffffffffffffffffffffffffffffffffffffffff84846134a3565b905092915050565b5f6135c882612d58565b91506135d383612d58565b92508282026135e181612d58565b915082820484148315176135f8576135f7613418565b5b5092915050565b7f4e487b71000000000000000000000000000000000000000000000000000000005f52604160045260245ffd5b5f60808201905061363f5f830187612eb1565b61364c6020830186612c72565b6136596040830185612dfc565b6136666060830184612dfc565b95945050505050565b5f60c0820190506136825f830189612eb1565b61368f6020830188612c72565b61369c6040830187612c72565b6136a96060830186612dfc565b6136b66080830185612dfc565b6136c360a0830184612dfc565b979650505050505050565b5f6040820190506136e15f830185612c72565b6136ee6020830184612c72565b9392505050565b7f4e487b71000000000000000000000000000000000000000000000000000000005f52601260045260245ffd5b5f61372c82612d58565b915061373783612d58565b925082613747576137466136f5565b5b828204905092915050565b5f6060820190506137655f830186612c72565b6137726020830185612dfc565b61377f6040830184612dfc565b949350505050565b5f60408201905061379a5f830185612dfc565b6137a760208301846130ea565b9392505050565b5f6137b882612d58565b91506137c383612d58565b92508282039050818111156137db576137da613418565b5b92915050565b5f6137eb82612d58565b91506137f683612d58565b925082820190508082111561380e5761380d613418565b5b92915050565b5f6040820190506138275f830185612c72565b6138346020830184612dfc565b9392505050565b5f60a08201905061384e5f830188612eb1565b61385b6020830187612eb1565b6138686040830186612eb1565b6138756060830185612dfc565b6138826080830184612c72565b9695505050505050565b5f819050919050565b5f819050919050565b5f6138b86138b36138ae8461388c565b613895565b612e74565b9050919050565b6138c88161389e565b82525050565b5f6040820190506138e15f8301856138bf565b6138ee6020830184612dfc565b9392505050565b5f6040820190506139085f830185612dfc565b6139156020830184612dfc565b9392505050565b5f819050919050565b5f61393f61393a6139358461391c565b613895565b612e74565b9050919050565b61394f81613925565b82525050565b5f6040820190506139685f830185613946565b6139756020830184612dfc565b9392505050565b5f60808201905061398f5f830187612eb1565b61399c6020830186612e80565b6139a96040830185612eb1565b6139b66060830184612eb1565b95945050505050565b7f4e487b71000000000000000000000000000000000000000000000000000000005f52602160045260245ffd5b7f4e487b71000000000000000000000000000000000000000000000000000000005f52603260045260245ffd5b5f613a2382613341565b9150613a2e83613341565b9250828203905079ffffffffffffffffffffffffffffffffffffffffffffffffffff811115613a6057613a5f613418565b5b92915050565b5f819050919050565b5f613a89613a84613a7f84613a66565b613895565b612e74565b9050919050565b613a9981613a6f565b82525050565b5f604082019050613ab25f830185613a90565b613abf6020830184612dfc565b9392505050565b5f613ad082613341565b9150613adb83613341565b9250828201905079ffffffffffffffffffffffffffffffffffffffffffffffffffff811115613b0d57613b0c613418565b5b9291505056fea2646970667358221220fc7486741823fb6b7c8d841a0af8e44e9917cad44f2abdf8d36d45fc0ad97fe464736f6c634300081a0033",
			"opcodes": "PUSH2 0x160 PUSH1 0x40 MSTORE PUSH20 0xDA82D8E188E355C380D77616B2B63B0267AA68ED PUSH1 0x7 PUSH0 PUSH2 0x100 EXP DUP2 SLOAD DUP2 PUSH20 0xFFFFFFFFFFFFFFFFFFFFFFFFFFFFFFFFFFFFFFFF MUL NOT AND SWAP1 DUP4 PUSH20 0xFFFFFFFFFFFFFFFFFFFFFFFFFFFFFFFFFFFFFFFF AND MUL OR SWAP1 SSTORE POP PUSH20 0xA0FDDC85DA6FBE53D2E7D55CBDA9A22C3620816C PUSH1 0x8 PUSH0 PUSH2 0x100 EXP DUP2 SLOAD DUP2 PUSH20 0xFFFFFFFFFFFFFFFFFFFFFFFFFFFFFFFFFFFFFFFF MUL NOT AND SWAP1 DUP4 PUSH20 0xFFFFFFFFFFFFFFFFFFFFFFFFFFFFFFFFFFFFFFFF AND MUL OR SWAP1 SSTORE POP PUSH20 0x58E4A1126170CFA7CCF016A9362AE1A9F1C70914 PUSH1 0x9 PUSH0 PUSH2 0x100 EXP DUP2 SLOAD DUP2 PUSH20 0xFFFFFFFFFFFFFFFFFFFFFFFFFFFFFFFFFFFFFFFF MUL NOT AND SWAP1 DUP4 PUSH20 0xFFFFFFFFFFFFFFFFFFFFFFFFFFFFFFFFFFFFFFFF AND MUL OR SWAP1 SSTORE POP PUSH20 0xB6458438E80AD9BD3DD3DDB5FB1942A139C1FFD3 PUSH1 0xA PUSH0 PUSH2 0x100 EXP DUP2 SLOAD DUP2 PUSH20 0xFFFFFFFFFFFFFFFFFFFFFFFFFFFFFFFFFFFFFFFF MUL NOT AND SWAP1 DUP4 PUSH20 0xFFFFFFFFFFFFFFFFFFFFFFFFFFFFFFFFFFFFFFFF AND MUL OR SWAP1 SSTORE POP PUSH20 0x812F7C9C267B3B24FC81D8F6CDDB9482D2B992DF PUSH1 0xB PUSH0 PUSH2 0x100 EXP DUP2 SLOAD DUP2 PUSH20 0xFFFFFFFFFFFFFFFFFFFFFFFFFFFFFFFFFFFFFFFF MUL NOT AND SWAP1 DUP4 PUSH20 0xFFFFFFFFFFFFFFFFFFFFFFFFFFFFFFFFFFFFFFFF AND MUL OR SWAP1 SSTORE POP PUSH1 0x2 PUSH1 0xE SSTORE PUSH1 0x3 PUSH1 0xF SSTORE PUSH1 0x1 PUSH1 0x10 SSTORE CALLVALUE DUP1 ISZERO PUSH2 0x1C3 JUMPI PUSH0 DUP1 REVERT JUMPDEST POP PUSH1 0x40 MLOAD DUP1 PUSH1 0x40 ADD PUSH1 0x40 MSTORE DUP1 PUSH1 0x9 DUP2 MSTORE PUSH1 0x20 ADD PUSH32 0x44616F53797374656D0000000000000000000000000000000000000000000000 DUP2 MSTORE POP DUP1 PUSH2 0x209 PUSH2 0x6FB PUSH1 0x20 SHL PUSH1 0x20 SHR JUMP JUMPDEST PUSH2 0x21C PUSH0 DUP4 PUSH2 0x738 PUSH1 0x20 SHL SWAP1 SWAP2 SWAP1 PUSH1 0x20 SHR JUMP JUMPDEST PUSH2 0x120 DUP2 DUP2 MSTORE POP POP PUSH2 0x238 PUSH1 0x1 DUP3 PUSH2 0x738 PUSH1 0x20 SHL SWAP1 SWAP2 SWAP1 PUSH1 0x20 SHR JUMP JUMPDEST PUSH2 0x140 DUP2 DUP2 MSTORE POP POP DUP2 DUP1 MLOAD SWAP1 PUSH1 0x20 ADD KECCAK256 PUSH1 0xE0 DUP2 DUP2 MSTORE POP POP DUP1 DUP1 MLOAD SWAP1 PUSH1 0x20 ADD KECCAK256 PUSH2 0x100 DUP2 DUP2 MSTORE POP POP CHAINID PUSH1 0xA0 DUP2 DUP2 MSTORE POP POP PUSH2 0x275 PUSH2 0x785 PUSH1 0x20 SHL PUSH1 0x20 SHR JUMP JUMPDEST PUSH1 0x80 DUP2 DUP2 MSTORE POP POP ADDRESS PUSH20 0xFFFFFFFFFFFFFFFFFFFFFFFFFFFFFFFFFFFFFFFF AND PUSH1 0xC0 DUP2 PUSH20 0xFFFFFFFFFFFFFFFFFFFFFFFFFFFFFFFFFFFFFFFF AND DUP2 MSTORE POP POP POP POP DUP1 PUSH1 0x3 SWAP1 DUP2 PUSH2 0x2C1 SWAP2 SWAP1 PUSH2 0xBB7 JUMP JUMPDEST POP POP PUSH3 0x186A0 PUSH1 0x40 MLOAD PUSH2 0x2D3 SWAP1 PUSH2 0x96F JUMP JUMPDEST PUSH2 0x2DD SWAP2 SWAP1 PUSH2 0xD63 JUMP JUMPDEST PUSH1 0x40 MLOAD DUP1 SWAP2 SUB SWAP1 PUSH0 CREATE DUP1 ISZERO DUP1 ISZERO PUSH2 0x2F6 JUMPI RETURNDATASIZE PUSH0 DUP1 RETURNDATACOPY RETURNDATASIZE PUSH0 REVERT JUMPDEST POP PUSH1 0xC PUSH0 PUSH2 0x100 EXP DUP2 SLOAD DUP2 PUSH20 0xFFFFFFFFFFFFFFFFFFFFFFFFFFFFFFFFFFFFFFFF MUL NOT AND SWAP1 DUP4 PUSH20 0xFFFFFFFFFFFFFFFFFFFFFFFFFFFFFFFFFFFFFFFF AND MUL OR SWAP1 SSTORE POP PUSH4 0x1312D00 PUSH1 0x40 MLOAD PUSH2 0x347 SWAP1 PUSH2 0x96F JUMP JUMPDEST PUSH2 0x351 SWAP2 SWAP1 PUSH2 0xE6F JUMP JUMPDEST PUSH1 0x40 MLOAD DUP1 SWAP2 SUB SWAP1 PUSH0 CREATE DUP1 ISZERO DUP1 ISZERO PUSH2 0x36A JUMPI RETURNDATASIZE PUSH0 DUP1 RETURNDATACOPY RETURNDATASIZE PUSH0 REVERT JUMPDEST POP PUSH1 0xD PUSH0 PUSH2 0x100 EXP DUP2 SLOAD DUP2 PUSH20 0xFFFFFFFFFFFFFFFFFFFFFFFFFFFFFFFFFFFFFFFF MUL NOT AND SWAP1 DUP4 PUSH20 0xFFFFFFFFFFFFFFFFFFFFFFFFFFFFFFFFFFFFFFFF AND MUL OR SWAP1 SSTORE POP PUSH1 0xC PUSH0 SWAP1 SLOAD SWAP1 PUSH2 0x100 EXP SWAP1 DIV PUSH20 0xFFFFFFFFFFFFFFFFFFFFFFFFFFFFFFFFFFFFFFFF AND PUSH20 0xFFFFFFFFFFFFFFFFFFFFFFFFFFFFFFFFFFFFFFFF AND PUSH4 0xFA8BA66E PUSH1 0x40 MLOAD DUP2 PUSH4 0xFFFFFFFF AND PUSH1 0xE0 SHL DUP2 MSTORE PUSH1 0x4 ADD PUSH0 PUSH1 0x40 MLOAD DUP1 DUP4 SUB DUP2 PUSH0 DUP8 DUP1 EXTCODESIZE ISZERO DUP1 ISZERO PUSH2 0x410 JUMPI PUSH0 DUP1 REVERT JUMPDEST POP GAS CALL ISZERO DUP1 ISZERO PUSH2 0x422 JUMPI RETURNDATASIZE PUSH0 DUP1 RETURNDATACOPY RETURNDATASIZE PUSH0 REVERT JUMPDEST POP POP POP POP PUSH1 0xD PUSH0 SWAP1 SLOAD SWAP1 PUSH2 0x100 EXP SWAP1 DIV PUSH20 0xFFFFFFFFFFFFFFFFFFFFFFFFFFFFFFFFFFFFFFFF AND PUSH20 0xFFFFFFFFFFFFFFFFFFFFFFFFFFFFFFFFFFFFFFFF AND PUSH4 0x40C10F19 ADDRESS PUSH1 0xC PUSH0 SWAP1 SLOAD SWAP1 PUSH2 0x100 EXP SWAP1 DIV PUSH20 0xFFFFFFFFFFFFFFFFFFFFFFFFFFFFFFFFFFFFFFFF AND PUSH20 0xFFFFFFFFFFFFFFFFFFFFFFFFFFFFFFFFFFFFFFFF AND PUSH4 0x313CE567 PUSH1 0x40 MLOAD DUP2 PUSH4 0xFFFFFFFF AND PUSH1 0xE0 SHL DUP2 MSTORE PUSH1 0x4 ADD PUSH1 0x20 PUSH1 0x40 MLOAD DUP1 DUP4 SUB DUP2 DUP7 GAS STATICCALL ISZERO DUP1 ISZERO PUSH2 0x4CE JUMPI RETURNDATASIZE PUSH0 DUP1 RETURNDATACOPY RETURNDATASIZE PUSH0 REVERT JUMPDEST POP POP POP POP PUSH1 0x40 MLOAD RETURNDATASIZE PUSH1 0x1F NOT PUSH1 0x1F DUP3 ADD AND DUP3 ADD DUP1 PUSH1 0x40 MSTORE POP DUP2 ADD SWAP1 PUSH2 0x4F2 SWAP2 SWAP1 PUSH2 0xEE8 JUMP JUMPDEST PUSH1 0xA PUSH2 0x4FE SWAP2 SWAP1 PUSH2 0x106F JUMP JUMPDEST PUSH4 0x1312D00 PUSH2 0x50D SWAP2 SWAP1 PUSH2 0x10B9 JUMP JUMPDEST PUSH1 0x40 MLOAD DUP4 PUSH4 0xFFFFFFFF AND PUSH1 0xE0 SHL DUP2 MSTORE PUSH1 0x4 ADD PUSH2 0x52A SWAP3 SWAP2 SWAP1 PUSH2 0x1148 JUMP JUMPDEST PUSH0 PUSH1 0x40 MLOAD DUP1 DUP4 SUB DUP2 PUSH0 DUP8 DUP1 EXTCODESIZE ISZERO DUP1 ISZERO PUSH2 0x541 JUMPI PUSH0 DUP1 REVERT JUMPDEST POP GAS CALL ISZERO DUP1 ISZERO PUSH2 0x553 JUMPI RETURNDATASIZE PUSH0 DUP1 RETURNDATACOPY RETURNDATASIZE PUSH0 REVERT JUMPDEST POP POP POP POP PUSH2 0x5BF PUSH1 0x7 PUSH0 SWAP1 SLOAD SWAP1 PUSH2 0x100 EXP SWAP1 DIV PUSH20 0xFFFFFFFFFFFFFFFFFFFFFFFFFFFFFFFFFFFFFFFF AND PUSH1 0x40 MLOAD DUP1 PUSH1 0x40 ADD PUSH1 0x40 MSTORE DUP1 PUSH1 0x3 DUP2 MSTORE PUSH1 0x20 ADD PUSH32 0x546F6D0000000000000000000000000000000000000000000000000000000000 DUP2 MSTORE POP PUSH1 0x1 PUSH2 0x7DF PUSH1 0x20 SHL PUSH1 0x20 SHR JUMP JUMPDEST PUSH2 0x627 PUSH1 0x8 PUSH0 SWAP1 SLOAD SWAP1 PUSH2 0x100 EXP SWAP1 DIV PUSH20 0xFFFFFFFFFFFFFFFFFFFFFFFFFFFFFFFFFFFFFFFF AND PUSH1 0x40 MLOAD DUP1 PUSH1 0x40 ADD PUSH1 0x40 MSTORE DUP1 PUSH1 0x3 DUP2 MSTORE PUSH1 0x20 ADD PUSH32 0x42656E0000000000000000000000000000000000000000000000000000000000 DUP2 MSTORE POP PUSH1 0x1 PUSH2 0x7DF PUSH1 0x20 SHL PUSH1 0x20 SHR JUMP JUMPDEST PUSH2 0x68F PUSH1 0x9 PUSH0 SWAP1 SLOAD SWAP1 PUSH2 0x100 EXP SWAP1 DIV PUSH20 0xFFFFFFFFFFFFFFFFFFFFFFFFFFFFFFFFFFFFFFFF AND PUSH1 0x40 MLOAD DUP1 PUSH1 0x40 ADD PUSH1 0x40 MSTORE DUP1 PUSH1 0x4 DUP2 MSTORE PUSH1 0x20 ADD PUSH32 0x5269636B00000000000000000000000000000000000000000000000000000000 DUP2 MSTORE POP PUSH1 0x1 PUSH2 0x7DF PUSH1 0x20 SHL PUSH1 0x20 SHR JUMP JUMPDEST PUSH2 0x6F6 PUSH1 0xA PUSH0 SWAP1 SLOAD SWAP1 PUSH2 0x100 EXP SWAP1 DIV PUSH20 0xFFFFFFFFFFFFFFFFFFFFFFFFFFFFFFFFFFFFFFFF AND PUSH1 0x40 MLOAD DUP1 PUSH1 0x40 ADD PUSH1 0x40 MSTORE DUP1 PUSH1 0x4 DUP2 MSTORE PUSH1 0x20 ADD PUSH32 0x4A61636B00000000000000000000000000000000000000000000000000000000 DUP2 MSTORE POP PUSH0 PUSH2 0x7DF PUSH1 0x20 SHL PUSH1 0x20 SHR JUMP JUMPDEST PUSH2 0x130E JUMP JUMPDEST PUSH1 0x60 PUSH1 0x40 MLOAD DUP1 PUSH1 0x40 ADD PUSH1 0x40 MSTORE DUP1 PUSH1 0x1 DUP2 MSTORE PUSH1 0x20 ADD PUSH32 0x3100000000000000000000000000000000000000000000000000000000000000 DUP2 MSTORE POP SWAP1 POP SWAP1 JUMP JUMPDEST PUSH0 PUSH1 0x20 DUP4 MLOAD LT ISZERO PUSH2 0x759 JUMPI PUSH2 0x752 DUP4 PUSH2 0x901 PUSH1 0x20 SHL PUSH1 0x20 SHR JUMP JUMPDEST SWAP1 POP PUSH2 0x77F JUMP JUMPDEST DUP3 PUSH2 0x769 DUP4 PUSH2 0x966 PUSH1 0x20 SHL PUSH1 0x20 SHR JUMP JUMPDEST PUSH0 ADD SWAP1 DUP2 PUSH2 0x777 SWAP2 SWAP1 PUSH2 0xBB7 JUMP JUMPDEST POP PUSH1 0xFF PUSH0 SHL SWAP1 POP JUMPDEST SWAP3 SWAP2 POP POP JUMP JUMPDEST PUSH0 PUSH32 0x8B73C3C69BB8FE3D512ECC4CF759CC79239F7B179B0FFACAA9A75D522B39400F PUSH1 0xE0 MLOAD PUSH2 0x100 MLOAD CHAINID ADDRESS PUSH1 0x40 MLOAD PUSH1 0x20 ADD PUSH2 0x7C4 SWAP6 SWAP5 SWAP4 SWAP3 SWAP2 SWAP1 PUSH2 0x1187 JUMP JUMPDEST PUSH1 0x40 MLOAD PUSH1 0x20 DUP2 DUP4 SUB SUB DUP2 MSTORE SWAP1 PUSH1 0x40 MSTORE DUP1 MLOAD SWAP1 PUSH1 0x20 ADD KECCAK256 SWAP1 POP SWAP1 JUMP JUMPDEST PUSH1 0x40 MLOAD DUP1 PUSH1 0x80 ADD PUSH1 0x40 MSTORE DUP1 DUP4 DUP2 MSTORE PUSH1 0x20 ADD DUP5 PUSH20 0xFFFFFFFFFFFFFFFFFFFFFFFFFFFFFFFFFFFFFFFF AND DUP2 MSTORE PUSH1 0x20 ADD DUP3 PUSH1 0x2 DUP2 GT ISZERO PUSH2 0x81F JUMPI PUSH2 0x81E PUSH2 0x11D8 JUMP JUMPDEST JUMPDEST DUP2 MSTORE PUSH1 0x20 ADD PUSH0 DUP2 MSTORE POP PUSH1 0x16 PUSH0 DUP6 PUSH20 0xFFFFFFFFFFFFFFFFFFFFFFFFFFFFFFFFFFFFFFFF AND PUSH20 0xFFFFFFFFFFFFFFFFFFFFFFFFFFFFFFFFFFFFFFFF AND DUP2 MSTORE PUSH1 0x20 ADD SWAP1 DUP2 MSTORE PUSH1 0x20 ADD PUSH0 KECCAK256 PUSH0 DUP3 ADD MLOAD DUP2 PUSH0 ADD SWAP1 DUP2 PUSH2 0x878 SWAP2 SWAP1 PUSH2 0xBB7 JUMP JUMPDEST POP PUSH1 0x20 DUP3 ADD MLOAD DUP2 PUSH1 0x1 ADD PUSH0 PUSH2 0x100 EXP DUP2 SLOAD DUP2 PUSH20 0xFFFFFFFFFFFFFFFFFFFFFFFFFFFFFFFFFFFFFFFF MUL NOT AND SWAP1 DUP4 PUSH20 0xFFFFFFFFFFFFFFFFFFFFFFFFFFFFFFFFFFFFFFFF AND MUL OR SWAP1 SSTORE POP PUSH1 0x40 DUP3 ADD MLOAD DUP2 PUSH1 0x1 ADD PUSH1 0x14 PUSH2 0x100 EXP DUP2 SLOAD DUP2 PUSH1 0xFF MUL NOT AND SWAP1 DUP4 PUSH1 0x2 DUP2 GT ISZERO PUSH2 0x8EA JUMPI PUSH2 0x8E9 PUSH2 0x11D8 JUMP JUMPDEST JUMPDEST MUL OR SWAP1 SSTORE POP PUSH1 0x60 DUP3 ADD MLOAD DUP2 PUSH1 0x2 ADD SSTORE SWAP1 POP POP POP POP POP JUMP JUMPDEST PUSH0 DUP1 DUP3 SWAP1 POP PUSH1 0x1F DUP2 MLOAD GT ISZERO PUSH2 0x94D JUMPI DUP3 PUSH1 0x40 MLOAD PUSH32 0x305A27A900000000000000000000000000000000000000000000000000000000 DUP2 MSTORE PUSH1 0x4 ADD PUSH2 0x944 SWAP2 SWAP1 PUSH2 0x125B JUMP JUMPDEST PUSH1 0x40 MLOAD DUP1 SWAP2 SUB SWAP1 REVERT JUMPDEST DUP1 MLOAD DUP2 PUSH2 0x959 SWAP1 PUSH2 0x12A8 JUMP JUMPDEST PUSH0 SHR OR PUSH0 SHL SWAP2 POP POP SWAP2 SWAP1 POP JUMP JUMPDEST PUSH0 DUP2 SWAP1 POP SWAP2 SWAP1 POP JUMP JUMPDEST PUSH2 0x45D4 DUP1 PUSH3 0xB997 DUP4 CODECOPY ADD SWAP1 JUMP JUMPDEST PUSH0 DUP2 MLOAD SWAP1 POP SWAP2 SWAP1 POP JUMP JUMPDEST PUSH32 0x4E487B7100000000000000000000000000000000000000000000000000000000 PUSH0 MSTORE PUSH1 0x41 PUSH1 0x4 MSTORE PUSH1 0x24 PUSH0 REVERT JUMPDEST PUSH32 0x4E487B7100000000000000000000000000000000000000000000000000000000 PUSH0 MSTORE PUSH1 0x22 PUSH1 0x4 MSTORE PUSH1 0x24 PUSH0 REVERT JUMPDEST PUSH0 PUSH1 0x2 DUP3 DIV SWAP1 POP PUSH1 0x1 DUP3 AND DUP1 PUSH2 0x9F8 JUMPI PUSH1 0x7F DUP3 AND SWAP2 POP JUMPDEST PUSH1 0x20 DUP3 LT DUP2 SUB PUSH2 0xA0B JUMPI PUSH2 0xA0A PUSH2 0x9B4 JUMP JUMPDEST JUMPDEST POP SWAP2 SWAP1 POP JUMP JUMPDEST PUSH0 DUP2 SWAP1 POP DUP2 PUSH0 MSTORE PUSH1 0x20 PUSH0 KECCAK256 SWAP1 POP SWAP2 SWAP1 POP JUMP JUMPDEST PUSH0 PUSH1 0x20 PUSH1 0x1F DUP4 ADD DIV SWAP1 POP SWAP2 SWAP1 POP JUMP JUMPDEST PUSH0 DUP3 DUP3 SHL SWAP1 POP SWAP3 SWAP2 POP POP JUMP JUMPDEST PUSH0 PUSH1 0x8 DUP4 MUL PUSH2 0xA6D PUSH32 0xFFFFFFFFFFFFFFFFFFFFFFFFFFFFFFFFFFFFFFFFFFFFFFFFFFFFFFFFFFFFFFFF DUP3 PUSH2 0xA32 JUMP JUMPDEST PUSH2 0xA77 DUP7 DUP4 PUSH2 0xA32 JUMP JUMPDEST SWAP6 POP DUP1 NOT DUP5 AND SWAP4 POP DUP1 DUP7 AND DUP5 OR SWAP3 POP POP POP SWAP4 SWAP3 POP POP POP JUMP JUMPDEST PUSH0 DUP2 SWAP1 POP SWAP2 SWAP1 POP JUMP JUMPDEST PUSH0 DUP2 SWAP1 POP SWAP2 SWAP1 POP JUMP JUMPDEST PUSH0 PUSH2 0xABB PUSH2 0xAB6 PUSH2 0xAB1 DUP5 PUSH2 0xA8F JUMP JUMPDEST PUSH2 0xA98 JUMP JUMPDEST PUSH2 0xA8F JUMP JUMPDEST SWAP1 POP SWAP2 SWAP1 POP JUMP JUMPDEST PUSH0 DUP2 SWAP1 POP SWAP2 SWAP1 POP JUMP JUMPDEST PUSH2 0xAD4 DUP4 PUSH2 0xAA1 JUMP JUMPDEST PUSH2 0xAE8 PUSH2 0xAE0 DUP3 PUSH2 0xAC2 JUMP JUMPDEST DUP5 DUP5 SLOAD PUSH2 0xA3E JUMP JUMPDEST DUP3 SSTORE POP POP POP POP JUMP JUMPDEST PUSH0 SWAP1 JUMP JUMPDEST PUSH2 0xAFC PUSH2 0xAF0 JUMP JUMPDEST PUSH2 0xB07 DUP2 DUP5 DUP5 PUSH2 0xACB JUMP JUMPDEST POP POP POP JUMP JUMPDEST JUMPDEST DUP2 DUP2 LT ISZERO PUSH2 0xB2A JUMPI PUSH2 0xB1F PUSH0 DUP3 PUSH2 0xAF4 JUMP JUMPDEST PUSH1 0x1 DUP2 ADD SWAP1 POP PUSH2 0xB0D JUMP JUMPDEST POP POP JUMP JUMPDEST PUSH1 0x1F DUP3 GT ISZERO PUSH2 0xB6F JUMPI PUSH2 0xB40 DUP2 PUSH2 0xA11 JUMP JUMPDEST PUSH2 0xB49 DUP5 PUSH2 0xA23 JUMP JUMPDEST DUP2 ADD PUSH1 0x20 DUP6 LT ISZERO PUSH2 0xB58 JUMPI DUP2 SWAP1 POP JUMPDEST PUSH2 0xB6C PUSH2 0xB64 DUP6 PUSH2 0xA23 JUMP JUMPDEST DUP4 ADD DUP3 PUSH2 0xB0C JUMP JUMPDEST POP POP JUMPDEST POP POP POP JUMP JUMPDEST PUSH0 DUP3 DUP3 SHR SWAP1 POP SWAP3 SWAP2 POP POP JUMP JUMPDEST PUSH0 PUSH2 0xB8F PUSH0 NOT DUP5 PUSH1 0x8 MUL PUSH2 0xB74 JUMP JUMPDEST NOT DUP1 DUP4 AND SWAP2 POP POP SWAP3 SWAP2 POP POP JUMP JUMPDEST PUSH0 PUSH2 0xBA7 DUP4 DUP4 PUSH2 0xB80 JUMP JUMPDEST SWAP2 POP DUP3 PUSH1 0x2 MUL DUP3 OR SWAP1 POP SWAP3 SWAP2 POP POP JUMP JUMPDEST PUSH2 0xBC0 DUP3 PUSH2 0x97D JUMP JUMPDEST PUSH8 0xFFFFFFFFFFFFFFFF DUP2 GT ISZERO PUSH2 0xBD9 JUMPI PUSH2 0xBD8 PUSH2 0x987 JUMP JUMPDEST JUMPDEST PUSH2 0xBE3 DUP3 SLOAD PUSH2 0x9E1 JUMP JUMPDEST PUSH2 0xBEE DUP3 DUP3 DUP6 PUSH2 0xB2E JUMP JUMPDEST PUSH0 PUSH1 0x20 SWAP1 POP PUSH1 0x1F DUP4 GT PUSH1 0x1 DUP2 EQ PUSH2 0xC1F JUMPI PUSH0 DUP5 ISZERO PUSH2 0xC0D JUMPI DUP3 DUP8 ADD MLOAD SWAP1 POP JUMPDEST PUSH2 0xC17 DUP6 DUP3 PUSH2 0xB9C JUMP JUMPDEST DUP7 SSTORE POP PUSH2 0xC7E JUMP JUMPDEST PUSH1 0x1F NOT DUP5 AND PUSH2 0xC2D DUP7 PUSH2 0xA11 JUMP JUMPDEST PUSH0 JUMPDEST DUP3 DUP2 LT ISZERO PUSH2 0xC54 JUMPI DUP5 DUP10 ADD MLOAD DUP3 SSTORE PUSH1 0x1 DUP3 ADD SWAP2 POP PUSH1 0x20 DUP6 ADD SWAP5 POP PUSH1 0x20 DUP2 ADD SWAP1 POP PUSH2 0xC2F JUMP JUMPDEST DUP7 DUP4 LT ISZERO PUSH2 0xC71 JUMPI DUP5 DUP10 ADD MLOAD PUSH2 0xC6D PUSH1 0x1F DUP10 AND DUP3 PUSH2 0xB80 JUMP JUMPDEST DUP4 SSTORE POP JUMPDEST PUSH1 0x1 PUSH1 0x2 DUP9 MUL ADD DUP9 SSTORE POP POP POP JUMPDEST POP POP POP POP POP POP JUMP JUMPDEST PUSH0 DUP3 DUP3 MSTORE PUSH1 0x20 DUP3 ADD SWAP1 POP SWAP3 SWAP2 POP POP JUMP JUMPDEST PUSH32 0x50726F66657373696F6E616C0000000000000000000000000000000000000000 PUSH0 DUP3 ADD MSTORE POP JUMP JUMPDEST PUSH0 PUSH2 0xCCA PUSH1 0xC DUP4 PUSH2 0xC86 JUMP JUMPDEST SWAP2 POP PUSH2 0xCD5 DUP3 PUSH2 0xC96 JUMP JUMPDEST PUSH1 0x20 DUP3 ADD SWAP1 POP SWAP2 SWAP1 POP JUMP JUMPDEST PUSH32 0x50524F4649000000000000000000000000000000000000000000000000000000 PUSH0 DUP3 ADD MSTORE POP JUMP JUMPDEST PUSH0 PUSH2 0xD14 PUSH1 0x5 DUP4 PUSH2 0xC86 JUMP JUMPDEST SWAP2 POP PUSH2 0xD1F DUP3 PUSH2 0xCE0 JUMP JUMPDEST PUSH1 0x20 DUP3 ADD SWAP1 POP SWAP2 SWAP1 POP JUMP JUMPDEST PUSH0 DUP2 SWAP1 POP SWAP2 SWAP1 POP JUMP JUMPDEST PUSH0 PUSH2 0xD4D PUSH2 0xD48 PUSH2 0xD43 DUP5 PUSH2 0xD2A JUMP JUMPDEST PUSH2 0xA98 JUMP JUMPDEST PUSH2 0xA8F JUMP JUMPDEST SWAP1 POP SWAP2 SWAP1 POP JUMP JUMPDEST PUSH2 0xD5D DUP2 PUSH2 0xD33 JUMP JUMPDEST DUP3 MSTORE POP POP JUMP JUMPDEST PUSH0 PUSH1 0x60 DUP3 ADD SWAP1 POP DUP2 DUP2 SUB PUSH0 DUP4 ADD MSTORE PUSH2 0xD7A DUP2 PUSH2 0xCBE JUMP JUMPDEST SWAP1 POP DUP2 DUP2 SUB PUSH1 0x20 DUP4 ADD MSTORE PUSH2 0xD8D DUP2 PUSH2 0xD08 JUMP JUMPDEST SWAP1 POP PUSH2 0xD9C PUSH1 0x40 DUP4 ADD DUP5 PUSH2 0xD54 JUMP JUMPDEST SWAP3 SWAP2 POP POP JUMP JUMPDEST PUSH32 0x52544B436F696E00000000000000000000000000000000000000000000000000 PUSH0 DUP3 ADD MSTORE POP JUMP JUMPDEST PUSH0 PUSH2 0xDD6 PUSH1 0x7 DUP4 PUSH2 0xC86 JUMP JUMPDEST SWAP2 POP PUSH2 0xDE1 DUP3 PUSH2 0xDA2 JUMP JUMPDEST PUSH1 0x20 DUP3 ADD SWAP1 POP SWAP2 SWAP1 POP JUMP JUMPDEST PUSH32 0x52544B0000000000000000000000000000000000000000000000000000000000 PUSH0 DUP3 ADD MSTORE POP JUMP JUMPDEST PUSH0 PUSH2 0xE20 PUSH1 0x3 DUP4 PUSH2 0xC86 JUMP JUMPDEST SWAP2 POP PUSH2 0xE2B DUP3 PUSH2 0xDEC JUMP JUMPDEST PUSH1 0x20 DUP3 ADD SWAP1 POP SWAP2 SWAP1 POP JUMP JUMPDEST PUSH0 DUP2 SWAP1 POP SWAP2 SWAP1 POP JUMP JUMPDEST PUSH0 PUSH2 0xE59 PUSH2 0xE54 PUSH2 0xE4F DUP5 PUSH2 0xE36 JUMP JUMPDEST PUSH2 0xA98 JUMP JUMPDEST PUSH2 0xA8F JUMP JUMPDEST SWAP1 POP SWAP2 SWAP1 POP JUMP JUMPDEST PUSH2 0xE69 DUP2 PUSH2 0xE3F JUMP JUMPDEST DUP3 MSTORE POP POP JUMP JUMPDEST PUSH0 PUSH1 0x60 DUP3 ADD SWAP1 POP DUP2 DUP2 SUB PUSH0 DUP4 ADD MSTORE PUSH2 0xE86 DUP2 PUSH2 0xDCA JUMP JUMPDEST SWAP1 POP DUP2 DUP2 SUB PUSH1 0x20 DUP4 ADD MSTORE PUSH2 0xE99 DUP2 PUSH2 0xE14 JUMP JUMPDEST SWAP1 POP PUSH2 0xEA8 PUSH1 0x40 DUP4 ADD DUP5 PUSH2 0xE60 JUMP JUMPDEST SWAP3 SWAP2 POP POP JUMP JUMPDEST PUSH0 DUP1 REVERT JUMPDEST PUSH0 PUSH1 0xFF DUP3 AND SWAP1 POP SWAP2 SWAP1 POP JUMP JUMPDEST PUSH2 0xEC7 DUP2 PUSH2 0xEB2 JUMP JUMPDEST DUP2 EQ PUSH2 0xED1 JUMPI PUSH0 DUP1 REVERT JUMPDEST POP JUMP JUMPDEST PUSH0 DUP2 MLOAD SWAP1 POP PUSH2 0xEE2 DUP2 PUSH2 0xEBE JUMP JUMPDEST SWAP3 SWAP2 POP POP JUMP JUMPDEST PUSH0 PUSH1 0x20 DUP3 DUP5 SUB SLT ISZERO PUSH2 0xEFD JUMPI PUSH2 0xEFC PUSH2 0xEAE JUMP JUMPDEST JUMPDEST PUSH0 PUSH2 0xF0A DUP5 DUP3 DUP6 ADD PUSH2 0xED4 JUMP JUMPDEST SWAP2 POP POP SWAP3 SWAP2 POP POP JUMP JUMPDEST PUSH32 0x4E487B7100000000000000000000000000000000000000000000000000000000 PUSH0 MSTORE PUSH1 0x11 PUSH1 0x4 MSTORE PUSH1 0x24 PUSH0 REVERT JUMPDEST PUSH0 DUP2 PUSH1 0x1 SHR SWAP1 POP SWAP2 SWAP1 POP JUMP JUMPDEST PUSH0 DUP1 DUP3 SWAP2 POP DUP4 SWAP1 POP JUMPDEST PUSH1 0x1 DUP6 GT ISZERO PUSH2 0xF95 JUMPI DUP1 DUP7 DIV DUP2 GT ISZERO PUSH2 0xF71 JUMPI PUSH2 0xF70 PUSH2 0xF13 JUMP JUMPDEST JUMPDEST PUSH1 0x1 DUP6 AND ISZERO PUSH2 0xF80 JUMPI DUP1 DUP3 MUL SWAP2 POP JUMPDEST DUP1 DUP2 MUL SWAP1 POP PUSH2 0xF8E DUP6 PUSH2 0xF40 JUMP JUMPDEST SWAP5 POP PUSH2 0xF55 JUMP JUMPDEST SWAP5 POP SWAP5 SWAP3 POP POP POP JUMP JUMPDEST PUSH0 DUP3 PUSH2 0xFAD JUMPI PUSH1 0x1 SWAP1 POP PUSH2 0x1068 JUMP JUMPDEST DUP2 PUSH2 0xFBA JUMPI PUSH0 SWAP1 POP PUSH2 0x1068 JUMP JUMPDEST DUP2 PUSH1 0x1 DUP2 EQ PUSH2 0xFD0 JUMPI PUSH1 0x2 DUP2 EQ PUSH2 0xFDA JUMPI PUSH2 0x1009 JUMP JUMPDEST PUSH1 0x1 SWAP2 POP POP PUSH2 0x1068 JUMP JUMPDEST PUSH1 0xFF DUP5 GT ISZERO PUSH2 0xFEC JUMPI PUSH2 0xFEB PUSH2 0xF13 JUMP JUMPDEST JUMPDEST DUP4 PUSH1 0x2 EXP SWAP2 POP DUP5 DUP3 GT ISZERO PUSH2 0x1003 JUMPI PUSH2 0x1002 PUSH2 0xF13 JUMP JUMPDEST JUMPDEST POP PUSH2 0x1068 JUMP JUMPDEST POP PUSH1 0x20 DUP4 LT PUSH2 0x133 DUP4 LT AND PUSH1 0x4E DUP5 LT PUSH1 0xB DUP5 LT AND OR ISZERO PUSH2 0x103E JUMPI DUP3 DUP3 EXP SWAP1 POP DUP4 DUP2 GT ISZERO PUSH2 0x1039 JUMPI PUSH2 0x1038 PUSH2 0xF13 JUMP JUMPDEST JUMPDEST PUSH2 0x1068 JUMP JUMPDEST PUSH2 0x104B DUP5 DUP5 DUP5 PUSH1 0x1 PUSH2 0xF4C JUMP JUMPDEST SWAP3 POP SWAP1 POP DUP2 DUP5 DIV DUP2 GT ISZERO PUSH2 0x1062 JUMPI PUSH2 0x1061 PUSH2 0xF13 JUMP JUMPDEST JUMPDEST DUP2 DUP2 MUL SWAP1 POP JUMPDEST SWAP4 SWAP3 POP POP POP JUMP JUMPDEST PUSH0 PUSH2 0x1079 DUP3 PUSH2 0xA8F JUMP JUMPDEST SWAP2 POP PUSH2 0x1084 DUP4 PUSH2 0xEB2 JUMP JUMPDEST SWAP3 POP PUSH2 0x10B1 PUSH32 0xFFFFFFFFFFFFFFFFFFFFFFFFFFFFFFFFFFFFFFFFFFFFFFFFFFFFFFFFFFFFFFFF DUP5 DUP5 PUSH2 0xF9E JUMP JUMPDEST SWAP1 POP SWAP3 SWAP2 POP POP JUMP JUMPDEST PUSH0 PUSH2 0x10C3 DUP3 PUSH2 0xA8F JUMP JUMPDEST SWAP2 POP PUSH2 0x10CE DUP4 PUSH2 0xA8F JUMP JUMPDEST SWAP3 POP DUP3 DUP3 MUL PUSH2 0x10DC DUP2 PUSH2 0xA8F JUMP JUMPDEST SWAP2 POP DUP3 DUP3 DIV DUP5 EQ DUP4 ISZERO OR PUSH2 0x10F3 JUMPI PUSH2 0x10F2 PUSH2 0xF13 JUMP JUMPDEST JUMPDEST POP SWAP3 SWAP2 POP POP JUMP JUMPDEST PUSH0 PUSH20 0xFFFFFFFFFFFFFFFFFFFFFFFFFFFFFFFFFFFFFFFF DUP3 AND SWAP1 POP SWAP2 SWAP1 POP JUMP JUMPDEST PUSH0 PUSH2 0x1123 DUP3 PUSH2 0x10FA JUMP JUMPDEST SWAP1 POP SWAP2 SWAP1 POP JUMP JUMPDEST PUSH2 0x1133 DUP2 PUSH2 0x1119 JUMP JUMPDEST DUP3 MSTORE POP POP JUMP JUMPDEST PUSH2 0x1142 DUP2 PUSH2 0xA8F JUMP JUMPDEST DUP3 MSTORE POP POP JUMP JUMPDEST PUSH0 PUSH1 0x40 DUP3 ADD SWAP1 POP PUSH2 0x115B PUSH0 DUP4 ADD DUP6 PUSH2 0x112A JUMP JUMPDEST PUSH2 0x1168 PUSH1 0x20 DUP4 ADD DUP5 PUSH2 0x1139 JUMP JUMPDEST SWAP4 SWAP3 POP POP POP JUMP JUMPDEST PUSH0 DUP2 SWAP1 POP SWAP2 SWAP1 POP JUMP JUMPDEST PUSH2 0x1181 DUP2 PUSH2 0x116F JUMP JUMPDEST DUP3 MSTORE POP POP JUMP JUMPDEST PUSH0 PUSH1 0xA0 DUP3 ADD SWAP1 POP PUSH2 0x119A PUSH0 DUP4 ADD DUP9 PUSH2 0x1178 JUMP JUMPDEST PUSH2 0x11A7 PUSH1 0x20 DUP4 ADD DUP8 PUSH2 0x1178 JUMP JUMPDEST PUSH2 0x11B4 PUSH1 0x40 DUP4 ADD DUP7 PUSH2 0x1178 JUMP JUMPDEST PUSH2 0x11C1 PUSH1 0x60 DUP4 ADD DUP6 PUSH2 0x1139 JUMP JUMPDEST PUSH2 0x11CE PUSH1 0x80 DUP4 ADD DUP5 PUSH2 0x112A JUMP JUMPDEST SWAP7 SWAP6 POP POP POP POP POP POP JUMP JUMPDEST PUSH32 0x4E487B7100000000000000000000000000000000000000000000000000000000 PUSH0 MSTORE PUSH1 0x21 PUSH1 0x4 MSTORE PUSH1 0x24 PUSH0 REVERT JUMPDEST DUP3 DUP2 DUP4 MCOPY PUSH0 DUP4 DUP4 ADD MSTORE POP POP POP JUMP JUMPDEST PUSH0 PUSH1 0x1F NOT PUSH1 0x1F DUP4 ADD AND SWAP1 POP SWAP2 SWAP1 POP JUMP JUMPDEST PUSH0 PUSH2 0x122D DUP3 PUSH2 0x97D JUMP JUMPDEST PUSH2 0x1237 DUP2 DUP6 PUSH2 0xC86 JUMP JUMPDEST SWAP4 POP PUSH2 0x1247 DUP2 DUP6 PUSH1 0x20 DUP7 ADD PUSH2 0x1205 JUMP JUMPDEST PUSH2 0x1250 DUP2 PUSH2 0x1213 JUMP JUMPDEST DUP5 ADD SWAP2 POP POP SWAP3 SWAP2 POP POP JUMP JUMPDEST PUSH0 PUSH1 0x20 DUP3 ADD SWAP1 POP DUP2 DUP2 SUB PUSH0 DUP4 ADD MSTORE PUSH2 0x1273 DUP2 DUP5 PUSH2 0x1223 JUMP JUMPDEST SWAP1 POP SWAP3 SWAP2 POP POP JUMP JUMPDEST PUSH0 DUP2 MLOAD SWAP1 POP SWAP2 SWAP1 POP JUMP JUMPDEST PUSH0 DUP2 SWAP1 POP PUSH1 0x20 DUP3 ADD SWAP1 POP SWAP2 SWAP1 POP JUMP JUMPDEST PUSH0 PUSH2 0x129F DUP3 MLOAD PUSH2 0x116F JUMP JUMPDEST DUP1 SWAP2 POP POP SWAP2 SWAP1 POP JUMP JUMPDEST PUSH0 PUSH2 0x12B2 DUP3 PUSH2 0x127B JUMP JUMPDEST DUP3 PUSH2 0x12BC DUP5 PUSH2 0x1285 JUMP JUMPDEST SWAP1 POP PUSH2 0x12C7 DUP2 PUSH2 0x1294 JUMP JUMPDEST SWAP3 POP PUSH1 0x20 DUP3 LT ISZERO PUSH2 0x1307 JUMPI PUSH2 0x1302 PUSH32 0xFFFFFFFFFFFFFFFFFFFFFFFFFFFFFFFFFFFFFFFFFFFFFFFFFFFFFFFFFFFFFFFF DUP4 PUSH1 0x20 SUB PUSH1 0x8 MUL PUSH2 0xA32 JUMP JUMPDEST DUP4 AND SWAP3 POP JUMPDEST POP POP SWAP2 SWAP1 POP JUMP JUMPDEST PUSH1 0x80 MLOAD PUSH1 0xA0 MLOAD PUSH1 0xC0 MLOAD PUSH1 0xE0 MLOAD PUSH2 0x100 MLOAD PUSH2 0x120 MLOAD PUSH2 0x140 MLOAD PUSH2 0xA637 PUSH3 0x1360 PUSH0 CODECOPY PUSH0 PUSH2 0x665D ADD MSTORE PUSH0 PUSH2 0x6622 ADD MSTORE PUSH0 PUSH2 0x6F22 ADD MSTORE PUSH0 PUSH2 0x6F01 ADD MSTORE PUSH0 PUSH2 0x6877 ADD MSTORE PUSH0 PUSH2 0x68CD ADD MSTORE PUSH0 PUSH2 0x68F6 ADD MSTORE PUSH2 0xA637 PUSH0 RETURN INVALID PUSH1 0x80 PUSH1 0x40 MSTORE PUSH1 0x4 CALLDATASIZE LT PUSH2 0x384 JUMPI PUSH0 CALLDATALOAD PUSH1 0xE0 SHR DUP1 PUSH4 0x7D5E81E2 GT PUSH2 0x1D0 JUMPI DUP1 PUSH4 0xC28BC2FA GT PUSH2 0x101 JUMPI DUP1 PUSH4 0xD4F168C2 GT PUSH2 0x9F JUMPI DUP1 PUSH4 0xEB9019D4 GT PUSH2 0x6E JUMPI DUP1 PUSH4 0xEB9019D4 EQ PUSH2 0xEE3 JUMPI DUP1 PUSH4 0xF23A6E61 EQ PUSH2 0xF1F JUMPI DUP1 PUSH4 0xF8CE560A EQ PUSH2 0xF5B JUMPI DUP1 PUSH4 0xFC13F6AF EQ PUSH2 0xF97 JUMPI PUSH2 0x3F7 JUMP JUMPDEST DUP1 PUSH4 0xD4F168C2 EQ PUSH2 0xE3F JUMPI DUP1 PUSH4 0xDD4E2BA5 EQ PUSH2 0xE67 JUMPI DUP1 PUSH4 0xDEAAA7CC EQ PUSH2 0xE91 JUMPI DUP1 PUSH4 0xE20615E6 EQ PUSH2 0xEBB JUMPI PUSH2 0x3F7 JUMP JUMPDEST DUP1 PUSH4 0xCAC26CE2 GT PUSH2 0xDB JUMPI DUP1 PUSH4 0xCAC26CE2 EQ PUSH2 0xD6F JUMPI DUP1 PUSH4 0xCF71A80A EQ PUSH2 0xD8B JUMPI DUP1 PUSH4 0xD23254B4 EQ PUSH2 0xDC7 JUMPI DUP1 PUSH4 0xD4A8DD98 EQ PUSH2 0xE03 JUMPI PUSH2 0x3F7 JUMP JUMPDEST DUP1 PUSH4 0xC28BC2FA EQ PUSH2 0xCDB JUMPI DUP1 PUSH4 0xC59057E4 EQ PUSH2 0xCF7 JUMPI DUP1 PUSH4 0xC7F758A8 EQ PUSH2 0xD33 JUMPI PUSH2 0x3F7 JUMP JUMPDEST DUP1 PUSH4 0x9A802A6D GT PUSH2 0x16E JUMPI DUP1 PUSH4 0xAB58FB8E GT PUSH2 0x148 JUMPI DUP1 PUSH4 0xAB58FB8E EQ PUSH2 0xBFD JUMPI DUP1 PUSH4 0xB58131B0 EQ PUSH2 0xC39 JUMPI DUP1 PUSH4 0xBC197C81 EQ PUSH2 0xC63 JUMPI DUP1 PUSH4 0xC01F9E37 EQ PUSH2 0xC9F JUMPI PUSH2 0x3F7 JUMP JUMPDEST DUP1 PUSH4 0x9A802A6D EQ PUSH2 0xB41 JUMPI DUP1 PUSH4 0xA598D03C EQ PUSH2 0xB7D JUMPI DUP1 PUSH4 0xA9A95294 EQ PUSH2 0xBC1 JUMPI PUSH2 0x3F7 JUMP JUMPDEST DUP1 PUSH4 0x8FF262E3 GT PUSH2 0x1AA JUMPI DUP1 PUSH4 0x8FF262E3 EQ PUSH2 0xA74 JUMPI DUP1 PUSH4 0x90FE5609 EQ PUSH2 0xAB0 JUMPI DUP1 PUSH4 0x91DDADF4 EQ PUSH2 0xAD8 JUMPI DUP1 PUSH4 0x992703B4 EQ PUSH2 0xB02 JUMPI PUSH2 0x3F7 JUMP JUMPDEST DUP1 PUSH4 0x7D5E81E2 EQ PUSH2 0x9CC JUMPI DUP1 PUSH4 0x7ECEBE00 EQ PUSH2 0xA08 JUMPI DUP1 PUSH4 0x84B0196E EQ PUSH2 0xA44 JUMPI PUSH2 0x3F7 JUMP JUMPDEST DUP1 PUSH4 0x3E4F49E6 GT PUSH2 0x2B5 JUMPI DUP1 PUSH4 0x54FD4D50 GT PUSH2 0x253 JUMPI DUP1 PUSH4 0x6036E9E0 GT PUSH2 0x222 JUMPI DUP1 PUSH4 0x6036E9E0 EQ PUSH2 0x902 JUMPI DUP1 PUSH4 0x6F77926B EQ PUSH2 0x92A JUMPI DUP1 PUSH4 0x740C3B98 EQ PUSH2 0x966 JUMPI DUP1 PUSH4 0x7B3C71D3 EQ PUSH2 0x990 JUMPI PUSH2 0x3F7 JUMP JUMPDEST DUP1 PUSH4 0x54FD4D50 EQ PUSH2 0x824 JUMPI DUP1 PUSH4 0x56781388 EQ PUSH2 0x84E JUMPI DUP1 PUSH4 0x5B8D0E0D EQ PUSH2 0x88A JUMPI DUP1 PUSH4 0x5F398A14 EQ PUSH2 0x8C6 JUMPI PUSH2 0x3F7 JUMP JUMPDEST DUP1 PUSH4 0x452115D6 GT PUSH2 0x28F JUMPI DUP1 PUSH4 0x452115D6 EQ PUSH2 0x75A JUMPI DUP1 PUSH4 0x4BF5D7E9 EQ PUSH2 0x796 JUMPI DUP1 PUSH4 0x4F7A0DBE EQ PUSH2 0x7C0 JUMPI DUP1 PUSH4 0x549BDD6E EQ PUSH2 0x7FC JUMPI PUSH2 0x3F7 JUMP JUMPDEST DUP1 PUSH4 0x3E4F49E6 EQ PUSH2 0x6BA JUMPI DUP1 PUSH4 0x4348A4DD EQ PUSH2 0x6F6 JUMPI DUP1 PUSH4 0x43859632 EQ PUSH2 0x71E JUMPI PUSH2 0x3F7 JUMP JUMPDEST DUP1 PUSH4 0x150B7A02 GT PUSH2 0x322 JUMPI DUP1 PUSH4 0x2D63F693 GT PUSH2 0x2FC JUMPI DUP1 PUSH4 0x2D63F693 EQ PUSH2 0x602 JUMPI DUP1 PUSH4 0x2FE3E261 EQ PUSH2 0x63E JUMPI DUP1 PUSH4 0x3932ABB1 EQ PUSH2 0x668 JUMPI DUP1 PUSH4 0x3E135400 EQ PUSH2 0x692 JUMPI PUSH2 0x3F7 JUMP JUMPDEST DUP1 PUSH4 0x150B7A02 EQ PUSH2 0x55A JUMPI DUP1 PUSH4 0x160CBED7 EQ PUSH2 0x596 JUMPI DUP1 PUSH4 0x2656227D EQ PUSH2 0x5D2 JUMPI PUSH2 0x3F7 JUMP JUMPDEST DUP1 PUSH4 0x6FDDE03 GT PUSH2 0x35E JUMPI DUP1 PUSH4 0x6FDDE03 EQ PUSH2 0x4A4 JUMPI DUP1 PUSH4 0x8EAEF12 EQ PUSH2 0x4CE JUMPI DUP1 PUSH4 0xD61B519 EQ PUSH2 0x4F6 JUMPI DUP1 PUSH4 0x143489D0 EQ PUSH2 0x51E JUMPI PUSH2 0x3F7 JUMP JUMPDEST DUP1 PUSH4 0x13CF08B EQ PUSH2 0x3FB JUMPI DUP1 PUSH4 0x1FFC9A7 EQ PUSH2 0x43E JUMPI DUP1 PUSH4 0x2A251A3 EQ PUSH2 0x47A JUMPI PUSH2 0x3F7 JUMP JUMPDEST CALLDATASIZE PUSH2 0x3F7 JUMPI ADDRESS PUSH20 0xFFFFFFFFFFFFFFFFFFFFFFFFFFFFFFFFFFFFFFFF AND PUSH2 0x3A8 PUSH2 0xFBF JUMP JUMPDEST PUSH20 0xFFFFFFFFFFFFFFFFFFFFFFFFFFFFFFFFFFFFFFFF AND EQ PUSH2 0x3F5 JUMPI PUSH1 0x40 MLOAD PUSH32 0xE90A651E00000000000000000000000000000000000000000000000000000000 DUP2 MSTORE PUSH1 0x4 ADD PUSH1 0x40 MLOAD DUP1 SWAP2 SUB SWAP1 REVERT JUMPDEST STOP JUMPDEST PUSH0 DUP1 REVERT JUMPDEST CALLVALUE DUP1 ISZERO PUSH2 0x406 JUMPI PUSH0 DUP1 REVERT JUMPDEST POP PUSH2 0x421 PUSH1 0x4 DUP1 CALLDATASIZE SUB DUP2 ADD SWAP1 PUSH2 0x41C SWAP2 SWAP1 PUSH2 0x74BE JUMP JUMPDEST PUSH2 0xFC6 JUMP JUMPDEST PUSH1 0x40 MLOAD PUSH2 0x435 SWAP9 SWAP8 SWAP7 SWAP6 SWAP5 SWAP4 SWAP3 SWAP2 SWAP1 PUSH2 0x7634 JUMP JUMPDEST PUSH1 0x40 MLOAD DUP1 SWAP2 SUB SWAP1 RETURN JUMPDEST CALLVALUE DUP1 ISZERO PUSH2 0x449 JUMPI PUSH0 DUP1 REVERT JUMPDEST POP PUSH2 0x464 PUSH1 0x4 DUP1 CALLDATASIZE SUB DUP2 ADD SWAP1 PUSH2 0x45F SWAP2 SWAP1 PUSH2 0x770C JUMP JUMPDEST PUSH2 0x10E8 JUMP JUMPDEST PUSH1 0x40 MLOAD PUSH2 0x471 SWAP2 SWAP1 PUSH2 0x7737 JUMP JUMPDEST PUSH1 0x40 MLOAD DUP1 SWAP2 SUB SWAP1 RETURN JUMPDEST CALLVALUE DUP1 ISZERO PUSH2 0x485 JUMPI PUSH0 DUP1 REVERT JUMPDEST POP PUSH2 0x48E PUSH2 0x11C9 JUMP JUMPDEST PUSH1 0x40 MLOAD PUSH2 0x49B SWAP2 SWAP1 PUSH2 0x7750 JUMP JUMPDEST PUSH1 0x40 MLOAD DUP1 SWAP2 SUB SWAP1 RETURN JUMPDEST CALLVALUE DUP1 ISZERO PUSH2 0x4AF JUMPI PUSH0 DUP1 REVERT JUMPDEST POP PUSH2 0x4B8 PUSH2 0x11D1 JUMP JUMPDEST PUSH1 0x40 MLOAD PUSH2 0x4C5 SWAP2 SWAP1 PUSH2 0x7769 JUMP JUMPDEST PUSH1 0x40 MLOAD DUP1 SWAP2 SUB SWAP1 RETURN JUMPDEST CALLVALUE DUP1 ISZERO PUSH2 0x4D9 JUMPI PUSH0 DUP1 REVERT JUMPDEST POP PUSH2 0x4F4 PUSH1 0x4 DUP1 CALLDATASIZE SUB DUP2 ADD SWAP1 PUSH2 0x4EF SWAP2 SWAP1 PUSH2 0x7925 JUMP JUMPDEST PUSH2 0x1261 JUMP JUMPDEST STOP JUMPDEST CALLVALUE DUP1 ISZERO PUSH2 0x501 JUMPI PUSH0 DUP1 REVERT JUMPDEST POP PUSH2 0x51C PUSH1 0x4 DUP1 CALLDATASIZE SUB DUP2 ADD SWAP1 PUSH2 0x517 SWAP2 SWAP1 PUSH2 0x74BE JUMP JUMPDEST PUSH2 0x18A8 JUMP JUMPDEST STOP JUMPDEST CALLVALUE DUP1 ISZERO PUSH2 0x529 JUMPI PUSH0 DUP1 REVERT JUMPDEST POP PUSH2 0x544 PUSH1 0x4 DUP1 CALLDATASIZE SUB DUP2 ADD SWAP1 PUSH2 0x53F SWAP2 SWAP1 PUSH2 0x74BE JUMP JUMPDEST PUSH2 0x1C8D JUMP JUMPDEST PUSH1 0x40 MLOAD PUSH2 0x551 SWAP2 SWAP1 PUSH2 0x79B8 JUMP JUMPDEST PUSH1 0x40 MLOAD DUP1 SWAP2 SUB SWAP1 RETURN JUMPDEST CALLVALUE DUP1 ISZERO PUSH2 0x565 JUMPI PUSH0 DUP1 REVERT JUMPDEST POP PUSH2 0x580 PUSH1 0x4 DUP1 CALLDATASIZE SUB DUP2 ADD SWAP1 PUSH2 0x57B SWAP2 SWAP1 PUSH2 0x7A6F JUMP JUMPDEST PUSH2 0x1CC8 JUMP JUMPDEST PUSH1 0x40 MLOAD PUSH2 0x58D SWAP2 SWAP1 PUSH2 0x7AFE JUMP JUMPDEST PUSH1 0x40 MLOAD DUP1 SWAP2 SUB SWAP1 RETURN JUMPDEST CALLVALUE DUP1 ISZERO PUSH2 0x5A1 JUMPI PUSH0 DUP1 REVERT JUMPDEST POP PUSH2 0x5BC PUSH1 0x4 DUP1 CALLDATASIZE SUB DUP2 ADD SWAP1 PUSH2 0x5B7 SWAP2 SWAP1 PUSH2 0x7DAC JUMP JUMPDEST PUSH2 0x1D47 JUMP JUMPDEST PUSH1 0x40 MLOAD PUSH2 0x5C9 SWAP2 SWAP1 PUSH2 0x7750 JUMP JUMPDEST PUSH1 0x40 MLOAD DUP1 SWAP2 SUB SWAP1 RETURN JUMPDEST PUSH2 0x5EC PUSH1 0x4 DUP1 CALLDATASIZE SUB DUP2 ADD SWAP1 PUSH2 0x5E7 SWAP2 SWAP1 PUSH2 0x7DAC JUMP JUMPDEST PUSH2 0x1E3D JUMP JUMPDEST PUSH1 0x40 MLOAD PUSH2 0x5F9 SWAP2 SWAP1 PUSH2 0x7750 JUMP JUMPDEST PUSH1 0x40 MLOAD DUP1 SWAP2 SUB SWAP1 RETURN JUMPDEST CALLVALUE DUP1 ISZERO PUSH2 0x60D JUMPI PUSH0 DUP1 REVERT JUMPDEST POP PUSH2 0x628 PUSH1 0x4 DUP1 CALLDATASIZE SUB DUP2 ADD SWAP1 PUSH2 0x623 SWAP2 SWAP1 PUSH2 0x74BE JUMP JUMPDEST PUSH2 0x2017 JUMP JUMPDEST PUSH1 0x40 MLOAD PUSH2 0x635 SWAP2 SWAP1 PUSH2 0x7750 JUMP JUMPDEST PUSH1 0x40 MLOAD DUP1 SWAP2 SUB SWAP1 RETURN JUMPDEST CALLVALUE DUP1 ISZERO PUSH2 0x649 JUMPI PUSH0 DUP1 REVERT JUMPDEST POP PUSH2 0x652 PUSH2 0x204D JUMP JUMPDEST PUSH1 0x40 MLOAD PUSH2 0x65F SWAP2 SWAP1 PUSH2 0x7E73 JUMP JUMPDEST PUSH1 0x40 MLOAD DUP1 SWAP2 SUB SWAP1 RETURN JUMPDEST CALLVALUE DUP1 ISZERO PUSH2 0x673 JUMPI PUSH0 DUP1 REVERT JUMPDEST POP PUSH2 0x67C PUSH2 0x2071 JUMP JUMPDEST PUSH1 0x40 MLOAD PUSH2 0x689 SWAP2 SWAP1 PUSH2 0x7750 JUMP JUMPDEST PUSH1 0x40 MLOAD DUP1 SWAP2 SUB SWAP1 RETURN JUMPDEST CALLVALUE DUP1 ISZERO PUSH2 0x69D JUMPI PUSH0 DUP1 REVERT JUMPDEST POP PUSH2 0x6B8 PUSH1 0x4 DUP1 CALLDATASIZE SUB DUP2 ADD SWAP1 PUSH2 0x6B3 SWAP2 SWAP1 PUSH2 0x74BE JUMP JUMPDEST PUSH2 0x2079 JUMP JUMPDEST STOP JUMPDEST CALLVALUE DUP1 ISZERO PUSH2 0x6C5 JUMPI PUSH0 DUP1 REVERT JUMPDEST POP PUSH2 0x6E0 PUSH1 0x4 DUP1 CALLDATASIZE SUB DUP2 ADD SWAP1 PUSH2 0x6DB SWAP2 SWAP1 PUSH2 0x74BE JUMP JUMPDEST PUSH2 0x236A JUMP JUMPDEST PUSH1 0x40 MLOAD PUSH2 0x6ED SWAP2 SWAP1 PUSH2 0x7ED2 JUMP JUMPDEST PUSH1 0x40 MLOAD DUP1 SWAP2 SUB SWAP1 RETURN JUMPDEST CALLVALUE DUP1 ISZERO PUSH2 0x701 JUMPI PUSH0 DUP1 REVERT JUMPDEST POP PUSH2 0x71C PUSH1 0x4 DUP1 CALLDATASIZE SUB DUP2 ADD SWAP1 PUSH2 0x717 SWAP2 SWAP1 PUSH2 0x7EEB JUMP JUMPDEST PUSH2 0x24C1 JUMP JUMPDEST STOP JUMPDEST CALLVALUE DUP1 ISZERO PUSH2 0x729 JUMPI PUSH0 DUP1 REVERT JUMPDEST POP PUSH2 0x744 PUSH1 0x4 DUP1 CALLDATASIZE SUB DUP2 ADD SWAP1 PUSH2 0x73F SWAP2 SWAP1 PUSH2 0x7F29 JUMP JUMPDEST PUSH2 0x2513 JUMP JUMPDEST PUSH1 0x40 MLOAD PUSH2 0x751 SWAP2 SWAP1 PUSH2 0x7737 JUMP JUMPDEST PUSH1 0x40 MLOAD DUP1 SWAP2 SUB SWAP1 RETURN JUMPDEST CALLVALUE DUP1 ISZERO PUSH2 0x765 JUMPI PUSH0 DUP1 REVERT JUMPDEST POP PUSH2 0x780 PUSH1 0x4 DUP1 CALLDATASIZE SUB DUP2 ADD SWAP1 PUSH2 0x77B SWAP2 SWAP1 PUSH2 0x7DAC JUMP JUMPDEST PUSH2 0x256B JUMP JUMPDEST PUSH1 0x40 MLOAD PUSH2 0x78D SWAP2 SWAP1 PUSH2 0x7750 JUMP JUMPDEST PUSH1 0x40 MLOAD DUP1 SWAP2 SUB SWAP1 RETURN JUMPDEST CALLVALUE DUP1 ISZERO PUSH2 0x7A1 JUMPI PUSH0 DUP1 REVERT JUMPDEST POP PUSH2 0x7AA PUSH2 0x262B JUMP JUMPDEST PUSH1 0x40 MLOAD PUSH2 0x7B7 SWAP2 SWAP1 PUSH2 0x7769 JUMP JUMPDEST PUSH1 0x40 MLOAD DUP1 SWAP2 SUB SWAP1 RETURN JUMPDEST CALLVALUE DUP1 ISZERO PUSH2 0x7CB JUMPI PUSH0 DUP1 REVERT JUMPDEST POP PUSH2 0x7E6 PUSH1 0x4 DUP1 CALLDATASIZE SUB DUP2 ADD SWAP1 PUSH2 0x7E1 SWAP2 SWAP1 PUSH2 0x7F67 JUMP JUMPDEST PUSH2 0x2668 JUMP JUMPDEST PUSH1 0x40 MLOAD PUSH2 0x7F3 SWAP2 SWAP1 PUSH2 0x7750 JUMP JUMPDEST PUSH1 0x40 MLOAD DUP1 SWAP2 SUB SWAP1 RETURN JUMPDEST CALLVALUE DUP1 ISZERO PUSH2 0x807 JUMPI PUSH0 DUP1 REVERT JUMPDEST POP PUSH2 0x822 PUSH1 0x4 DUP1 CALLDATASIZE SUB DUP2 ADD SWAP1 PUSH2 0x81D SWAP2 SWAP1 PUSH2 0x74BE JUMP JUMPDEST PUSH2 0x2709 JUMP JUMPDEST STOP JUMPDEST CALLVALUE DUP1 ISZERO PUSH2 0x82F JUMPI PUSH0 DUP1 REVERT JUMPDEST POP PUSH2 0x838 PUSH2 0x2CCA JUMP JUMPDEST PUSH1 0x40 MLOAD PUSH2 0x845 SWAP2 SWAP1 PUSH2 0x7769 JUMP JUMPDEST PUSH1 0x40 MLOAD DUP1 SWAP2 SUB SWAP1 RETURN JUMPDEST CALLVALUE DUP1 ISZERO PUSH2 0x859 JUMPI PUSH0 DUP1 REVERT JUMPDEST POP PUSH2 0x874 PUSH1 0x4 DUP1 CALLDATASIZE SUB DUP2 ADD SWAP1 PUSH2 0x86F SWAP2 SWAP1 PUSH2 0x7FC8 JUMP JUMPDEST PUSH2 0x2D07 JUMP JUMPDEST PUSH1 0x40 MLOAD PUSH2 0x881 SWAP2 SWAP1 PUSH2 0x7750 JUMP JUMPDEST PUSH1 0x40 MLOAD DUP1 SWAP2 SUB SWAP1 RETURN JUMPDEST CALLVALUE DUP1 ISZERO PUSH2 0x895 JUMPI PUSH0 DUP1 REVERT JUMPDEST POP PUSH2 0x8B0 PUSH1 0x4 DUP1 CALLDATASIZE SUB DUP2 ADD SWAP1 PUSH2 0x8AB SWAP2 SWAP1 PUSH2 0x805F JUMP JUMPDEST PUSH2 0x2D36 JUMP JUMPDEST PUSH1 0x40 MLOAD PUSH2 0x8BD SWAP2 SWAP1 PUSH2 0x7750 JUMP JUMPDEST PUSH1 0x40 MLOAD DUP1 SWAP2 SUB SWAP1 RETURN JUMPDEST CALLVALUE DUP1 ISZERO PUSH2 0x8D1 JUMPI PUSH0 DUP1 REVERT JUMPDEST POP PUSH2 0x8EC PUSH1 0x4 DUP1 CALLDATASIZE SUB DUP2 ADD SWAP1 PUSH2 0x8E7 SWAP2 SWAP1 PUSH2 0x8141 JUMP JUMPDEST PUSH2 0x2E65 JUMP JUMPDEST PUSH1 0x40 MLOAD PUSH2 0x8F9 SWAP2 SWAP1 PUSH2 0x7750 JUMP JUMPDEST PUSH1 0x40 MLOAD DUP1 SWAP2 SUB SWAP1 RETURN JUMPDEST CALLVALUE DUP1 ISZERO PUSH2 0x90D JUMPI PUSH0 DUP1 REVERT JUMPDEST POP PUSH2 0x928 PUSH1 0x4 DUP1 CALLDATASIZE SUB DUP2 ADD SWAP1 PUSH2 0x923 SWAP2 SWAP1 PUSH2 0x820B JUMP JUMPDEST PUSH2 0x2ECD JUMP JUMPDEST STOP JUMPDEST CALLVALUE DUP1 ISZERO PUSH2 0x935 JUMPI PUSH0 DUP1 REVERT JUMPDEST POP PUSH2 0x950 PUSH1 0x4 DUP1 CALLDATASIZE SUB DUP2 ADD SWAP1 PUSH2 0x94B SWAP2 SWAP1 PUSH2 0x7F67 JUMP JUMPDEST PUSH2 0x36FD JUMP JUMPDEST PUSH1 0x40 MLOAD PUSH2 0x95D SWAP2 SWAP1 PUSH2 0x8367 JUMP JUMPDEST PUSH1 0x40 MLOAD DUP1 SWAP2 SUB SWAP1 RETURN JUMPDEST CALLVALUE DUP1 ISZERO PUSH2 0x971 JUMPI PUSH0 DUP1 REVERT JUMPDEST POP PUSH2 0x97A PUSH2 0x387D JUMP JUMPDEST PUSH1 0x40 MLOAD PUSH2 0x987 SWAP2 SWAP1 PUSH2 0x7750 JUMP JUMPDEST PUSH1 0x40 MLOAD DUP1 SWAP2 SUB SWAP1 RETURN JUMPDEST CALLVALUE DUP1 ISZERO PUSH2 0x99B JUMPI PUSH0 DUP1 REVERT JUMPDEST POP PUSH2 0x9B6 PUSH1 0x4 DUP1 CALLDATASIZE SUB DUP2 ADD SWAP1 PUSH2 0x9B1 SWAP2 SWAP1 PUSH2 0x8387 JUMP JUMPDEST PUSH2 0x3883 JUMP JUMPDEST PUSH1 0x40 MLOAD PUSH2 0x9C3 SWAP2 SWAP1 PUSH2 0x7750 JUMP JUMPDEST PUSH1 0x40 MLOAD DUP1 SWAP2 SUB SWAP1 RETURN JUMPDEST CALLVALUE DUP1 ISZERO PUSH2 0x9D7 JUMPI PUSH0 DUP1 REVERT JUMPDEST POP PUSH2 0x9F2 PUSH1 0x4 DUP1 CALLDATASIZE SUB DUP2 ADD SWAP1 PUSH2 0x9ED SWAP2 SWAP1 PUSH2 0x83F8 JUMP JUMPDEST PUSH2 0x38E9 JUMP JUMPDEST PUSH1 0x40 MLOAD PUSH2 0x9FF SWAP2 SWAP1 PUSH2 0x7750 JUMP JUMPDEST PUSH1 0x40 MLOAD DUP1 SWAP2 SUB SWAP1 RETURN JUMPDEST CALLVALUE DUP1 ISZERO PUSH2 0xA13 JUMPI PUSH0 DUP1 REVERT JUMPDEST POP PUSH2 0xA2E PUSH1 0x4 DUP1 CALLDATASIZE SUB DUP2 ADD SWAP1 PUSH2 0xA29 SWAP2 SWAP1 PUSH2 0x7F67 JUMP JUMPDEST PUSH2 0x39DF JUMP JUMPDEST PUSH1 0x40 MLOAD PUSH2 0xA3B SWAP2 SWAP1 PUSH2 0x7750 JUMP JUMPDEST PUSH1 0x40 MLOAD DUP1 SWAP2 SUB SWAP1 RETURN JUMPDEST CALLVALUE DUP1 ISZERO PUSH2 0xA4F JUMPI PUSH0 DUP1 REVERT JUMPDEST POP PUSH2 0xA58 PUSH2 0x3A25 JUMP JUMPDEST PUSH1 0x40 MLOAD PUSH2 0xA6B SWAP8 SWAP7 SWAP6 SWAP5 SWAP4 SWAP3 SWAP2 SWAP1 PUSH2 0x85AE JUMP JUMPDEST PUSH1 0x40 MLOAD DUP1 SWAP2 SUB SWAP1 RETURN JUMPDEST CALLVALUE DUP1 ISZERO PUSH2 0xA7F JUMPI PUSH0 DUP1 REVERT JUMPDEST POP PUSH2 0xA9A PUSH1 0x4 DUP1 CALLDATASIZE SUB DUP2 ADD SWAP1 PUSH2 0xA95 SWAP2 SWAP1 PUSH2 0x8630 JUMP JUMPDEST PUSH2 0x3ACA JUMP JUMPDEST PUSH1 0x40 MLOAD PUSH2 0xAA7 SWAP2 SWAP1 PUSH2 0x7750 JUMP JUMPDEST PUSH1 0x40 MLOAD DUP1 SWAP2 SUB SWAP1 RETURN JUMPDEST CALLVALUE DUP1 ISZERO PUSH2 0xABB JUMPI PUSH0 DUP1 REVERT JUMPDEST POP PUSH2 0xAD6 PUSH1 0x4 DUP1 CALLDATASIZE SUB DUP2 ADD SWAP1 PUSH2 0xAD1 SWAP2 SWAP1 PUSH2 0x86B0 JUMP JUMPDEST PUSH2 0x3B9E JUMP JUMPDEST STOP JUMPDEST CALLVALUE DUP1 ISZERO PUSH2 0xAE3 JUMPI PUSH0 DUP1 REVERT JUMPDEST POP PUSH2 0xAEC PUSH2 0x3DEB JUMP JUMPDEST PUSH1 0x40 MLOAD PUSH2 0xAF9 SWAP2 SWAP1 PUSH2 0x870E JUMP JUMPDEST PUSH1 0x40 MLOAD DUP1 SWAP2 SUB SWAP1 RETURN JUMPDEST CALLVALUE DUP1 ISZERO PUSH2 0xB0D JUMPI PUSH0 DUP1 REVERT JUMPDEST POP PUSH2 0xB28 PUSH1 0x4 DUP1 CALLDATASIZE SUB DUP2 ADD SWAP1 PUSH2 0xB23 SWAP2 SWAP1 PUSH2 0x7F29 JUMP JUMPDEST PUSH2 0x3DF2 JUMP JUMPDEST PUSH1 0x40 MLOAD PUSH2 0xB38 SWAP5 SWAP4 SWAP3 SWAP2 SWAP1 PUSH2 0x8727 JUMP JUMPDEST PUSH1 0x40 MLOAD DUP1 SWAP2 SUB SWAP1 RETURN JUMPDEST CALLVALUE DUP1 ISZERO PUSH2 0xB4C JUMPI PUSH0 DUP1 REVERT JUMPDEST POP PUSH2 0xB67 PUSH1 0x4 DUP1 CALLDATASIZE SUB DUP2 ADD SWAP1 PUSH2 0xB62 SWAP2 SWAP1 PUSH2 0x876A JUMP JUMPDEST PUSH2 0x3E54 JUMP JUMPDEST PUSH1 0x40 MLOAD PUSH2 0xB74 SWAP2 SWAP1 PUSH2 0x7750 JUMP JUMPDEST PUSH1 0x40 MLOAD DUP1 SWAP2 SUB SWAP1 RETURN JUMPDEST CALLVALUE DUP1 ISZERO PUSH2 0xB88 JUMPI PUSH0 DUP1 REVERT JUMPDEST POP PUSH2 0xBA3 PUSH1 0x4 DUP1 CALLDATASIZE SUB DUP2 ADD SWAP1 PUSH2 0xB9E SWAP2 SWAP1 PUSH2 0x74BE JUMP JUMPDEST PUSH2 0x3E69 JUMP JUMPDEST PUSH1 0x40 MLOAD PUSH2 0xBB8 SWAP10 SWAP9 SWAP8 SWAP7 SWAP6 SWAP5 SWAP4 SWAP3 SWAP2 SWAP1 PUSH2 0x8862 JUMP JUMPDEST PUSH1 0x40 MLOAD DUP1 SWAP2 SUB SWAP1 RETURN JUMPDEST CALLVALUE DUP1 ISZERO PUSH2 0xBCC JUMPI PUSH0 DUP1 REVERT JUMPDEST POP PUSH2 0xBE7 PUSH1 0x4 DUP1 CALLDATASIZE SUB DUP2 ADD SWAP1 PUSH2 0xBE2 SWAP2 SWAP1 PUSH2 0x74BE JUMP JUMPDEST PUSH2 0x3F71 JUMP JUMPDEST PUSH1 0x40 MLOAD PUSH2 0xBF4 SWAP2 SWAP1 PUSH2 0x7737 JUMP JUMPDEST PUSH1 0x40 MLOAD DUP1 SWAP2 SUB SWAP1 RETURN JUMPDEST CALLVALUE DUP1 ISZERO PUSH2 0xC08 JUMPI PUSH0 DUP1 REVERT JUMPDEST POP PUSH2 0xC23 PUSH1 0x4 DUP1 CALLDATASIZE SUB DUP2 ADD SWAP1 PUSH2 0xC1E SWAP2 SWAP1 PUSH2 0x74BE JUMP JUMPDEST PUSH2 0x3F77 JUMP JUMPDEST PUSH1 0x40 MLOAD PUSH2 0xC30 SWAP2 SWAP1 PUSH2 0x7750 JUMP JUMPDEST PUSH1 0x40 MLOAD DUP1 SWAP2 SUB SWAP1 RETURN JUMPDEST CALLVALUE DUP1 ISZERO PUSH2 0xC44 JUMPI PUSH0 DUP1 REVERT JUMPDEST POP PUSH2 0xC4D PUSH2 0x3FAD JUMP JUMPDEST PUSH1 0x40 MLOAD PUSH2 0xC5A SWAP2 SWAP1 PUSH2 0x7750 JUMP JUMPDEST PUSH1 0x40 MLOAD DUP1 SWAP2 SUB SWAP1 RETURN JUMPDEST CALLVALUE DUP1 ISZERO PUSH2 0xC6E JUMPI PUSH0 DUP1 REVERT JUMPDEST POP PUSH2 0xC89 PUSH1 0x4 DUP1 CALLDATASIZE SUB DUP2 ADD SWAP1 PUSH2 0xC84 SWAP2 SWAP1 PUSH2 0x88F4 JUMP JUMPDEST PUSH2 0x3FB1 JUMP JUMPDEST PUSH1 0x40 MLOAD PUSH2 0xC96 SWAP2 SWAP1 PUSH2 0x7AFE JUMP JUMPDEST PUSH1 0x40 MLOAD DUP1 SWAP2 SUB SWAP1 RETURN JUMPDEST CALLVALUE DUP1 ISZERO PUSH2 0xCAA JUMPI PUSH0 DUP1 REVERT JUMPDEST POP PUSH2 0xCC5 PUSH1 0x4 DUP1 CALLDATASIZE SUB DUP2 ADD SWAP1 PUSH2 0xCC0 SWAP2 SWAP1 PUSH2 0x74BE JUMP JUMPDEST PUSH2 0x4031 JUMP JUMPDEST PUSH1 0x40 MLOAD PUSH2 0xCD2 SWAP2 SWAP1 PUSH2 0x7750 JUMP JUMPDEST PUSH1 0x40 MLOAD DUP1 SWAP2 SUB SWAP1 RETURN JUMPDEST PUSH2 0xCF5 PUSH1 0x4 DUP1 CALLDATASIZE SUB DUP2 ADD SWAP1 PUSH2 0xCF0 SWAP2 SWAP1 PUSH2 0x8A14 JUMP JUMPDEST PUSH2 0x409B JUMP JUMPDEST STOP JUMPDEST CALLVALUE DUP1 ISZERO PUSH2 0xD02 JUMPI PUSH0 DUP1 REVERT JUMPDEST POP PUSH2 0xD1D PUSH1 0x4 DUP1 CALLDATASIZE SUB DUP2 ADD SWAP1 PUSH2 0xD18 SWAP2 SWAP1 PUSH2 0x7DAC JUMP JUMPDEST PUSH2 0x4124 JUMP JUMPDEST PUSH1 0x40 MLOAD PUSH2 0xD2A SWAP2 SWAP1 PUSH2 0x7750 JUMP JUMPDEST PUSH1 0x40 MLOAD DUP1 SWAP2 SUB SWAP1 RETURN JUMPDEST CALLVALUE DUP1 ISZERO PUSH2 0xD3E JUMPI PUSH0 DUP1 REVERT JUMPDEST POP PUSH2 0xD59 PUSH1 0x4 DUP1 CALLDATASIZE SUB DUP2 ADD SWAP1 PUSH2 0xD54 SWAP2 SWAP1 PUSH2 0x74BE JUMP JUMPDEST PUSH2 0x415E JUMP JUMPDEST PUSH1 0x40 MLOAD PUSH2 0xD66 SWAP2 SWAP1 PUSH2 0x8B50 JUMP JUMPDEST PUSH1 0x40 MLOAD DUP1 SWAP2 SUB SWAP1 RETURN JUMPDEST PUSH2 0xD89 PUSH1 0x4 DUP1 CALLDATASIZE SUB DUP2 ADD SWAP1 PUSH2 0xD84 SWAP2 SWAP1 PUSH2 0x74BE JUMP JUMPDEST PUSH2 0x4337 JUMP JUMPDEST STOP JUMPDEST CALLVALUE DUP1 ISZERO PUSH2 0xD96 JUMPI PUSH0 DUP1 REVERT JUMPDEST POP PUSH2 0xDB1 PUSH1 0x4 DUP1 CALLDATASIZE SUB DUP2 ADD SWAP1 PUSH2 0xDAC SWAP2 SWAP1 PUSH2 0x8B93 JUMP JUMPDEST PUSH2 0x45C0 JUMP JUMPDEST PUSH1 0x40 MLOAD PUSH2 0xDBE SWAP2 SWAP1 PUSH2 0x7750 JUMP JUMPDEST PUSH1 0x40 MLOAD DUP1 SWAP2 SUB SWAP1 RETURN JUMPDEST CALLVALUE DUP1 ISZERO PUSH2 0xDD2 JUMPI PUSH0 DUP1 REVERT JUMPDEST POP PUSH2 0xDED PUSH1 0x4 DUP1 CALLDATASIZE SUB DUP2 ADD SWAP1 PUSH2 0xDE8 SWAP2 SWAP1 PUSH2 0x7F29 JUMP JUMPDEST PUSH2 0x45EB JUMP JUMPDEST PUSH1 0x40 MLOAD PUSH2 0xDFA SWAP2 SWAP1 PUSH2 0x7750 JUMP JUMPDEST PUSH1 0x40 MLOAD DUP1 SWAP2 SUB SWAP1 RETURN JUMPDEST CALLVALUE DUP1 ISZERO PUSH2 0xE0E JUMPI PUSH0 DUP1 REVERT JUMPDEST POP PUSH2 0xE29 PUSH1 0x4 DUP1 CALLDATASIZE SUB DUP2 ADD SWAP1 PUSH2 0xE24 SWAP2 SWAP1 PUSH2 0x74BE JUMP JUMPDEST PUSH2 0x460B JUMP JUMPDEST PUSH1 0x40 MLOAD PUSH2 0xE36 SWAP2 SWAP1 PUSH2 0x7737 JUMP JUMPDEST PUSH1 0x40 MLOAD DUP1 SWAP2 SUB SWAP1 RETURN JUMPDEST CALLVALUE DUP1 ISZERO PUSH2 0xE4A JUMPI PUSH0 DUP1 REVERT JUMPDEST POP PUSH2 0xE65 PUSH1 0x4 DUP1 CALLDATASIZE SUB DUP2 ADD SWAP1 PUSH2 0xE60 SWAP2 SWAP1 PUSH2 0x7F67 JUMP JUMPDEST PUSH2 0x4881 JUMP JUMPDEST STOP JUMPDEST CALLVALUE DUP1 ISZERO PUSH2 0xE72 JUMPI PUSH0 DUP1 REVERT JUMPDEST POP PUSH2 0xE7B PUSH2 0x49A0 JUMP JUMPDEST PUSH1 0x40 MLOAD PUSH2 0xE88 SWAP2 SWAP1 PUSH2 0x7769 JUMP JUMPDEST PUSH1 0x40 MLOAD DUP1 SWAP2 SUB SWAP1 RETURN JUMPDEST CALLVALUE DUP1 ISZERO PUSH2 0xE9C JUMPI PUSH0 DUP1 REVERT JUMPDEST POP PUSH2 0xEA5 PUSH2 0x49C0 JUMP JUMPDEST PUSH1 0x40 MLOAD PUSH2 0xEB2 SWAP2 SWAP1 PUSH2 0x7E73 JUMP JUMPDEST PUSH1 0x40 MLOAD DUP1 SWAP2 SUB SWAP1 RETURN JUMPDEST CALLVALUE DUP1 ISZERO PUSH2 0xEC6 JUMPI PUSH0 DUP1 REVERT JUMPDEST POP PUSH2 0xEE1 PUSH1 0x4 DUP1 CALLDATASIZE SUB DUP2 ADD SWAP1 PUSH2 0xEDC SWAP2 SWAP1 PUSH2 0x8BD1 JUMP JUMPDEST PUSH2 0x49E4 JUMP JUMPDEST STOP JUMPDEST CALLVALUE DUP1 ISZERO PUSH2 0xEEE JUMPI PUSH0 DUP1 REVERT JUMPDEST POP PUSH2 0xF09 PUSH1 0x4 DUP1 CALLDATASIZE SUB DUP2 ADD SWAP1 PUSH2 0xF04 SWAP2 SWAP1 PUSH2 0x7EEB JUMP JUMPDEST PUSH2 0x5067 JUMP JUMPDEST PUSH1 0x40 MLOAD PUSH2 0xF16 SWAP2 SWAP1 PUSH2 0x7750 JUMP JUMPDEST PUSH1 0x40 MLOAD DUP1 SWAP2 SUB SWAP1 RETURN JUMPDEST CALLVALUE DUP1 ISZERO PUSH2 0xF2A JUMPI PUSH0 DUP1 REVERT JUMPDEST POP PUSH2 0xF45 PUSH1 0x4 DUP1 CALLDATASIZE SUB DUP2 ADD SWAP1 PUSH2 0xF40 SWAP2 SWAP1 PUSH2 0x8C21 JUMP JUMPDEST PUSH2 0x5082 JUMP JUMPDEST PUSH1 0x40 MLOAD PUSH2 0xF52 SWAP2 SWAP1 PUSH2 0x7AFE JUMP JUMPDEST PUSH1 0x40 MLOAD DUP1 SWAP2 SUB SWAP1 RETURN JUMPDEST CALLVALUE DUP1 ISZERO PUSH2 0xF66 JUMPI PUSH0 DUP1 REVERT JUMPDEST POP PUSH2 0xF81 PUSH1 0x4 DUP1 CALLDATASIZE SUB DUP2 ADD SWAP1 PUSH2 0xF7C SWAP2 SWAP1 PUSH2 0x74BE JUMP JUMPDEST PUSH2 0x5102 JUMP JUMPDEST PUSH1 0x40 MLOAD PUSH2 0xF8E SWAP2 SWAP1 PUSH2 0x7750 JUMP JUMPDEST PUSH1 0x40 MLOAD DUP1 SWAP2 SUB SWAP1 RETURN JUMPDEST CALLVALUE DUP1 ISZERO PUSH2 0xFA2 JUMPI PUSH0 DUP1 REVERT JUMPDEST POP PUSH2 0xFBD PUSH1 0x4 DUP1 CALLDATASIZE SUB DUP2 ADD SWAP1 PUSH2 0xFB8 SWAP2 SWAP1 PUSH2 0x8CD7 JUMP JUMPDEST PUSH2 0x510C JUMP JUMPDEST STOP JUMPDEST PUSH0 ADDRESS SWAP1 POP SWAP1 JUMP JUMPDEST PUSH1 0x14 PUSH1 0x20 MSTORE DUP1 PUSH0 MSTORE PUSH1 0x40 PUSH0 KECCAK256 PUSH0 SWAP2 POP SWAP1 POP DUP1 PUSH0 ADD SLOAD SWAP1 DUP1 PUSH1 0x1 ADD PUSH0 SWAP1 SLOAD SWAP1 PUSH2 0x100 EXP SWAP1 DIV PUSH20 0xFFFFFFFFFFFFFFFFFFFFFFFFFFFFFFFFFFFFFFFF AND SWAP1 DUP1 PUSH1 0x2 ADD DUP1 SLOAD PUSH2 0x1010 SWAP1 PUSH2 0x8D70 JUMP JUMPDEST DUP1 PUSH1 0x1F ADD PUSH1 0x20 DUP1 SWAP2 DIV MUL PUSH1 0x20 ADD PUSH1 0x40 MLOAD SWAP1 DUP2 ADD PUSH1 0x40 MSTORE DUP1 SWAP3 SWAP2 SWAP1 DUP2 DUP2 MSTORE PUSH1 0x20 ADD DUP3 DUP1 SLOAD PUSH2 0x103C SWAP1 PUSH2 0x8D70 JUMP JUMPDEST DUP1 ISZERO PUSH2 0x1087 JUMPI DUP1 PUSH1 0x1F LT PUSH2 0x105E JUMPI PUSH2 0x100 DUP1 DUP4 SLOAD DIV MUL DUP4 MSTORE SWAP2 PUSH1 0x20 ADD SWAP2 PUSH2 0x1087 JUMP JUMPDEST DUP3 ADD SWAP2 SWAP1 PUSH0 MSTORE PUSH1 0x20 PUSH0 KECCAK256 SWAP1 JUMPDEST DUP2 SLOAD DUP2 MSTORE SWAP1 PUSH1 0x1 ADD SWAP1 PUSH1 0x20 ADD DUP1 DUP4 GT PUSH2 0x106A JUMPI DUP3 SWAP1 SUB PUSH1 0x1F AND DUP3 ADD SWAP2 JUMPDEST POP POP POP POP POP SWAP1 DUP1 PUSH1 0x3 ADD SLOAD SWAP1 DUP1 PUSH1 0x4 ADD PUSH0 SWAP1 SLOAD SWAP1 PUSH2 0x100 EXP SWAP1 DIV PUSH1 0xFF AND SWAP1 DUP1 PUSH1 0x4 ADD PUSH1 0x1 SWAP1 SLOAD SWAP1 PUSH2 0x100 EXP SWAP1 DIV PUSH1 0xFF AND SWAP1 DUP1 PUSH1 0x4 ADD PUSH1 0x2 SWAP1 SLOAD SWAP1 PUSH2 0x100 EXP SWAP1 DIV PUSH20 0xFFFFFFFFFFFFFFFFFFFFFFFFFFFFFFFFFFFFFFFF AND SWAP1 DUP1 PUSH1 0x5 ADD SLOAD SWAP1 POP DUP9 JUMP JUMPDEST PUSH0 PUSH32 0x65455A8600000000000000000000000000000000000000000000000000000000 PUSH28 0xFFFFFFFFFFFFFFFFFFFFFFFFFFFFFFFFFFFFFFFFFFFFFFFFFFFFFFFF NOT AND DUP3 PUSH28 0xFFFFFFFFFFFFFFFFFFFFFFFFFFFFFFFFFFFFFFFFFFFFFFFFFFFFFFFF NOT AND EQ DUP1 PUSH2 0x11B2 JUMPI POP PUSH32 0x4E2312E000000000000000000000000000000000000000000000000000000000 PUSH28 0xFFFFFFFFFFFFFFFFFFFFFFFFFFFFFFFFFFFFFFFFFFFFFFFFFFFFFFFF NOT AND DUP3 PUSH28 0xFFFFFFFFFFFFFFFFFFFFFFFFFFFFFFFFFFFFFFFFFFFFFFFFFFFFFFFF NOT AND EQ JUMPDEST DUP1 PUSH2 0x11C2 JUMPI POP PUSH2 0x11C1 DUP3 PUSH2 0x522E JUMP JUMPDEST JUMPDEST SWAP1 POP SWAP2 SWAP1 POP JUMP JUMPDEST PUSH0 PUSH1 0x96 SWAP1 POP SWAP1 JUMP JUMPDEST PUSH1 0x60 PUSH1 0x3 DUP1 SLOAD PUSH2 0x11E0 SWAP1 PUSH2 0x8D70 JUMP JUMPDEST DUP1 PUSH1 0x1F ADD PUSH1 0x20 DUP1 SWAP2 DIV MUL PUSH1 0x20 ADD PUSH1 0x40 MLOAD SWAP1 DUP2 ADD PUSH1 0x40 MSTORE DUP1 SWAP3 SWAP2 SWAP1 DUP2 DUP2 MSTORE PUSH1 0x20 ADD DUP3 DUP1 SLOAD PUSH2 0x120C SWAP1 PUSH2 0x8D70 JUMP JUMPDEST DUP1 ISZERO PUSH2 0x1257 JUMPI DUP1 PUSH1 0x1F LT PUSH2 0x122E JUMPI PUSH2 0x100 DUP1 DUP4 SLOAD DIV MUL DUP4 MSTORE SWAP2 PUSH1 0x20 ADD SWAP2 PUSH2 0x1257 JUMP JUMPDEST DUP3 ADD SWAP2 SWAP1 PUSH0 MSTORE PUSH1 0x20 PUSH0 KECCAK256 SWAP1 JUMPDEST DUP2 SLOAD DUP2 MSTORE SWAP1 PUSH1 0x1 ADD SWAP1 PUSH1 0x20 ADD DUP1 DUP4 GT PUSH2 0x123A JUMPI DUP3 SWAP1 SUB PUSH1 0x1F AND DUP3 ADD SWAP2 JUMPDEST POP POP POP POP POP SWAP1 POP SWAP1 JUMP JUMPDEST PUSH1 0x1 PUSH1 0x2 DUP2 GT ISZERO PUSH2 0x1275 JUMPI PUSH2 0x1274 PUSH2 0x75C1 JUMP JUMPDEST JUMPDEST PUSH1 0x16 PUSH0 CALLER PUSH20 0xFFFFFFFFFFFFFFFFFFFFFFFFFFFFFFFFFFFFFFFF AND PUSH20 0xFFFFFFFFFFFFFFFFFFFFFFFFFFFFFFFFFFFFFFFF AND DUP2 MSTORE PUSH1 0x20 ADD SWAP1 DUP2 MSTORE PUSH1 0x20 ADD PUSH0 KECCAK256 PUSH1 0x1 ADD PUSH1 0x14 SWAP1 SLOAD SWAP1 PUSH2 0x100 EXP SWAP1 DIV PUSH1 0xFF AND PUSH1 0x2 DUP2 GT ISZERO PUSH2 0x12D5 JUMPI PUSH2 0x12D4 PUSH2 0x75C1 JUMP JUMPDEST JUMPDEST EQ PUSH2 0x12DE JUMPI PUSH0 DUP1 REVERT JUMPDEST PUSH0 PUSH1 0x1 PUSH8 0xFFFFFFFFFFFFFFFF DUP2 GT ISZERO PUSH2 0x12FA JUMPI PUSH2 0x12F9 PUSH2 0x77B4 JUMP JUMPDEST JUMPDEST PUSH1 0x40 MLOAD SWAP1 DUP1 DUP3 MSTORE DUP1 PUSH1 0x20 MUL PUSH1 0x20 ADD DUP3 ADD PUSH1 0x40 MSTORE DUP1 ISZERO PUSH2 0x1328 JUMPI DUP2 PUSH1 0x20 ADD PUSH1 0x20 DUP3 MUL DUP1 CALLDATASIZE DUP4 CALLDATACOPY DUP1 DUP3 ADD SWAP2 POP POP SWAP1 POP JUMPDEST POP SWAP1 POP PUSH0 PUSH1 0x1 PUSH8 0xFFFFFFFFFFFFFFFF DUP2 GT ISZERO PUSH2 0x1347 JUMPI PUSH2 0x1346 PUSH2 0x77B4 JUMP JUMPDEST JUMPDEST PUSH1 0x40 MLOAD SWAP1 DUP1 DUP3 MSTORE DUP1 PUSH1 0x20 MUL PUSH1 0x20 ADD DUP3 ADD PUSH1 0x40 MSTORE DUP1 ISZERO PUSH2 0x1375 JUMPI DUP2 PUSH1 0x20 ADD PUSH1 0x20 DUP3 MUL DUP1 CALLDATASIZE DUP4 CALLDATACOPY DUP1 DUP3 ADD SWAP2 POP POP SWAP1 POP JUMPDEST POP SWAP1 POP PUSH0 PUSH1 0x1 PUSH8 0xFFFFFFFFFFFFFFFF DUP2 GT ISZERO PUSH2 0x1394 JUMPI PUSH2 0x1393 PUSH2 0x77B4 JUMP JUMPDEST JUMPDEST PUSH1 0x40 MLOAD SWAP1 DUP1 DUP3 MSTORE DUP1 PUSH1 0x20 MUL PUSH1 0x20 ADD DUP3 ADD PUSH1 0x40 MSTORE DUP1 ISZERO PUSH2 0x13C7 JUMPI DUP2 PUSH1 0x20 ADD JUMPDEST PUSH1 0x60 DUP2 MSTORE PUSH1 0x20 ADD SWAP1 PUSH1 0x1 SWAP1 SUB SWAP1 DUP2 PUSH2 0x13B2 JUMPI SWAP1 POP JUMPDEST POP SWAP1 POP ADDRESS DUP4 PUSH0 DUP2 MLOAD DUP2 LT PUSH2 0x13DE JUMPI PUSH2 0x13DD PUSH2 0x8DA0 JUMP JUMPDEST JUMPDEST PUSH1 0x20 MUL PUSH1 0x20 ADD ADD SWAP1 PUSH20 0xFFFFFFFFFFFFFFFFFFFFFFFFFFFFFFFFFFFFFFFF AND SWAP1 DUP2 PUSH20 0xFFFFFFFFFFFFFFFFFFFFFFFFFFFFFFFFFFFFFFFF AND DUP2 MSTORE POP POP PUSH0 DUP3 PUSH0 DUP2 MLOAD DUP2 LT PUSH2 0x142C JUMPI PUSH2 0x142B PUSH2 0x8DA0 JUMP JUMPDEST JUMPDEST PUSH1 0x20 MUL PUSH1 0x20 ADD ADD DUP2 DUP2 MSTORE POP POP PUSH0 PUSH1 0x4 DUP2 GT ISZERO PUSH2 0x144B JUMPI PUSH2 0x144A PUSH2 0x75C1 JUMP JUMPDEST JUMPDEST DUP9 PUSH1 0x4 DUP2 GT ISZERO PUSH2 0x145E JUMPI PUSH2 0x145D PUSH2 0x75C1 JUMP JUMPDEST JUMPDEST SUB PUSH2 0x1516 JUMPI DUP5 DUP5 PUSH1 0x40 MLOAD PUSH1 0x24 ADD PUSH2 0x1476 SWAP3 SWAP2 SWAP1 PUSH2 0x8DCD JUMP JUMPDEST PUSH1 0x40 MLOAD PUSH1 0x20 DUP2 DUP4 SUB SUB DUP2 MSTORE SWAP1 PUSH1 0x40 MSTORE PUSH32 0x5795AE500000000000000000000000000000000000000000000000000000000 PUSH28 0xFFFFFFFFFFFFFFFFFFFFFFFFFFFFFFFFFFFFFFFFFFFFFFFFFFFFFFFF NOT AND PUSH1 0x20 DUP3 ADD DUP1 MLOAD PUSH28 0xFFFFFFFFFFFFFFFFFFFFFFFFFFFFFFFFFFFFFFFFFFFFFFFFFFFFFFFF DUP4 DUP2 DUP4 AND OR DUP4 MSTORE POP POP POP POP DUP2 PUSH0 DUP2 MLOAD DUP2 LT PUSH2 0x1506 JUMPI PUSH2 0x1505 PUSH2 0x8DA0 JUMP JUMPDEST JUMPDEST PUSH1 0x20 MUL PUSH1 0x20 ADD ADD DUP2 SWAP1 MSTORE POP PUSH2 0x188D JUMP JUMPDEST PUSH1 0x1 PUSH1 0x4 DUP2 GT ISZERO PUSH2 0x152A JUMPI PUSH2 0x1529 PUSH2 0x75C1 JUMP JUMPDEST JUMPDEST DUP9 PUSH1 0x4 DUP2 GT ISZERO PUSH2 0x153D JUMPI PUSH2 0x153C PUSH2 0x75C1 JUMP JUMPDEST JUMPDEST SUB PUSH2 0x15F5 JUMPI DUP5 DUP5 PUSH1 0x40 MLOAD PUSH1 0x24 ADD PUSH2 0x1555 SWAP3 SWAP2 SWAP1 PUSH2 0x8DCD JUMP JUMPDEST PUSH1 0x40 MLOAD PUSH1 0x20 DUP2 DUP4 SUB SUB DUP2 MSTORE SWAP1 PUSH1 0x40 MSTORE PUSH32 0xDFF9FED200000000000000000000000000000000000000000000000000000000 PUSH28 0xFFFFFFFFFFFFFFFFFFFFFFFFFFFFFFFFFFFFFFFFFFFFFFFFFFFFFFFF NOT AND PUSH1 0x20 DUP3 ADD DUP1 MLOAD PUSH28 0xFFFFFFFFFFFFFFFFFFFFFFFFFFFFFFFFFFFFFFFFFFFFFFFFFFFFFFFF DUP4 DUP2 DUP4 AND OR DUP4 MSTORE POP POP POP POP DUP2 PUSH0 DUP2 MLOAD DUP2 LT PUSH2 0x15E5 JUMPI PUSH2 0x15E4 PUSH2 0x8DA0 JUMP JUMPDEST JUMPDEST PUSH1 0x20 MUL PUSH1 0x20 ADD ADD DUP2 SWAP1 MSTORE POP PUSH2 0x188C JUMP JUMPDEST PUSH1 0x2 PUSH1 0x4 DUP2 GT ISZERO PUSH2 0x1609 JUMPI PUSH2 0x1608 PUSH2 0x75C1 JUMP JUMPDEST JUMPDEST DUP9 PUSH1 0x4 DUP2 GT ISZERO PUSH2 0x161C JUMPI PUSH2 0x161B PUSH2 0x75C1 JUMP JUMPDEST JUMPDEST SUB PUSH2 0x16D2 JUMPI DUP5 PUSH1 0x40 MLOAD PUSH1 0x24 ADD PUSH2 0x1632 SWAP2 SWAP1 PUSH2 0x79B8 JUMP JUMPDEST PUSH1 0x40 MLOAD PUSH1 0x20 DUP2 DUP4 SUB SUB DUP2 MSTORE SWAP1 PUSH1 0x40 MSTORE PUSH32 0x5F6BBF3800000000000000000000000000000000000000000000000000000000 PUSH28 0xFFFFFFFFFFFFFFFFFFFFFFFFFFFFFFFFFFFFFFFFFFFFFFFFFFFFFFFF NOT AND PUSH1 0x20 DUP3 ADD DUP1 MLOAD PUSH28 0xFFFFFFFFFFFFFFFFFFFFFFFFFFFFFFFFFFFFFFFFFFFFFFFFFFFFFFFF DUP4 DUP2 DUP4 AND OR DUP4 MSTORE POP POP POP POP DUP2 PUSH0 DUP2 MLOAD DUP2 LT PUSH2 0x16C2 JUMPI PUSH2 0x16C1 PUSH2 0x8DA0 JUMP JUMPDEST JUMPDEST PUSH1 0x20 MUL PUSH1 0x20 ADD ADD DUP2 SWAP1 MSTORE POP PUSH2 0x188B JUMP JUMPDEST PUSH1 0x3 PUSH1 0x4 DUP2 GT ISZERO PUSH2 0x16E6 JUMPI PUSH2 0x16E5 PUSH2 0x75C1 JUMP JUMPDEST JUMPDEST DUP9 PUSH1 0x4 DUP2 GT ISZERO PUSH2 0x16F9 JUMPI PUSH2 0x16F8 PUSH2 0x75C1 JUMP JUMPDEST JUMPDEST SUB PUSH2 0x17AF JUMPI DUP5 PUSH1 0x40 MLOAD PUSH1 0x24 ADD PUSH2 0x170F SWAP2 SWAP1 PUSH2 0x79B8 JUMP JUMPDEST PUSH1 0x40 MLOAD PUSH1 0x20 DUP2 DUP4 SUB SUB DUP2 MSTORE SWAP1 PUSH1 0x40 MSTORE PUSH32 0xD4F168C200000000000000000000000000000000000000000000000000000000 PUSH28 0xFFFFFFFFFFFFFFFFFFFFFFFFFFFFFFFFFFFFFFFFFFFFFFFFFFFFFFFF NOT AND PUSH1 0x20 DUP3 ADD DUP1 MLOAD PUSH28 0xFFFFFFFFFFFFFFFFFFFFFFFFFFFFFFFFFFFFFFFFFFFFFFFFFFFFFFFF DUP4 DUP2 DUP4 AND OR DUP4 MSTORE POP POP POP POP DUP2 PUSH0 DUP2 MLOAD DUP2 LT PUSH2 0x179F JUMPI PUSH2 0x179E PUSH2 0x8DA0 JUMP JUMPDEST JUMPDEST PUSH1 0x20 MUL PUSH1 0x20 ADD ADD DUP2 SWAP1 MSTORE POP PUSH2 0x188A JUMP JUMPDEST PUSH1 0x4 DUP1 DUP2 GT ISZERO PUSH2 0x17C2 JUMPI PUSH2 0x17C1 PUSH2 0x75C1 JUMP JUMPDEST JUMPDEST DUP9 PUSH1 0x4 DUP2 GT ISZERO PUSH2 0x17D5 JUMPI PUSH2 0x17D4 PUSH2 0x75C1 JUMP JUMPDEST JUMPDEST SUB PUSH2 0x1889 JUMPI DUP5 DUP5 PUSH1 0x40 MLOAD PUSH1 0x24 ADD PUSH2 0x17ED SWAP3 SWAP2 SWAP1 PUSH2 0x8DCD JUMP JUMPDEST PUSH1 0x40 MLOAD PUSH1 0x20 DUP2 DUP4 SUB SUB DUP2 MSTORE SWAP1 PUSH1 0x40 MSTORE PUSH32 0x2B44E59900000000000000000000000000000000000000000000000000000000 PUSH28 0xFFFFFFFFFFFFFFFFFFFFFFFFFFFFFFFFFFFFFFFFFFFFFFFFFFFFFFFF NOT AND PUSH1 0x20 DUP3 ADD DUP1 MLOAD PUSH28 0xFFFFFFFFFFFFFFFFFFFFFFFFFFFFFFFFFFFFFFFFFFFFFFFFFFFFFFFF DUP4 DUP2 DUP4 AND OR DUP4 MSTORE POP POP POP POP DUP2 PUSH0 DUP2 MLOAD DUP2 LT PUSH2 0x187D JUMPI PUSH2 0x187C PUSH2 0x8DA0 JUMP JUMPDEST JUMPDEST PUSH1 0x20 MUL PUSH1 0x20 ADD ADD DUP2 SWAP1 MSTORE POP JUMPDEST JUMPDEST JUMPDEST JUMPDEST JUMPDEST PUSH2 0x189D DUP4 DUP4 DUP4 DUP11 DUP11 DUP14 DUP12 DUP12 PUSH2 0x5297 JUMP JUMPDEST POP POP POP POP POP POP POP POP POP JUMP JUMPDEST PUSH0 PUSH1 0x14 PUSH0 DUP4 DUP2 MSTORE PUSH1 0x20 ADD SWAP1 DUP2 MSTORE PUSH1 0x20 ADD PUSH0 KECCAK256 SWAP1 POP PUSH0 PUSH1 0x15 PUSH0 DUP4 PUSH1 0x3 ADD SLOAD DUP2 MSTORE PUSH1 0x20 ADD SWAP1 DUP2 MSTORE PUSH1 0x20 ADD PUSH0 KECCAK256 SWAP1 POP PUSH2 0x1AFF DUP2 PUSH1 0x40 MLOAD DUP1 PUSH2 0x140 ADD PUSH1 0x40 MSTORE SWAP1 DUP2 PUSH0 DUP3 ADD PUSH0 SWAP1 SLOAD SWAP1 PUSH2 0x100 EXP SWAP1 DIV PUSH20 0xFFFFFFFFFFFFFFFFFFFFFFFFFFFFFFFFFFFFFFFF AND PUSH20 0xFFFFFFFFFFFFFFFFFFFFFFFFFFFFFFFFFFFFFFFF AND PUSH20 0xFFFFFFFFFFFFFFFFFFFFFFFFFFFFFFFFFFFFFFFF AND DUP2 MSTORE PUSH1 0x20 ADD PUSH1 0x1 DUP3 ADD DUP1 SLOAD PUSH2 0x1948 SWAP1 PUSH2 0x8D70 JUMP JUMPDEST DUP1 PUSH1 0x1F ADD PUSH1 0x20 DUP1 SWAP2 DIV MUL PUSH1 0x20 ADD PUSH1 0x40 MLOAD SWAP1 DUP2 ADD PUSH1 0x40 MSTORE DUP1 SWAP3 SWAP2 SWAP1 DUP2 DUP2 MSTORE PUSH1 0x20 ADD DUP3 DUP1 SLOAD PUSH2 0x1974 SWAP1 PUSH2 0x8D70 JUMP JUMPDEST DUP1 ISZERO PUSH2 0x19BF JUMPI DUP1 PUSH1 0x1F LT PUSH2 0x1996 JUMPI PUSH2 0x100 DUP1 DUP4 SLOAD DIV MUL DUP4 MSTORE SWAP2 PUSH1 0x20 ADD SWAP2 PUSH2 0x19BF JUMP JUMPDEST DUP3 ADD SWAP2 SWAP1 PUSH0 MSTORE PUSH1 0x20 PUSH0 KECCAK256 SWAP1 JUMPDEST DUP2 SLOAD DUP2 MSTORE SWAP1 PUSH1 0x1 ADD SWAP1 PUSH1 0x20 ADD DUP1 DUP4 GT PUSH2 0x19A2 JUMPI DUP3 SWAP1 SUB PUSH1 0x1F AND DUP3 ADD SWAP2 JUMPDEST POP POP POP POP POP DUP2 MSTORE PUSH1 0x20 ADD PUSH1 0x2 DUP3 ADD SLOAD DUP2 MSTORE PUSH1 0x20 ADD PUSH1 0x3 DUP3 ADD SLOAD DUP2 MSTORE PUSH1 0x20 ADD PUSH1 0x4 DUP3 ADD PUSH0 SWAP1 SLOAD SWAP1 PUSH2 0x100 EXP SWAP1 DIV PUSH1 0xFF AND PUSH1 0x4 DUP2 GT ISZERO PUSH2 0x1A00 JUMPI PUSH2 0x19FF PUSH2 0x75C1 JUMP JUMPDEST JUMPDEST PUSH1 0x4 DUP2 GT ISZERO PUSH2 0x1A12 JUMPI PUSH2 0x1A11 PUSH2 0x75C1 JUMP JUMPDEST JUMPDEST DUP2 MSTORE PUSH1 0x20 ADD PUSH1 0x4 DUP3 ADD PUSH1 0x1 SWAP1 SLOAD SWAP1 PUSH2 0x100 EXP SWAP1 DIV PUSH1 0xFF AND PUSH1 0x2 DUP2 GT ISZERO PUSH2 0x1A3B JUMPI PUSH2 0x1A3A PUSH2 0x75C1 JUMP JUMPDEST JUMPDEST PUSH1 0x2 DUP2 GT ISZERO PUSH2 0x1A4D JUMPI PUSH2 0x1A4C PUSH2 0x75C1 JUMP JUMPDEST JUMPDEST DUP2 MSTORE PUSH1 0x20 ADD PUSH1 0x5 DUP3 ADD SLOAD DUP2 MSTORE PUSH1 0x20 ADD PUSH1 0x6 DUP3 ADD SLOAD DUP2 MSTORE PUSH1 0x20 ADD PUSH1 0x7 DUP3 ADD SLOAD DUP2 MSTORE PUSH1 0x20 ADD PUSH1 0x8 DUP3 ADD DUP1 SLOAD DUP1 PUSH1 0x20 MUL PUSH1 0x20 ADD PUSH1 0x40 MLOAD SWAP1 DUP2 ADD PUSH1 0x40 MSTORE DUP1 SWAP3 SWAP2 SWAP1 DUP2 DUP2 MSTORE PUSH1 0x20 ADD DUP3 DUP1 SLOAD DUP1 ISZERO PUSH2 0x1AF1 JUMPI PUSH1 0x20 MUL DUP3 ADD SWAP2 SWAP1 PUSH0 MSTORE PUSH1 0x20 PUSH0 KECCAK256 SWAP1 JUMPDEST DUP2 PUSH0 SWAP1 SLOAD SWAP1 PUSH2 0x100 EXP SWAP1 DIV PUSH20 0xFFFFFFFFFFFFFFFFFFFFFFFFFFFFFFFFFFFFFFFF AND PUSH20 0xFFFFFFFFFFFFFFFFFFFFFFFFFFFFFFFFFFFFFFFF AND DUP2 MSTORE PUSH1 0x20 ADD SWAP1 PUSH1 0x1 ADD SWAP1 DUP1 DUP4 GT PUSH2 0x1AA8 JUMPI JUMPDEST POP POP POP POP POP DUP2 MSTORE POP POP PUSH2 0x56B2 JUMP JUMPDEST DUP2 PUSH1 0x4 ADD PUSH0 SWAP1 SLOAD SWAP1 PUSH2 0x100 EXP SWAP1 DIV PUSH1 0xFF AND ISZERO PUSH2 0x1B50 JUMPI PUSH1 0x40 MLOAD PUSH32 0x8C379A000000000000000000000000000000000000000000000000000000000 DUP2 MSTORE PUSH1 0x4 ADD PUSH2 0x1B47 SWAP1 PUSH2 0x8E3E JUMP JUMPDEST PUSH1 0x40 MLOAD DUP1 SWAP2 SUB SWAP1 REVERT JUMPDEST DUP1 PUSH1 0x3 ADD SLOAD TIMESTAMP GT PUSH2 0x1B96 JUMPI PUSH1 0x40 MLOAD PUSH32 0x8C379A000000000000000000000000000000000000000000000000000000000 DUP2 MSTORE PUSH1 0x4 ADD PUSH2 0x1B8D SWAP1 PUSH2 0x8EA6 JUMP JUMPDEST PUSH1 0x40 MLOAD DUP1 SWAP2 SUB SWAP1 REVERT JUMPDEST PUSH2 0x1B9F DUP4 PUSH2 0x460B JUMP JUMPDEST DUP1 ISZERO PUSH2 0x1BB0 JUMPI POP PUSH2 0x1BAF DUP4 PUSH2 0x5767 JUMP JUMPDEST JUMPDEST ISZERO PUSH2 0x1C0B JUMPI PUSH1 0x2 DUP2 PUSH1 0x4 ADD PUSH0 PUSH2 0x100 EXP DUP2 SLOAD DUP2 PUSH1 0xFF MUL NOT AND SWAP1 DUP4 PUSH1 0x4 DUP2 GT ISZERO PUSH2 0x1BDC JUMPI PUSH2 0x1BDB PUSH2 0x75C1 JUMP JUMPDEST JUMPDEST MUL OR SWAP1 SSTORE POP PUSH1 0x1 DUP3 PUSH1 0x4 ADD PUSH0 PUSH2 0x100 EXP DUP2 SLOAD DUP2 PUSH1 0xFF MUL NOT AND SWAP1 DUP4 ISZERO ISZERO MUL OR SWAP1 SSTORE POP PUSH2 0x1C06 DUP4 PUSH2 0x578F JUMP JUMPDEST PUSH2 0x1C38 JUMP JUMPDEST PUSH1 0x1 DUP2 PUSH1 0x4 ADD PUSH0 PUSH2 0x100 EXP DUP2 SLOAD DUP2 PUSH1 0xFF MUL NOT AND SWAP1 DUP4 PUSH1 0x4 DUP2 GT ISZERO PUSH2 0x1C32 JUMPI PUSH2 0x1C31 PUSH2 0x75C1 JUMP JUMPDEST JUMPDEST MUL OR SWAP1 SSTORE POP JUMPDEST DUP1 PUSH1 0x4 ADD PUSH0 SWAP1 SLOAD SWAP1 PUSH2 0x100 EXP SWAP1 DIV PUSH1 0xFF AND PUSH1 0x4 DUP2 GT ISZERO PUSH2 0x1C5B JUMPI PUSH2 0x1C5A PUSH2 0x75C1 JUMP JUMPDEST JUMPDEST DUP4 PUSH32 0x5B9614F21773D68C0B149BDA804FF3D491C8BC8795F7ED236CC97804CD005389 PUSH1 0x40 MLOAD PUSH1 0x40 MLOAD DUP1 SWAP2 SUB SWAP1 LOG3 POP POP POP JUMP JUMPDEST PUSH0 PUSH1 0x4 PUSH0 DUP4 DUP2 MSTORE PUSH1 0x20 ADD SWAP1 DUP2 MSTORE PUSH1 0x20 ADD PUSH0 KECCAK256 PUSH0 ADD PUSH0 SWAP1 SLOAD SWAP1 PUSH2 0x100 EXP SWAP1 DIV PUSH20 0xFFFFFFFFFFFFFFFFFFFFFFFFFFFFFFFFFFFFFFFF AND SWAP1 POP SWAP2 SWAP1 POP JUMP JUMPDEST PUSH0 ADDRESS PUSH20 0xFFFFFFFFFFFFFFFFFFFFFFFFFFFFFFFFFFFFFFFF AND PUSH2 0x1CE8 PUSH2 0xFBF JUMP JUMPDEST PUSH20 0xFFFFFFFFFFFFFFFFFFFFFFFFFFFFFFFFFFFFFFFF AND EQ PUSH2 0x1D35 JUMPI PUSH1 0x40 MLOAD PUSH32 0xE90A651E00000000000000000000000000000000000000000000000000000000 DUP2 MSTORE PUSH1 0x4 ADD PUSH1 0x40 MLOAD DUP1 SWAP2 SUB SWAP1 REVERT JUMPDEST PUSH4 0x150B7A02 PUSH1 0xE0 SHL SWAP1 POP SWAP5 SWAP4 POP POP POP POP JUMP JUMPDEST PUSH0 DUP1 PUSH2 0x1D55 DUP7 DUP7 DUP7 DUP7 PUSH2 0x4124 JUMP JUMPDEST SWAP1 POP PUSH2 0x1D6A DUP2 PUSH2 0x1D65 PUSH1 0x4 PUSH2 0x5AA0 JUMP JUMPDEST PUSH2 0x5AC4 JUMP JUMPDEST POP PUSH0 PUSH2 0x1D79 DUP3 DUP9 DUP9 DUP9 DUP9 PUSH2 0x5B2F JUMP JUMPDEST SWAP1 POP PUSH0 DUP2 PUSH6 0xFFFFFFFFFFFF AND EQ PUSH2 0x1DFE JUMPI DUP1 PUSH1 0x4 PUSH0 DUP5 DUP2 MSTORE PUSH1 0x20 ADD SWAP1 DUP2 MSTORE PUSH1 0x20 ADD PUSH0 KECCAK256 PUSH1 0x1 ADD PUSH0 PUSH2 0x100 EXP DUP2 SLOAD DUP2 PUSH6 0xFFFFFFFFFFFF MUL NOT AND SWAP1 DUP4 PUSH6 0xFFFFFFFFFFFF AND MUL OR SWAP1 SSTORE POP PUSH32 0x9A2E42FD6722813D69113E7D0079D3D940171428DF7373DF9C7F7617CFDA2892 DUP3 DUP3 PUSH1 0x40 MLOAD PUSH2 0x1DF1 SWAP3 SWAP2 SWAP1 PUSH2 0x8EFD JUMP JUMPDEST PUSH1 0x40 MLOAD DUP1 SWAP2 SUB SWAP1 LOG1 PUSH2 0x1E30 JUMP JUMPDEST PUSH1 0x40 MLOAD PUSH32 0x90884A4600000000000000000000000000000000000000000000000000000000 DUP2 MSTORE PUSH1 0x4 ADD PUSH1 0x40 MLOAD DUP1 SWAP2 SUB SWAP1 REVERT JUMPDEST DUP2 SWAP3 POP POP POP SWAP5 SWAP4 POP POP POP POP JUMP JUMPDEST PUSH0 DUP1 PUSH2 0x1E4B DUP7 DUP7 DUP7 DUP7 PUSH2 0x4124 JUMP JUMPDEST SWAP1 POP PUSH2 0x1E6B DUP2 PUSH2 0x1E5B PUSH1 0x5 PUSH2 0x5AA0 JUMP JUMPDEST PUSH2 0x1E65 PUSH1 0x4 PUSH2 0x5AA0 JUMP JUMPDEST OR PUSH2 0x5AC4 JUMP JUMPDEST POP PUSH1 0x1 PUSH1 0x4 PUSH0 DUP4 DUP2 MSTORE PUSH1 0x20 ADD SWAP1 DUP2 MSTORE PUSH1 0x20 ADD PUSH0 KECCAK256 PUSH0 ADD PUSH1 0x1E PUSH2 0x100 EXP DUP2 SLOAD DUP2 PUSH1 0xFF MUL NOT AND SWAP1 DUP4 ISZERO ISZERO MUL OR SWAP1 SSTORE POP ADDRESS PUSH20 0xFFFFFFFFFFFFFFFFFFFFFFFFFFFFFFFFFFFFFFFF AND PUSH2 0x1EB7 PUSH2 0xFBF JUMP JUMPDEST PUSH20 0xFFFFFFFFFFFFFFFFFFFFFFFFFFFFFFFFFFFFFFFF AND EQ PUSH2 0x1F6D JUMPI PUSH0 JUMPDEST DUP7 MLOAD DUP2 LT ISZERO PUSH2 0x1F6B JUMPI ADDRESS PUSH20 0xFFFFFFFFFFFFFFFFFFFFFFFFFFFFFFFFFFFFFFFF AND DUP8 DUP3 DUP2 MLOAD DUP2 LT PUSH2 0x1F07 JUMPI PUSH2 0x1F06 PUSH2 0x8DA0 JUMP JUMPDEST JUMPDEST PUSH1 0x20 MUL PUSH1 0x20 ADD ADD MLOAD PUSH20 0xFFFFFFFFFFFFFFFFFFFFFFFFFFFFFFFFFFFFFFFF AND SUB PUSH2 0x1F60 JUMPI PUSH2 0x1F5F DUP6 DUP3 DUP2 MLOAD DUP2 LT PUSH2 0x1F40 JUMPI PUSH2 0x1F3F PUSH2 0x8DA0 JUMP JUMPDEST JUMPDEST PUSH1 0x20 MUL PUSH1 0x20 ADD ADD MLOAD DUP1 MLOAD SWAP1 PUSH1 0x20 ADD KECCAK256 PUSH1 0x5 PUSH2 0x5B39 SWAP1 SWAP2 SWAP1 PUSH4 0xFFFFFFFF AND JUMP JUMPDEST JUMPDEST DUP1 PUSH1 0x1 ADD SWAP1 POP PUSH2 0x1ED4 JUMP JUMPDEST POP JUMPDEST PUSH2 0x1F7A DUP2 DUP8 DUP8 DUP8 DUP8 PUSH2 0x5C31 JUMP JUMPDEST ADDRESS PUSH20 0xFFFFFFFFFFFFFFFFFFFFFFFFFFFFFFFFFFFFFFFF AND PUSH2 0x1F99 PUSH2 0xFBF JUMP JUMPDEST PUSH20 0xFFFFFFFFFFFFFFFFFFFFFFFFFFFFFFFFFFFFFFFF AND EQ ISZERO DUP1 ISZERO PUSH2 0x1FC4 JUMPI POP PUSH2 0x1FC2 PUSH1 0x5 PUSH2 0x5D16 JUMP JUMPDEST ISZERO JUMPDEST ISZERO PUSH2 0x1FD4 JUMPI PUSH2 0x1FD3 PUSH1 0x5 PUSH2 0x5D82 JUMP JUMPDEST JUMPDEST PUSH32 0x712AE1383F79AC853F8D882153778E0260EF8F03B504E2866E0593E04D2B291F DUP2 PUSH1 0x40 MLOAD PUSH2 0x2003 SWAP2 SWAP1 PUSH2 0x7750 JUMP JUMPDEST PUSH1 0x40 MLOAD DUP1 SWAP2 SUB SWAP1 LOG1 DUP1 SWAP2 POP POP SWAP5 SWAP4 POP POP POP POP JUMP JUMPDEST PUSH0 PUSH1 0x4 PUSH0 DUP4 DUP2 MSTORE PUSH1 0x20 ADD SWAP1 DUP2 MSTORE PUSH1 0x20 ADD PUSH0 KECCAK256 PUSH0 ADD PUSH1 0x14 SWAP1 SLOAD SWAP1 PUSH2 0x100 EXP SWAP1 DIV PUSH6 0xFFFFFFFFFFFF AND PUSH6 0xFFFFFFFFFFFF AND SWAP1 POP SWAP2 SWAP1 POP JUMP JUMPDEST PUSH32 0x3E83946653575F9A39005E1545185629E92736B7528AB20CA3816F315424A811 DUP2 JUMP JUMPDEST PUSH0 PUSH1 0x1 SWAP1 POP SWAP1 JUMP JUMPDEST PUSH0 PUSH1 0xE SLOAD DUP3 PUSH2 0x2088 SWAP2 SWAP1 PUSH2 0x8F51 JUMP JUMPDEST SWAP1 POP PUSH1 0xC PUSH0 SWAP1 SLOAD SWAP1 PUSH2 0x100 EXP SWAP1 DIV PUSH20 0xFFFFFFFFFFFFFFFFFFFFFFFFFFFFFFFFFFFFFFFF AND PUSH20 0xFFFFFFFFFFFFFFFFFFFFFFFFFFFFFFFFFFFFFFFF AND PUSH4 0xA64B6E5F CALLER ADDRESS PUSH1 0xC PUSH0 SWAP1 SLOAD SWAP1 PUSH2 0x100 EXP SWAP1 DIV PUSH20 0xFFFFFFFFFFFFFFFFFFFFFFFFFFFFFFFFFFFFFFFF AND PUSH20 0xFFFFFFFFFFFFFFFFFFFFFFFFFFFFFFFFFFFFFFFF AND PUSH4 0x313CE567 PUSH1 0x40 MLOAD DUP2 PUSH4 0xFFFFFFFF AND PUSH1 0xE0 SHL DUP2 MSTORE PUSH1 0x4 ADD PUSH1 0x20 PUSH1 0x40 MLOAD DUP1 DUP4 SUB DUP2 DUP7 GAS STATICCALL ISZERO DUP1 ISZERO PUSH2 0x2133 JUMPI RETURNDATASIZE PUSH0 DUP1 RETURNDATACOPY RETURNDATASIZE PUSH0 REVERT JUMPDEST POP POP POP POP PUSH1 0x40 MLOAD RETURNDATASIZE PUSH1 0x1F NOT PUSH1 0x1F DUP3 ADD AND DUP3 ADD DUP1 PUSH1 0x40 MSTORE POP DUP2 ADD SWAP1 PUSH2 0x2157 SWAP2 SWAP1 PUSH2 0x8FA6 JUMP JUMPDEST PUSH1 0xA PUSH2 0x2163 SWAP2 SWAP1 PUSH2 0x9100 JUMP JUMPDEST DUP6 PUSH2 0x216E SWAP2 SWAP1 PUSH2 0x8F51 JUMP JUMPDEST PUSH1 0x40 MLOAD DUP5 PUSH4 0xFFFFFFFF AND PUSH1 0xE0 SHL DUP2 MSTORE PUSH1 0x4 ADD PUSH2 0x218C SWAP4 SWAP3 SWAP2 SWAP1 PUSH2 0x914A JUMP JUMPDEST PUSH1 0x20 PUSH1 0x40 MLOAD DUP1 DUP4 SUB DUP2 PUSH0 DUP8 GAS CALL ISZERO DUP1 ISZERO PUSH2 0x21A8 JUMPI RETURNDATASIZE PUSH0 DUP1 RETURNDATACOPY RETURNDATASIZE PUSH0 REVERT JUMPDEST POP POP POP POP PUSH1 0x40 MLOAD RETURNDATASIZE PUSH1 0x1F NOT PUSH1 0x1F DUP3 ADD AND DUP3 ADD DUP1 PUSH1 0x40 MSTORE POP DUP2 ADD SWAP1 PUSH2 0x21CC SWAP2 SWAP1 PUSH2 0x9193 JUMP JUMPDEST POP PUSH1 0xD PUSH0 SWAP1 SLOAD SWAP1 PUSH2 0x100 EXP SWAP1 DIV PUSH20 0xFFFFFFFFFFFFFFFFFFFFFFFFFFFFFFFFFFFFFFFF AND PUSH20 0xFFFFFFFFFFFFFFFFFFFFFFFFFFFFFFFFFFFFFFFF AND PUSH4 0xA64B6E5F ADDRESS CALLER PUSH1 0xD PUSH0 SWAP1 SLOAD SWAP1 PUSH2 0x100 EXP SWAP1 DIV PUSH20 0xFFFFFFFFFFFFFFFFFFFFFFFFFFFFFFFFFFFFFFFF AND PUSH20 0xFFFFFFFFFFFFFFFFFFFFFFFFFFFFFFFFFFFFFFFF AND PUSH4 0x313CE567 PUSH1 0x40 MLOAD DUP2 PUSH4 0xFFFFFFFF AND PUSH1 0xE0 SHL DUP2 MSTORE PUSH1 0x4 ADD PUSH1 0x20 PUSH1 0x40 MLOAD DUP1 DUP4 SUB DUP2 DUP7 GAS STATICCALL ISZERO DUP1 ISZERO PUSH2 0x2276 JUMPI RETURNDATASIZE PUSH0 DUP1 RETURNDATACOPY RETURNDATASIZE PUSH0 REVERT JUMPDEST POP POP POP POP PUSH1 0x40 MLOAD RETURNDATASIZE PUSH1 0x1F NOT PUSH1 0x1F DUP3 ADD AND DUP3 ADD DUP1 PUSH1 0x40 MSTORE POP DUP2 ADD SWAP1 PUSH2 0x229A SWAP2 SWAP1 PUSH2 0x8FA6 JUMP JUMPDEST PUSH1 0xA PUSH2 0x22A6 SWAP2 SWAP1 PUSH2 0x9100 JUMP JUMPDEST DUP6 PUSH2 0x22B1 SWAP2 SWAP1 PUSH2 0x8F51 JUMP JUMPDEST PUSH1 0x40 MLOAD DUP5 PUSH4 0xFFFFFFFF AND PUSH1 0xE0 SHL DUP2 MSTORE PUSH1 0x4 ADD PUSH2 0x22CF SWAP4 SWAP3 SWAP2 SWAP1 PUSH2 0x914A JUMP JUMPDEST PUSH1 0x20 PUSH1 0x40 MLOAD DUP1 DUP4 SUB DUP2 PUSH0 DUP8 GAS CALL ISZERO DUP1 ISZERO PUSH2 0x22EB JUMPI RETURNDATASIZE PUSH0 DUP1 RETURNDATACOPY RETURNDATASIZE PUSH0 REVERT JUMPDEST POP POP POP POP PUSH1 0x40 MLOAD RETURNDATASIZE PUSH1 0x1F NOT PUSH1 0x1F DUP3 ADD AND DUP3 ADD DUP1 PUSH1 0x40 MSTORE POP DUP2 ADD SWAP1 PUSH2 0x230F SWAP2 SWAP1 PUSH2 0x9193 JUMP JUMPDEST POP DUP2 PUSH1 0x16 PUSH0 CALLER PUSH20 0xFFFFFFFFFFFFFFFFFFFFFFFFFFFFFFFFFFFFFFFF AND PUSH20 0xFFFFFFFFFFFFFFFFFFFFFFFFFFFFFFFFFFFFFFFF AND DUP2 MSTORE PUSH1 0x20 ADD SWAP1 DUP2 MSTORE PUSH1 0x20 ADD PUSH0 KECCAK256 PUSH1 0x2 ADD PUSH0 DUP3 DUP3 SLOAD PUSH2 0x235F SWAP2 SWAP1 PUSH2 0x91BE JUMP JUMPDEST SWAP3 POP POP DUP2 SWAP1 SSTORE POP POP POP JUMP JUMPDEST PUSH0 DUP1 PUSH1 0x4 PUSH0 DUP5 DUP2 MSTORE PUSH1 0x20 ADD SWAP1 DUP2 MSTORE PUSH1 0x20 ADD PUSH0 KECCAK256 SWAP1 POP PUSH0 DUP2 PUSH0 ADD PUSH1 0x1E SWAP1 SLOAD SWAP1 PUSH2 0x100 EXP SWAP1 DIV PUSH1 0xFF AND SWAP1 POP PUSH0 DUP3 PUSH0 ADD PUSH1 0x1F SWAP1 SLOAD SWAP1 PUSH2 0x100 EXP SWAP1 DIV PUSH1 0xFF AND SWAP1 POP DUP2 ISZERO PUSH2 0x23B9 JUMPI PUSH1 0x7 SWAP4 POP POP POP POP PUSH2 0x24BC JUMP JUMPDEST DUP1 ISZERO PUSH2 0x23CB JUMPI PUSH1 0x2 SWAP4 POP POP POP POP PUSH2 0x24BC JUMP JUMPDEST PUSH0 PUSH2 0x23D5 DUP7 PUSH2 0x2017 JUMP JUMPDEST SWAP1 POP PUSH0 DUP2 SUB PUSH2 0x241B JUMPI DUP6 PUSH1 0x40 MLOAD PUSH32 0x6AD0607500000000000000000000000000000000000000000000000000000000 DUP2 MSTORE PUSH1 0x4 ADD PUSH2 0x2412 SWAP2 SWAP1 PUSH2 0x7750 JUMP JUMPDEST PUSH1 0x40 MLOAD DUP1 SWAP2 SUB SWAP1 REVERT JUMPDEST PUSH0 PUSH2 0x2424 PUSH2 0x3DEB JUMP JUMPDEST PUSH6 0xFFFFFFFFFFFF AND SWAP1 POP DUP1 DUP3 LT PUSH2 0x2442 JUMPI PUSH0 SWAP6 POP POP POP POP POP POP PUSH2 0x24BC JUMP JUMPDEST PUSH0 PUSH2 0x244C DUP9 PUSH2 0x4031 JUMP JUMPDEST SWAP1 POP DUP2 DUP2 LT PUSH2 0x2464 JUMPI PUSH1 0x1 SWAP7 POP POP POP POP POP POP POP PUSH2 0x24BC JUMP JUMPDEST PUSH2 0x246D DUP9 PUSH2 0x5DF8 JUMP JUMPDEST ISZERO DUP1 PUSH2 0x247F JUMPI POP PUSH2 0x247D DUP9 PUSH2 0x5767 JUMP JUMPDEST ISZERO JUMPDEST ISZERO PUSH2 0x2493 JUMPI PUSH1 0x3 SWAP7 POP POP POP POP POP POP POP PUSH2 0x24BC JUMP JUMPDEST PUSH0 PUSH2 0x249D DUP10 PUSH2 0x3F77 JUMP JUMPDEST SUB PUSH2 0x24B1 JUMPI PUSH1 0x4 SWAP7 POP POP POP POP POP POP POP PUSH2 0x24BC JUMP JUMPDEST PUSH1 0x5 SWAP7 POP POP POP POP POP POP POP JUMPDEST SWAP2 SWAP1 POP JUMP JUMPDEST DUP2 PUSH20 0xFFFFFFFFFFFFFFFFFFFFFFFFFFFFFFFFFFFFFFFF AND PUSH32 0x8594B6EC50DC6D717D6E9CACE88338A5EEDB2517861DCFAB8656725B4806AC5C DUP3 PUSH1 0x40 MLOAD PUSH2 0x2507 SWAP2 SWAP1 PUSH2 0x7750 JUMP JUMPDEST PUSH1 0x40 MLOAD DUP1 SWAP2 SUB SWAP1 LOG2 POP POP JUMP JUMPDEST PUSH0 DUP1 PUSH1 0x12 PUSH0 DUP6 DUP2 MSTORE PUSH1 0x20 ADD SWAP1 DUP2 MSTORE PUSH1 0x20 ADD PUSH0 KECCAK256 PUSH0 DUP5 PUSH20 0xFFFFFFFFFFFFFFFFFFFFFFFFFFFFFFFFFFFFFFFF AND PUSH20 0xFFFFFFFFFFFFFFFFFFFFFFFFFFFFFFFFFFFFFFFF AND DUP2 MSTORE PUSH1 0x20 ADD SWAP1 DUP2 MSTORE PUSH1 0x20 ADD PUSH0 KECCAK256 SLOAD GT SWAP1 POP SWAP3 SWAP2 POP POP JUMP JUMPDEST PUSH0 DUP1 PUSH2 0x2579 DUP7 DUP7 DUP7 DUP7 PUSH2 0x4124 JUMP JUMPDEST SWAP1 POP PUSH2 0x258D DUP2 PUSH2 0x2588 PUSH0 PUSH2 0x5AA0 JUMP JUMPDEST PUSH2 0x5AC4 JUMP JUMPDEST POP PUSH2 0x2597 DUP2 PUSH2 0x1C8D JUMP JUMPDEST PUSH20 0xFFFFFFFFFFFFFFFFFFFFFFFFFFFFFFFFFFFFFFFF AND PUSH2 0x25B5 PUSH2 0x5E46 JUMP JUMPDEST PUSH20 0xFFFFFFFFFFFFFFFFFFFFFFFFFFFFFFFFFFFFFFFF AND EQ PUSH2 0x2614 JUMPI PUSH2 0x25D8 PUSH2 0x5E46 JUMP JUMPDEST PUSH1 0x40 MLOAD PUSH32 0x233D98E300000000000000000000000000000000000000000000000000000000 DUP2 MSTORE PUSH1 0x4 ADD PUSH2 0x260B SWAP2 SWAP1 PUSH2 0x79B8 JUMP JUMPDEST PUSH1 0x40 MLOAD DUP1 SWAP2 SUB SWAP1 REVERT JUMPDEST PUSH2 0x2620 DUP7 DUP7 DUP7 DUP7 PUSH2 0x5E4D JUMP JUMPDEST SWAP2 POP POP SWAP5 SWAP4 POP POP POP POP JUMP JUMPDEST PUSH1 0x60 PUSH1 0x40 MLOAD DUP1 PUSH1 0x40 ADD PUSH1 0x40 MSTORE DUP1 PUSH1 0x1D DUP2 MSTORE PUSH1 0x20 ADD PUSH32 0x6D6F64653D626C6F636B6E756D6265722666726F6D3D64656661756C74000000 DUP2 MSTORE POP SWAP1 POP SWAP1 JUMP JUMPDEST PUSH0 PUSH1 0xC PUSH0 SWAP1 SLOAD SWAP1 PUSH2 0x100 EXP SWAP1 DIV PUSH20 0xFFFFFFFFFFFFFFFFFFFFFFFFFFFFFFFFFFFFFFFF AND PUSH20 0xFFFFFFFFFFFFFFFFFFFFFFFFFFFFFFFFFFFFFFFF AND PUSH4 0x70A08231 DUP4 PUSH1 0x40 MLOAD DUP3 PUSH4 0xFFFFFFFF AND PUSH1 0xE0 SHL DUP2 MSTORE PUSH1 0x4 ADD PUSH2 0x26C3 SWAP2 SWAP1 PUSH2 0x79B8 JUMP JUMPDEST PUSH1 0x20 PUSH1 0x40 MLOAD DUP1 DUP4 SUB DUP2 DUP7 GAS STATICCALL ISZERO DUP1 ISZERO PUSH2 0x26DE JUMPI RETURNDATASIZE PUSH0 DUP1 RETURNDATACOPY RETURNDATASIZE PUSH0 REVERT JUMPDEST POP POP POP POP PUSH1 0x40 MLOAD RETURNDATASIZE PUSH1 0x1F NOT PUSH1 0x1F DUP3 ADD AND DUP3 ADD DUP1 PUSH1 0x40 MSTORE POP DUP2 ADD SWAP1 PUSH2 0x2702 SWAP2 SWAP1 PUSH2 0x9205 JUMP JUMPDEST SWAP1 POP SWAP2 SWAP1 POP JUMP JUMPDEST PUSH1 0x1 PUSH1 0x2 DUP2 GT ISZERO PUSH2 0x271D JUMPI PUSH2 0x271C PUSH2 0x75C1 JUMP JUMPDEST JUMPDEST PUSH1 0x16 PUSH0 CALLER PUSH20 0xFFFFFFFFFFFFFFFFFFFFFFFFFFFFFFFFFFFFFFFF AND PUSH20 0xFFFFFFFFFFFFFFFFFFFFFFFFFFFFFFFFFFFFFFFF AND DUP2 MSTORE PUSH1 0x20 ADD SWAP1 DUP2 MSTORE PUSH1 0x20 ADD PUSH0 KECCAK256 PUSH1 0x1 ADD PUSH1 0x14 SWAP1 SLOAD SWAP1 PUSH2 0x100 EXP SWAP1 DIV PUSH1 0xFF AND PUSH1 0x2 DUP2 GT ISZERO PUSH2 0x277D JUMPI PUSH2 0x277C PUSH2 0x75C1 JUMP JUMPDEST JUMPDEST EQ PUSH2 0x2786 JUMPI PUSH0 DUP1 REVERT JUMPDEST PUSH0 PUSH1 0x15 PUSH0 DUP4 DUP2 MSTORE PUSH1 0x20 ADD SWAP1 DUP2 MSTORE PUSH1 0x20 ADD PUSH0 KECCAK256 SWAP1 POP PUSH2 0x29C5 DUP2 PUSH1 0x40 MLOAD DUP1 PUSH2 0x140 ADD PUSH1 0x40 MSTORE SWAP1 DUP2 PUSH0 DUP3 ADD PUSH0 SWAP1 SLOAD SWAP1 PUSH2 0x100 EXP SWAP1 DIV PUSH20 0xFFFFFFFFFFFFFFFFFFFFFFFFFFFFFFFFFFFFFFFF AND PUSH20 0xFFFFFFFFFFFFFFFFFFFFFFFFFFFFFFFFFFFFFFFF AND PUSH20 0xFFFFFFFFFFFFFFFFFFFFFFFFFFFFFFFFFFFFFFFF AND DUP2 MSTORE PUSH1 0x20 ADD PUSH1 0x1 DUP3 ADD DUP1 SLOAD PUSH2 0x280E SWAP1 PUSH2 0x8D70 JUMP JUMPDEST DUP1 PUSH1 0x1F ADD PUSH1 0x20 DUP1 SWAP2 DIV MUL PUSH1 0x20 ADD PUSH1 0x40 MLOAD SWAP1 DUP2 ADD PUSH1 0x40 MSTORE DUP1 SWAP3 SWAP2 SWAP1 DUP2 DUP2 MSTORE PUSH1 0x20 ADD DUP3 DUP1 SLOAD PUSH2 0x283A SWAP1 PUSH2 0x8D70 JUMP JUMPDEST DUP1 ISZERO PUSH2 0x2885 JUMPI DUP1 PUSH1 0x1F LT PUSH2 0x285C JUMPI PUSH2 0x100 DUP1 DUP4 SLOAD DIV MUL DUP4 MSTORE SWAP2 PUSH1 0x20 ADD SWAP2 PUSH2 0x2885 JUMP JUMPDEST DUP3 ADD SWAP2 SWAP1 PUSH0 MSTORE PUSH1 0x20 PUSH0 KECCAK256 SWAP1 JUMPDEST DUP2 SLOAD DUP2 MSTORE SWAP1 PUSH1 0x1 ADD SWAP1 PUSH1 0x20 ADD DUP1 DUP4 GT PUSH2 0x2868 JUMPI DUP3 SWAP1 SUB PUSH1 0x1F AND DUP3 ADD SWAP2 JUMPDEST POP POP POP POP POP DUP2 MSTORE PUSH1 0x20 ADD PUSH1 0x2 DUP3 ADD SLOAD DUP2 MSTORE PUSH1 0x20 ADD PUSH1 0x3 DUP3 ADD SLOAD DUP2 MSTORE PUSH1 0x20 ADD PUSH1 0x4 DUP3 ADD PUSH0 SWAP1 SLOAD SWAP1 PUSH2 0x100 EXP SWAP1 DIV PUSH1 0xFF AND PUSH1 0x4 DUP2 GT ISZERO PUSH2 0x28C6 JUMPI PUSH2 0x28C5 PUSH2 0x75C1 JUMP JUMPDEST JUMPDEST PUSH1 0x4 DUP2 GT ISZERO PUSH2 0x28D8 JUMPI PUSH2 0x28D7 PUSH2 0x75C1 JUMP JUMPDEST JUMPDEST DUP2 MSTORE PUSH1 0x20 ADD PUSH1 0x4 DUP3 ADD PUSH1 0x1 SWAP1 SLOAD SWAP1 PUSH2 0x100 EXP SWAP1 DIV PUSH1 0xFF AND PUSH1 0x2 DUP2 GT ISZERO PUSH2 0x2901 JUMPI PUSH2 0x2900 PUSH2 0x75C1 JUMP JUMPDEST JUMPDEST PUSH1 0x2 DUP2 GT ISZERO PUSH2 0x2913 JUMPI PUSH2 0x2912 PUSH2 0x75C1 JUMP JUMPDEST JUMPDEST DUP2 MSTORE PUSH1 0x20 ADD PUSH1 0x5 DUP3 ADD SLOAD DUP2 MSTORE PUSH1 0x20 ADD PUSH1 0x6 DUP3 ADD SLOAD DUP2 MSTORE PUSH1 0x20 ADD PUSH1 0x7 DUP3 ADD SLOAD DUP2 MSTORE PUSH1 0x20 ADD PUSH1 0x8 DUP3 ADD DUP1 SLOAD DUP1 PUSH1 0x20 MUL PUSH1 0x20 ADD PUSH1 0x40 MLOAD SWAP1 DUP2 ADD PUSH1 0x40 MSTORE DUP1 SWAP3 SWAP2 SWAP1 DUP2 DUP2 MSTORE PUSH1 0x20 ADD DUP3 DUP1 SLOAD DUP1 ISZERO PUSH2 0x29B7 JUMPI PUSH1 0x20 MUL DUP3 ADD SWAP2 SWAP1 PUSH0 MSTORE PUSH1 0x20 PUSH0 KECCAK256 SWAP1 JUMPDEST DUP2 PUSH0 SWAP1 SLOAD SWAP1 PUSH2 0x100 EXP SWAP1 DIV PUSH20 0xFFFFFFFFFFFFFFFFFFFFFFFFFFFFFFFFFFFFFFFF AND PUSH20 0xFFFFFFFFFFFFFFFFFFFFFFFFFFFFFFFFFFFFFFFF AND DUP2 MSTORE PUSH1 0x20 ADD SWAP1 PUSH1 0x1 ADD SWAP1 DUP1 DUP4 GT PUSH2 0x296E JUMPI JUMPDEST POP POP POP POP POP DUP2 MSTORE POP POP PUSH2 0x56B2 JUMP JUMPDEST DUP1 PUSH0 ADD PUSH0 SWAP1 SLOAD SWAP1 PUSH2 0x100 EXP SWAP1 DIV PUSH20 0xFFFFFFFFFFFFFFFFFFFFFFFFFFFFFFFFFFFFFFFF AND PUSH20 0xFFFFFFFFFFFFFFFFFFFFFFFFFFFFFFFFFFFFFFFF AND CALLER PUSH20 0xFFFFFFFFFFFFFFFFFFFFFFFFFFFFFFFFFFFFFFFF AND EQ PUSH2 0x2A55 JUMPI PUSH1 0x40 MLOAD PUSH32 0x8C379A000000000000000000000000000000000000000000000000000000000 DUP2 MSTORE PUSH1 0x4 ADD PUSH2 0x2A4C SWAP1 PUSH2 0x927A JUMP JUMPDEST PUSH1 0x40 MLOAD DUP1 SWAP2 SUB SWAP1 REVERT JUMPDEST PUSH0 JUMPDEST DUP2 PUSH1 0x8 ADD DUP1 SLOAD SWAP1 POP DUP2 LT ISZERO PUSH2 0x2C5D JUMPI PUSH0 DUP3 PUSH1 0x8 ADD DUP3 DUP2 SLOAD DUP2 LT PUSH2 0x2A7D JUMPI PUSH2 0x2A7C PUSH2 0x8DA0 JUMP JUMPDEST JUMPDEST SWAP1 PUSH0 MSTORE PUSH1 0x20 PUSH0 KECCAK256 ADD PUSH0 SWAP1 SLOAD SWAP1 PUSH2 0x100 EXP SWAP1 DIV PUSH20 0xFFFFFFFFFFFFFFFFFFFFFFFFFFFFFFFFFFFFFFFF AND SWAP1 POP PUSH0 PUSH1 0x12 PUSH0 DUP7 DUP2 MSTORE PUSH1 0x20 ADD SWAP1 DUP2 MSTORE PUSH1 0x20 ADD PUSH0 KECCAK256 PUSH0 DUP4 PUSH20 0xFFFFFFFFFFFFFFFFFFFFFFFFFFFFFFFFFFFFFFFF AND PUSH20 0xFFFFFFFFFFFFFFFFFFFFFFFFFFFFFFFFFFFFFFFF AND DUP2 MSTORE PUSH1 0x20 ADD SWAP1 DUP2 MSTORE PUSH1 0x20 ADD PUSH0 KECCAK256 SLOAD SWAP1 POP PUSH0 DUP2 GT ISZERO PUSH2 0x2C4E JUMPI PUSH1 0x12 PUSH0 DUP7 DUP2 MSTORE PUSH1 0x20 ADD SWAP1 DUP2 MSTORE PUSH1 0x20 ADD PUSH0 KECCAK256 PUSH0 DUP4 PUSH20 0xFFFFFFFFFFFFFFFFFFFFFFFFFFFFFFFFFFFFFFFF AND PUSH20 0xFFFFFFFFFFFFFFFFFFFFFFFFFFFFFFFFFFFFFFFF AND DUP2 MSTORE PUSH1 0x20 ADD SWAP1 DUP2 MSTORE PUSH1 0x20 ADD PUSH0 KECCAK256 PUSH0 SWAP1 SSTORE PUSH1 0xC PUSH0 SWAP1 SLOAD SWAP1 PUSH2 0x100 EXP SWAP1 DIV PUSH20 0xFFFFFFFFFFFFFFFFFFFFFFFFFFFFFFFFFFFFFFFF AND PUSH20 0xFFFFFFFFFFFFFFFFFFFFFFFFFFFFFFFFFFFFFFFF AND PUSH4 0x23B872DD DUP6 PUSH0 ADD PUSH0 SWAP1 SLOAD SWAP1 PUSH2 0x100 EXP SWAP1 DIV PUSH20 0xFFFFFFFFFFFFFFFFFFFFFFFFFFFFFFFFFFFFFFFF AND DUP5 DUP5 PUSH1 0x40 MLOAD DUP5 PUSH4 0xFFFFFFFF AND PUSH1 0xE0 SHL DUP2 MSTORE PUSH1 0x4 ADD PUSH2 0x2BCE SWAP4 SWAP3 SWAP2 SWAP1 PUSH2 0x914A JUMP JUMPDEST PUSH1 0x20 PUSH1 0x40 MLOAD DUP1 DUP4 SUB DUP2 PUSH0 DUP8 GAS CALL ISZERO DUP1 ISZERO PUSH2 0x2BEA JUMPI RETURNDATASIZE PUSH0 DUP1 RETURNDATACOPY RETURNDATASIZE PUSH0 REVERT JUMPDEST POP POP POP POP PUSH1 0x40 MLOAD RETURNDATASIZE PUSH1 0x1F NOT PUSH1 0x1F DUP3 ADD AND DUP3 ADD DUP1 PUSH1 0x40 MSTORE POP DUP2 ADD SWAP1 PUSH2 0x2C0E SWAP2 SWAP1 PUSH2 0x9193 JUMP JUMPDEST PUSH2 0x2C4D JUMPI PUSH1 0x40 MLOAD PUSH32 0x8C379A000000000000000000000000000000000000000000000000000000000 DUP2 MSTORE PUSH1 0x4 ADD PUSH2 0x2C44 SWAP1 PUSH2 0x92E2 JUMP JUMPDEST PUSH1 0x40 MLOAD DUP1 SWAP2 SUB SWAP1 REVERT JUMPDEST JUMPDEST POP POP DUP1 DUP1 PUSH1 0x1 ADD SWAP2 POP POP PUSH2 0x2A57 JUMP JUMPDEST POP DUP1 PUSH1 0x8 ADD PUSH0 PUSH2 0x2C6D SWAP2 SWAP1 PUSH2 0x72EF JUMP JUMPDEST PUSH1 0x4 DUP2 PUSH1 0x4 ADD PUSH0 PUSH2 0x100 EXP DUP2 SLOAD DUP2 PUSH1 0xFF MUL NOT AND SWAP1 DUP4 PUSH1 0x4 DUP2 GT ISZERO PUSH2 0x2C94 JUMPI PUSH2 0x2C93 PUSH2 0x75C1 JUMP JUMPDEST JUMPDEST MUL OR SWAP1 SSTORE POP DUP2 PUSH32 0xF13E8F8B0ED8F20F2CDA40BCFA6EDB3798685FAE4068797EED2E10CD54374EB6 PUSH1 0x40 MLOAD PUSH1 0x40 MLOAD DUP1 SWAP2 SUB SWAP1 LOG2 POP POP JUMP JUMPDEST PUSH1 0x60 PUSH1 0x40 MLOAD DUP1 PUSH1 0x40 ADD PUSH1 0x40 MSTORE DUP1 PUSH1 0x1 DUP2 MSTORE PUSH1 0x20 ADD PUSH32 0x3100000000000000000000000000000000000000000000000000000000000000 DUP2 MSTORE POP SWAP1 POP SWAP1 JUMP JUMPDEST PUSH0 DUP1 PUSH2 0x2D11 PUSH2 0x5E46 JUMP JUMPDEST SWAP1 POP PUSH2 0x2D2D DUP5 DUP3 DUP6 PUSH1 0x40 MLOAD DUP1 PUSH1 0x20 ADD PUSH1 0x40 MSTORE DUP1 PUSH0 DUP2 MSTORE POP PUSH2 0x5F2F JUMP JUMPDEST SWAP2 POP POP SWAP3 SWAP2 POP POP JUMP JUMPDEST PUSH0 DUP1 PUSH2 0x2DC3 DUP8 PUSH2 0x2DBD PUSH32 0x3E83946653575F9A39005E1545185629E92736B7528AB20CA3816F315424A811 DUP13 DUP13 DUP13 PUSH2 0x2D6C DUP15 PUSH2 0x5F4E JUMP JUMPDEST DUP14 DUP14 PUSH1 0x40 MLOAD PUSH2 0x2D7C SWAP3 SWAP2 SWAP1 PUSH2 0x932E JUMP JUMPDEST PUSH1 0x40 MLOAD DUP1 SWAP2 SUB SWAP1 KECCAK256 DUP13 DUP1 MLOAD SWAP1 PUSH1 0x20 ADD KECCAK256 PUSH1 0x40 MLOAD PUSH1 0x20 ADD PUSH2 0x2DA2 SWAP8 SWAP7 SWAP6 SWAP5 SWAP4 SWAP3 SWAP2 SWAP1 PUSH2 0x9355 JUMP JUMPDEST PUSH1 0x40 MLOAD PUSH1 0x20 DUP2 DUP4 SUB SUB DUP2 MSTORE SWAP1 PUSH1 0x40 MSTORE DUP1 MLOAD SWAP1 PUSH1 0x20 ADD KECCAK256 PUSH2 0x5FA1 JUMP JUMPDEST DUP6 PUSH2 0x5FBA JUMP JUMPDEST SWAP1 POP DUP1 PUSH2 0x2E07 JUMPI DUP7 PUSH1 0x40 MLOAD PUSH32 0x94AB6C0700000000000000000000000000000000000000000000000000000000 DUP2 MSTORE PUSH1 0x4 ADD PUSH2 0x2DFE SWAP2 SWAP1 PUSH2 0x79B8 JUMP JUMPDEST PUSH1 0x40 MLOAD DUP1 SWAP2 SUB SWAP1 REVERT JUMPDEST PUSH2 0x2E57 DUP10 DUP9 DUP11 DUP10 DUP10 DUP1 DUP1 PUSH1 0x1F ADD PUSH1 0x20 DUP1 SWAP2 DIV MUL PUSH1 0x20 ADD PUSH1 0x40 MLOAD SWAP1 DUP2 ADD PUSH1 0x40 MSTORE DUP1 SWAP4 SWAP3 SWAP2 SWAP1 DUP2 DUP2 MSTORE PUSH1 0x20 ADD DUP4 DUP4 DUP1 DUP3 DUP5 CALLDATACOPY PUSH0 DUP2 DUP5 ADD MSTORE PUSH1 0x1F NOT PUSH1 0x1F DUP3 ADD AND SWAP1 POP DUP1 DUP4 ADD SWAP3 POP POP POP POP POP POP POP DUP9 PUSH2 0x6066 JUMP JUMPDEST SWAP2 POP POP SWAP8 SWAP7 POP POP POP POP POP POP POP JUMP JUMPDEST PUSH0 DUP1 PUSH2 0x2E6F PUSH2 0x5E46 JUMP JUMPDEST SWAP1 POP PUSH2 0x2EC1 DUP8 DUP3 DUP9 DUP9 DUP9 DUP1 DUP1 PUSH1 0x1F ADD PUSH1 0x20 DUP1 SWAP2 DIV MUL PUSH1 0x20 ADD PUSH1 0x40 MLOAD SWAP1 DUP2 ADD PUSH1 0x40 MSTORE DUP1 SWAP4 SWAP3 SWAP2 SWAP1 DUP2 DUP2 MSTORE PUSH1 0x20 ADD DUP4 DUP4 DUP1 DUP3 DUP5 CALLDATACOPY PUSH0 DUP2 DUP5 ADD MSTORE PUSH1 0x1F NOT PUSH1 0x1F DUP3 ADD AND SWAP1 POP DUP1 DUP4 ADD SWAP3 POP POP POP POP POP POP POP DUP8 PUSH2 0x6066 JUMP JUMPDEST SWAP2 POP POP SWAP6 SWAP5 POP POP POP POP POP JUMP JUMPDEST PUSH1 0x1 PUSH1 0x2 DUP2 GT ISZERO PUSH2 0x2EE1 JUMPI PUSH2 0x2EE0 PUSH2 0x75C1 JUMP JUMPDEST JUMPDEST PUSH1 0x16 PUSH0 CALLER PUSH20 0xFFFFFFFFFFFFFFFFFFFFFFFFFFFFFFFFFFFFFFFF AND PUSH20 0xFFFFFFFFFFFFFFFFFFFFFFFFFFFFFFFFFFFFFFFF AND DUP2 MSTORE PUSH1 0x20 ADD SWAP1 DUP2 MSTORE PUSH1 0x20 ADD PUSH0 KECCAK256 PUSH1 0x1 ADD PUSH1 0x14 SWAP1 SLOAD SWAP1 PUSH2 0x100 EXP SWAP1 DIV PUSH1 0xFF AND PUSH1 0x2 DUP2 GT ISZERO PUSH2 0x2F41 JUMPI PUSH2 0x2F40 PUSH2 0x75C1 JUMP JUMPDEST JUMPDEST EQ PUSH2 0x2F4A JUMPI PUSH0 DUP1 REVERT JUMPDEST PUSH0 PUSH1 0x15 PUSH0 DUP6 DUP2 MSTORE PUSH1 0x20 ADD SWAP1 DUP2 MSTORE PUSH1 0x20 ADD PUSH0 KECCAK256 SWAP1 POP PUSH2 0x3189 DUP2 PUSH1 0x40 MLOAD DUP1 PUSH2 0x140 ADD PUSH1 0x40 MSTORE SWAP1 DUP2 PUSH0 DUP3 ADD PUSH0 SWAP1 SLOAD SWAP1 PUSH2 0x100 EXP SWAP1 DIV PUSH20 0xFFFFFFFFFFFFFFFFFFFFFFFFFFFFFFFFFFFFFFFF AND PUSH20 0xFFFFFFFFFFFFFFFFFFFFFFFFFFFFFFFFFFFFFFFF AND PUSH20 0xFFFFFFFFFFFFFFFFFFFFFFFFFFFFFFFFFFFFFFFF AND DUP2 MSTORE PUSH1 0x20 ADD PUSH1 0x1 DUP3 ADD DUP1 SLOAD PUSH2 0x2FD2 SWAP1 PUSH2 0x8D70 JUMP JUMPDEST DUP1 PUSH1 0x1F ADD PUSH1 0x20 DUP1 SWAP2 DIV MUL PUSH1 0x20 ADD PUSH1 0x40 MLOAD SWAP1 DUP2 ADD PUSH1 0x40 MSTORE DUP1 SWAP3 SWAP2 SWAP1 DUP2 DUP2 MSTORE PUSH1 0x20 ADD DUP3 DUP1 SLOAD PUSH2 0x2FFE SWAP1 PUSH2 0x8D70 JUMP JUMPDEST DUP1 ISZERO PUSH2 0x3049 JUMPI DUP1 PUSH1 0x1F LT PUSH2 0x3020 JUMPI PUSH2 0x100 DUP1 DUP4 SLOAD DIV MUL DUP4 MSTORE SWAP2 PUSH1 0x20 ADD SWAP2 PUSH2 0x3049 JUMP JUMPDEST DUP3 ADD SWAP2 SWAP1 PUSH0 MSTORE PUSH1 0x20 PUSH0 KECCAK256 SWAP1 JUMPDEST DUP2 SLOAD DUP2 MSTORE SWAP1 PUSH1 0x1 ADD SWAP1 PUSH1 0x20 ADD DUP1 DUP4 GT PUSH2 0x302C JUMPI DUP3 SWAP1 SUB PUSH1 0x1F AND DUP3 ADD SWAP2 JUMPDEST POP POP POP POP POP DUP2 MSTORE PUSH1 0x20 ADD PUSH1 0x2 DUP3 ADD SLOAD DUP2 MSTORE PUSH1 0x20 ADD PUSH1 0x3 DUP3 ADD SLOAD DUP2 MSTORE PUSH1 0x20 ADD PUSH1 0x4 DUP3 ADD PUSH0 SWAP1 SLOAD SWAP1 PUSH2 0x100 EXP SWAP1 DIV PUSH1 0xFF AND PUSH1 0x4 DUP2 GT ISZERO PUSH2 0x308A JUMPI PUSH2 0x3089 PUSH2 0x75C1 JUMP JUMPDEST JUMPDEST PUSH1 0x4 DUP2 GT ISZERO PUSH2 0x309C JUMPI PUSH2 0x309B PUSH2 0x75C1 JUMP JUMPDEST JUMPDEST DUP2 MSTORE PUSH1 0x20 ADD PUSH1 0x4 DUP3 ADD PUSH1 0x1 SWAP1 SLOAD SWAP1 PUSH2 0x100 EXP SWAP1 DIV PUSH1 0xFF AND PUSH1 0x2 DUP2 GT ISZERO PUSH2 0x30C5 JUMPI PUSH2 0x30C4 PUSH2 0x75C1 JUMP JUMPDEST JUMPDEST PUSH1 0x2 DUP2 GT ISZERO PUSH2 0x30D7 JUMPI PUSH2 0x30D6 PUSH2 0x75C1 JUMP JUMPDEST JUMPDEST DUP2 MSTORE PUSH1 0x20 ADD PUSH1 0x5 DUP3 ADD SLOAD DUP2 MSTORE PUSH1 0x20 ADD PUSH1 0x6 DUP3 ADD SLOAD DUP2 MSTORE PUSH1 0x20 ADD PUSH1 0x7 DUP3 ADD SLOAD DUP2 MSTORE PUSH1 0x20 ADD PUSH1 0x8 DUP3 ADD DUP1 SLOAD DUP1 PUSH1 0x20 MUL PUSH1 0x20 ADD PUSH1 0x40 MLOAD SWAP1 DUP2 ADD PUSH1 0x40 MSTORE DUP1 SWAP3 SWAP2 SWAP1 DUP2 DUP2 MSTORE PUSH1 0x20 ADD DUP3 DUP1 SLOAD DUP1 ISZERO PUSH2 0x317B JUMPI PUSH1 0x20 MUL DUP3 ADD SWAP2 SWAP1 PUSH0 MSTORE PUSH1 0x20 PUSH0 KECCAK256 SWAP1 JUMPDEST DUP2 PUSH0 SWAP1 SLOAD SWAP1 PUSH2 0x100 EXP SWAP1 DIV PUSH20 0xFFFFFFFFFFFFFFFFFFFFFFFFFFFFFFFFFFFFFFFF AND PUSH20 0xFFFFFFFFFFFFFFFFFFFFFFFFFFFFFFFFFFFFFFFF AND DUP2 MSTORE PUSH1 0x20 ADD SWAP1 PUSH1 0x1 ADD SWAP1 DUP1 DUP4 GT PUSH2 0x3132 JUMPI JUMPDEST POP POP POP POP POP DUP2 MSTORE POP POP PUSH2 0x56B2 JUMP JUMPDEST PUSH2 0x3193 DUP5 CALLER PUSH2 0x2513 JUMP JUMPDEST ISZERO PUSH2 0x31D3 JUMPI PUSH1 0x40 MLOAD PUSH32 0x8C379A000000000000000000000000000000000000000000000000000000000 DUP2 MSTORE PUSH1 0x4 ADD PUSH2 0x31CA SWAP1 PUSH2 0x940C JUMP JUMPDEST PUSH1 0x40 MLOAD DUP1 SWAP2 SUB SWAP1 REVERT JUMPDEST CALLER PUSH20 0xFFFFFFFFFFFFFFFFFFFFFFFFFFFFFFFFFFFFFFFF AND PUSH1 0x14 PUSH0 DUP7 DUP2 MSTORE PUSH1 0x20 ADD SWAP1 DUP2 MSTORE PUSH1 0x20 ADD PUSH0 KECCAK256 PUSH1 0x1 ADD PUSH0 SWAP1 SLOAD SWAP1 PUSH2 0x100 EXP SWAP1 DIV PUSH20 0xFFFFFFFFFFFFFFFFFFFFFFFFFFFFFFFFFFFFFFFF AND PUSH20 0xFFFFFFFFFFFFFFFFFFFFFFFFFFFFFFFFFFFFFFFF AND SUB PUSH2 0x3274 JUMPI PUSH1 0x40 MLOAD PUSH32 0x8C379A000000000000000000000000000000000000000000000000000000000 DUP2 MSTORE PUSH1 0x4 ADD PUSH2 0x326B SWAP1 PUSH2 0x9474 JUMP JUMPDEST PUSH1 0x40 MLOAD DUP1 SWAP2 SUB SWAP1 REVERT JUMPDEST PUSH0 DUP1 PUSH1 0x4 DUP2 GT ISZERO PUSH2 0x3288 JUMPI PUSH2 0x3287 PUSH2 0x75C1 JUMP JUMPDEST JUMPDEST PUSH1 0x14 PUSH0 DUP8 DUP2 MSTORE PUSH1 0x20 ADD SWAP1 DUP2 MSTORE PUSH1 0x20 ADD PUSH0 KECCAK256 PUSH1 0x4 ADD PUSH1 0x1 SWAP1 SLOAD SWAP1 PUSH2 0x100 EXP SWAP1 DIV PUSH1 0xFF AND PUSH1 0x4 DUP2 GT ISZERO PUSH2 0x32BC JUMPI PUSH2 0x32BB PUSH2 0x75C1 JUMP JUMPDEST JUMPDEST EQ DUP1 PUSH2 0x330D JUMPI POP PUSH1 0x1 PUSH1 0x4 DUP2 GT ISZERO PUSH2 0x32D7 JUMPI PUSH2 0x32D6 PUSH2 0x75C1 JUMP JUMPDEST JUMPDEST PUSH1 0x14 PUSH0 DUP8 DUP2 MSTORE PUSH1 0x20 ADD SWAP1 DUP2 MSTORE PUSH1 0x20 ADD PUSH0 KECCAK256 PUSH1 0x4 ADD PUSH1 0x1 SWAP1 SLOAD SWAP1 PUSH2 0x100 EXP SWAP1 DIV PUSH1 0xFF AND PUSH1 0x4 DUP2 GT ISZERO PUSH2 0x330B JUMPI PUSH2 0x330A PUSH2 0x75C1 JUMP JUMPDEST JUMPDEST EQ JUMPDEST ISZERO PUSH2 0x331A JUMPI DUP3 SWAP1 POP PUSH2 0x3362 JUMP JUMPDEST PUSH1 0x3 DUP4 EQ PUSH2 0x335D JUMPI PUSH1 0x40 MLOAD PUSH32 0x8C379A000000000000000000000000000000000000000000000000000000000 DUP2 MSTORE PUSH1 0x4 ADD PUSH2 0x3354 SWAP1 PUSH2 0x9502 JUMP JUMPDEST PUSH1 0x40 MLOAD DUP1 SWAP2 SUB SWAP1 REVERT JUMPDEST PUSH1 0x3 SWAP1 POP JUMPDEST DUP3 PUSH1 0xC PUSH0 SWAP1 SLOAD SWAP1 PUSH2 0x100 EXP SWAP1 DIV PUSH20 0xFFFFFFFFFFFFFFFFFFFFFFFFFFFFFFFFFFFFFFFF AND PUSH20 0xFFFFFFFFFFFFFFFFFFFFFFFFFFFFFFFFFFFFFFFF AND PUSH4 0x70A08231 CALLER PUSH1 0x40 MLOAD DUP3 PUSH4 0xFFFFFFFF AND PUSH1 0xE0 SHL DUP2 MSTORE PUSH1 0x4 ADD PUSH2 0x33BD SWAP2 SWAP1 PUSH2 0x79B8 JUMP JUMPDEST PUSH1 0x20 PUSH1 0x40 MLOAD DUP1 DUP4 SUB DUP2 DUP7 GAS STATICCALL ISZERO DUP1 ISZERO PUSH2 0x33D8 JUMPI RETURNDATASIZE PUSH0 DUP1 RETURNDATACOPY RETURNDATASIZE PUSH0 REVERT JUMPDEST POP POP POP POP PUSH1 0x40 MLOAD RETURNDATASIZE PUSH1 0x1F NOT PUSH1 0x1F DUP3 ADD AND DUP3 ADD DUP1 PUSH1 0x40 MSTORE POP DUP2 ADD SWAP1 PUSH2 0x33FC SWAP2 SWAP1 PUSH2 0x9205 JUMP JUMPDEST LT ISZERO PUSH2 0x343D JUMPI PUSH1 0x40 MLOAD PUSH32 0x8C379A000000000000000000000000000000000000000000000000000000000 DUP2 MSTORE PUSH1 0x4 ADD PUSH2 0x3434 SWAP1 PUSH2 0x956A JUMP JUMPDEST PUSH1 0x40 MLOAD DUP1 SWAP2 SUB SWAP1 REVERT JUMPDEST PUSH1 0xC PUSH0 SWAP1 SLOAD SWAP1 PUSH2 0x100 EXP SWAP1 DIV PUSH20 0xFFFFFFFFFFFFFFFFFFFFFFFFFFFFFFFFFFFFFFFF AND PUSH20 0xFFFFFFFFFFFFFFFFFFFFFFFFFFFFFFFFFFFFFFFF AND PUSH4 0xA64B6E5F CALLER ADDRESS PUSH1 0xC PUSH0 SWAP1 SLOAD SWAP1 PUSH2 0x100 EXP SWAP1 DIV PUSH20 0xFFFFFFFFFFFFFFFFFFFFFFFFFFFFFFFFFFFFFFFF AND PUSH20 0xFFFFFFFFFFFFFFFFFFFFFFFFFFFFFFFFFFFFFFFF AND PUSH4 0x313CE567 PUSH1 0x40 MLOAD DUP2 PUSH4 0xFFFFFFFF AND PUSH1 0xE0 SHL DUP2 MSTORE PUSH1 0x4 ADD PUSH1 0x20 PUSH1 0x40 MLOAD DUP1 DUP4 SUB DUP2 DUP7 GAS STATICCALL ISZERO DUP1 ISZERO PUSH2 0x34E6 JUMPI RETURNDATASIZE PUSH0 DUP1 RETURNDATACOPY RETURNDATASIZE PUSH0 REVERT JUMPDEST POP POP POP POP PUSH1 0x40 MLOAD RETURNDATASIZE PUSH1 0x1F NOT PUSH1 0x1F DUP3 ADD AND DUP3 ADD DUP1 PUSH1 0x40 MSTORE POP DUP2 ADD SWAP1 PUSH2 0x350A SWAP2 SWAP1 PUSH2 0x8FA6 JUMP JUMPDEST PUSH1 0xA PUSH2 0x3516 SWAP2 SWAP1 PUSH2 0x9100 JUMP JUMPDEST DUP8 PUSH2 0x3521 SWAP2 SWAP1 PUSH2 0x8F51 JUMP JUMPDEST PUSH1 0x40 MLOAD DUP5 PUSH4 0xFFFFFFFF AND PUSH1 0xE0 SHL DUP2 MSTORE PUSH1 0x4 ADD PUSH2 0x353F SWAP4 SWAP3 SWAP2 SWAP1 PUSH2 0x914A JUMP JUMPDEST PUSH1 0x20 PUSH1 0x40 MLOAD DUP1 DUP4 SUB DUP2 PUSH0 DUP8 GAS CALL ISZERO DUP1 ISZERO PUSH2 0x355B JUMPI RETURNDATASIZE PUSH0 DUP1 RETURNDATACOPY RETURNDATASIZE PUSH0 REVERT JUMPDEST POP POP POP POP PUSH1 0x40 MLOAD RETURNDATASIZE PUSH1 0x1F NOT PUSH1 0x1F DUP3 ADD AND DUP3 ADD DUP1 PUSH1 0x40 MSTORE POP DUP2 ADD SWAP1 PUSH2 0x357F SWAP2 SWAP1 PUSH2 0x9193 JUMP JUMPDEST POP PUSH2 0x35A8 DUP6 CALLER DUP7 PUSH2 0x3590 JUMPI PUSH0 PUSH2 0x3593 JUMP JUMPDEST PUSH1 0x1 JUMPDEST DUP5 PUSH1 0x40 MLOAD DUP1 PUSH1 0x20 ADD PUSH1 0x40 MSTORE DUP1 PUSH0 DUP2 MSTORE POP PUSH2 0x6170 JUMP JUMPDEST POP DUP2 PUSH1 0x8 ADD CALLER SWAP1 DUP1 PUSH1 0x1 DUP2 SLOAD ADD DUP1 DUP3 SSTORE DUP1 SWAP2 POP POP PUSH1 0x1 SWAP1 SUB SWAP1 PUSH0 MSTORE PUSH1 0x20 PUSH0 KECCAK256 ADD PUSH0 SWAP1 SWAP2 SWAP1 SWAP2 SWAP1 SWAP2 PUSH2 0x100 EXP DUP2 SLOAD DUP2 PUSH20 0xFFFFFFFFFFFFFFFFFFFFFFFFFFFFFFFFFFFFFFFF MUL NOT AND SWAP1 DUP4 PUSH20 0xFFFFFFFFFFFFFFFFFFFFFFFFFFFFFFFFFFFFFFFF AND MUL OR SWAP1 SSTORE POP DUP5 CALLER PUSH20 0xFFFFFFFFFFFFFFFFFFFFFFFFFFFFFFFFFFFFFFFF AND PUSH32 0xEFA3D674E0475FB6175E081D7938EE5C64950B1A41FABFFB968A8ED87482F484 DUP7 DUP5 PUSH1 0xC PUSH0 SWAP1 SLOAD SWAP1 PUSH2 0x100 EXP SWAP1 DIV PUSH20 0xFFFFFFFFFFFFFFFFFFFFFFFFFFFFFFFFFFFFFFFF AND PUSH20 0xFFFFFFFFFFFFFFFFFFFFFFFFFFFFFFFFFFFFFFFF AND PUSH4 0x70A08231 CALLER PUSH1 0x40 MLOAD DUP3 PUSH4 0xFFFFFFFF AND PUSH1 0xE0 SHL DUP2 MSTORE PUSH1 0x4 ADD PUSH2 0x36A0 SWAP2 SWAP1 PUSH2 0x79B8 JUMP JUMPDEST PUSH1 0x20 PUSH1 0x40 MLOAD DUP1 DUP4 SUB DUP2 DUP7 GAS STATICCALL ISZERO DUP1 ISZERO PUSH2 0x36BB JUMPI RETURNDATASIZE PUSH0 DUP1 RETURNDATACOPY RETURNDATASIZE PUSH0 REVERT JUMPDEST POP POP POP POP PUSH1 0x40 MLOAD RETURNDATASIZE PUSH1 0x1F NOT PUSH1 0x1F DUP3 ADD AND DUP3 ADD DUP1 PUSH1 0x40 MSTORE POP DUP2 ADD SWAP1 PUSH2 0x36DF SWAP2 SWAP1 PUSH2 0x9205 JUMP JUMPDEST PUSH1 0x40 MLOAD PUSH2 0x36EE SWAP4 SWAP3 SWAP2 SWAP1 PUSH2 0x9588 JUMP JUMPDEST PUSH1 0x40 MLOAD DUP1 SWAP2 SUB SWAP1 LOG3 POP POP POP POP POP JUMP JUMPDEST PUSH2 0x3705 PUSH2 0x730D JUMP JUMPDEST PUSH1 0x16 PUSH0 DUP4 PUSH20 0xFFFFFFFFFFFFFFFFFFFFFFFFFFFFFFFFFFFFFFFF AND PUSH20 0xFFFFFFFFFFFFFFFFFFFFFFFFFFFFFFFFFFFFFFFF AND DUP2 MSTORE PUSH1 0x20 ADD SWAP1 DUP2 MSTORE PUSH1 0x20 ADD PUSH0 KECCAK256 PUSH1 0x40 MLOAD DUP1 PUSH1 0x80 ADD PUSH1 0x40 MSTORE SWAP1 DUP2 PUSH0 DUP3 ADD DUP1 SLOAD PUSH2 0x375C SWAP1 PUSH2 0x8D70 JUMP JUMPDEST DUP1 PUSH1 0x1F ADD PUSH1 0x20 DUP1 SWAP2 DIV MUL PUSH1 0x20 ADD PUSH1 0x40 MLOAD SWAP1 DUP2 ADD PUSH1 0x40 MSTORE DUP1 SWAP3 SWAP2 SWAP1 DUP2 DUP2 MSTORE PUSH1 0x20 ADD DUP3 DUP1 SLOAD PUSH2 0x3788 SWAP1 PUSH2 0x8D70 JUMP JUMPDEST DUP1 ISZERO PUSH2 0x37D3 JUMPI DUP1 PUSH1 0x1F LT PUSH2 0x37AA JUMPI PUSH2 0x100 DUP1 DUP4 SLOAD DIV MUL DUP4 MSTORE SWAP2 PUSH1 0x20 ADD SWAP2 PUSH2 0x37D3 JUMP JUMPDEST DUP3 ADD SWAP2 SWAP1 PUSH0 MSTORE PUSH1 0x20 PUSH0 KECCAK256 SWAP1 JUMPDEST DUP2 SLOAD DUP2 MSTORE SWAP1 PUSH1 0x1 ADD SWAP1 PUSH1 0x20 ADD DUP1 DUP4 GT PUSH2 0x37B6 JUMPI DUP3 SWAP1 SUB PUSH1 0x1F AND DUP3 ADD SWAP2 JUMPDEST POP POP POP POP POP DUP2 MSTORE PUSH1 0x20 ADD PUSH1 0x1 DUP3 ADD PUSH0 SWAP1 SLOAD SWAP1 PUSH2 0x100 EXP SWAP1 DIV PUSH20 0xFFFFFFFFFFFFFFFFFFFFFFFFFFFFFFFFFFFFFFFF AND PUSH20 0xFFFFFFFFFFFFFFFFFFFFFFFFFFFFFFFFFFFFFFFF AND PUSH20 0xFFFFFFFFFFFFFFFFFFFFFFFFFFFFFFFFFFFFFFFF AND DUP2 MSTORE PUSH1 0x20 ADD PUSH1 0x1 DUP3 ADD PUSH1 0x14 SWAP1 SLOAD SWAP1 PUSH2 0x100 EXP SWAP1 DIV PUSH1 0xFF AND PUSH1 0x2 DUP2 GT ISZERO PUSH2 0x3856 JUMPI PUSH2 0x3855 PUSH2 0x75C1 JUMP JUMPDEST JUMPDEST PUSH1 0x2 DUP2 GT ISZERO PUSH2 0x3868 JUMPI PUSH2 0x3867 PUSH2 0x75C1 JUMP JUMPDEST JUMPDEST DUP2 MSTORE PUSH1 0x20 ADD PUSH1 0x2 DUP3 ADD SLOAD DUP2 MSTORE POP POP SWAP1 POP SWAP2 SWAP1 POP JUMP JUMPDEST PUSH1 0x10 SLOAD DUP2 JUMP JUMPDEST PUSH0 DUP1 PUSH2 0x388D PUSH2 0x5E46 JUMP JUMPDEST SWAP1 POP PUSH2 0x38DE DUP7 DUP3 DUP8 DUP8 DUP8 DUP1 DUP1 PUSH1 0x1F ADD PUSH1 0x20 DUP1 SWAP2 DIV MUL PUSH1 0x20 ADD PUSH1 0x40 MLOAD SWAP1 DUP2 ADD PUSH1 0x40 MSTORE DUP1 SWAP4 SWAP3 SWAP2 SWAP1 DUP2 DUP2 MSTORE PUSH1 0x20 ADD DUP4 DUP4 DUP1 DUP3 DUP5 CALLDATACOPY PUSH0 DUP2 DUP5 ADD MSTORE PUSH1 0x1F NOT PUSH1 0x1F DUP3 ADD AND SWAP1 POP DUP1 DUP4 ADD SWAP3 POP POP POP POP POP POP POP PUSH2 0x5F2F JUMP JUMPDEST SWAP2 POP POP SWAP5 SWAP4 POP POP POP POP JUMP JUMPDEST PUSH0 DUP1 PUSH2 0x38F3 PUSH2 0x5E46 JUMP JUMPDEST SWAP1 POP PUSH2 0x38FF DUP2 DUP5 PUSH2 0x62AF JUMP JUMPDEST PUSH2 0x3940 JUMPI DUP1 PUSH1 0x40 MLOAD PUSH32 0xD9B3955700000000000000000000000000000000000000000000000000000000 DUP2 MSTORE PUSH1 0x4 ADD PUSH2 0x3937 SWAP2 SWAP1 PUSH2 0x79B8 JUMP JUMPDEST PUSH1 0x40 MLOAD DUP1 SWAP2 SUB SWAP1 REVERT JUMPDEST PUSH0 PUSH2 0x3949 PUSH2 0x3FAD JUMP JUMPDEST SWAP1 POP PUSH0 DUP2 GT ISZERO PUSH2 0x39C6 JUMPI PUSH0 PUSH2 0x3979 DUP4 PUSH1 0x1 PUSH2 0x3962 PUSH2 0x3DEB JUMP JUMPDEST PUSH2 0x396C SWAP2 SWAP1 PUSH2 0x95BD JUMP JUMPDEST PUSH6 0xFFFFFFFFFFFF AND PUSH2 0x5067 JUMP JUMPDEST SWAP1 POP DUP2 DUP2 LT ISZERO PUSH2 0x39C4 JUMPI DUP3 DUP2 DUP4 PUSH1 0x40 MLOAD PUSH32 0xC242EE1600000000000000000000000000000000000000000000000000000000 DUP2 MSTORE PUSH1 0x4 ADD PUSH2 0x39BB SWAP4 SWAP3 SWAP2 SWAP1 PUSH2 0x95F6 JUMP JUMPDEST PUSH1 0x40 MLOAD DUP1 SWAP2 SUB SWAP1 REVERT JUMPDEST POP JUMPDEST PUSH2 0x39D3 DUP8 DUP8 DUP8 DUP8 DUP7 PUSH2 0x6395 JUMP JUMPDEST SWAP3 POP POP POP SWAP5 SWAP4 POP POP POP POP JUMP JUMPDEST PUSH0 PUSH1 0x2 PUSH0 DUP4 PUSH20 0xFFFFFFFFFFFFFFFFFFFFFFFFFFFFFFFFFFFFFFFF AND PUSH20 0xFFFFFFFFFFFFFFFFFFFFFFFFFFFFFFFFFFFFFFFF AND DUP2 MSTORE PUSH1 0x20 ADD SWAP1 DUP2 MSTORE PUSH1 0x20 ADD PUSH0 KECCAK256 SLOAD SWAP1 POP SWAP2 SWAP1 POP JUMP JUMPDEST PUSH0 PUSH1 0x60 DUP1 PUSH0 DUP1 PUSH0 PUSH1 0x60 PUSH2 0x3A36 PUSH2 0x661A JUMP JUMPDEST PUSH2 0x3A3E PUSH2 0x6654 JUMP JUMPDEST CHAINID ADDRESS PUSH0 DUP1 SHL PUSH0 PUSH8 0xFFFFFFFFFFFFFFFF DUP2 GT ISZERO PUSH2 0x3A5D JUMPI PUSH2 0x3A5C PUSH2 0x77B4 JUMP JUMPDEST JUMPDEST PUSH1 0x40 MLOAD SWAP1 DUP1 DUP3 MSTORE DUP1 PUSH1 0x20 MUL PUSH1 0x20 ADD DUP3 ADD PUSH1 0x40 MSTORE DUP1 ISZERO PUSH2 0x3A8B JUMPI DUP2 PUSH1 0x20 ADD PUSH1 0x20 DUP3 MUL DUP1 CALLDATASIZE DUP4 CALLDATACOPY DUP1 DUP3 ADD SWAP2 POP POP SWAP1 POP JUMPDEST POP PUSH32 0xF00000000000000000000000000000000000000000000000000000000000000 SWAP6 SWAP5 SWAP4 SWAP3 SWAP2 SWAP1 SWAP7 POP SWAP7 POP SWAP7 POP SWAP7 POP SWAP7 POP SWAP7 POP SWAP7 POP SWAP1 SWAP2 SWAP3 SWAP4 SWAP5 SWAP6 SWAP7 JUMP JUMPDEST PUSH0 DUP1 PUSH2 0x3B35 DUP5 PUSH2 0x3B2F PUSH32 0xF2AAD550CF55F045CB27E9C559F9889FDFB6E6CDAA032301D6EA397784AE51D7 DUP10 DUP10 DUP10 PUSH2 0x3B00 DUP12 PUSH2 0x5F4E JUMP JUMPDEST PUSH1 0x40 MLOAD PUSH1 0x20 ADD PUSH2 0x3B14 SWAP6 SWAP5 SWAP4 SWAP3 SWAP2 SWAP1 PUSH2 0x962B JUMP JUMPDEST PUSH1 0x40 MLOAD PUSH1 0x20 DUP2 DUP4 SUB SUB DUP2 MSTORE SWAP1 PUSH1 0x40 MSTORE DUP1 MLOAD SWAP1 PUSH1 0x20 ADD KECCAK256 PUSH2 0x5FA1 JUMP JUMPDEST DUP6 PUSH2 0x5FBA JUMP JUMPDEST SWAP1 POP DUP1 PUSH2 0x3B79 JUMPI DUP4 PUSH1 0x40 MLOAD PUSH32 0x94AB6C0700000000000000000000000000000000000000000000000000000000 DUP2 MSTORE PUSH1 0x4 ADD PUSH2 0x3B70 SWAP2 SWAP1 PUSH2 0x79B8 JUMP JUMPDEST PUSH1 0x40 MLOAD DUP1 SWAP2 SUB SWAP1 REVERT JUMPDEST PUSH2 0x3B93 DUP7 DUP6 DUP8 PUSH1 0x40 MLOAD DUP1 PUSH1 0x20 ADD PUSH1 0x40 MSTORE DUP1 PUSH0 DUP2 MSTORE POP PUSH2 0x5F2F JUMP JUMPDEST SWAP2 POP POP SWAP5 SWAP4 POP POP POP POP JUMP JUMPDEST PUSH0 PUSH1 0x14 PUSH0 DUP5 DUP2 MSTORE PUSH1 0x20 ADD SWAP1 DUP2 MSTORE PUSH1 0x20 ADD PUSH0 KECCAK256 SWAP1 POP CALLER PUSH20 0xFFFFFFFFFFFFFFFFFFFFFFFFFFFFFFFFFFFFFFFF AND DUP2 PUSH1 0x1 ADD PUSH0 SWAP1 SLOAD SWAP1 PUSH2 0x100 EXP SWAP1 DIV PUSH20 0xFFFFFFFFFFFFFFFFFFFFFFFFFFFFFFFFFFFFFFFF AND PUSH20 0xFFFFFFFFFFFFFFFFFFFFFFFFFFFFFFFFFFFFFFFF AND EQ PUSH2 0x3C43 JUMPI PUSH1 0x40 MLOAD PUSH32 0x8C379A000000000000000000000000000000000000000000000000000000000 DUP2 MSTORE PUSH1 0x4 ADD PUSH2 0x3C3A SWAP1 PUSH2 0x96C6 JUMP JUMPDEST PUSH1 0x40 MLOAD DUP1 SWAP2 SUB SWAP1 REVERT JUMPDEST PUSH0 PUSH1 0x15 PUSH0 DUP4 PUSH1 0x3 ADD SLOAD DUP2 MSTORE PUSH1 0x20 ADD SWAP1 DUP2 MSTORE PUSH1 0x20 ADD PUSH0 KECCAK256 PUSH1 0x2 ADD SLOAD EQ PUSH2 0x3C9D JUMPI PUSH1 0x40 MLOAD PUSH32 0x8C379A000000000000000000000000000000000000000000000000000000000 DUP2 MSTORE PUSH1 0x4 ADD PUSH2 0x3C94 SWAP1 PUSH2 0x972E JUMP JUMPDEST PUSH1 0x40 MLOAD DUP1 SWAP2 SUB SWAP1 REVERT JUMPDEST PUSH0 PUSH1 0x15 PUSH0 DUP4 PUSH1 0x3 ADD SLOAD DUP2 MSTORE PUSH1 0x20 ADD SWAP1 DUP2 MSTORE PUSH1 0x20 ADD PUSH0 KECCAK256 SWAP1 POP TIMESTAMP DUP2 PUSH1 0x2 ADD DUP2 SWAP1 SSTORE POP DUP3 TIMESTAMP PUSH2 0x3CCA SWAP2 SWAP1 PUSH2 0x91BE JUMP JUMPDEST DUP2 PUSH1 0x3 ADD DUP2 SWAP1 SSTORE POP PUSH1 0x3 DUP2 PUSH1 0x4 ADD PUSH0 PUSH2 0x100 EXP DUP2 SLOAD DUP2 PUSH1 0xFF MUL NOT AND SWAP1 DUP4 PUSH1 0x4 DUP2 GT ISZERO PUSH2 0x3CF9 JUMPI PUSH2 0x3CF8 PUSH2 0x75C1 JUMP JUMPDEST JUMPDEST MUL OR SWAP1 SSTORE POP PUSH1 0x13 PUSH0 PUSH1 0x3 PUSH1 0x4 DUP2 GT ISZERO PUSH2 0x3D15 JUMPI PUSH2 0x3D14 PUSH2 0x75C1 JUMP JUMPDEST JUMPDEST PUSH1 0x4 DUP2 GT ISZERO PUSH2 0x3D27 JUMPI PUSH2 0x3D26 PUSH2 0x75C1 JUMP JUMPDEST JUMPDEST DUP2 MSTORE PUSH1 0x20 ADD SWAP1 DUP2 MSTORE PUSH1 0x20 ADD PUSH0 KECCAK256 DUP5 SWAP1 DUP1 PUSH1 0x1 DUP2 SLOAD ADD DUP1 DUP3 SSTORE DUP1 SWAP2 POP POP PUSH1 0x1 SWAP1 SUB SWAP1 PUSH0 MSTORE PUSH1 0x20 PUSH0 KECCAK256 ADD PUSH0 SWAP1 SWAP2 SWAP1 SWAP2 SWAP1 SWAP2 POP SSTORE DUP1 PUSH1 0x4 ADD PUSH0 SWAP1 SLOAD SWAP1 PUSH2 0x100 EXP SWAP1 DIV PUSH1 0xFF AND PUSH1 0x4 DUP2 GT ISZERO PUSH2 0x3D7B JUMPI PUSH2 0x3D7A PUSH2 0x75C1 JUMP JUMPDEST JUMPDEST CALLER PUSH20 0xFFFFFFFFFFFFFFFFFFFFFFFFFFFFFFFFFFFFFFFF AND DUP6 PUSH32 0x99D78B542BD982A5D7A220B4BDACDFD4725AE20142054DD98360C8DDC84D17FD DUP5 PUSH1 0x2 ADD SLOAD DUP6 PUSH1 0x3 ADD SLOAD DUP7 PUSH1 0x5 ADD SLOAD DUP8 PUSH1 0x6 ADD SLOAD DUP9 PUSH1 0x1 ADD PUSH1 0x40 MLOAD PUSH2 0x3DDD SWAP6 SWAP5 SWAP4 SWAP3 SWAP2 SWAP1 PUSH2 0x97DF JUMP JUMPDEST PUSH1 0x40 MLOAD DUP1 SWAP2 SUB SWAP1 LOG4 POP POP POP POP JUMP JUMPDEST PUSH0 TIMESTAMP SWAP1 POP SWAP1 JUMP JUMPDEST PUSH1 0x11 PUSH1 0x20 MSTORE DUP2 PUSH0 MSTORE PUSH1 0x40 PUSH0 KECCAK256 PUSH1 0x20 MSTORE DUP1 PUSH0 MSTORE PUSH1 0x40 PUSH0 KECCAK256 PUSH0 SWAP2 POP SWAP2 POP POP DUP1 PUSH0 ADD SLOAD SWAP1 DUP1 PUSH1 0x1 ADD PUSH0 SWAP1 SLOAD SWAP1 PUSH2 0x100 EXP SWAP1 DIV PUSH20 0xFFFFFFFFFFFFFFFFFFFFFFFFFFFFFFFFFFFFFFFF AND SWAP1 DUP1 PUSH1 0x2 ADD SLOAD SWAP1 DUP1 PUSH1 0x3 ADD PUSH0 SWAP1 SLOAD SWAP1 PUSH2 0x100 EXP SWAP1 DIV PUSH1 0xFF AND SWAP1 POP DUP5 JUMP JUMPDEST PUSH0 PUSH2 0x3E60 DUP5 DUP5 DUP5 PUSH2 0x668F JUMP JUMPDEST SWAP1 POP SWAP4 SWAP3 POP POP POP JUMP JUMPDEST PUSH1 0x15 PUSH1 0x20 MSTORE DUP1 PUSH0 MSTORE PUSH1 0x40 PUSH0 KECCAK256 PUSH0 SWAP2 POP SWAP1 POP DUP1 PUSH0 ADD PUSH0 SWAP1 SLOAD SWAP1 PUSH2 0x100 EXP SWAP1 DIV PUSH20 0xFFFFFFFFFFFFFFFFFFFFFFFFFFFFFFFFFFFFFFFF AND SWAP1 DUP1 PUSH1 0x1 ADD DUP1 SLOAD PUSH2 0x3EAD SWAP1 PUSH2 0x8D70 JUMP JUMPDEST DUP1 PUSH1 0x1F ADD PUSH1 0x20 DUP1 SWAP2 DIV MUL PUSH1 0x20 ADD PUSH1 0x40 MLOAD SWAP1 DUP2 ADD PUSH1 0x40 MSTORE DUP1 SWAP3 SWAP2 SWAP1 DUP2 DUP2 MSTORE PUSH1 0x20 ADD DUP3 DUP1 SLOAD PUSH2 0x3ED9 SWAP1 PUSH2 0x8D70 JUMP JUMPDEST DUP1 ISZERO PUSH2 0x3F24 JUMPI DUP1 PUSH1 0x1F LT PUSH2 0x3EFB JUMPI PUSH2 0x100 DUP1 DUP4 SLOAD DIV MUL DUP4 MSTORE SWAP2 PUSH1 0x20 ADD SWAP2 PUSH2 0x3F24 JUMP JUMPDEST DUP3 ADD SWAP2 SWAP1 PUSH0 MSTORE PUSH1 0x20 PUSH0 KECCAK256 SWAP1 JUMPDEST DUP2 SLOAD DUP2 MSTORE SWAP1 PUSH1 0x1 ADD SWAP1 PUSH1 0x20 ADD DUP1 DUP4 GT PUSH2 0x3F07 JUMPI DUP3 SWAP1 SUB PUSH1 0x1F AND DUP3 ADD SWAP2 JUMPDEST POP POP POP POP POP SWAP1 DUP1 PUSH1 0x2 ADD SLOAD SWAP1 DUP1 PUSH1 0x3 ADD SLOAD SWAP1 DUP1 PUSH1 0x4 ADD PUSH0 SWAP1 SLOAD SWAP1 PUSH2 0x100 EXP SWAP1 DIV PUSH1 0xFF AND SWAP1 DUP1 PUSH1 0x4 ADD PUSH1 0x1 SWAP1 SLOAD SWAP1 PUSH2 0x100 EXP SWAP1 DIV PUSH1 0xFF AND SWAP1 DUP1 PUSH1 0x5 ADD SLOAD SWAP1 DUP1 PUSH1 0x6 ADD SLOAD SWAP1 DUP1 PUSH1 0x7 ADD SLOAD SWAP1 POP DUP10 JUMP JUMPDEST PUSH0 SWAP2 SWAP1 POP JUMP JUMPDEST PUSH0 PUSH1 0x4 PUSH0 DUP4 DUP2 MSTORE PUSH1 0x20 ADD SWAP1 DUP2 MSTORE PUSH1 0x20 ADD PUSH0 KECCAK256 PUSH1 0x1 ADD PUSH0 SWAP1 SLOAD SWAP1 PUSH2 0x100 EXP SWAP1 DIV PUSH6 0xFFFFFFFFFFFF AND PUSH6 0xFFFFFFFFFFFF AND SWAP1 POP SWAP2 SWAP1 POP JUMP JUMPDEST PUSH0 SWAP1 JUMP JUMPDEST PUSH0 ADDRESS PUSH20 0xFFFFFFFFFFFFFFFFFFFFFFFFFFFFFFFFFFFFFFFF AND PUSH2 0x3FD1 PUSH2 0xFBF JUMP JUMPDEST PUSH20 0xFFFFFFFFFFFFFFFFFFFFFFFFFFFFFFFFFFFFFFFF AND EQ PUSH2 0x401E JUMPI PUSH1 0x40 MLOAD PUSH32 0xE90A651E00000000000000000000000000000000000000000000000000000000 DUP2 MSTORE PUSH1 0x4 ADD PUSH1 0x40 MLOAD DUP1 SWAP2 SUB SWAP1 REVERT JUMPDEST PUSH4 0xBC197C81 PUSH1 0xE0 SHL SWAP1 POP SWAP6 SWAP5 POP POP POP POP POP JUMP JUMPDEST PUSH0 PUSH1 0x4 PUSH0 DUP4 DUP2 MSTORE PUSH1 0x20 ADD SWAP1 DUP2 MSTORE PUSH1 0x20 ADD PUSH0 KECCAK256 PUSH0 ADD PUSH1 0x1A SWAP1 SLOAD SWAP1 PUSH2 0x100 EXP SWAP1 DIV PUSH4 0xFFFFFFFF AND PUSH4 0xFFFFFFFF AND PUSH1 0x4 PUSH0 DUP5 DUP2 MSTORE PUSH1 0x20 ADD SWAP1 DUP2 MSTORE PUSH1 0x20 ADD PUSH0 KECCAK256 PUSH0 ADD PUSH1 0x14 SWAP1 SLOAD SWAP1 PUSH2 0x100 EXP SWAP1 DIV PUSH6 0xFFFFFFFFFFFF AND PUSH2 0x408C SWAP2 SWAP1 PUSH2 0x9837 JUMP JUMPDEST PUSH6 0xFFFFFFFFFFFF AND SWAP1 POP SWAP2 SWAP1 POP JUMP JUMPDEST PUSH2 0x40A3 PUSH2 0x6734 JUMP JUMPDEST PUSH0 DUP1 DUP6 PUSH20 0xFFFFFFFFFFFFFFFFFFFFFFFFFFFFFFFFFFFFFFFF AND DUP6 DUP6 DUP6 PUSH1 0x40 MLOAD PUSH2 0x40CD SWAP3 SWAP2 SWAP1 PUSH2 0x932E JUMP JUMPDEST PUSH0 PUSH1 0x40 MLOAD DUP1 DUP4 SUB DUP2 DUP6 DUP8 GAS CALL SWAP3 POP POP POP RETURNDATASIZE DUP1 PUSH0 DUP2 EQ PUSH2 0x4107 JUMPI PUSH1 0x40 MLOAD SWAP2 POP PUSH1 0x1F NOT PUSH1 0x3F RETURNDATASIZE ADD AND DUP3 ADD PUSH1 0x40 MSTORE RETURNDATASIZE DUP3 MSTORE RETURNDATASIZE PUSH0 PUSH1 0x20 DUP5 ADD RETURNDATACOPY PUSH2 0x410C JUMP JUMPDEST PUSH1 0x60 SWAP2 POP JUMPDEST POP SWAP2 POP SWAP2 POP PUSH2 0x411B DUP3 DUP3 PUSH2 0x6829 JUMP JUMPDEST POP POP POP POP POP POP POP JUMP JUMPDEST PUSH0 DUP5 DUP5 DUP5 DUP5 PUSH1 0x40 MLOAD PUSH1 0x20 ADD PUSH2 0x413C SWAP5 SWAP4 SWAP3 SWAP2 SWAP1 PUSH2 0x9A25 JUMP JUMPDEST PUSH1 0x40 MLOAD PUSH1 0x20 DUP2 DUP4 SUB SUB DUP2 MSTORE SWAP1 PUSH1 0x40 MSTORE DUP1 MLOAD SWAP1 PUSH1 0x20 ADD KECCAK256 PUSH0 SHR SWAP1 POP SWAP5 SWAP4 POP POP POP POP JUMP JUMPDEST PUSH2 0x4166 PUSH2 0x735A JUMP JUMPDEST PUSH1 0x14 PUSH0 DUP4 DUP2 MSTORE PUSH1 0x20 ADD SWAP1 DUP2 MSTORE PUSH1 0x20 ADD PUSH0 KECCAK256 PUSH1 0x40 MLOAD DUP1 PUSH2 0x100 ADD PUSH1 0x40 MSTORE SWAP1 DUP2 PUSH0 DUP3 ADD SLOAD DUP2 MSTORE PUSH1 0x20 ADD PUSH1 0x1 DUP3 ADD PUSH0 SWAP1 SLOAD SWAP1 PUSH2 0x100 EXP SWAP1 DIV PUSH20 0xFFFFFFFFFFFFFFFFFFFFFFFFFFFFFFFFFFFFFFFF AND PUSH20 0xFFFFFFFFFFFFFFFFFFFFFFFFFFFFFFFFFFFFFFFF AND PUSH20 0xFFFFFFFFFFFFFFFFFFFFFFFFFFFFFFFFFFFFFFFF AND DUP2 MSTORE PUSH1 0x20 ADD PUSH1 0x2 DUP3 ADD DUP1 SLOAD PUSH2 0x41F1 SWAP1 PUSH2 0x8D70 JUMP JUMPDEST DUP1 PUSH1 0x1F ADD PUSH1 0x20 DUP1 SWAP2 DIV MUL PUSH1 0x20 ADD PUSH1 0x40 MLOAD SWAP1 DUP2 ADD PUSH1 0x40 MSTORE DUP1 SWAP3 SWAP2 SWAP1 DUP2 DUP2 MSTORE PUSH1 0x20 ADD DUP3 DUP1 SLOAD PUSH2 0x421D SWAP1 PUSH2 0x8D70 JUMP JUMPDEST DUP1 ISZERO PUSH2 0x4268 JUMPI DUP1 PUSH1 0x1F LT PUSH2 0x423F JUMPI PUSH2 0x100 DUP1 DUP4 SLOAD DIV MUL DUP4 MSTORE SWAP2 PUSH1 0x20 ADD SWAP2 PUSH2 0x4268 JUMP JUMPDEST DUP3 ADD SWAP2 SWAP1 PUSH0 MSTORE PUSH1 0x20 PUSH0 KECCAK256 SWAP1 JUMPDEST DUP2 SLOAD DUP2 MSTORE SWAP1 PUSH1 0x1 ADD SWAP1 PUSH1 0x20 ADD DUP1 DUP4 GT PUSH2 0x424B JUMPI DUP3 SWAP1 SUB PUSH1 0x1F AND DUP3 ADD SWAP2 JUMPDEST POP POP POP POP POP DUP2 MSTORE PUSH1 0x20 ADD PUSH1 0x3 DUP3 ADD SLOAD DUP2 MSTORE PUSH1 0x20 ADD PUSH1 0x4 DUP3 ADD PUSH0 SWAP1 SLOAD SWAP1 PUSH2 0x100 EXP SWAP1 DIV PUSH1 0xFF AND ISZERO ISZERO ISZERO ISZERO DUP2 MSTORE PUSH1 0x20 ADD PUSH1 0x4 DUP3 ADD PUSH1 0x1 SWAP1 SLOAD SWAP1 PUSH2 0x100 EXP SWAP1 DIV PUSH1 0xFF AND PUSH1 0x4 DUP2 GT ISZERO PUSH2 0x42BA JUMPI PUSH2 0x42B9 PUSH2 0x75C1 JUMP JUMPDEST JUMPDEST PUSH1 0x4 DUP2 GT ISZERO PUSH2 0x42CC JUMPI PUSH2 0x42CB PUSH2 0x75C1 JUMP JUMPDEST JUMPDEST DUP2 MSTORE PUSH1 0x20 ADD PUSH1 0x4 DUP3 ADD PUSH1 0x2 SWAP1 SLOAD SWAP1 PUSH2 0x100 EXP SWAP1 DIV PUSH20 0xFFFFFFFFFFFFFFFFFFFFFFFFFFFFFFFFFFFFFFFF AND PUSH20 0xFFFFFFFFFFFFFFFFFFFFFFFFFFFFFFFFFFFFFFFF AND PUSH20 0xFFFFFFFFFFFFFFFFFFFFFFFFFFFFFFFFFFFFFFFF AND DUP2 MSTORE PUSH1 0x20 ADD PUSH1 0x5 DUP3 ADD SLOAD DUP2 MSTORE POP POP SWAP1 POP SWAP2 SWAP1 POP JUMP JUMPDEST PUSH0 PUSH1 0x10 SLOAD DUP3 PUSH2 0x4346 SWAP2 SWAP1 PUSH2 0x8F51 JUMP JUMPDEST SWAP1 POP DUP1 PUSH1 0xD PUSH0 SWAP1 SLOAD SWAP1 PUSH2 0x100 EXP SWAP1 DIV PUSH20 0xFFFFFFFFFFFFFFFFFFFFFFFFFFFFFFFFFFFFFFFF AND PUSH20 0xFFFFFFFFFFFFFFFFFFFFFFFFFFFFFFFFFFFFFFFF AND PUSH4 0x70A08231 ADDRESS PUSH1 0x40 MLOAD DUP3 PUSH4 0xFFFFFFFF AND PUSH1 0xE0 SHL DUP2 MSTORE PUSH1 0x4 ADD PUSH2 0x43A3 SWAP2 SWAP1 PUSH2 0x79B8 JUMP JUMPDEST PUSH1 0x20 PUSH1 0x40 MLOAD DUP1 DUP4 SUB DUP2 DUP7 GAS STATICCALL ISZERO DUP1 ISZERO PUSH2 0x43BE JUMPI RETURNDATASIZE PUSH0 DUP1 RETURNDATACOPY RETURNDATASIZE PUSH0 REVERT JUMPDEST POP POP POP POP PUSH1 0x40 MLOAD RETURNDATASIZE PUSH1 0x1F NOT PUSH1 0x1F DUP3 ADD AND DUP3 ADD DUP1 PUSH1 0x40 MSTORE POP DUP2 ADD SWAP1 PUSH2 0x43E2 SWAP2 SWAP1 PUSH2 0x9205 JUMP JUMPDEST LT ISZERO PUSH2 0x4423 JUMPI PUSH1 0x40 MLOAD PUSH32 0x8C379A000000000000000000000000000000000000000000000000000000000 DUP2 MSTORE PUSH1 0x4 ADD PUSH2 0x441A SWAP1 PUSH2 0x9AED JUMP JUMPDEST PUSH1 0x40 MLOAD DUP1 SWAP2 SUB SWAP1 REVERT JUMPDEST PUSH1 0xD PUSH0 SWAP1 SLOAD SWAP1 PUSH2 0x100 EXP SWAP1 DIV PUSH20 0xFFFFFFFFFFFFFFFFFFFFFFFFFFFFFFFFFFFFFFFF AND PUSH20 0xFFFFFFFFFFFFFFFFFFFFFFFFFFFFFFFFFFFFFFFF AND PUSH4 0xA64B6E5F ADDRESS CALLER PUSH1 0xD PUSH0 SWAP1 SLOAD SWAP1 PUSH2 0x100 EXP SWAP1 DIV PUSH20 0xFFFFFFFFFFFFFFFFFFFFFFFFFFFFFFFFFFFFFFFF AND PUSH20 0xFFFFFFFFFFFFFFFFFFFFFFFFFFFFFFFFFFFFFFFF AND PUSH4 0x313CE567 PUSH1 0x40 MLOAD DUP2 PUSH4 0xFFFFFFFF AND PUSH1 0xE0 SHL DUP2 MSTORE PUSH1 0x4 ADD PUSH1 0x20 PUSH1 0x40 MLOAD DUP1 DUP4 SUB DUP2 DUP7 GAS STATICCALL ISZERO DUP1 ISZERO PUSH2 0x44CC JUMPI RETURNDATASIZE PUSH0 DUP1 RETURNDATACOPY RETURNDATASIZE PUSH0 REVERT JUMPDEST POP POP POP POP PUSH1 0x40 MLOAD RETURNDATASIZE PUSH1 0x1F NOT PUSH1 0x1F DUP3 ADD AND DUP3 ADD DUP1 PUSH1 0x40 MSTORE POP DUP2 ADD SWAP1 PUSH2 0x44F0 SWAP2 SWAP1 PUSH2 0x8FA6 JUMP JUMPDEST PUSH1 0xA PUSH2 0x44FC SWAP2 SWAP1 PUSH2 0x9100 JUMP JUMPDEST DUP6 PUSH2 0x4507 SWAP2 SWAP1 PUSH2 0x8F51 JUMP JUMPDEST PUSH1 0x40 MLOAD DUP5 PUSH4 0xFFFFFFFF AND PUSH1 0xE0 SHL DUP2 MSTORE PUSH1 0x4 ADD PUSH2 0x4525 SWAP4 SWAP3 SWAP2 SWAP1 PUSH2 0x914A JUMP JUMPDEST PUSH1 0x20 PUSH1 0x40 MLOAD DUP1 DUP4 SUB DUP2 PUSH0 DUP8 GAS CALL ISZERO DUP1 ISZERO PUSH2 0x4541 JUMPI RETURNDATASIZE PUSH0 DUP1 RETURNDATACOPY RETURNDATASIZE PUSH0 REVERT JUMPDEST POP POP POP POP PUSH1 0x40 MLOAD RETURNDATASIZE PUSH1 0x1F NOT PUSH1 0x1F DUP3 ADD AND DUP3 ADD DUP1 PUSH1 0x40 MSTORE POP DUP2 ADD SWAP1 PUSH2 0x4565 SWAP2 SWAP1 PUSH2 0x9193 JUMP JUMPDEST POP DUP2 PUSH1 0x16 PUSH0 CALLER PUSH20 0xFFFFFFFFFFFFFFFFFFFFFFFFFFFFFFFFFFFFFFFF AND PUSH20 0xFFFFFFFFFFFFFFFFFFFFFFFFFFFFFFFFFFFFFFFF AND DUP2 MSTORE PUSH1 0x20 ADD SWAP1 DUP2 MSTORE PUSH1 0x20 ADD PUSH0 KECCAK256 PUSH1 0x2 ADD PUSH0 DUP3 DUP3 SLOAD PUSH2 0x45B5 SWAP2 SWAP1 PUSH2 0x91BE JUMP JUMPDEST SWAP3 POP POP DUP2 SWAP1 SSTORE POP POP POP JUMP JUMPDEST PUSH1 0x13 PUSH1 0x20 MSTORE DUP2 PUSH0 MSTORE PUSH1 0x40 PUSH0 KECCAK256 DUP2 DUP2 SLOAD DUP2 LT PUSH2 0x45D9 JUMPI PUSH0 DUP1 REVERT JUMPDEST SWAP1 PUSH0 MSTORE PUSH1 0x20 PUSH0 KECCAK256 ADD PUSH0 SWAP2 POP SWAP2 POP POP SLOAD DUP2 JUMP JUMPDEST PUSH1 0x12 PUSH1 0x20 MSTORE DUP2 PUSH0 MSTORE PUSH1 0x40 PUSH0 KECCAK256 PUSH1 0x20 MSTORE DUP1 PUSH0 MSTORE PUSH1 0x40 PUSH0 KECCAK256 PUSH0 SWAP2 POP SWAP2 POP POP SLOAD DUP2 JUMP JUMPDEST PUSH0 DUP1 PUSH1 0x15 PUSH0 DUP5 DUP2 MSTORE PUSH1 0x20 ADD SWAP1 DUP2 MSTORE PUSH1 0x20 ADD PUSH0 KECCAK256 SWAP1 POP PUSH0 PUSH1 0x14 PUSH0 DUP6 DUP2 MSTORE PUSH1 0x20 ADD SWAP1 DUP2 MSTORE PUSH1 0x20 ADD PUSH0 KECCAK256 SWAP1 POP PUSH0 PUSH1 0x4 DUP2 GT ISZERO PUSH2 0x4647 JUMPI PUSH2 0x4646 PUSH2 0x75C1 JUMP JUMPDEST JUMPDEST DUP2 PUSH1 0x4 ADD PUSH1 0x1 SWAP1 SLOAD SWAP1 PUSH2 0x100 EXP SWAP1 DIV PUSH1 0xFF AND PUSH1 0x4 DUP2 GT ISZERO PUSH2 0x466B JUMPI PUSH2 0x466A PUSH2 0x75C1 JUMP JUMPDEST JUMPDEST EQ DUP1 PUSH2 0x46AC JUMPI POP PUSH1 0x1 PUSH1 0x4 DUP2 GT ISZERO PUSH2 0x4686 JUMPI PUSH2 0x4685 PUSH2 0x75C1 JUMP JUMPDEST JUMPDEST DUP2 PUSH1 0x4 ADD PUSH1 0x1 SWAP1 SLOAD SWAP1 PUSH2 0x100 EXP SWAP1 DIV PUSH1 0xFF AND PUSH1 0x4 DUP2 GT ISZERO PUSH2 0x46AA JUMPI PUSH2 0x46A9 PUSH2 0x75C1 JUMP JUMPDEST JUMPDEST EQ JUMPDEST ISZERO PUSH2 0x4779 JUMPI PUSH0 PUSH1 0x64 PUSH1 0x1E PUSH1 0xF SLOAD PUSH1 0xC PUSH0 SWAP1 SLOAD SWAP1 PUSH2 0x100 EXP SWAP1 DIV PUSH20 0xFFFFFFFFFFFFFFFFFFFFFFFFFFFFFFFFFFFFFFFF AND PUSH20 0xFFFFFFFFFFFFFFFFFFFFFFFFFFFFFFFFFFFFFFFF AND PUSH4 0x18160DDD PUSH1 0x40 MLOAD DUP2 PUSH4 0xFFFFFFFF AND PUSH1 0xE0 SHL DUP2 MSTORE PUSH1 0x4 ADD PUSH1 0x20 PUSH1 0x40 MLOAD DUP1 DUP4 SUB DUP2 DUP7 GAS STATICCALL ISZERO DUP1 ISZERO PUSH2 0x4723 JUMPI RETURNDATASIZE PUSH0 DUP1 RETURNDATACOPY RETURNDATASIZE PUSH0 REVERT JUMPDEST POP POP POP POP PUSH1 0x40 MLOAD RETURNDATASIZE PUSH1 0x1F NOT PUSH1 0x1F DUP3 ADD AND DUP3 ADD DUP1 PUSH1 0x40 MSTORE POP DUP2 ADD SWAP1 PUSH2 0x4747 SWAP2 SWAP1 PUSH2 0x9205 JUMP JUMPDEST PUSH2 0x4751 SWAP2 SWAP1 PUSH2 0x9B38 JUMP JUMPDEST PUSH2 0x475B SWAP2 SWAP1 PUSH2 0x8F51 JUMP JUMPDEST PUSH2 0x4765 SWAP2 SWAP1 PUSH2 0x9B38 JUMP JUMPDEST SWAP1 POP DUP1 DUP4 PUSH1 0x5 ADD SLOAD LT ISZERO SWAP4 POP POP POP POP PUSH2 0x487C JUMP JUMPDEST PUSH0 PUSH1 0x2 DUP2 GT ISZERO PUSH2 0x478C JUMPI PUSH2 0x478B PUSH2 0x75C1 JUMP JUMPDEST JUMPDEST DUP3 PUSH1 0x4 ADD PUSH1 0x1 SWAP1 SLOAD SWAP1 PUSH2 0x100 EXP SWAP1 DIV PUSH1 0xFF AND PUSH1 0x2 DUP2 GT ISZERO PUSH2 0x47B0 JUMPI PUSH2 0x47AF PUSH2 0x75C1 JUMP JUMPDEST JUMPDEST SUB PUSH2 0x47C9 JUMPI DUP2 PUSH1 0x6 ADD SLOAD DUP3 PUSH1 0x5 ADD SLOAD GT SWAP3 POP POP POP PUSH2 0x487C JUMP JUMPDEST PUSH1 0x1 PUSH1 0x2 DUP2 GT ISZERO PUSH2 0x47DD JUMPI PUSH2 0x47DC PUSH2 0x75C1 JUMP JUMPDEST JUMPDEST DUP3 PUSH1 0x4 ADD PUSH1 0x1 SWAP1 SLOAD SWAP1 PUSH2 0x100 EXP SWAP1 DIV PUSH1 0xFF AND PUSH1 0x2 DUP2 GT ISZERO PUSH2 0x4801 JUMPI PUSH2 0x4800 PUSH2 0x75C1 JUMP JUMPDEST JUMPDEST SUB PUSH2 0x4841 JUMPI PUSH1 0x3 PUSH1 0x2 DUP4 PUSH1 0x6 ADD SLOAD DUP5 PUSH1 0x5 ADD SLOAD PUSH2 0x481E SWAP2 SWAP1 PUSH2 0x91BE JUMP JUMPDEST PUSH2 0x4828 SWAP2 SWAP1 PUSH2 0x8F51 JUMP JUMPDEST PUSH2 0x4832 SWAP2 SWAP1 PUSH2 0x9B38 JUMP JUMPDEST DUP3 PUSH1 0x5 ADD SLOAD GT SWAP3 POP POP POP PUSH2 0x487C JUMP JUMPDEST PUSH1 0x40 MLOAD PUSH32 0x8C379A000000000000000000000000000000000000000000000000000000000 DUP2 MSTORE PUSH1 0x4 ADD PUSH2 0x4873 SWAP1 PUSH2 0x9BB2 JUMP JUMPDEST PUSH1 0x40 MLOAD DUP1 SWAP2 SUB SWAP1 REVERT JUMPDEST SWAP2 SWAP1 POP JUMP JUMPDEST PUSH1 0x1 PUSH1 0x2 DUP2 GT ISZERO PUSH2 0x4895 JUMPI PUSH2 0x4894 PUSH2 0x75C1 JUMP JUMPDEST JUMPDEST PUSH1 0x16 PUSH0 DUP4 PUSH20 0xFFFFFFFFFFFFFFFFFFFFFFFFFFFFFFFFFFFFFFFF AND PUSH20 0xFFFFFFFFFFFFFFFFFFFFFFFFFFFFFFFFFFFFFFFF AND DUP2 MSTORE PUSH1 0x20 ADD SWAP1 DUP2 MSTORE PUSH1 0x20 ADD PUSH0 KECCAK256 PUSH1 0x1 ADD PUSH1 0x14 SWAP1 SLOAD SWAP1 PUSH2 0x100 EXP SWAP1 DIV PUSH1 0xFF AND PUSH1 0x2 DUP2 GT ISZERO PUSH2 0x48F5 JUMPI PUSH2 0x48F4 PUSH2 0x75C1 JUMP JUMPDEST JUMPDEST EQ PUSH2 0x4935 JUMPI PUSH1 0x40 MLOAD PUSH32 0x8C379A000000000000000000000000000000000000000000000000000000000 DUP2 MSTORE PUSH1 0x4 ADD PUSH2 0x492C SWAP1 PUSH2 0x9C1A JUMP JUMPDEST PUSH1 0x40 MLOAD DUP1 SWAP2 SUB SWAP1 REVERT JUMPDEST PUSH0 PUSH1 0x16 PUSH0 DUP4 PUSH20 0xFFFFFFFFFFFFFFFFFFFFFFFFFFFFFFFFFFFFFFFF AND PUSH20 0xFFFFFFFFFFFFFFFFFFFFFFFFFFFFFFFFFFFFFFFF AND DUP2 MSTORE PUSH1 0x20 ADD SWAP1 DUP2 MSTORE PUSH1 0x20 ADD PUSH0 KECCAK256 PUSH1 0x1 ADD PUSH1 0x14 PUSH2 0x100 EXP DUP2 SLOAD DUP2 PUSH1 0xFF MUL NOT AND SWAP1 DUP4 PUSH1 0x2 DUP2 GT ISZERO PUSH2 0x4998 JUMPI PUSH2 0x4997 PUSH2 0x75C1 JUMP JUMPDEST JUMPDEST MUL OR SWAP1 SSTORE POP POP JUMP JUMPDEST PUSH1 0x60 PUSH1 0x40 MLOAD DUP1 PUSH1 0x60 ADD PUSH1 0x40 MSTORE DUP1 PUSH1 0x28 DUP2 MSTORE PUSH1 0x20 ADD PUSH2 0xA5DA PUSH1 0x28 SWAP2 CODECOPY SWAP1 POP SWAP1 JUMP JUMPDEST PUSH32 0xF2AAD550CF55F045CB27E9C559F9889FDFB6E6CDAA032301D6EA397784AE51D7 DUP2 JUMP JUMPDEST PUSH0 PUSH1 0x15 PUSH0 DUP6 DUP2 MSTORE PUSH1 0x20 ADD SWAP1 DUP2 MSTORE PUSH1 0x20 ADD PUSH0 KECCAK256 SWAP1 POP PUSH2 0x4C23 DUP2 PUSH1 0x40 MLOAD DUP1 PUSH2 0x140 ADD PUSH1 0x40 MSTORE SWAP1 DUP2 PUSH0 DUP3 ADD PUSH0 SWAP1 SLOAD SWAP1 PUSH2 0x100 EXP SWAP1 DIV PUSH20 0xFFFFFFFFFFFFFFFFFFFFFFFFFFFFFFFFFFFFFFFF AND PUSH20 0xFFFFFFFFFFFFFFFFFFFFFFFFFFFFFFFFFFFFFFFF AND PUSH20 0xFFFFFFFFFFFFFFFFFFFFFFFFFFFFFFFFFFFFFFFF AND DUP2 MSTORE PUSH1 0x20 ADD PUSH1 0x1 DUP3 ADD DUP1 SLOAD PUSH2 0x4A6C SWAP1 PUSH2 0x8D70 JUMP JUMPDEST DUP1 PUSH1 0x1F ADD PUSH1 0x20 DUP1 SWAP2 DIV MUL PUSH1 0x20 ADD PUSH1 0x40 MLOAD SWAP1 DUP2 ADD PUSH1 0x40 MSTORE DUP1 SWAP3 SWAP2 SWAP1 DUP2 DUP2 MSTORE PUSH1 0x20 ADD DUP3 DUP1 SLOAD PUSH2 0x4A98 SWAP1 PUSH2 0x8D70 JUMP JUMPDEST DUP1 ISZERO PUSH2 0x4AE3 JUMPI DUP1 PUSH1 0x1F LT PUSH2 0x4ABA JUMPI PUSH2 0x100 DUP1 DUP4 SLOAD DIV MUL DUP4 MSTORE SWAP2 PUSH1 0x20 ADD SWAP2 PUSH2 0x4AE3 JUMP JUMPDEST DUP3 ADD SWAP2 SWAP1 PUSH0 MSTORE PUSH1 0x20 PUSH0 KECCAK256 SWAP1 JUMPDEST DUP2 SLOAD DUP2 MSTORE SWAP1 PUSH1 0x1 ADD SWAP1 PUSH1 0x20 ADD DUP1 DUP4 GT PUSH2 0x4AC6 JUMPI DUP3 SWAP1 SUB PUSH1 0x1F AND DUP3 ADD SWAP2 JUMPDEST POP POP POP POP POP DUP2 MSTORE PUSH1 0x20 ADD PUSH1 0x2 DUP3 ADD SLOAD DUP2 MSTORE PUSH1 0x20 ADD PUSH1 0x3 DUP3 ADD SLOAD DUP2 MSTORE PUSH1 0x20 ADD PUSH1 0x4 DUP3 ADD PUSH0 SWAP1 SLOAD SWAP1 PUSH2 0x100 EXP SWAP1 DIV PUSH1 0xFF AND PUSH1 0x4 DUP2 GT ISZERO PUSH2 0x4B24 JUMPI PUSH2 0x4B23 PUSH2 0x75C1 JUMP JUMPDEST JUMPDEST PUSH1 0x4 DUP2 GT ISZERO PUSH2 0x4B36 JUMPI PUSH2 0x4B35 PUSH2 0x75C1 JUMP JUMPDEST JUMPDEST DUP2 MSTORE PUSH1 0x20 ADD PUSH1 0x4 DUP3 ADD PUSH1 0x1 SWAP1 SLOAD SWAP1 PUSH2 0x100 EXP SWAP1 DIV PUSH1 0xFF AND PUSH1 0x2 DUP2 GT ISZERO PUSH2 0x4B5F JUMPI PUSH2 0x4B5E PUSH2 0x75C1 JUMP JUMPDEST JUMPDEST PUSH1 0x2 DUP2 GT ISZERO PUSH2 0x4B71 JUMPI PUSH2 0x4B70 PUSH2 0x75C1 JUMP JUMPDEST JUMPDEST DUP2 MSTORE PUSH1 0x20 ADD PUSH1 0x5 DUP3 ADD SLOAD DUP2 MSTORE PUSH1 0x20 ADD PUSH1 0x6 DUP3 ADD SLOAD DUP2 MSTORE PUSH1 0x20 ADD PUSH1 0x7 DUP3 ADD SLOAD DUP2 MSTORE PUSH1 0x20 ADD PUSH1 0x8 DUP3 ADD DUP1 SLOAD DUP1 PUSH1 0x20 MUL PUSH1 0x20 ADD PUSH1 0x40 MLOAD SWAP1 DUP2 ADD PUSH1 0x40 MSTORE DUP1 SWAP3 SWAP2 SWAP1 DUP2 DUP2 MSTORE PUSH1 0x20 ADD DUP3 DUP1 SLOAD DUP1 ISZERO PUSH2 0x4C15 JUMPI PUSH1 0x20 MUL DUP3 ADD SWAP2 SWAP1 PUSH0 MSTORE PUSH1 0x20 PUSH0 KECCAK256 SWAP1 JUMPDEST DUP2 PUSH0 SWAP1 SLOAD SWAP1 PUSH2 0x100 EXP SWAP1 DIV PUSH20 0xFFFFFFFFFFFFFFFFFFFFFFFFFFFFFFFFFFFFFFFF AND PUSH20 0xFFFFFFFFFFFFFFFFFFFFFFFFFFFFFFFFFFFFFFFF AND DUP2 MSTORE PUSH1 0x20 ADD SWAP1 PUSH1 0x1 ADD SWAP1 DUP1 DUP4 GT PUSH2 0x4BCC JUMPI JUMPDEST POP POP POP POP POP DUP2 MSTORE POP POP PUSH2 0x56B2 JUMP JUMPDEST PUSH0 PUSH1 0x12 PUSH0 DUP7 DUP2 MSTORE PUSH1 0x20 ADD SWAP1 DUP2 MSTORE PUSH1 0x20 ADD PUSH0 KECCAK256 PUSH0 DUP6 PUSH20 0xFFFFFFFFFFFFFFFFFFFFFFFFFFFFFFFFFFFFFFFF AND PUSH20 0xFFFFFFFFFFFFFFFFFFFFFFFFFFFFFFFFFFFFFFFF AND DUP2 MSTORE PUSH1 0x20 ADD SWAP1 DUP2 MSTORE PUSH1 0x20 ADD PUSH0 KECCAK256 SLOAD SWAP1 POP PUSH0 DUP2 GT PUSH2 0x4CB5 JUMPI PUSH1 0x40 MLOAD PUSH32 0x8C379A000000000000000000000000000000000000000000000000000000000 DUP2 MSTORE PUSH1 0x4 ADD PUSH2 0x4CAC SWAP1 PUSH2 0x9CA8 JUMP JUMPDEST PUSH1 0x40 MLOAD DUP1 SWAP2 SUB SWAP1 REVERT JUMPDEST DUP3 PUSH1 0xD PUSH0 SWAP1 SLOAD SWAP1 PUSH2 0x100 EXP SWAP1 DIV PUSH20 0xFFFFFFFFFFFFFFFFFFFFFFFFFFFFFFFFFFFFFFFF AND PUSH20 0xFFFFFFFFFFFFFFFFFFFFFFFFFFFFFFFFFFFFFFFF AND PUSH4 0x70A08231 CALLER PUSH1 0x40 MLOAD DUP3 PUSH4 0xFFFFFFFF AND PUSH1 0xE0 SHL DUP2 MSTORE PUSH1 0x4 ADD PUSH2 0x4D10 SWAP2 SWAP1 PUSH2 0x79B8 JUMP JUMPDEST PUSH1 0x20 PUSH1 0x40 MLOAD DUP1 DUP4 SUB DUP2 DUP7 GAS STATICCALL ISZERO DUP1 ISZERO PUSH2 0x4D2B JUMPI RETURNDATASIZE PUSH0 DUP1 RETURNDATACOPY RETURNDATASIZE PUSH0 REVERT JUMPDEST POP POP POP POP PUSH1 0x40 MLOAD RETURNDATASIZE PUSH1 0x1F NOT PUSH1 0x1F DUP3 ADD AND DUP3 ADD DUP1 PUSH1 0x40 MSTORE POP DUP2 ADD SWAP1 PUSH2 0x4D4F SWAP2 SWAP1 PUSH2 0x9205 JUMP JUMPDEST LT ISZERO PUSH2 0x4D90 JUMPI PUSH1 0x40 MLOAD PUSH32 0x8C379A000000000000000000000000000000000000000000000000000000000 DUP2 MSTORE PUSH1 0x4 ADD PUSH2 0x4D87 SWAP1 PUSH2 0x9D10 JUMP JUMPDEST PUSH1 0x40 MLOAD DUP1 SWAP2 SUB SWAP1 REVERT JUMPDEST PUSH0 PUSH1 0xE SLOAD DUP5 PUSH2 0x4D9F SWAP2 SWAP1 PUSH2 0x9B38 JUMP JUMPDEST SWAP1 POP PUSH1 0xD PUSH0 SWAP1 SLOAD SWAP1 PUSH2 0x100 EXP SWAP1 DIV PUSH20 0xFFFFFFFFFFFFFFFFFFFFFFFFFFFFFFFFFFFFFFFF AND PUSH20 0xFFFFFFFFFFFFFFFFFFFFFFFFFFFFFFFFFFFFFFFF AND PUSH4 0xA64B6E5F CALLER ADDRESS DUP8 PUSH1 0x40 MLOAD DUP5 PUSH4 0xFFFFFFFF AND PUSH1 0xE0 SHL DUP2 MSTORE PUSH1 0x4 ADD PUSH2 0x4DFF SWAP4 SWAP3 SWAP2 SWAP1 PUSH2 0x914A JUMP JUMPDEST PUSH1 0x20 PUSH1 0x40 MLOAD DUP1 DUP4 SUB DUP2 PUSH0 DUP8 GAS CALL ISZERO DUP1 ISZERO PUSH2 0x4E1B JUMPI RETURNDATASIZE PUSH0 DUP1 RETURNDATACOPY RETURNDATASIZE PUSH0 REVERT JUMPDEST POP POP POP POP PUSH1 0x40 MLOAD RETURNDATASIZE PUSH1 0x1F NOT PUSH1 0x1F DUP3 ADD AND DUP3 ADD DUP1 PUSH1 0x40 MSTORE POP DUP2 ADD SWAP1 PUSH2 0x4E3F SWAP2 SWAP1 PUSH2 0x9193 JUMP JUMPDEST POP PUSH0 PUSH1 0x11 PUSH0 DUP9 DUP2 MSTORE PUSH1 0x20 ADD SWAP1 DUP2 MSTORE PUSH1 0x20 ADD PUSH0 KECCAK256 PUSH0 DUP8 PUSH20 0xFFFFFFFFFFFFFFFFFFFFFFFFFFFFFFFFFFFFFFFF AND PUSH20 0xFFFFFFFFFFFFFFFFFFFFFFFFFFFFFFFFFFFFFFFF AND DUP2 MSTORE PUSH1 0x20 ADD SWAP1 DUP2 MSTORE PUSH1 0x20 ADD PUSH0 KECCAK256 PUSH1 0x3 ADD PUSH0 SWAP1 SLOAD SWAP1 PUSH2 0x100 EXP SWAP1 DIV PUSH1 0xFF AND SWAP1 POP DUP1 ISZERO PUSH2 0x4EC4 JUMPI DUP2 DUP5 PUSH1 0x5 ADD PUSH0 DUP3 DUP3 SLOAD PUSH2 0x4EB8 SWAP2 SWAP1 PUSH2 0x91BE JUMP JUMPDEST SWAP3 POP POP DUP2 SWAP1 SSTORE POP PUSH2 0x4EDF JUMP JUMPDEST DUP2 DUP5 PUSH1 0x6 ADD PUSH0 DUP3 DUP3 SLOAD PUSH2 0x4ED7 SWAP2 SWAP1 PUSH2 0x91BE JUMP JUMPDEST SWAP3 POP POP DUP2 SWAP1 SSTORE POP JUMPDEST DUP2 DUP5 PUSH1 0x7 ADD PUSH0 DUP3 DUP3 SLOAD PUSH2 0x4EF2 SWAP2 SWAP1 PUSH2 0x91BE JUMP JUMPDEST SWAP3 POP POP DUP2 SWAP1 SSTORE POP PUSH1 0x40 MLOAD DUP1 PUSH1 0x80 ADD PUSH1 0x40 MSTORE DUP1 DUP9 DUP2 MSTORE PUSH1 0x20 ADD DUP8 PUSH20 0xFFFFFFFFFFFFFFFFFFFFFFFFFFFFFFFFFFFFFFFF AND DUP2 MSTORE PUSH1 0x20 ADD DUP7 DUP2 MSTORE PUSH1 0x20 ADD DUP3 ISZERO ISZERO DUP2 MSTORE POP PUSH1 0x11 PUSH0 DUP10 DUP2 MSTORE PUSH1 0x20 ADD SWAP1 DUP2 MSTORE PUSH1 0x20 ADD PUSH0 KECCAK256 PUSH0 CALLER PUSH20 0xFFFFFFFFFFFFFFFFFFFFFFFFFFFFFFFFFFFFFFFF AND PUSH20 0xFFFFFFFFFFFFFFFFFFFFFFFFFFFFFFFFFFFFFFFF AND DUP2 MSTORE PUSH1 0x20 ADD SWAP1 DUP2 MSTORE PUSH1 0x20 ADD PUSH0 KECCAK256 PUSH0 DUP3 ADD MLOAD DUP2 PUSH0 ADD SSTORE PUSH1 0x20 DUP3 ADD MLOAD DUP2 PUSH1 0x1 ADD PUSH0 PUSH2 0x100 EXP DUP2 SLOAD DUP2 PUSH20 0xFFFFFFFFFFFFFFFFFFFFFFFFFFFFFFFFFFFFFFFF MUL NOT AND SWAP1 DUP4 PUSH20 0xFFFFFFFFFFFFFFFFFFFFFFFFFFFFFFFFFFFFFFFF AND MUL OR SWAP1 SSTORE POP PUSH1 0x40 DUP3 ADD MLOAD DUP2 PUSH1 0x2 ADD SSTORE PUSH1 0x60 DUP3 ADD MLOAD DUP2 PUSH1 0x3 ADD PUSH0 PUSH2 0x100 EXP DUP2 SLOAD DUP2 PUSH1 0xFF MUL NOT AND SWAP1 DUP4 ISZERO ISZERO MUL OR SWAP1 SSTORE POP SWAP1 POP POP DUP7 DUP7 PUSH20 0xFFFFFFFFFFFFFFFFFFFFFFFFFFFFFFFFFFFFFFFF AND CALLER PUSH20 0xFFFFFFFFFFFFFFFFFFFFFFFFFFFFFFFFFFFFFFFF AND PUSH32 0x3963B9E28CEB6FE524E7C84764F3C60D1286239A6761033BB6B1F43FED1ED122 DUP6 PUSH1 0x40 MLOAD PUSH2 0x5056 SWAP2 SWAP1 PUSH2 0x7750 JUMP JUMPDEST PUSH1 0x40 MLOAD DUP1 SWAP2 SUB SWAP1 LOG4 POP POP POP POP POP POP POP JUMP JUMPDEST PUSH0 PUSH2 0x507A DUP4 DUP4 PUSH2 0x5075 PUSH2 0x684D JUMP JUMPDEST PUSH2 0x668F JUMP JUMPDEST SWAP1 POP SWAP3 SWAP2 POP POP JUMP JUMPDEST PUSH0 ADDRESS PUSH20 0xFFFFFFFFFFFFFFFFFFFFFFFFFFFFFFFFFFFFFFFF AND PUSH2 0x50A2 PUSH2 0xFBF JUMP JUMPDEST PUSH20 0xFFFFFFFFFFFFFFFFFFFFFFFFFFFFFFFFFFFFFFFF AND EQ PUSH2 0x50EF JUMPI PUSH1 0x40 MLOAD PUSH32 0xE90A651E00000000000000000000000000000000000000000000000000000000 DUP2 MSTORE PUSH1 0x4 ADD PUSH1 0x40 MLOAD DUP1 SWAP2 SUB SWAP1 REVERT JUMPDEST PUSH4 0xF23A6E61 PUSH1 0xE0 SHL SWAP1 POP SWAP6 SWAP5 POP POP POP POP POP JUMP JUMPDEST PUSH0 PUSH1 0x1 SWAP1 POP SWAP2 SWAP1 POP JUMP JUMPDEST PUSH1 0x40 MLOAD DUP1 PUSH1 0x80 ADD PUSH1 0x40 MSTORE DUP1 DUP4 DUP2 MSTORE PUSH1 0x20 ADD DUP5 PUSH20 0xFFFFFFFFFFFFFFFFFFFFFFFFFFFFFFFFFFFFFFFF AND DUP2 MSTORE PUSH1 0x20 ADD DUP3 PUSH1 0x2 DUP2 GT ISZERO PUSH2 0x514C JUMPI PUSH2 0x514B PUSH2 0x75C1 JUMP JUMPDEST JUMPDEST DUP2 MSTORE PUSH1 0x20 ADD PUSH0 DUP2 MSTORE POP PUSH1 0x16 PUSH0 DUP6 PUSH20 0xFFFFFFFFFFFFFFFFFFFFFFFFFFFFFFFFFFFFFFFF AND PUSH20 0xFFFFFFFFFFFFFFFFFFFFFFFFFFFFFFFFFFFFFFFF AND DUP2 MSTORE PUSH1 0x20 ADD SWAP1 DUP2 MSTORE PUSH1 0x20 ADD PUSH0 KECCAK256 PUSH0 DUP3 ADD MLOAD DUP2 PUSH0 ADD SWAP1 DUP2 PUSH2 0x51A5 SWAP2 SWAP1 PUSH2 0x9EB0 JUMP JUMPDEST POP PUSH1 0x20 DUP3 ADD MLOAD DUP2 PUSH1 0x1 ADD PUSH0 PUSH2 0x100 EXP DUP2 SLOAD DUP2 PUSH20 0xFFFFFFFFFFFFFFFFFFFFFFFFFFFFFFFFFFFFFFFF MUL NOT AND SWAP1 DUP4 PUSH20 0xFFFFFFFFFFFFFFFFFFFFFFFFFFFFFFFFFFFFFFFF AND MUL OR SWAP1 SSTORE POP PUSH1 0x40 DUP3 ADD MLOAD DUP2 PUSH1 0x1 ADD PUSH1 0x14 PUSH2 0x100 EXP DUP2 SLOAD DUP2 PUSH1 0xFF MUL NOT AND SWAP1 DUP4 PUSH1 0x2 DUP2 GT ISZERO PUSH2 0x5217 JUMPI PUSH2 0x5216 PUSH2 0x75C1 JUMP JUMPDEST JUMPDEST MUL OR SWAP1 SSTORE POP PUSH1 0x60 DUP3 ADD MLOAD DUP2 PUSH1 0x2 ADD SSTORE SWAP1 POP POP POP POP POP JUMP JUMPDEST PUSH0 PUSH32 0x1FFC9A700000000000000000000000000000000000000000000000000000000 PUSH28 0xFFFFFFFFFFFFFFFFFFFFFFFFFFFFFFFFFFFFFFFFFFFFFFFFFFFFFFFF NOT AND DUP3 PUSH28 0xFFFFFFFFFFFFFFFFFFFFFFFFFFFFFFFFFFFFFFFFFFFFFFFFFFFFFFFF NOT AND EQ SWAP1 POP SWAP2 SWAP1 POP JUMP JUMPDEST PUSH0 DUP1 PUSH2 0x52A5 DUP11 DUP11 DUP11 DUP11 PUSH2 0x38E9 JUMP JUMPDEST SWAP1 POP PUSH1 0x40 MLOAD DUP1 PUSH2 0x100 ADD PUSH1 0x40 MSTORE DUP1 DUP3 DUP2 MSTORE PUSH1 0x20 ADD CALLER PUSH20 0xFFFFFFFFFFFFFFFFFFFFFFFFFFFFFFFFFFFFFFFF AND DUP2 MSTORE PUSH1 0x20 ADD DUP9 DUP2 MSTORE PUSH1 0x20 ADD DUP3 DUP2 MSTORE PUSH1 0x20 ADD PUSH0 ISZERO ISZERO DUP2 MSTORE PUSH1 0x20 ADD DUP7 PUSH1 0x4 DUP2 GT ISZERO PUSH2 0x52FC JUMPI PUSH2 0x52FB PUSH2 0x75C1 JUMP JUMPDEST JUMPDEST DUP2 MSTORE PUSH1 0x20 ADD DUP6 PUSH20 0xFFFFFFFFFFFFFFFFFFFFFFFFFFFFFFFFFFFFFFFF AND DUP2 MSTORE PUSH1 0x20 ADD DUP5 DUP2 MSTORE POP PUSH1 0x14 PUSH0 DUP4 DUP2 MSTORE PUSH1 0x20 ADD SWAP1 DUP2 MSTORE PUSH1 0x20 ADD PUSH0 KECCAK256 PUSH0 DUP3 ADD MLOAD DUP2 PUSH0 ADD SSTORE PUSH1 0x20 DUP3 ADD MLOAD DUP2 PUSH1 0x1 ADD PUSH0 PUSH2 0x100 EXP DUP2 SLOAD DUP2 PUSH20 0xFFFFFFFFFFFFFFFFFFFFFFFFFFFFFFFFFFFFFFFF MUL NOT AND SWAP1 DUP4 PUSH20 0xFFFFFFFFFFFFFFFFFFFFFFFFFFFFFFFFFFFFFFFF AND MUL OR SWAP1 SSTORE POP PUSH1 0x40 DUP3 ADD MLOAD DUP2 PUSH1 0x2 ADD SWAP1 DUP2 PUSH2 0x5395 SWAP2 SWAP1 PUSH2 0x9EB0 JUMP JUMPDEST POP PUSH1 0x60 DUP3 ADD MLOAD DUP2 PUSH1 0x3 ADD SSTORE PUSH1 0x80 DUP3 ADD MLOAD DUP2 PUSH1 0x4 ADD PUSH0 PUSH2 0x100 EXP DUP2 SLOAD DUP2 PUSH1 0xFF MUL NOT AND SWAP1 DUP4 ISZERO ISZERO MUL OR SWAP1 SSTORE POP PUSH1 0xA0 DUP3 ADD MLOAD DUP2 PUSH1 0x4 ADD PUSH1 0x1 PUSH2 0x100 EXP DUP2 SLOAD DUP2 PUSH1 0xFF MUL NOT AND SWAP1 DUP4 PUSH1 0x4 DUP2 GT ISZERO PUSH2 0x53EA JUMPI PUSH2 0x53E9 PUSH2 0x75C1 JUMP JUMPDEST JUMPDEST MUL OR SWAP1 SSTORE POP PUSH1 0xC0 DUP3 ADD MLOAD DUP2 PUSH1 0x4 ADD PUSH1 0x2 PUSH2 0x100 EXP DUP2 SLOAD DUP2 PUSH20 0xFFFFFFFFFFFFFFFFFFFFFFFFFFFFFFFFFFFFFFFF MUL NOT AND SWAP1 DUP4 PUSH20 0xFFFFFFFFFFFFFFFFFFFFFFFFFFFFFFFFFFFFFFFF AND MUL OR SWAP1 SSTORE POP PUSH1 0xE0 DUP3 ADD MLOAD DUP2 PUSH1 0x5 ADD SSTORE SWAP1 POP POP PUSH1 0x40 MLOAD DUP1 PUSH2 0x140 ADD PUSH1 0x40 MSTORE DUP1 CALLER PUSH20 0xFFFFFFFFFFFFFFFFFFFFFFFFFFFFFFFFFFFFFFFF AND DUP2 MSTORE PUSH1 0x20 ADD DUP9 DUP2 MSTORE PUSH1 0x20 ADD PUSH0 DUP2 MSTORE PUSH1 0x20 ADD PUSH0 DUP2 MSTORE PUSH1 0x20 ADD PUSH0 PUSH1 0x4 DUP2 GT ISZERO PUSH2 0x5490 JUMPI PUSH2 0x548F PUSH2 0x75C1 JUMP JUMPDEST JUMPDEST DUP2 MSTORE PUSH1 0x20 ADD DUP8 PUSH1 0x2 DUP2 GT ISZERO PUSH2 0x54A8 JUMPI PUSH2 0x54A7 PUSH2 0x75C1 JUMP JUMPDEST JUMPDEST DUP2 MSTORE PUSH1 0x20 ADD PUSH0 DUP2 MSTORE PUSH1 0x20 ADD PUSH0 DUP2 MSTORE PUSH1 0x20 ADD PUSH0 DUP2 MSTORE PUSH1 0x20 ADD PUSH0 PUSH8 0xFFFFFFFFFFFFFFFF DUP2 GT ISZERO PUSH2 0x54D9 JUMPI PUSH2 0x54D8 PUSH2 0x77B4 JUMP JUMPDEST JUMPDEST PUSH1 0x40 MLOAD SWAP1 DUP1 DUP3 MSTORE DUP1 PUSH1 0x20 MUL PUSH1 0x20 ADD DUP3 ADD PUSH1 0x40 MSTORE DUP1 ISZERO PUSH2 0x5507 JUMPI DUP2 PUSH1 0x20 ADD PUSH1 0x20 DUP3 MUL DUP1 CALLDATASIZE DUP4 CALLDATACOPY DUP1 DUP3 ADD SWAP2 POP POP SWAP1 POP JUMPDEST POP DUP2 MSTORE POP PUSH1 0x15 PUSH0 DUP4 DUP2 MSTORE PUSH1 0x20 ADD SWAP1 DUP2 MSTORE PUSH1 0x20 ADD PUSH0 KECCAK256 PUSH0 DUP3 ADD MLOAD DUP2 PUSH0 ADD PUSH0 PUSH2 0x100 EXP DUP2 SLOAD DUP2 PUSH20 0xFFFFFFFFFFFFFFFFFFFFFFFFFFFFFFFFFFFFFFFF MUL NOT AND SWAP1 DUP4 PUSH20 0xFFFFFFFFFFFFFFFFFFFFFFFFFFFFFFFFFFFFFFFF AND MUL OR SWAP1 SSTORE POP PUSH1 0x20 DUP3 ADD MLOAD DUP2 PUSH1 0x1 ADD SWAP1 DUP2 PUSH2 0x5575 SWAP2 SWAP1 PUSH2 0x9EB0 JUMP JUMPDEST POP PUSH1 0x40 DUP3 ADD MLOAD DUP2 PUSH1 0x2 ADD SSTORE PUSH1 0x60 DUP3 ADD MLOAD DUP2 PUSH1 0x3 ADD SSTORE PUSH1 0x80 DUP3 ADD MLOAD DUP2 PUSH1 0x4 ADD PUSH0 PUSH2 0x100 EXP DUP2 SLOAD DUP2 PUSH1 0xFF MUL NOT AND SWAP1 DUP4 PUSH1 0x4 DUP2 GT ISZERO PUSH2 0x55B4 JUMPI PUSH2 0x55B3 PUSH2 0x75C1 JUMP JUMPDEST JUMPDEST MUL OR SWAP1 SSTORE POP PUSH1 0xA0 DUP3 ADD MLOAD DUP2 PUSH1 0x4 ADD PUSH1 0x1 PUSH2 0x100 EXP DUP2 SLOAD DUP2 PUSH1 0xFF MUL NOT AND SWAP1 DUP4 PUSH1 0x2 DUP2 GT ISZERO PUSH2 0x55E4 JUMPI PUSH2 0x55E3 PUSH2 0x75C1 JUMP JUMPDEST JUMPDEST MUL OR SWAP1 SSTORE POP PUSH1 0xC0 DUP3 ADD MLOAD DUP2 PUSH1 0x5 ADD SSTORE PUSH1 0xE0 DUP3 ADD MLOAD DUP2 PUSH1 0x6 ADD SSTORE PUSH2 0x100 DUP3 ADD MLOAD DUP2 PUSH1 0x7 ADD SSTORE PUSH2 0x120 DUP3 ADD MLOAD DUP2 PUSH1 0x8 ADD SWAP1 DUP1 MLOAD SWAP1 PUSH1 0x20 ADD SWAP1 PUSH2 0x5625 SWAP3 SWAP2 SWAP1 PUSH2 0x73D8 JUMP JUMPDEST POP SWAP1 POP POP PUSH1 0x14 PUSH0 DUP3 DUP2 MSTORE PUSH1 0x20 ADD SWAP1 DUP2 MSTORE PUSH1 0x20 ADD PUSH0 KECCAK256 PUSH1 0x4 ADD PUSH0 SWAP1 SLOAD SWAP1 PUSH2 0x100 EXP SWAP1 DIV PUSH1 0xFF AND ISZERO ISZERO CALLER PUSH20 0xFFFFFFFFFFFFFFFFFFFFFFFFFFFFFFFFFFFFFFFF AND PUSH32 0x6E5FF65942168F407267DF52322B098C97C30A36B8D1CA3CA159A1542A309222 DUP4 DUP9 DUP12 DUP10 DUP10 PUSH1 0x40 MLOAD PUSH2 0x569A SWAP6 SWAP5 SWAP4 SWAP3 SWAP2 SWAP1 PUSH2 0x9F7F JUMP JUMPDEST PUSH1 0x40 MLOAD DUP1 SWAP2 SUB SWAP1 LOG3 DUP1 SWAP2 POP POP SWAP9 SWAP8 POP POP POP POP POP POP POP POP JUMP JUMPDEST PUSH1 0x3 PUSH1 0x4 DUP2 GT ISZERO PUSH2 0x56C6 JUMPI PUSH2 0x56C5 PUSH2 0x75C1 JUMP JUMPDEST JUMPDEST DUP2 PUSH1 0x80 ADD MLOAD PUSH1 0x4 DUP2 GT ISZERO PUSH2 0x56DD JUMPI PUSH2 0x56DC PUSH2 0x75C1 JUMP JUMPDEST JUMPDEST EQ PUSH2 0x571D JUMPI PUSH1 0x40 MLOAD PUSH32 0x8C379A000000000000000000000000000000000000000000000000000000000 DUP2 MSTORE PUSH1 0x4 ADD PUSH2 0x5714 SWAP1 PUSH2 0xA021 JUMP JUMPDEST PUSH1 0x40 MLOAD DUP1 SWAP2 SUB SWAP1 REVERT JUMPDEST DUP1 PUSH1 0x60 ADD MLOAD TIMESTAMP GT ISZERO PUSH2 0x5764 JUMPI PUSH1 0x40 MLOAD PUSH32 0x8C379A000000000000000000000000000000000000000000000000000000000 DUP2 MSTORE PUSH1 0x4 ADD PUSH2 0x575B SWAP1 PUSH2 0xA089 JUMP JUMPDEST PUSH1 0x40 MLOAD DUP1 SWAP2 SUB SWAP1 REVERT JUMPDEST POP JUMP JUMPDEST PUSH0 DUP1 PUSH1 0x15 PUSH0 DUP5 DUP2 MSTORE PUSH1 0x20 ADD SWAP1 DUP2 MSTORE PUSH1 0x20 ADD PUSH0 KECCAK256 SWAP1 POP DUP1 PUSH1 0x6 ADD SLOAD DUP2 PUSH1 0x5 ADD SLOAD GT SWAP2 POP POP SWAP2 SWAP1 POP JUMP JUMPDEST PUSH0 PUSH1 0x14 PUSH0 DUP4 DUP2 MSTORE PUSH1 0x20 ADD SWAP1 DUP2 MSTORE PUSH1 0x20 ADD PUSH0 KECCAK256 SWAP1 POP PUSH0 PUSH1 0x4 DUP2 GT ISZERO PUSH2 0x57B6 JUMPI PUSH2 0x57B5 PUSH2 0x75C1 JUMP JUMPDEST JUMPDEST DUP2 PUSH1 0x4 ADD PUSH1 0x1 SWAP1 SLOAD SWAP1 PUSH2 0x100 EXP SWAP1 DIV PUSH1 0xFF AND PUSH1 0x4 DUP2 GT ISZERO PUSH2 0x57DA JUMPI PUSH2 0x57D9 PUSH2 0x75C1 JUMP JUMPDEST JUMPDEST SUB PUSH2 0x585A JUMPI DUP1 PUSH1 0x4 ADD PUSH1 0x2 SWAP1 SLOAD SWAP1 PUSH2 0x100 EXP SWAP1 DIV PUSH20 0xFFFFFFFFFFFFFFFFFFFFFFFFFFFFFFFFFFFFFFFF AND PUSH20 0xFFFFFFFFFFFFFFFFFFFFFFFFFFFFFFFFFFFFFFFF AND PUSH32 0x8594B6EC50DC6D717D6E9CACE88338A5EEDB2517861DCFAB8656725B4806AC5C DUP3 PUSH1 0x5 ADD SLOAD PUSH1 0x40 MLOAD PUSH2 0x584D SWAP2 SWAP1 PUSH2 0x7750 JUMP JUMPDEST PUSH1 0x40 MLOAD DUP1 SWAP2 SUB SWAP1 LOG2 PUSH2 0x5A9C JUMP JUMPDEST PUSH1 0x1 PUSH1 0x4 DUP2 GT ISZERO PUSH2 0x586E JUMPI PUSH2 0x586D PUSH2 0x75C1 JUMP JUMPDEST JUMPDEST DUP2 PUSH1 0x4 ADD PUSH1 0x1 SWAP1 SLOAD SWAP1 PUSH2 0x100 EXP SWAP1 DIV PUSH1 0xFF AND PUSH1 0x4 DUP2 GT ISZERO PUSH2 0x5892 JUMPI PUSH2 0x5891 PUSH2 0x75C1 JUMP JUMPDEST JUMPDEST SUB PUSH2 0x5912 JUMPI DUP1 PUSH1 0x4 ADD PUSH1 0x2 SWAP1 SLOAD SWAP1 PUSH2 0x100 EXP SWAP1 DIV PUSH20 0xFFFFFFFFFFFFFFFFFFFFFFFFFFFFFFFFFFFFFFFF AND PUSH20 0xFFFFFFFFFFFFFFFFFFFFFFFFFFFFFFFFFFFFFFFF AND PUSH32 0x52A0B53DECB6EAFA5DE58E85E03CB356D11E53BFC08C4087ECF3CAD05A523488 DUP3 PUSH1 0x5 ADD SLOAD PUSH1 0x40 MLOAD PUSH2 0x5905 SWAP2 SWAP1 PUSH2 0x7750 JUMP JUMPDEST PUSH1 0x40 MLOAD DUP1 SWAP2 SUB SWAP1 LOG2 PUSH2 0x5A9B JUMP JUMPDEST PUSH1 0x2 PUSH1 0x4 DUP2 GT ISZERO PUSH2 0x5926 JUMPI PUSH2 0x5925 PUSH2 0x75C1 JUMP JUMPDEST JUMPDEST DUP2 PUSH1 0x4 ADD PUSH1 0x1 SWAP1 SLOAD SWAP1 PUSH2 0x100 EXP SWAP1 DIV PUSH1 0xFF AND PUSH1 0x4 DUP2 GT ISZERO PUSH2 0x594A JUMPI PUSH2 0x5949 PUSH2 0x75C1 JUMP JUMPDEST JUMPDEST SUB PUSH2 0x59E1 JUMPI PUSH1 0x1 PUSH1 0x16 PUSH0 DUP4 PUSH1 0x4 ADD PUSH1 0x2 SWAP1 SLOAD SWAP1 PUSH2 0x100 EXP SWAP1 DIV PUSH20 0xFFFFFFFFFFFFFFFFFFFFFFFFFFFFFFFFFFFFFFFF AND PUSH20 0xFFFFFFFFFFFFFFFFFFFFFFFFFFFFFFFFFFFFFFFF AND PUSH20 0xFFFFFFFFFFFFFFFFFFFFFFFFFFFFFFFFFFFFFFFF AND DUP2 MSTORE PUSH1 0x20 ADD SWAP1 DUP2 MSTORE PUSH1 0x20 ADD PUSH0 KECCAK256 PUSH1 0x1 ADD PUSH1 0x14 PUSH2 0x100 EXP DUP2 SLOAD DUP2 PUSH1 0xFF MUL NOT AND SWAP1 DUP4 PUSH1 0x2 DUP2 GT ISZERO PUSH2 0x59D7 JUMPI PUSH2 0x59D6 PUSH2 0x75C1 JUMP JUMPDEST JUMPDEST MUL OR SWAP1 SSTORE POP PUSH2 0x5A9A JUMP JUMPDEST PUSH1 0x4 DUP1 DUP2 GT ISZERO PUSH2 0x59F4 JUMPI PUSH2 0x59F3 PUSH2 0x75C1 JUMP JUMPDEST JUMPDEST DUP2 PUSH1 0x4 ADD PUSH1 0x1 SWAP1 SLOAD SWAP1 PUSH2 0x100 EXP SWAP1 DIV PUSH1 0xFF AND PUSH1 0x4 DUP2 GT ISZERO PUSH2 0x5A18 JUMPI PUSH2 0x5A17 PUSH2 0x75C1 JUMP JUMPDEST JUMPDEST SUB PUSH2 0x5A2D JUMPI DUP1 PUSH1 0x5 ADD SLOAD PUSH1 0xE DUP2 SWAP1 SSTORE POP PUSH2 0x5A99 JUMP JUMPDEST PUSH1 0x3 PUSH1 0x4 DUP2 GT ISZERO PUSH2 0x5A41 JUMPI PUSH2 0x5A40 PUSH2 0x75C1 JUMP JUMPDEST JUMPDEST DUP2 PUSH1 0x4 ADD PUSH1 0x1 SWAP1 SLOAD SWAP1 PUSH2 0x100 EXP SWAP1 DIV PUSH1 0xFF AND PUSH1 0x4 DUP2 GT ISZERO PUSH2 0x5A65 JUMPI PUSH2 0x5A64 PUSH2 0x75C1 JUMP JUMPDEST JUMPDEST SUB PUSH2 0x5A98 JUMPI PUSH2 0x5A97 DUP2 PUSH1 0x4 ADD PUSH1 0x2 SWAP1 SLOAD SWAP1 PUSH2 0x100 EXP SWAP1 DIV PUSH20 0xFFFFFFFFFFFFFFFFFFFFFFFFFFFFFFFFFFFFFFFF AND PUSH2 0x4881 JUMP JUMPDEST JUMPDEST JUMPDEST JUMPDEST JUMPDEST JUMPDEST POP POP JUMP JUMPDEST PUSH0 DUP2 PUSH1 0x7 DUP2 GT ISZERO PUSH2 0x5AB4 JUMPI PUSH2 0x5AB3 PUSH2 0x75C1 JUMP JUMPDEST JUMPDEST PUSH1 0xFF AND PUSH1 0x1 SWAP1 SHL PUSH0 SHL SWAP1 POP SWAP2 SWAP1 POP JUMP JUMPDEST PUSH0 DUP1 PUSH2 0x5ACF DUP5 PUSH2 0x236A JUMP JUMPDEST SWAP1 POP PUSH0 DUP1 SHL DUP4 PUSH2 0x5ADE DUP4 PUSH2 0x5AA0 JUMP JUMPDEST AND SUB PUSH2 0x5B25 JUMPI DUP4 DUP2 DUP5 PUSH1 0x40 MLOAD PUSH32 0x31B75E4D00000000000000000000000000000000000000000000000000000000 DUP2 MSTORE PUSH1 0x4 ADD PUSH2 0x5B1C SWAP4 SWAP3 SWAP2 SWAP1 PUSH2 0xA0A7 JUMP JUMPDEST PUSH1 0x40 MLOAD DUP1 SWAP2 SUB SWAP1 REVERT JUMPDEST DUP1 SWAP2 POP POP SWAP3 SWAP2 POP POP JUMP JUMPDEST PUSH0 SWAP6 SWAP5 POP POP POP POP POP JUMP JUMPDEST PUSH0 DUP3 PUSH0 ADD PUSH1 0x10 SWAP1 SLOAD SWAP1 PUSH2 0x100 EXP SWAP1 DIV PUSH16 0xFFFFFFFFFFFFFFFFFFFFFFFFFFFFFFFF AND SWAP1 POP DUP3 PUSH0 ADD PUSH0 SWAP1 SLOAD SWAP1 PUSH2 0x100 EXP SWAP1 DIV PUSH16 0xFFFFFFFFFFFFFFFFFFFFFFFFFFFFFFFF AND PUSH16 0xFFFFFFFFFFFFFFFFFFFFFFFFFFFFFFFF AND PUSH1 0x1 DUP3 ADD PUSH16 0xFFFFFFFFFFFFFFFFFFFFFFFFFFFFFFFF AND SUB PUSH2 0x5BB3 JUMPI PUSH2 0x5BB2 PUSH1 0x41 PUSH2 0x6863 JUMP JUMPDEST JUMPDEST DUP2 DUP4 PUSH1 0x1 ADD PUSH0 DUP4 PUSH16 0xFFFFFFFFFFFFFFFFFFFFFFFFFFFFFFFF AND PUSH16 0xFFFFFFFFFFFFFFFFFFFFFFFFFFFFFFFF AND DUP2 MSTORE PUSH1 0x20 ADD SWAP1 DUP2 MSTORE PUSH1 0x20 ADD PUSH0 KECCAK256 DUP2 SWAP1 SSTORE POP PUSH1 0x1 DUP2 ADD DUP4 PUSH0 ADD PUSH1 0x10 PUSH2 0x100 EXP DUP2 SLOAD DUP2 PUSH16 0xFFFFFFFFFFFFFFFFFFFFFFFFFFFFFFFF MUL NOT AND SWAP1 DUP4 PUSH16 0xFFFFFFFFFFFFFFFFFFFFFFFFFFFFFFFF AND MUL OR SWAP1 SSTORE POP POP POP POP JUMP JUMPDEST PUSH0 JUMPDEST DUP5 MLOAD DUP2 LT ISZERO PUSH2 0x5D0E JUMPI PUSH0 DUP1 DUP7 DUP4 DUP2 MLOAD DUP2 LT PUSH2 0x5C51 JUMPI PUSH2 0x5C50 PUSH2 0x8DA0 JUMP JUMPDEST JUMPDEST PUSH1 0x20 MUL PUSH1 0x20 ADD ADD MLOAD PUSH20 0xFFFFFFFFFFFFFFFFFFFFFFFFFFFFFFFFFFFFFFFF AND DUP7 DUP5 DUP2 MLOAD DUP2 LT PUSH2 0x5C82 JUMPI PUSH2 0x5C81 PUSH2 0x8DA0 JUMP JUMPDEST JUMPDEST PUSH1 0x20 MUL PUSH1 0x20 ADD ADD MLOAD DUP7 DUP6 DUP2 MLOAD DUP2 LT PUSH2 0x5C9D JUMPI PUSH2 0x5C9C PUSH2 0x8DA0 JUMP JUMPDEST JUMPDEST PUSH1 0x20 MUL PUSH1 0x20 ADD ADD MLOAD PUSH1 0x40 MLOAD PUSH2 0x5CB2 SWAP2 SWAP1 PUSH2 0xA10C JUMP JUMPDEST PUSH0 PUSH1 0x40 MLOAD DUP1 DUP4 SUB DUP2 DUP6 DUP8 GAS CALL SWAP3 POP POP POP RETURNDATASIZE DUP1 PUSH0 DUP2 EQ PUSH2 0x5CEC JUMPI PUSH1 0x40 MLOAD SWAP2 POP PUSH1 0x1F NOT PUSH1 0x3F RETURNDATASIZE ADD AND DUP3 ADD PUSH1 0x40 MSTORE RETURNDATASIZE DUP3 MSTORE RETURNDATASIZE PUSH0 PUSH1 0x20 DUP5 ADD RETURNDATACOPY PUSH2 0x5CF1 JUMP JUMPDEST PUSH1 0x60 SWAP2 POP JUMPDEST POP SWAP2 POP SWAP2 POP PUSH2 0x5D00 DUP3 DUP3 PUSH2 0x6829 JUMP JUMPDEST POP POP POP DUP1 PUSH1 0x1 ADD SWAP1 POP PUSH2 0x5C33 JUMP JUMPDEST POP POP POP POP POP POP JUMP JUMPDEST PUSH0 DUP2 PUSH0 ADD PUSH0 SWAP1 SLOAD SWAP1 PUSH2 0x100 EXP SWAP1 DIV PUSH16 0xFFFFFFFFFFFFFFFFFFFFFFFFFFFFFFFF AND PUSH16 0xFFFFFFFFFFFFFFFFFFFFFFFFFFFFFFFF AND DUP3 PUSH0 ADD PUSH1 0x10 SWAP1 SLOAD SWAP1 PUSH2 0x100 EXP SWAP1 DIV PUSH16 0xFFFFFFFFFFFFFFFFFFFFFFFFFFFFFFFF AND PUSH16 0xFFFFFFFFFFFFFFFFFFFFFFFFFFFFFFFF AND EQ SWAP1 POP SWAP2 SWAP1 POP JUMP JUMPDEST PUSH0 DUP2 PUSH0 ADD PUSH0 PUSH2 0x100 EXP DUP2 SLOAD DUP2 PUSH16 0xFFFFFFFFFFFFFFFFFFFFFFFFFFFFFFFF MUL NOT AND SWAP1 DUP4 PUSH16 0xFFFFFFFFFFFFFFFFFFFFFFFFFFFFFFFF AND MUL OR SWAP1 SSTORE POP PUSH0 DUP2 PUSH0 ADD PUSH1 0x10 PUSH2 0x100 EXP DUP2 SLOAD DUP2 PUSH16 0xFFFFFFFFFFFFFFFFFFFFFFFFFFFFFFFF MUL NOT AND SWAP1 DUP4 PUSH16 0xFFFFFFFFFFFFFFFFFFFFFFFFFFFFFFFF AND MUL OR SWAP1 SSTORE POP POP JUMP JUMPDEST PUSH0 DUP1 PUSH1 0x15 PUSH0 DUP5 DUP2 MSTORE PUSH1 0x20 ADD SWAP1 DUP2 MSTORE PUSH1 0x20 ADD PUSH0 KECCAK256 SWAP1 POP PUSH0 PUSH1 0x1 PUSH1 0x2 DUP3 PUSH2 0x5E1D SWAP2 SWAP1 PUSH2 0x9B38 JUMP JUMPDEST PUSH2 0x5E27 SWAP2 SWAP1 PUSH2 0x91BE JUMP JUMPDEST DUP3 PUSH1 0x6 ADD SLOAD DUP4 PUSH1 0x5 ADD SLOAD PUSH2 0x5E3B SWAP2 SWAP1 PUSH2 0x91BE JUMP JUMPDEST LT ISZERO SWAP3 POP POP POP SWAP2 SWAP1 POP JUMP JUMPDEST PUSH0 CALLER SWAP1 POP SWAP1 JUMP JUMPDEST PUSH0 DUP1 PUSH2 0x5E5B DUP7 DUP7 DUP7 DUP7 PUSH2 0x4124 JUMP JUMPDEST SWAP1 POP PUSH2 0x5EBF DUP2 PUSH2 0x5E6B PUSH1 0x7 PUSH2 0x5AA0 JUMP JUMPDEST PUSH2 0x5E75 PUSH1 0x6 PUSH2 0x5AA0 JUMP JUMPDEST PUSH2 0x5E7F PUSH1 0x2 PUSH2 0x5AA0 JUMP JUMPDEST PUSH1 0x1 DUP1 PUSH1 0x7 DUP1 DUP2 GT ISZERO PUSH2 0x5E95 JUMPI PUSH2 0x5E94 PUSH2 0x75C1 JUMP JUMPDEST JUMPDEST PUSH2 0x5E9F SWAP2 SWAP1 PUSH2 0xA122 JUMP JUMPDEST PUSH1 0x2 PUSH2 0x5EAB SWAP2 SWAP1 PUSH2 0x9100 JUMP JUMPDEST PUSH2 0x5EB5 SWAP2 SWAP1 PUSH2 0xA156 JUMP JUMPDEST PUSH0 SHL XOR XOR XOR PUSH2 0x5AC4 JUMP JUMPDEST POP PUSH1 0x1 PUSH1 0x4 PUSH0 DUP4 DUP2 MSTORE PUSH1 0x20 ADD SWAP1 DUP2 MSTORE PUSH1 0x20 ADD PUSH0 KECCAK256 PUSH0 ADD PUSH1 0x1F PUSH2 0x100 EXP DUP2 SLOAD DUP2 PUSH1 0xFF MUL NOT AND SWAP1 DUP4 ISZERO ISZERO MUL OR SWAP1 SSTORE POP PUSH32 0x789CF55BE980739DAD1D0699B93B58E806B51C9D96619BFA8FE0A28ABAA7B30C DUP2 PUSH1 0x40 MLOAD PUSH2 0x5F1B SWAP2 SWAP1 PUSH2 0x7750 JUMP JUMPDEST PUSH1 0x40 MLOAD DUP1 SWAP2 SUB SWAP1 LOG1 DUP1 SWAP2 POP POP SWAP5 SWAP4 POP POP POP POP JUMP JUMPDEST PUSH0 PUSH2 0x5F44 DUP6 DUP6 DUP6 DUP6 PUSH2 0x5F3F PUSH2 0x684D JUMP JUMPDEST PUSH2 0x6066 JUMP JUMPDEST SWAP1 POP SWAP5 SWAP4 POP POP POP POP JUMP JUMPDEST PUSH0 PUSH1 0x2 PUSH0 DUP4 PUSH20 0xFFFFFFFFFFFFFFFFFFFFFFFFFFFFFFFFFFFFFFFF AND PUSH20 0xFFFFFFFFFFFFFFFFFFFFFFFFFFFFFFFFFFFFFFFF AND DUP2 MSTORE PUSH1 0x20 ADD SWAP1 DUP2 MSTORE PUSH1 0x20 ADD PUSH0 KECCAK256 PUSH0 DUP2 SLOAD DUP1 SWAP3 SWAP2 SWAP1 PUSH1 0x1 ADD SWAP2 SWAP1 POP SSTORE SWAP1 POP SWAP2 SWAP1 POP JUMP JUMPDEST PUSH0 PUSH2 0x5FB3 PUSH2 0x5FAD PUSH2 0x6874 JUMP JUMPDEST DUP4 PUSH2 0x692A JUMP JUMPDEST SWAP1 POP SWAP2 SWAP1 POP JUMP JUMPDEST PUSH0 DUP1 DUP5 PUSH20 0xFFFFFFFFFFFFFFFFFFFFFFFFFFFFFFFFFFFFFFFF AND EXTCODESIZE SUB PUSH2 0x6051 JUMPI PUSH0 DUP1 PUSH2 0x5FE5 DUP6 DUP6 PUSH2 0x696A JUMP JUMPDEST POP SWAP2 POP SWAP2 POP PUSH0 PUSH1 0x3 DUP2 GT ISZERO PUSH2 0x5FFD JUMPI PUSH2 0x5FFC PUSH2 0x75C1 JUMP JUMPDEST JUMPDEST DUP2 PUSH1 0x3 DUP2 GT ISZERO PUSH2 0x6010 JUMPI PUSH2 0x600F PUSH2 0x75C1 JUMP JUMPDEST JUMPDEST EQ DUP1 ISZERO PUSH2 0x6048 JUMPI POP DUP6 PUSH20 0xFFFFFFFFFFFFFFFFFFFFFFFFFFFFFFFFFFFFFFFF AND DUP3 PUSH20 0xFFFFFFFFFFFFFFFFFFFFFFFFFFFFFFFFFFFFFFFF AND EQ JUMPDEST SWAP3 POP POP POP PUSH2 0x605F JUMP JUMPDEST PUSH2 0x605C DUP5 DUP5 DUP5 PUSH2 0x69BF JUMP JUMPDEST SWAP1 POP JUMPDEST SWAP4 SWAP3 POP POP POP JUMP JUMPDEST PUSH0 PUSH2 0x607A DUP7 PUSH2 0x6075 PUSH1 0x1 PUSH2 0x5AA0 JUMP JUMPDEST PUSH2 0x5AC4 JUMP JUMPDEST POP PUSH0 PUSH2 0x608F DUP7 PUSH2 0x6089 DUP10 PUSH2 0x2017 JUMP JUMPDEST DUP6 PUSH2 0x668F JUMP JUMPDEST SWAP1 POP PUSH0 PUSH2 0x609F DUP9 DUP9 DUP9 DUP6 DUP9 PUSH2 0x6170 JUMP JUMPDEST SWAP1 POP PUSH0 DUP5 MLOAD SUB PUSH2 0x6102 JUMPI DUP7 PUSH20 0xFFFFFFFFFFFFFFFFFFFFFFFFFFFFFFFFFFFFFFFF AND PUSH32 0xB8E138887D0AA13BAB447E82DE9D5C1777041ECD21CA36BA824FF1E6C07DDDA4 DUP10 DUP9 DUP5 DUP10 PUSH1 0x40 MLOAD PUSH2 0x60F5 SWAP5 SWAP4 SWAP3 SWAP2 SWAP1 PUSH2 0xA189 JUMP JUMPDEST PUSH1 0x40 MLOAD DUP1 SWAP2 SUB SWAP1 LOG2 PUSH2 0x6159 JUMP JUMPDEST DUP7 PUSH20 0xFFFFFFFFFFFFFFFFFFFFFFFFFFFFFFFFFFFFFFFF AND PUSH32 0xE2BABFBAC5889A709B63BB7F598B324E08BC5A4FB9EC647FB3CBC9EC07EB8712 DUP10 DUP9 DUP5 DUP10 DUP10 PUSH1 0x40 MLOAD PUSH2 0x6150 SWAP6 SWAP5 SWAP4 SWAP3 SWAP2 SWAP1 PUSH2 0xA21B JUMP JUMPDEST PUSH1 0x40 MLOAD DUP1 SWAP2 SUB SWAP1 LOG2 JUMPDEST PUSH2 0x6162 DUP9 PUSH2 0x6ADE JUMP JUMPDEST DUP1 SWAP3 POP POP POP SWAP6 SWAP5 POP POP POP POP POP JUMP JUMPDEST PUSH0 DUP1 PUSH1 0x15 PUSH0 DUP9 DUP2 MSTORE PUSH1 0x20 ADD SWAP1 DUP2 MSTORE PUSH1 0x20 ADD PUSH0 KECCAK256 SWAP1 POP PUSH2 0x618F DUP8 DUP8 PUSH2 0x2513 JUMP JUMPDEST ISZERO PUSH2 0x61CF JUMPI PUSH1 0x40 MLOAD PUSH32 0x8C379A000000000000000000000000000000000000000000000000000000000 DUP2 MSTORE PUSH1 0x4 ADD PUSH2 0x61C6 SWAP1 PUSH2 0x940C JUMP JUMPDEST PUSH1 0x40 MLOAD DUP1 SWAP2 SUB SWAP1 REVERT JUMPDEST PUSH1 0x1 DUP6 PUSH1 0xFF AND SUB PUSH2 0x6205 JUMPI PUSH1 0x3 DUP5 PUSH2 0x61E7 SWAP2 SWAP1 PUSH2 0x9B38 JUMP JUMPDEST DUP2 PUSH1 0x5 ADD PUSH0 DUP3 DUP3 SLOAD PUSH2 0x61F9 SWAP2 SWAP1 PUSH2 0x91BE JUMP JUMPDEST SWAP3 POP POP DUP2 SWAP1 SSTORE POP PUSH2 0x6237 JUMP JUMPDEST PUSH0 DUP6 PUSH1 0xFF AND SUB PUSH2 0x6236 JUMPI PUSH1 0x3 DUP5 PUSH2 0x621C SWAP2 SWAP1 PUSH2 0x9B38 JUMP JUMPDEST DUP2 PUSH1 0x6 ADD PUSH0 DUP3 DUP3 SLOAD PUSH2 0x622E SWAP2 SWAP1 PUSH2 0x91BE JUMP JUMPDEST SWAP3 POP POP DUP2 SWAP1 SSTORE POP JUMPDEST JUMPDEST DUP4 DUP2 PUSH1 0x7 ADD PUSH0 DUP3 DUP3 SLOAD PUSH2 0x624A SWAP2 SWAP1 PUSH2 0x91BE JUMP JUMPDEST SWAP3 POP POP DUP2 SWAP1 SSTORE POP DUP4 PUSH1 0x12 PUSH0 DUP10 DUP2 MSTORE PUSH1 0x20 ADD SWAP1 DUP2 MSTORE PUSH1 0x20 ADD PUSH0 KECCAK256 PUSH0 DUP9 PUSH20 0xFFFFFFFFFFFFFFFFFFFFFFFFFFFFFFFFFFFFFFFF AND PUSH20 0xFFFFFFFFFFFFFFFFFFFFFFFFFFFFFFFFFFFFFFFF AND DUP2 MSTORE PUSH1 0x20 ADD SWAP1 DUP2 MSTORE PUSH1 0x20 ADD PUSH0 KECCAK256 DUP2 SWAP1 SSTORE POP DUP4 SWAP2 POP POP SWAP6 SWAP5 POP POP POP POP POP JUMP JUMPDEST PUSH0 DUP1 DUP3 MLOAD SWAP1 POP PUSH1 0x34 DUP2 LT ISZERO PUSH2 0x62C8 JUMPI PUSH1 0x1 SWAP2 POP POP PUSH2 0x638F JUMP JUMPDEST PUSH0 PUSH2 0x62D6 DUP5 PUSH1 0x34 DUP5 SUB PUSH2 0x6AE1 JUMP JUMPDEST SWAP1 POP PUSH32 0x2370726F706F7365723D00000000000000000000000000000000000000000000 PUSH22 0xFFFFFFFFFFFFFFFFFFFFFFFFFFFFFFFFFFFFFFFFFFFF NOT AND DUP2 PUSH22 0xFFFFFFFFFFFFFFFFFFFFFFFFFFFFFFFFFFFFFFFFFFFF NOT AND EQ PUSH2 0x633C JUMPI PUSH1 0x1 SWAP3 POP POP POP PUSH2 0x638F JUMP JUMPDEST PUSH0 DUP1 PUSH2 0x634C DUP7 PUSH1 0x2A DUP7 SUB DUP7 PUSH2 0x6AF1 JUMP JUMPDEST SWAP2 POP SWAP2 POP DUP2 ISZERO DUP1 PUSH2 0x6388 JUMPI POP DUP7 PUSH20 0xFFFFFFFFFFFFFFFFFFFFFFFFFFFFFFFFFFFFFFFF AND DUP2 PUSH20 0xFFFFFFFFFFFFFFFFFFFFFFFFFFFFFFFFFFFFFFFF AND EQ JUMPDEST SWAP5 POP POP POP POP POP JUMPDEST SWAP3 SWAP2 POP POP JUMP JUMPDEST PUSH0 PUSH2 0x63A9 DUP7 DUP7 DUP7 DUP7 DUP1 MLOAD SWAP1 PUSH1 0x20 ADD KECCAK256 PUSH2 0x4124 JUMP JUMPDEST SWAP1 POP DUP5 MLOAD DUP7 MLOAD EQ ISZERO DUP1 PUSH2 0x63BE JUMPI POP DUP4 MLOAD DUP7 MLOAD EQ ISZERO JUMPDEST DUP1 PUSH2 0x63C9 JUMPI POP PUSH0 DUP7 MLOAD EQ JUMPDEST ISZERO PUSH2 0x6412 JUMPI DUP6 MLOAD DUP5 MLOAD DUP7 MLOAD PUSH1 0x40 MLOAD PUSH32 0x447B05D000000000000000000000000000000000000000000000000000000000 DUP2 MSTORE PUSH1 0x4 ADD PUSH2 0x6409 SWAP4 SWAP3 SWAP2 SWAP1 PUSH2 0xA27A JUMP JUMPDEST PUSH1 0x40 MLOAD DUP1 SWAP2 SUB SWAP1 REVERT JUMPDEST PUSH0 PUSH1 0x4 PUSH0 DUP4 DUP2 MSTORE PUSH1 0x20 ADD SWAP1 DUP2 MSTORE PUSH1 0x20 ADD PUSH0 KECCAK256 PUSH0 ADD PUSH1 0x14 SWAP1 SLOAD SWAP1 PUSH2 0x100 EXP SWAP1 DIV PUSH6 0xFFFFFFFFFFFF AND PUSH6 0xFFFFFFFFFFFF AND EQ PUSH2 0x6491 JUMPI DUP1 PUSH2 0x6450 DUP3 PUSH2 0x236A JUMP JUMPDEST PUSH0 DUP1 SHL PUSH1 0x40 MLOAD PUSH32 0x31B75E4D00000000000000000000000000000000000000000000000000000000 DUP2 MSTORE PUSH1 0x4 ADD PUSH2 0x6488 SWAP4 SWAP3 SWAP2 SWAP1 PUSH2 0xA0A7 JUMP JUMPDEST PUSH1 0x40 MLOAD DUP1 SWAP2 SUB SWAP1 REVERT JUMPDEST PUSH0 PUSH2 0x649A PUSH2 0x2071 JUMP JUMPDEST PUSH2 0x64A2 PUSH2 0x3DEB JUMP JUMPDEST PUSH6 0xFFFFFFFFFFFF AND PUSH2 0x64B4 SWAP2 SWAP1 PUSH2 0x91BE JUMP JUMPDEST SWAP1 POP PUSH0 PUSH2 0x64BF PUSH2 0x11C9 JUMP JUMPDEST SWAP1 POP PUSH0 PUSH1 0x4 PUSH0 DUP6 DUP2 MSTORE PUSH1 0x20 ADD SWAP1 DUP2 MSTORE PUSH1 0x20 ADD PUSH0 KECCAK256 SWAP1 POP DUP5 DUP2 PUSH0 ADD PUSH0 PUSH2 0x100 EXP DUP2 SLOAD DUP2 PUSH20 0xFFFFFFFFFFFFFFFFFFFFFFFFFFFFFFFFFFFFFFFF MUL NOT AND SWAP1 DUP4 PUSH20 0xFFFFFFFFFFFFFFFFFFFFFFFFFFFFFFFFFFFFFFFF AND MUL OR SWAP1 SSTORE POP PUSH2 0x651F DUP4 PUSH2 0x6C02 JUMP JUMPDEST DUP2 PUSH0 ADD PUSH1 0x14 PUSH2 0x100 EXP DUP2 SLOAD DUP2 PUSH6 0xFFFFFFFFFFFF MUL NOT AND SWAP1 DUP4 PUSH6 0xFFFFFFFFFFFF AND MUL OR SWAP1 SSTORE POP PUSH2 0x654D DUP3 PUSH2 0x6C5B JUMP JUMPDEST DUP2 PUSH0 ADD PUSH1 0x1A PUSH2 0x100 EXP DUP2 SLOAD DUP2 PUSH4 0xFFFFFFFF MUL NOT AND SWAP1 DUP4 PUSH4 0xFFFFFFFF AND MUL OR SWAP1 SSTORE POP PUSH32 0x7D84A6263AE0D98D3329BD7B46BB4E8D6F98CD35A7ADB45C274C8B7FD5EBD5E0 DUP5 DUP7 DUP12 DUP12 DUP14 MLOAD PUSH8 0xFFFFFFFFFFFFFFFF DUP2 GT ISZERO PUSH2 0x65AE JUMPI PUSH2 0x65AD PUSH2 0x77B4 JUMP JUMPDEST JUMPDEST PUSH1 0x40 MLOAD SWAP1 DUP1 DUP3 MSTORE DUP1 PUSH1 0x20 MUL PUSH1 0x20 ADD DUP3 ADD PUSH1 0x40 MSTORE DUP1 ISZERO PUSH2 0x65E1 JUMPI DUP2 PUSH1 0x20 ADD JUMPDEST PUSH1 0x60 DUP2 MSTORE PUSH1 0x20 ADD SWAP1 PUSH1 0x1 SWAP1 SUB SWAP1 DUP2 PUSH2 0x65CC JUMPI SWAP1 POP JUMPDEST POP DUP13 DUP10 DUP10 DUP12 PUSH2 0x65F0 SWAP2 SWAP1 PUSH2 0x91BE JUMP JUMPDEST DUP15 PUSH1 0x40 MLOAD PUSH2 0x6606 SWAP10 SWAP9 SWAP8 SWAP7 SWAP6 SWAP5 SWAP4 SWAP3 SWAP2 SWAP1 PUSH2 0xA36A JUMP JUMPDEST PUSH1 0x40 MLOAD DUP1 SWAP2 SUB SWAP1 LOG1 POP POP POP SWAP6 SWAP5 POP POP POP POP POP JUMP JUMPDEST PUSH1 0x60 PUSH2 0x664F PUSH0 PUSH32 0x0 PUSH2 0x6CB2 SWAP1 SWAP2 SWAP1 PUSH4 0xFFFFFFFF AND JUMP JUMPDEST SWAP1 POP SWAP1 JUMP JUMPDEST PUSH1 0x60 PUSH2 0x668A PUSH1 0x1 PUSH32 0x0 PUSH2 0x6CB2 SWAP1 SWAP2 SWAP1 PUSH4 0xFFFFFFFF AND JUMP JUMPDEST SWAP1 POP SWAP1 JUMP JUMPDEST PUSH0 PUSH1 0xC PUSH0 SWAP1 SLOAD SWAP1 PUSH2 0x100 EXP SWAP1 DIV PUSH20 0xFFFFFFFFFFFFFFFFFFFFFFFFFFFFFFFFFFFFFFFF AND PUSH20 0xFFFFFFFFFFFFFFFFFFFFFFFFFFFFFFFFFFFFFFFF AND PUSH4 0x3A46B1A8 DUP6 DUP6 PUSH1 0x40 MLOAD DUP4 PUSH4 0xFFFFFFFF AND PUSH1 0xE0 SHL DUP2 MSTORE PUSH1 0x4 ADD PUSH2 0x66EC SWAP3 SWAP2 SWAP1 PUSH2 0x8DCD JUMP JUMPDEST PUSH1 0x20 PUSH1 0x40 MLOAD DUP1 DUP4 SUB DUP2 DUP7 GAS STATICCALL ISZERO DUP1 ISZERO PUSH2 0x6707 JUMPI RETURNDATASIZE PUSH0 DUP1 RETURNDATACOPY RETURNDATASIZE PUSH0 REVERT JUMPDEST POP POP POP POP PUSH1 0x40 MLOAD RETURNDATASIZE PUSH1 0x1F NOT PUSH1 0x1F DUP3 ADD AND DUP3 ADD DUP1 PUSH1 0x40 MSTORE POP DUP2 ADD SWAP1 PUSH2 0x672B SWAP2 SWAP1 PUSH2 0x9205 JUMP JUMPDEST SWAP1 POP SWAP4 SWAP3 POP POP POP JUMP JUMPDEST PUSH2 0x673C PUSH2 0x5E46 JUMP JUMPDEST PUSH20 0xFFFFFFFFFFFFFFFFFFFFFFFFFFFFFFFFFFFFFFFF AND PUSH2 0x675A PUSH2 0xFBF JUMP JUMPDEST PUSH20 0xFFFFFFFFFFFFFFFFFFFFFFFFFFFFFFFFFFFFFFFF AND EQ PUSH2 0x67B9 JUMPI PUSH2 0x677D PUSH2 0x5E46 JUMP JUMPDEST PUSH1 0x40 MLOAD PUSH32 0x47096E4700000000000000000000000000000000000000000000000000000000 DUP2 MSTORE PUSH1 0x4 ADD PUSH2 0x67B0 SWAP2 SWAP1 PUSH2 0x79B8 JUMP JUMPDEST PUSH1 0x40 MLOAD DUP1 SWAP2 SUB SWAP1 REVERT JUMPDEST ADDRESS PUSH20 0xFFFFFFFFFFFFFFFFFFFFFFFFFFFFFFFFFFFFFFFF AND PUSH2 0x67D8 PUSH2 0xFBF JUMP JUMPDEST PUSH20 0xFFFFFFFFFFFFFFFFFFFFFFFFFFFFFFFFFFFFFFFF AND EQ PUSH2 0x6827 JUMPI PUSH0 PUSH2 0x67FC PUSH2 0x6D5F JUMP JUMPDEST PUSH1 0x40 MLOAD PUSH2 0x680A SWAP3 SWAP2 SWAP1 PUSH2 0x932E JUMP JUMPDEST PUSH1 0x40 MLOAD DUP1 SWAP2 SUB SWAP1 KECCAK256 SWAP1 POP JUMPDEST DUP1 PUSH2 0x6820 PUSH1 0x5 PUSH2 0x6D6B JUMP JUMPDEST SUB PUSH2 0x6815 JUMPI POP JUMPDEST JUMP JUMPDEST PUSH1 0x60 DUP3 PUSH2 0x683E JUMPI PUSH2 0x6839 DUP3 PUSH2 0x6E99 JUMP JUMPDEST PUSH2 0x6846 JUMP JUMPDEST DUP2 SWAP1 POP PUSH2 0x6847 JUMP JUMPDEST JUMPDEST SWAP3 SWAP2 POP POP JUMP JUMPDEST PUSH1 0x60 PUSH1 0x40 MLOAD DUP1 PUSH1 0x20 ADD PUSH1 0x40 MSTORE DUP1 PUSH0 DUP2 MSTORE POP SWAP1 POP SWAP1 JUMP JUMPDEST PUSH4 0x4E487B71 PUSH0 MSTORE DUP1 PUSH1 0x20 MSTORE PUSH1 0x24 PUSH1 0x1C REVERT JUMPDEST PUSH0 PUSH32 0x0 PUSH20 0xFFFFFFFFFFFFFFFFFFFFFFFFFFFFFFFFFFFFFFFF AND ADDRESS PUSH20 0xFFFFFFFFFFFFFFFFFFFFFFFFFFFFFFFFFFFFFFFF AND EQ DUP1 ISZERO PUSH2 0x68EF JUMPI POP PUSH32 0x0 CHAINID EQ JUMPDEST ISZERO PUSH2 0x691C JUMPI PUSH32 0x0 SWAP1 POP PUSH2 0x6927 JUMP JUMPDEST PUSH2 0x6924 PUSH2 0x6EDD JUMP JUMPDEST SWAP1 POP JUMPDEST SWAP1 JUMP JUMPDEST PUSH0 PUSH1 0x40 MLOAD PUSH32 0x1901000000000000000000000000000000000000000000000000000000000000 DUP2 MSTORE DUP4 PUSH1 0x2 DUP3 ADD MSTORE DUP3 PUSH1 0x22 DUP3 ADD MSTORE PUSH1 0x42 DUP2 KECCAK256 SWAP2 POP POP SWAP3 SWAP2 POP POP JUMP JUMPDEST PUSH0 DUP1 PUSH0 PUSH1 0x41 DUP5 MLOAD SUB PUSH2 0x69AA JUMPI PUSH0 DUP1 PUSH0 PUSH1 0x20 DUP8 ADD MLOAD SWAP3 POP PUSH1 0x40 DUP8 ADD MLOAD SWAP2 POP PUSH1 0x60 DUP8 ADD MLOAD PUSH0 BYTE SWAP1 POP PUSH2 0x699C DUP9 DUP3 DUP6 DUP6 PUSH2 0x6F72 JUMP JUMPDEST SWAP6 POP SWAP6 POP SWAP6 POP POP POP POP PUSH2 0x69B8 JUMP JUMPDEST PUSH0 PUSH1 0x2 DUP6 MLOAD PUSH0 SHL SWAP3 POP SWAP3 POP SWAP3 POP JUMPDEST SWAP3 POP SWAP3 POP SWAP3 JUMP JUMPDEST PUSH0 DUP1 PUSH0 DUP6 PUSH20 0xFFFFFFFFFFFFFFFFFFFFFFFFFFFFFFFFFFFFFFFF AND DUP6 DUP6 PUSH1 0x40 MLOAD PUSH1 0x24 ADD PUSH2 0x69EC SWAP3 SWAP2 SWAP1 PUSH2 0xA418 JUMP JUMPDEST PUSH1 0x40 MLOAD PUSH1 0x20 DUP2 DUP4 SUB SUB DUP2 MSTORE SWAP1 PUSH1 0x40 MSTORE PUSH4 0x1626BA7E PUSH1 0xE0 SHL PUSH1 0x20 DUP3 ADD DUP1 MLOAD PUSH28 0xFFFFFFFFFFFFFFFFFFFFFFFFFFFFFFFFFFFFFFFFFFFFFFFFFFFFFFFF DUP4 DUP2 DUP4 AND OR DUP4 MSTORE POP POP POP POP PUSH1 0x40 MLOAD PUSH2 0x6A3E SWAP2 SWAP1 PUSH2 0xA10C JUMP JUMPDEST PUSH0 PUSH1 0x40 MLOAD DUP1 DUP4 SUB DUP2 DUP6 GAS STATICCALL SWAP2 POP POP RETURNDATASIZE DUP1 PUSH0 DUP2 EQ PUSH2 0x6A76 JUMPI PUSH1 0x40 MLOAD SWAP2 POP PUSH1 0x1F NOT PUSH1 0x3F RETURNDATASIZE ADD AND DUP3 ADD PUSH1 0x40 MSTORE RETURNDATASIZE DUP3 MSTORE RETURNDATASIZE PUSH0 PUSH1 0x20 DUP5 ADD RETURNDATACOPY PUSH2 0x6A7B JUMP JUMPDEST PUSH1 0x60 SWAP2 POP JUMPDEST POP SWAP2 POP SWAP2 POP DUP2 DUP1 ISZERO PUSH2 0x6A8F JUMPI POP PUSH1 0x20 DUP2 MLOAD LT ISZERO JUMPDEST DUP1 ISZERO PUSH2 0x6AD3 JUMPI POP PUSH4 0x1626BA7E PUSH1 0xE0 SHL PUSH28 0xFFFFFFFFFFFFFFFFFFFFFFFFFFFFFFFFFFFFFFFFFFFFFFFFFFFFFFFF NOT AND DUP2 DUP1 PUSH1 0x20 ADD SWAP1 MLOAD DUP2 ADD SWAP1 PUSH2 0x6AD1 SWAP2 SWAP1 PUSH2 0xA45A JUMP JUMPDEST EQ JUMPDEST SWAP3 POP POP POP SWAP4 SWAP3 POP POP POP JUMP JUMPDEST POP JUMP JUMPDEST PUSH0 DUP2 PUSH1 0x20 ADD DUP4 ADD MLOAD SWAP1 POP SWAP3 SWAP2 POP POP JUMP JUMPDEST PUSH0 DUP1 DUP5 MLOAD DUP4 GT DUP1 PUSH2 0x6B01 JUMPI POP DUP3 DUP5 GT JUMPDEST ISZERO PUSH2 0x6B11 JUMPI PUSH0 DUP1 SWAP2 POP SWAP2 POP PUSH2 0x6BFA JUMP JUMPDEST PUSH0 PUSH1 0x1 DUP6 PUSH2 0x6B1F SWAP2 SWAP1 PUSH2 0x91BE JUMP JUMPDEST DUP5 GT DUP1 ISZERO PUSH2 0x6B97 JUMPI POP PUSH32 0x3078000000000000000000000000000000000000000000000000000000000000 PUSH30 0xFFFFFFFFFFFFFFFFFFFFFFFFFFFFFFFFFFFFFFFFFFFFFFFFFFFFFFFFFFFF NOT AND PUSH2 0x6B74 DUP8 DUP8 PUSH2 0x7059 JUMP JUMPDEST PUSH30 0xFFFFFFFFFFFFFFFFFFFFFFFFFFFFFFFFFFFFFFFFFFFFFFFFFFFFFFFFFFFF NOT AND EQ JUMPDEST SWAP1 POP PUSH0 PUSH1 0x2 PUSH2 0x6BA7 DUP4 ISZERO ISZERO PUSH2 0x7069 JUMP JUMPDEST PUSH2 0x6BB1 SWAP2 SWAP1 PUSH2 0x8F51 JUMP JUMPDEST PUSH1 0x28 PUSH2 0x6BBD SWAP2 SWAP1 PUSH2 0x91BE JUMP JUMPDEST SWAP1 POP DUP1 DUP7 DUP7 PUSH2 0x6BCC SWAP2 SWAP1 PUSH2 0xA156 JUMP JUMPDEST SUB PUSH2 0x6BF1 JUMPI PUSH0 DUP1 PUSH2 0x6BDE DUP10 DUP10 DUP10 PUSH2 0x7074 JUMP JUMPDEST SWAP2 POP SWAP2 POP DUP2 DUP2 SWAP6 POP SWAP6 POP POP POP POP POP PUSH2 0x6BFA JUMP JUMPDEST PUSH0 DUP1 SWAP4 POP SWAP4 POP POP POP JUMPDEST SWAP4 POP SWAP4 SWAP2 POP POP JUMP JUMPDEST PUSH0 PUSH6 0xFFFFFFFFFFFF DUP1 AND DUP3 GT ISZERO PUSH2 0x6C53 JUMPI PUSH1 0x30 DUP3 PUSH1 0x40 MLOAD PUSH32 0x6DFCC65000000000000000000000000000000000000000000000000000000000 DUP2 MSTORE PUSH1 0x4 ADD PUSH2 0x6C4A SWAP3 SWAP2 SWAP1 PUSH2 0xA4BE JUMP JUMPDEST PUSH1 0x40 MLOAD DUP1 SWAP2 SUB SWAP1 REVERT JUMPDEST DUP2 SWAP1 POP SWAP2 SWAP1 POP JUMP JUMPDEST PUSH0 PUSH4 0xFFFFFFFF DUP1 AND DUP3 GT ISZERO PUSH2 0x6CAA JUMPI PUSH1 0x20 DUP3 PUSH1 0x40 MLOAD PUSH32 0x6DFCC65000000000000000000000000000000000000000000000000000000000 DUP2 MSTORE PUSH1 0x4 ADD PUSH2 0x6CA1 SWAP3 SWAP2 SWAP1 PUSH2 0xA51E JUMP JUMPDEST PUSH1 0x40 MLOAD DUP1 SWAP2 SUB SWAP1 REVERT JUMPDEST DUP2 SWAP1 POP SWAP2 SWAP1 POP JUMP JUMPDEST PUSH1 0x60 PUSH1 0xFF PUSH0 SHL DUP4 EQ PUSH2 0x6CCE JUMPI PUSH2 0x6CC7 DUP4 PUSH2 0x719F JUMP JUMPDEST SWAP1 POP PUSH2 0x6D59 JUMP JUMPDEST DUP2 DUP1 SLOAD PUSH2 0x6CDA SWAP1 PUSH2 0x8D70 JUMP JUMPDEST DUP1 PUSH1 0x1F ADD PUSH1 0x20 DUP1 SWAP2 DIV MUL PUSH1 0x20 ADD PUSH1 0x40 MLOAD SWAP1 DUP2 ADD PUSH1 0x40 MSTORE DUP1 SWAP3 SWAP2 SWAP1 DUP2 DUP2 MSTORE PUSH1 0x20 ADD DUP3 DUP1 SLOAD PUSH2 0x6D06 SWAP1 PUSH2 0x8D70 JUMP JUMPDEST DUP1 ISZERO PUSH2 0x6D51 JUMPI DUP1 PUSH1 0x1F LT PUSH2 0x6D28 JUMPI PUSH2 0x100 DUP1 DUP4 SLOAD DIV MUL DUP4 MSTORE SWAP2 PUSH1 0x20 ADD SWAP2 PUSH2 0x6D51 JUMP JUMPDEST DUP3 ADD SWAP2 SWAP1 PUSH0 MSTORE PUSH1 0x20 PUSH0 KECCAK256 SWAP1 JUMPDEST DUP2 SLOAD DUP2 MSTORE SWAP1 PUSH1 0x1 ADD SWAP1 PUSH1 0x20 ADD DUP1 DUP4 GT PUSH2 0x6D34 JUMPI DUP3 SWAP1 SUB PUSH1 0x1F AND DUP3 ADD SWAP2 JUMPDEST POP POP POP POP POP SWAP1 POP JUMPDEST SWAP3 SWAP2 POP POP JUMP JUMPDEST CALLDATASIZE PUSH0 DUP1 CALLDATASIZE SWAP2 POP SWAP2 POP SWAP1 SWAP2 JUMP JUMPDEST PUSH0 DUP1 DUP3 PUSH0 ADD PUSH0 SWAP1 SLOAD SWAP1 PUSH2 0x100 EXP SWAP1 DIV PUSH16 0xFFFFFFFFFFFFFFFFFFFFFFFFFFFFFFFF AND SWAP1 POP DUP3 PUSH0 ADD PUSH1 0x10 SWAP1 SLOAD SWAP1 PUSH2 0x100 EXP SWAP1 DIV PUSH16 0xFFFFFFFFFFFFFFFFFFFFFFFFFFFFFFFF AND PUSH16 0xFFFFFFFFFFFFFFFFFFFFFFFFFFFFFFFF AND DUP2 PUSH16 0xFFFFFFFFFFFFFFFFFFFFFFFFFFFFFFFF AND SUB PUSH2 0x6DE3 JUMPI PUSH2 0x6DE2 PUSH1 0x31 PUSH2 0x6863 JUMP JUMPDEST JUMPDEST DUP3 PUSH1 0x1 ADD PUSH0 DUP3 PUSH16 0xFFFFFFFFFFFFFFFFFFFFFFFFFFFFFFFF AND PUSH16 0xFFFFFFFFFFFFFFFFFFFFFFFFFFFFFFFF AND DUP2 MSTORE PUSH1 0x20 ADD SWAP1 DUP2 MSTORE PUSH1 0x20 ADD PUSH0 KECCAK256 SLOAD SWAP2 POP DUP3 PUSH1 0x1 ADD PUSH0 DUP3 PUSH16 0xFFFFFFFFFFFFFFFFFFFFFFFFFFFFFFFF AND PUSH16 0xFFFFFFFFFFFFFFFFFFFFFFFFFFFFFFFF AND DUP2 MSTORE PUSH1 0x20 ADD SWAP1 DUP2 MSTORE PUSH1 0x20 ADD PUSH0 KECCAK256 PUSH0 SWAP1 SSTORE PUSH1 0x1 DUP2 ADD DUP4 PUSH0 ADD PUSH0 PUSH2 0x100 EXP DUP2 SLOAD DUP2 PUSH16 0xFFFFFFFFFFFFFFFFFFFFFFFFFFFFFFFF MUL NOT AND SWAP1 DUP4 PUSH16 0xFFFFFFFFFFFFFFFFFFFFFFFFFFFFFFFF AND MUL OR SWAP1 SSTORE POP POP SWAP2 SWAP1 POP JUMP JUMPDEST PUSH0 DUP2 MLOAD GT ISZERO PUSH2 0x6EAB JUMPI DUP1 MLOAD DUP1 DUP3 PUSH1 0x20 ADD REVERT JUMPDEST PUSH1 0x40 MLOAD PUSH32 0xD6BDA27500000000000000000000000000000000000000000000000000000000 DUP2 MSTORE PUSH1 0x4 ADD PUSH1 0x40 MLOAD DUP1 SWAP2 SUB SWAP1 REVERT JUMPDEST PUSH0 PUSH32 0x8B73C3C69BB8FE3D512ECC4CF759CC79239F7B179B0FFACAA9A75D522B39400F PUSH32 0x0 PUSH32 0x0 CHAINID ADDRESS PUSH1 0x40 MLOAD PUSH1 0x20 ADD PUSH2 0x6F57 SWAP6 SWAP5 SWAP4 SWAP3 SWAP2 SWAP1 PUSH2 0xA545 JUMP JUMPDEST PUSH1 0x40 MLOAD PUSH1 0x20 DUP2 DUP4 SUB SUB DUP2 MSTORE SWAP1 PUSH1 0x40 MSTORE DUP1 MLOAD SWAP1 PUSH1 0x20 ADD KECCAK256 SWAP1 POP SWAP1 JUMP JUMPDEST PUSH0 DUP1 PUSH0 PUSH32 0x7FFFFFFFFFFFFFFFFFFFFFFFFFFFFFFF5D576E7357A4501DDFE92F46681B20A0 DUP5 PUSH0 SHR GT ISZERO PUSH2 0x6FAE JUMPI PUSH0 PUSH1 0x3 DUP6 SWAP3 POP SWAP3 POP SWAP3 POP PUSH2 0x704F JUMP JUMPDEST PUSH0 PUSH1 0x1 DUP9 DUP9 DUP9 DUP9 PUSH1 0x40 MLOAD PUSH0 DUP2 MSTORE PUSH1 0x20 ADD PUSH1 0x40 MSTORE PUSH1 0x40 MLOAD PUSH2 0x6FD1 SWAP5 SWAP4 SWAP3 SWAP2 SWAP1 PUSH2 0xA596 JUMP JUMPDEST PUSH1 0x20 PUSH1 0x40 MLOAD PUSH1 0x20 DUP2 SUB SWAP1 DUP1 DUP5 SUB SWAP1 DUP6 GAS STATICCALL ISZERO DUP1 ISZERO PUSH2 0x6FF1 JUMPI RETURNDATASIZE PUSH0 DUP1 RETURNDATACOPY RETURNDATASIZE PUSH0 REVERT JUMPDEST POP POP POP PUSH1 0x20 PUSH1 0x40 MLOAD SUB MLOAD SWAP1 POP PUSH0 PUSH20 0xFFFFFFFFFFFFFFFFFFFFFFFFFFFFFFFFFFFFFFFF AND DUP2 PUSH20 0xFFFFFFFFFFFFFFFFFFFFFFFFFFFFFFFFFFFFFFFF AND SUB PUSH2 0x7042 JUMPI PUSH0 PUSH1 0x1 PUSH0 DUP1 SHL SWAP4 POP SWAP4 POP SWAP4 POP POP PUSH2 0x704F JUMP JUMPDEST DUP1 PUSH0 DUP1 PUSH0 SHL SWAP4 POP SWAP4 POP SWAP4 POP POP JUMPDEST SWAP5 POP SWAP5 POP SWAP5 SWAP2 POP POP JUMP JUMPDEST PUSH0 DUP2 PUSH1 0x20 ADD DUP4 ADD MLOAD SWAP1 POP SWAP3 SWAP2 POP POP JUMP JUMPDEST PUSH0 DUP2 ISZERO ISZERO SWAP1 POP SWAP2 SWAP1 POP JUMP JUMPDEST PUSH0 DUP1 PUSH0 DUP6 SWAP1 POP PUSH0 PUSH1 0x1 DUP7 PUSH2 0x7088 SWAP2 SWAP1 PUSH2 0x91BE JUMP JUMPDEST DUP6 GT DUP1 ISZERO PUSH2 0x7100 JUMPI POP PUSH32 0x3078000000000000000000000000000000000000000000000000000000000000 PUSH30 0xFFFFFFFFFFFFFFFFFFFFFFFFFFFFFFFFFFFFFFFFFFFFFFFFFFFFFFFFFFFF NOT AND PUSH2 0x70DD DUP4 DUP9 PUSH2 0x7059 JUMP JUMPDEST PUSH30 0xFFFFFFFFFFFFFFFFFFFFFFFFFFFFFFFFFFFFFFFFFFFFFFFFFFFFFFFFFFFF NOT AND EQ JUMPDEST SWAP1 POP PUSH0 PUSH1 0x2 PUSH2 0x7110 DUP4 ISZERO ISZERO PUSH2 0x7069 JUMP JUMPDEST PUSH2 0x711A SWAP2 SWAP1 PUSH2 0x8F51 JUMP JUMPDEST SWAP1 POP PUSH0 DUP1 DUP3 DUP10 PUSH2 0x712A SWAP2 SWAP1 PUSH2 0x91BE JUMP JUMPDEST SWAP1 POP JUMPDEST DUP8 DUP2 LT ISZERO PUSH2 0x718A JUMPI PUSH0 PUSH2 0x7148 PUSH2 0x7143 DUP8 DUP5 PUSH2 0x7059 JUMP JUMPDEST PUSH2 0x7211 JUMP JUMPDEST SWAP1 POP PUSH1 0xF DUP2 PUSH1 0xFF AND GT ISZERO PUSH2 0x7167 JUMPI PUSH0 DUP1 SWAP8 POP SWAP8 POP POP POP POP POP POP POP PUSH2 0x7197 JUMP JUMPDEST PUSH1 0x10 DUP4 PUSH2 0x7174 SWAP2 SWAP1 PUSH2 0x8F51 JUMP JUMPDEST SWAP3 POP DUP1 PUSH1 0xFF AND DUP4 ADD SWAP3 POP POP DUP1 PUSH1 0x1 ADD SWAP1 POP PUSH2 0x712D JUMP JUMPDEST POP PUSH1 0x1 DUP2 SWAP6 POP SWAP6 POP POP POP POP POP JUMPDEST SWAP4 POP SWAP4 SWAP2 POP POP JUMP JUMPDEST PUSH1 0x60 PUSH0 PUSH2 0x71AB DUP4 PUSH2 0x72A1 JUMP JUMPDEST SWAP1 POP PUSH0 PUSH1 0x20 PUSH8 0xFFFFFFFFFFFFFFFF DUP2 GT ISZERO PUSH2 0x71C9 JUMPI PUSH2 0x71C8 PUSH2 0x77B4 JUMP JUMPDEST JUMPDEST PUSH1 0x40 MLOAD SWAP1 DUP1 DUP3 MSTORE DUP1 PUSH1 0x1F ADD PUSH1 0x1F NOT AND PUSH1 0x20 ADD DUP3 ADD PUSH1 0x40 MSTORE DUP1 ISZERO PUSH2 0x71FB JUMPI DUP2 PUSH1 0x20 ADD PUSH1 0x1 DUP3 MUL DUP1 CALLDATASIZE DUP4 CALLDATACOPY DUP1 DUP3 ADD SWAP2 POP POP SWAP1 POP JUMPDEST POP SWAP1 POP DUP2 DUP2 MSTORE DUP4 PUSH1 0x20 DUP3 ADD MSTORE DUP1 SWAP3 POP POP POP SWAP2 SWAP1 POP JUMP JUMPDEST PUSH0 DUP1 DUP3 PUSH1 0xF8 SHR SWAP1 POP PUSH1 0x2F DUP2 PUSH1 0xFF AND GT DUP1 ISZERO PUSH2 0x722F JUMPI POP PUSH1 0x3A DUP2 PUSH1 0xFF AND LT JUMPDEST ISZERO PUSH2 0x723F JUMPI PUSH1 0x30 DUP2 SUB SWAP1 POP PUSH2 0x7297 JUMP JUMPDEST PUSH1 0x60 DUP2 PUSH1 0xFF AND GT DUP1 ISZERO PUSH2 0x7255 JUMPI POP PUSH1 0x67 DUP2 PUSH1 0xFF AND LT JUMPDEST ISZERO PUSH2 0x7265 JUMPI PUSH1 0x57 DUP2 SUB SWAP1 POP PUSH2 0x7296 JUMP JUMPDEST PUSH1 0x40 DUP2 PUSH1 0xFF AND GT DUP1 ISZERO PUSH2 0x727B JUMPI POP PUSH1 0x47 DUP2 PUSH1 0xFF AND LT JUMPDEST ISZERO PUSH2 0x728B JUMPI PUSH1 0x37 DUP2 SUB SWAP1 POP PUSH2 0x7295 JUMP JUMPDEST PUSH1 0xFF SWAP2 POP POP PUSH2 0x729C JUMP JUMPDEST JUMPDEST JUMPDEST DUP1 SWAP2 POP POP JUMPDEST SWAP2 SWAP1 POP JUMP JUMPDEST PUSH0 DUP1 PUSH1 0xFF DUP4 PUSH0 SHR AND SWAP1 POP PUSH1 0x1F DUP2 GT ISZERO PUSH2 0x72E6 JUMPI PUSH1 0x40 MLOAD PUSH32 0xB3512B0C00000000000000000000000000000000000000000000000000000000 DUP2 MSTORE PUSH1 0x4 ADD PUSH1 0x40 MLOAD DUP1 SWAP2 SUB SWAP1 REVERT JUMPDEST DUP1 SWAP2 POP POP SWAP2 SWAP1 POP JUMP JUMPDEST POP DUP1 SLOAD PUSH0 DUP3 SSTORE SWAP1 PUSH0 MSTORE PUSH1 0x20 PUSH0 KECCAK256 SWAP1 DUP2 ADD SWAP1 PUSH2 0x730A SWAP2 SWAP1 PUSH2 0x745F JUMP JUMPDEST POP JUMP JUMPDEST PUSH1 0x40 MLOAD DUP1 PUSH1 0x80 ADD PUSH1 0x40 MSTORE DUP1 PUSH1 0x60 DUP2 MSTORE PUSH1 0x20 ADD PUSH0 PUSH20 0xFFFFFFFFFFFFFFFFFFFFFFFFFFFFFFFFFFFFFFFF AND DUP2 MSTORE PUSH1 0x20 ADD PUSH0 PUSH1 0x2 DUP2 GT ISZERO PUSH2 0x734E JUMPI PUSH2 0x734D PUSH2 0x75C1 JUMP JUMPDEST JUMPDEST DUP2 MSTORE PUSH1 0x20 ADD PUSH0 DUP2 MSTORE POP SWAP1 JUMP JUMPDEST PUSH1 0x40 MLOAD DUP1 PUSH2 0x100 ADD PUSH1 0x40 MSTORE DUP1 PUSH0 DUP2 MSTORE PUSH1 0x20 ADD PUSH0 PUSH20 0xFFFFFFFFFFFFFFFFFFFFFFFFFFFFFFFFFFFFFFFF AND DUP2 MSTORE PUSH1 0x20 ADD PUSH1 0x60 DUP2 MSTORE PUSH1 0x20 ADD PUSH0 DUP2 MSTORE PUSH1 0x20 ADD PUSH0 ISZERO ISZERO DUP2 MSTORE PUSH1 0x20 ADD PUSH0 PUSH1 0x4 DUP2 GT ISZERO PUSH2 0x73B0 JUMPI PUSH2 0x73AF PUSH2 0x75C1 JUMP JUMPDEST JUMPDEST DUP2 MSTORE PUSH1 0x20 ADD PUSH0 PUSH20 0xFFFFFFFFFFFFFFFFFFFFFFFFFFFFFFFFFFFFFFFF AND DUP2 MSTORE PUSH1 0x20 ADD PUSH0 DUP2 MSTORE POP SWAP1 JUMP JUMPDEST DUP3 DUP1 SLOAD DUP3 DUP3 SSTORE SWAP1 PUSH0 MSTORE PUSH1 0x20 PUSH0 KECCAK256 SWAP1 DUP2 ADD SWAP3 DUP3 ISZERO PUSH2 0x744E JUMPI SWAP2 PUSH1 0x20 MUL DUP3 ADD JUMPDEST DUP3 DUP2 GT ISZERO PUSH2 0x744D JUMPI DUP3 MLOAD DUP3 PUSH0 PUSH2 0x100 EXP DUP2 SLOAD DUP2 PUSH20 0xFFFFFFFFFFFFFFFFFFFFFFFFFFFFFFFFFFFFFFFF MUL NOT AND SWAP1 DUP4 PUSH20 0xFFFFFFFFFFFFFFFFFFFFFFFFFFFFFFFFFFFFFFFF AND MUL OR SWAP1 SSTORE POP SWAP2 PUSH1 0x20 ADD SWAP2 SWAP1 PUSH1 0x1 ADD SWAP1 PUSH2 0x73F6 JUMP JUMPDEST JUMPDEST POP SWAP1 POP PUSH2 0x745B SWAP2 SWAP1 PUSH2 0x745F JUMP JUMPDEST POP SWAP1 JUMP JUMPDEST JUMPDEST DUP1 DUP3 GT ISZERO PUSH2 0x7476 JUMPI PUSH0 DUP2 PUSH0 SWAP1 SSTORE POP PUSH1 0x1 ADD PUSH2 0x7460 JUMP JUMPDEST POP SWAP1 JUMP JUMPDEST PUSH0 PUSH1 0x40 MLOAD SWAP1 POP SWAP1 JUMP JUMPDEST PUSH0 DUP1 REVERT JUMPDEST PUSH0 DUP1 REVERT JUMPDEST PUSH0 DUP2 SWAP1 POP SWAP2 SWAP1 POP JUMP JUMPDEST PUSH2 0x749D DUP2 PUSH2 0x748B JUMP JUMPDEST DUP2 EQ PUSH2 0x74A7 JUMPI PUSH0 DUP1 REVERT JUMPDEST POP JUMP JUMPDEST PUSH0 DUP2 CALLDATALOAD SWAP1 POP PUSH2 0x74B8 DUP2 PUSH2 0x7494 JUMP JUMPDEST SWAP3 SWAP2 POP POP JUMP JUMPDEST PUSH0 PUSH1 0x20 DUP3 DUP5 SUB SLT ISZERO PUSH2 0x74D3 JUMPI PUSH2 0x74D2 PUSH2 0x7483 JUMP JUMPDEST JUMPDEST PUSH0 PUSH2 0x74E0 DUP5 DUP3 DUP6 ADD PUSH2 0x74AA JUMP JUMPDEST SWAP2 POP POP SWAP3 SWAP2 POP POP JUMP JUMPDEST PUSH2 0x74F2 DUP2 PUSH2 0x748B JUMP JUMPDEST DUP3 MSTORE POP POP JUMP JUMPDEST PUSH0 PUSH20 0xFFFFFFFFFFFFFFFFFFFFFFFFFFFFFFFFFFFFFFFF DUP3 AND SWAP1 POP SWAP2 SWAP1 POP JUMP JUMPDEST PUSH0 PUSH2 0x7521 DUP3 PUSH2 0x74F8 JUMP JUMPDEST SWAP1 POP SWAP2 SWAP1 POP JUMP JUMPDEST PUSH2 0x7531 DUP2 PUSH2 0x7517 JUMP JUMPDEST DUP3 MSTORE POP POP JUMP JUMPDEST PUSH0 DUP2 MLOAD SWAP1 POP SWAP2 SWAP1 POP JUMP JUMPDEST PUSH0 DUP3 DUP3 MSTORE PUSH1 0x20 DUP3 ADD SWAP1 POP SWAP3 SWAP2 POP POP JUMP JUMPDEST DUP3 DUP2 DUP4 MCOPY PUSH0 DUP4 DUP4 ADD MSTORE POP POP POP JUMP JUMPDEST PUSH0 PUSH1 0x1F NOT PUSH1 0x1F DUP4 ADD AND SWAP1 POP SWAP2 SWAP1 POP JUMP JUMPDEST PUSH0 PUSH2 0x7579 DUP3 PUSH2 0x7537 JUMP JUMPDEST PUSH2 0x7583 DUP2 DUP6 PUSH2 0x7541 JUMP JUMPDEST SWAP4 POP PUSH2 0x7593 DUP2 DUP6 PUSH1 0x20 DUP7 ADD PUSH2 0x7551 JUMP JUMPDEST PUSH2 0x759C DUP2 PUSH2 0x755F JUMP JUMPDEST DUP5 ADD SWAP2 POP POP SWAP3 SWAP2 POP POP JUMP JUMPDEST PUSH0 DUP2 ISZERO ISZERO SWAP1 POP SWAP2 SWAP1 POP JUMP JUMPDEST PUSH2 0x75BB DUP2 PUSH2 0x75A7 JUMP JUMPDEST DUP3 MSTORE POP POP JUMP JUMPDEST PUSH32 0x4E487B7100000000000000000000000000000000000000000000000000000000 PUSH0 MSTORE PUSH1 0x21 PUSH1 0x4 MSTORE PUSH1 0x24 PUSH0 REVERT JUMPDEST PUSH1 0x5 DUP2 LT PUSH2 0x75FF JUMPI PUSH2 0x75FE PUSH2 0x75C1 JUMP JUMPDEST JUMPDEST POP JUMP JUMPDEST PUSH0 DUP2 SWAP1 POP PUSH2 0x760F DUP3 PUSH2 0x75EE JUMP JUMPDEST SWAP2 SWAP1 POP JUMP JUMPDEST PUSH0 PUSH2 0x761E DUP3 PUSH2 0x7602 JUMP JUMPDEST SWAP1 POP SWAP2 SWAP1 POP JUMP JUMPDEST PUSH2 0x762E DUP2 PUSH2 0x7614 JUMP JUMPDEST DUP3 MSTORE POP POP JUMP JUMPDEST PUSH0 PUSH2 0x100 DUP3 ADD SWAP1 POP PUSH2 0x7648 PUSH0 DUP4 ADD DUP12 PUSH2 0x74E9 JUMP JUMPDEST PUSH2 0x7655 PUSH1 0x20 DUP4 ADD DUP11 PUSH2 0x7528 JUMP JUMPDEST DUP2 DUP2 SUB PUSH1 0x40 DUP4 ADD MSTORE PUSH2 0x7667 DUP2 DUP10 PUSH2 0x756F JUMP JUMPDEST SWAP1 POP PUSH2 0x7676 PUSH1 0x60 DUP4 ADD DUP9 PUSH2 0x74E9 JUMP JUMPDEST PUSH2 0x7683 PUSH1 0x80 DUP4 ADD DUP8 PUSH2 0x75B2 JUMP JUMPDEST PUSH2 0x7690 PUSH1 0xA0 DUP4 ADD DUP7 PUSH2 0x7625 JUMP JUMPDEST PUSH2 0x769D PUSH1 0xC0 DUP4 ADD DUP6 PUSH2 0x7528 JUMP JUMPDEST PUSH2 0x76AA PUSH1 0xE0 DUP4 ADD DUP5 PUSH2 0x74E9 JUMP JUMPDEST SWAP10 SWAP9 POP POP POP POP POP POP POP POP POP JUMP JUMPDEST PUSH0 PUSH32 0xFFFFFFFF00000000000000000000000000000000000000000000000000000000 DUP3 AND SWAP1 POP SWAP2 SWAP1 POP JUMP JUMPDEST PUSH2 0x76EB DUP2 PUSH2 0x76B7 JUMP JUMPDEST DUP2 EQ PUSH2 0x76F5 JUMPI PUSH0 DUP1 REVERT JUMPDEST POP JUMP JUMPDEST PUSH0 DUP2 CALLDATALOAD SWAP1 POP PUSH2 0x7706 DUP2 PUSH2 0x76E2 JUMP JUMPDEST SWAP3 SWAP2 POP POP JUMP JUMPDEST PUSH0 PUSH1 0x20 DUP3 DUP5 SUB SLT ISZERO PUSH2 0x7721 JUMPI PUSH2 0x7720 PUSH2 0x7483 JUMP JUMPDEST JUMPDEST PUSH0 PUSH2 0x772E DUP5 DUP3 DUP6 ADD PUSH2 0x76F8 JUMP JUMPDEST SWAP2 POP POP SWAP3 SWAP2 POP POP JUMP JUMPDEST PUSH0 PUSH1 0x20 DUP3 ADD SWAP1 POP PUSH2 0x774A PUSH0 DUP4 ADD DUP5 PUSH2 0x75B2 JUMP JUMPDEST SWAP3 SWAP2 POP POP JUMP JUMPDEST PUSH0 PUSH1 0x20 DUP3 ADD SWAP1 POP PUSH2 0x7763 PUSH0 DUP4 ADD DUP5 PUSH2 0x74E9 JUMP JUMPDEST SWAP3 SWAP2 POP POP JUMP JUMPDEST PUSH0 PUSH1 0x20 DUP3 ADD SWAP1 POP DUP2 DUP2 SUB PUSH0 DUP4 ADD MSTORE PUSH2 0x7781 DUP2 DUP5 PUSH2 0x756F JUMP JUMPDEST SWAP1 POP SWAP3 SWAP2 POP POP JUMP JUMPDEST PUSH1 0x5 DUP2 LT PUSH2 0x7795 JUMPI PUSH0 DUP1 REVERT JUMPDEST POP JUMP JUMPDEST PUSH0 DUP2 CALLDATALOAD SWAP1 POP PUSH2 0x77A6 DUP2 PUSH2 0x7789 JUMP JUMPDEST SWAP3 SWAP2 POP POP JUMP JUMPDEST PUSH0 DUP1 REVERT JUMPDEST PUSH0 DUP1 REVERT JUMPDEST PUSH32 0x4E487B7100000000000000000000000000000000000000000000000000000000 PUSH0 MSTORE PUSH1 0x41 PUSH1 0x4 MSTORE PUSH1 0x24 PUSH0 REVERT JUMPDEST PUSH2 0x77EA DUP3 PUSH2 0x755F JUMP JUMPDEST DUP2 ADD DUP2 DUP2 LT PUSH8 0xFFFFFFFFFFFFFFFF DUP3 GT OR ISZERO PUSH2 0x7809 JUMPI PUSH2 0x7808 PUSH2 0x77B4 JUMP JUMPDEST JUMPDEST DUP1 PUSH1 0x40 MSTORE POP POP POP JUMP JUMPDEST PUSH0 PUSH2 0x781B PUSH2 0x747A JUMP JUMPDEST SWAP1 POP PUSH2 0x7827 DUP3 DUP3 PUSH2 0x77E1 JUMP JUMPDEST SWAP2 SWAP1 POP JUMP JUMPDEST PUSH0 PUSH8 0xFFFFFFFFFFFFFFFF DUP3 GT ISZERO PUSH2 0x7846 JUMPI PUSH2 0x7845 PUSH2 0x77B4 JUMP JUMPDEST JUMPDEST PUSH2 0x784F DUP3 PUSH2 0x755F JUMP JUMPDEST SWAP1 POP PUSH1 0x20 DUP2 ADD SWAP1 POP SWAP2 SWAP1 POP JUMP JUMPDEST DUP3 DUP2 DUP4 CALLDATACOPY PUSH0 DUP4 DUP4 ADD MSTORE POP POP POP JUMP JUMPDEST PUSH0 PUSH2 0x787C PUSH2 0x7877 DUP5 PUSH2 0x782C JUMP JUMPDEST PUSH2 0x7812 JUMP JUMPDEST SWAP1 POP DUP3 DUP2 MSTORE PUSH1 0x20 DUP2 ADD DUP5 DUP5 DUP5 ADD GT ISZERO PUSH2 0x7898 JUMPI PUSH2 0x7897 PUSH2 0x77B0 JUMP JUMPDEST JUMPDEST PUSH2 0x78A3 DUP5 DUP3 DUP6 PUSH2 0x785C JUMP JUMPDEST POP SWAP4 SWAP3 POP POP POP JUMP JUMPDEST PUSH0 DUP3 PUSH1 0x1F DUP4 ADD SLT PUSH2 0x78BF JUMPI PUSH2 0x78BE PUSH2 0x77AC JUMP JUMPDEST JUMPDEST DUP2 CALLDATALOAD PUSH2 0x78CF DUP5 DUP3 PUSH1 0x20 DUP7 ADD PUSH2 0x786A JUMP JUMPDEST SWAP2 POP POP SWAP3 SWAP2 POP POP JUMP JUMPDEST PUSH1 0x3 DUP2 LT PUSH2 0x78E4 JUMPI PUSH0 DUP1 REVERT JUMPDEST POP JUMP JUMPDEST PUSH0 DUP2 CALLDATALOAD SWAP1 POP PUSH2 0x78F5 DUP2 PUSH2 0x78D8 JUMP JUMPDEST SWAP3 SWAP2 POP POP JUMP JUMPDEST PUSH2 0x7904 DUP2 PUSH2 0x7517 JUMP JUMPDEST DUP2 EQ PUSH2 0x790E JUMPI PUSH0 DUP1 REVERT JUMPDEST POP JUMP JUMPDEST PUSH0 DUP2 CALLDATALOAD SWAP1 POP PUSH2 0x791F DUP2 PUSH2 0x78FB JUMP JUMPDEST SWAP3 SWAP2 POP POP JUMP JUMPDEST PUSH0 DUP1 PUSH0 DUP1 PUSH0 PUSH1 0xA0 DUP7 DUP9 SUB SLT ISZERO PUSH2 0x793E JUMPI PUSH2 0x793D PUSH2 0x7483 JUMP JUMPDEST JUMPDEST PUSH0 PUSH2 0x794B DUP9 DUP3 DUP10 ADD PUSH2 0x7798 JUMP JUMPDEST SWAP6 POP POP PUSH1 0x20 DUP7 ADD CALLDATALOAD PUSH8 0xFFFFFFFFFFFFFFFF DUP2 GT ISZERO PUSH2 0x796C JUMPI PUSH2 0x796B PUSH2 0x7487 JUMP JUMPDEST JUMPDEST PUSH2 0x7978 DUP9 DUP3 DUP10 ADD PUSH2 0x78AB JUMP JUMPDEST SWAP5 POP POP PUSH1 0x40 PUSH2 0x7989 DUP9 DUP3 DUP10 ADD PUSH2 0x78E7 JUMP JUMPDEST SWAP4 POP POP PUSH1 0x60 PUSH2 0x799A DUP9 DUP3 DUP10 ADD PUSH2 0x7911 JUMP JUMPDEST SWAP3 POP POP PUSH1 0x80 PUSH2 0x79AB DUP9 DUP3 DUP10 ADD PUSH2 0x74AA JUMP JUMPDEST SWAP2 POP POP SWAP3 SWAP6 POP SWAP3 SWAP6 SWAP1 SWAP4 POP JUMP JUMPDEST PUSH0 PUSH1 0x20 DUP3 ADD SWAP1 POP PUSH2 0x79CB PUSH0 DUP4 ADD DUP5 PUSH2 0x7528 JUMP JUMPDEST SWAP3 SWAP2 POP POP JUMP JUMPDEST PUSH0 PUSH8 0xFFFFFFFFFFFFFFFF DUP3 GT ISZERO PUSH2 0x79EB JUMPI PUSH2 0x79EA PUSH2 0x77B4 JUMP JUMPDEST JUMPDEST PUSH2 0x79F4 DUP3 PUSH2 0x755F JUMP JUMPDEST SWAP1 POP PUSH1 0x20 DUP2 ADD SWAP1 POP SWAP2 SWAP1 POP JUMP JUMPDEST PUSH0 PUSH2 0x7A13 PUSH2 0x7A0E DUP5 PUSH2 0x79D1 JUMP JUMPDEST PUSH2 0x7812 JUMP JUMPDEST SWAP1 POP DUP3 DUP2 MSTORE PUSH1 0x20 DUP2 ADD DUP5 DUP5 DUP5 ADD GT ISZERO PUSH2 0x7A2F JUMPI PUSH2 0x7A2E PUSH2 0x77B0 JUMP JUMPDEST JUMPDEST PUSH2 0x7A3A DUP5 DUP3 DUP6 PUSH2 0x785C JUMP JUMPDEST POP SWAP4 SWAP3 POP POP POP JUMP JUMPDEST PUSH0 DUP3 PUSH1 0x1F DUP4 ADD SLT PUSH2 0x7A56 JUMPI PUSH2 0x7A55 PUSH2 0x77AC JUMP JUMPDEST JUMPDEST DUP2 CALLDATALOAD PUSH2 0x7A66 DUP5 DUP3 PUSH1 0x20 DUP7 ADD PUSH2 0x7A01 JUMP JUMPDEST SWAP2 POP POP SWAP3 SWAP2 POP POP JUMP JUMPDEST PUSH0 DUP1 PUSH0 DUP1 PUSH1 0x80 DUP6 DUP8 SUB SLT ISZERO PUSH2 0x7A87 JUMPI PUSH2 0x7A86 PUSH2 0x7483 JUMP JUMPDEST JUMPDEST PUSH0 PUSH2 0x7A94 DUP8 DUP3 DUP9 ADD PUSH2 0x7911 JUMP JUMPDEST SWAP5 POP POP PUSH1 0x20 PUSH2 0x7AA5 DUP8 DUP3 DUP9 ADD PUSH2 0x7911 JUMP JUMPDEST SWAP4 POP POP PUSH1 0x40 PUSH2 0x7AB6 DUP8 DUP3 DUP9 ADD PUSH2 0x74AA JUMP JUMPDEST SWAP3 POP POP PUSH1 0x60 DUP6 ADD CALLDATALOAD PUSH8 0xFFFFFFFFFFFFFFFF DUP2 GT ISZERO PUSH2 0x7AD7 JUMPI PUSH2 0x7AD6 PUSH2 0x7487 JUMP JUMPDEST JUMPDEST PUSH2 0x7AE3 DUP8 DUP3 DUP9 ADD PUSH2 0x7A42 JUMP JUMPDEST SWAP2 POP POP SWAP3 SWAP6 SWAP2 SWAP5 POP SWAP3 POP JUMP JUMPDEST PUSH2 0x7AF8 DUP2 PUSH2 0x76B7 JUMP JUMPDEST DUP3 MSTORE POP POP JUMP JUMPDEST PUSH0 PUSH1 0x20 DUP3 ADD SWAP1 POP PUSH2 0x7B11 PUSH0 DUP4 ADD DUP5 PUSH2 0x7AEF JUMP JUMPDEST SWAP3 SWAP2 POP POP JUMP JUMPDEST PUSH0 PUSH8 0xFFFFFFFFFFFFFFFF DUP3 GT ISZERO PUSH2 0x7B31 JUMPI PUSH2 0x7B30 PUSH2 0x77B4 JUMP JUMPDEST JUMPDEST PUSH1 0x20 DUP3 MUL SWAP1 POP PUSH1 0x20 DUP2 ADD SWAP1 POP SWAP2 SWAP1 POP JUMP JUMPDEST PUSH0 DUP1 REVERT JUMPDEST PUSH0 PUSH2 0x7B58 PUSH2 0x7B53 DUP5 PUSH2 0x7B17 JUMP JUMPDEST PUSH2 0x7812 JUMP JUMPDEST SWAP1 POP DUP1 DUP4 DUP3 MSTORE PUSH1 0x20 DUP3 ADD SWAP1 POP PUSH1 0x20 DUP5 MUL DUP4 ADD DUP6 DUP2 GT ISZERO PUSH2 0x7B7B JUMPI PUSH2 0x7B7A PUSH2 0x7B42 JUMP JUMPDEST JUMPDEST DUP4 JUMPDEST DUP2 DUP2 LT ISZERO PUSH2 0x7BA4 JUMPI DUP1 PUSH2 0x7B90 DUP9 DUP3 PUSH2 0x7911 JUMP JUMPDEST DUP5 MSTORE PUSH1 0x20 DUP5 ADD SWAP4 POP POP PUSH1 0x20 DUP2 ADD SWAP1 POP PUSH2 0x7B7D JUMP JUMPDEST POP POP POP SWAP4 SWAP3 POP POP POP JUMP JUMPDEST PUSH0 DUP3 PUSH1 0x1F DUP4 ADD SLT PUSH2 0x7BC2 JUMPI PUSH2 0x7BC1 PUSH2 0x77AC JUMP JUMPDEST JUMPDEST DUP2 CALLDATALOAD PUSH2 0x7BD2 DUP5 DUP3 PUSH1 0x20 DUP7 ADD PUSH2 0x7B46 JUMP JUMPDEST SWAP2 POP POP SWAP3 SWAP2 POP POP JUMP JUMPDEST PUSH0 PUSH8 0xFFFFFFFFFFFFFFFF DUP3 GT ISZERO PUSH2 0x7BF5 JUMPI PUSH2 0x7BF4 PUSH2 0x77B4 JUMP JUMPDEST JUMPDEST PUSH1 0x20 DUP3 MUL SWAP1 POP PUSH1 0x20 DUP2 ADD SWAP1 POP SWAP2 SWAP1 POP JUMP JUMPDEST PUSH0 PUSH2 0x7C18 PUSH2 0x7C13 DUP5 PUSH2 0x7BDB JUMP JUMPDEST PUSH2 0x7812 JUMP JUMPDEST SWAP1 POP DUP1 DUP4 DUP3 MSTORE PUSH1 0x20 DUP3 ADD SWAP1 POP PUSH1 0x20 DUP5 MUL DUP4 ADD DUP6 DUP2 GT ISZERO PUSH2 0x7C3B JUMPI PUSH2 0x7C3A PUSH2 0x7B42 JUMP JUMPDEST JUMPDEST DUP4 JUMPDEST DUP2 DUP2 LT ISZERO PUSH2 0x7C64 JUMPI DUP1 PUSH2 0x7C50 DUP9 DUP3 PUSH2 0x74AA JUMP JUMPDEST DUP5 MSTORE PUSH1 0x20 DUP5 ADD SWAP4 POP POP PUSH1 0x20 DUP2 ADD SWAP1 POP PUSH2 0x7C3D JUMP JUMPDEST POP POP POP SWAP4 SWAP3 POP POP POP JUMP JUMPDEST PUSH0 DUP3 PUSH1 0x1F DUP4 ADD SLT PUSH2 0x7C82 JUMPI PUSH2 0x7C81 PUSH2 0x77AC JUMP JUMPDEST JUMPDEST DUP2 CALLDATALOAD PUSH2 0x7C92 DUP5 DUP3 PUSH1 0x20 DUP7 ADD PUSH2 0x7C06 JUMP JUMPDEST SWAP2 POP POP SWAP3 SWAP2 POP POP JUMP JUMPDEST PUSH0 PUSH8 0xFFFFFFFFFFFFFFFF DUP3 GT ISZERO PUSH2 0x7CB5 JUMPI PUSH2 0x7CB4 PUSH2 0x77B4 JUMP JUMPDEST JUMPDEST PUSH1 0x20 DUP3 MUL SWAP1 POP PUSH1 0x20 DUP2 ADD SWAP1 POP SWAP2 SWAP1 POP JUMP JUMPDEST PUSH0 PUSH2 0x7CD8 PUSH2 0x7CD3 DUP5 PUSH2 0x7C9B JUMP JUMPDEST PUSH2 0x7812 JUMP JUMPDEST SWAP1 POP DUP1 DUP4 DUP3 MSTORE PUSH1 0x20 DUP3 ADD SWAP1 POP PUSH1 0x20 DUP5 MUL DUP4 ADD DUP6 DUP2 GT ISZERO PUSH2 0x7CFB JUMPI PUSH2 0x7CFA PUSH2 0x7B42 JUMP JUMPDEST JUMPDEST DUP4 JUMPDEST DUP2 DUP2 LT ISZERO PUSH2 0x7D42 JUMPI DUP1 CALLDATALOAD PUSH8 0xFFFFFFFFFFFFFFFF DUP2 GT ISZERO PUSH2 0x7D20 JUMPI PUSH2 0x7D1F PUSH2 0x77AC JUMP JUMPDEST JUMPDEST DUP1 DUP7 ADD PUSH2 0x7D2D DUP10 DUP3 PUSH2 0x7A42 JUMP JUMPDEST DUP6 MSTORE PUSH1 0x20 DUP6 ADD SWAP5 POP POP POP PUSH1 0x20 DUP2 ADD SWAP1 POP PUSH2 0x7CFD JUMP JUMPDEST POP POP POP SWAP4 SWAP3 POP POP POP JUMP JUMPDEST PUSH0 DUP3 PUSH1 0x1F DUP4 ADD SLT PUSH2 0x7D60 JUMPI PUSH2 0x7D5F PUSH2 0x77AC JUMP JUMPDEST JUMPDEST DUP2 CALLDATALOAD PUSH2 0x7D70 DUP5 DUP3 PUSH1 0x20 DUP7 ADD PUSH2 0x7CC6 JUMP JUMPDEST SWAP2 POP POP SWAP3 SWAP2 POP POP JUMP JUMPDEST PUSH0 DUP2 SWAP1 POP SWAP2 SWAP1 POP JUMP JUMPDEST PUSH2 0x7D8B DUP2 PUSH2 0x7D79 JUMP JUMPDEST DUP2 EQ PUSH2 0x7D95 JUMPI PUSH0 DUP1 REVERT JUMPDEST POP JUMP JUMPDEST PUSH0 DUP2 CALLDATALOAD SWAP1 POP PUSH2 0x7DA6 DUP2 PUSH2 0x7D82 JUMP JUMPDEST SWAP3 SWAP2 POP POP JUMP JUMPDEST PUSH0 DUP1 PUSH0 DUP1 PUSH1 0x80 DUP6 DUP8 SUB SLT ISZERO PUSH2 0x7DC4 JUMPI PUSH2 0x7DC3 PUSH2 0x7483 JUMP JUMPDEST JUMPDEST PUSH0 DUP6 ADD CALLDATALOAD PUSH8 0xFFFFFFFFFFFFFFFF DUP2 GT ISZERO PUSH2 0x7DE1 JUMPI PUSH2 0x7DE0 PUSH2 0x7487 JUMP JUMPDEST JUMPDEST PUSH2 0x7DED DUP8 DUP3 DUP9 ADD PUSH2 0x7BAE JUMP JUMPDEST SWAP5 POP POP PUSH1 0x20 DUP6 ADD CALLDATALOAD PUSH8 0xFFFFFFFFFFFFFFFF DUP2 GT ISZERO PUSH2 0x7E0E JUMPI PUSH2 0x7E0D PUSH2 0x7487 JUMP JUMPDEST JUMPDEST PUSH2 0x7E1A DUP8 DUP3 DUP9 ADD PUSH2 0x7C6E JUMP JUMPDEST SWAP4 POP POP PUSH1 0x40 DUP6 ADD CALLDATALOAD PUSH8 0xFFFFFFFFFFFFFFFF DUP2 GT ISZERO PUSH2 0x7E3B JUMPI PUSH2 0x7E3A PUSH2 0x7487 JUMP JUMPDEST JUMPDEST PUSH2 0x7E47 DUP8 DUP3 DUP9 ADD PUSH2 0x7D4C JUMP JUMPDEST SWAP3 POP POP PUSH1 0x60 PUSH2 0x7E58 DUP8 DUP3 DUP9 ADD PUSH2 0x7D98 JUMP JUMPDEST SWAP2 POP POP SWAP3 SWAP6 SWAP2 SWAP5 POP SWAP3 POP JUMP JUMPDEST PUSH2 0x7E6D DUP2 PUSH2 0x7D79 JUMP JUMPDEST DUP3 MSTORE POP POP JUMP JUMPDEST PUSH0 PUSH1 0x20 DUP3 ADD SWAP1 POP PUSH2 0x7E86 PUSH0 DUP4 ADD DUP5 PUSH2 0x7E64 JUMP JUMPDEST SWAP3 SWAP2 POP POP JUMP JUMPDEST PUSH1 0x8 DUP2 LT PUSH2 0x7E9D JUMPI PUSH2 0x7E9C PUSH2 0x75C1 JUMP JUMPDEST JUMPDEST POP JUMP JUMPDEST PUSH0 DUP2 SWAP1 POP PUSH2 0x7EAD DUP3 PUSH2 0x7E8C JUMP JUMPDEST SWAP2 SWAP1 POP JUMP JUMPDEST PUSH0 PUSH2 0x7EBC DUP3 PUSH2 0x7EA0 JUMP JUMPDEST SWAP1 POP SWAP2 SWAP1 POP JUMP JUMPDEST PUSH2 0x7ECC DUP2 PUSH2 0x7EB2 JUMP JUMPDEST DUP3 MSTORE POP POP JUMP JUMPDEST PUSH0 PUSH1 0x20 DUP3 ADD SWAP1 POP PUSH2 0x7EE5 PUSH0 DUP4 ADD DUP5 PUSH2 0x7EC3 JUMP JUMPDEST SWAP3 SWAP2 POP POP JUMP JUMPDEST PUSH0 DUP1 PUSH1 0x40 DUP4 DUP6 SUB SLT ISZERO PUSH2 0x7F01 JUMPI PUSH2 0x7F00 PUSH2 0x7483 JUMP JUMPDEST JUMPDEST PUSH0 PUSH2 0x7F0E DUP6 DUP3 DUP7 ADD PUSH2 0x7911 JUMP JUMPDEST SWAP3 POP POP PUSH1 0x20 PUSH2 0x7F1F DUP6 DUP3 DUP7 ADD PUSH2 0x74AA JUMP JUMPDEST SWAP2 POP POP SWAP3 POP SWAP3 SWAP1 POP JUMP JUMPDEST PUSH0 DUP1 PUSH1 0x40 DUP4 DUP6 SUB SLT ISZERO PUSH2 0x7F3F JUMPI PUSH2 0x7F3E PUSH2 0x7483 JUMP JUMPDEST JUMPDEST PUSH0 PUSH2 0x7F4C DUP6 DUP3 DUP7 ADD PUSH2 0x74AA JUMP JUMPDEST SWAP3 POP POP PUSH1 0x20 PUSH2 0x7F5D DUP6 DUP3 DUP7 ADD PUSH2 0x7911 JUMP JUMPDEST SWAP2 POP POP SWAP3 POP SWAP3 SWAP1 POP JUMP JUMPDEST PUSH0 PUSH1 0x20 DUP3 DUP5 SUB SLT ISZERO PUSH2 0x7F7C JUMPI PUSH2 0x7F7B PUSH2 0x7483 JUMP JUMPDEST JUMPDEST PUSH0 PUSH2 0x7F89 DUP5 DUP3 DUP6 ADD PUSH2 0x7911 JUMP JUMPDEST SWAP2 POP POP SWAP3 SWAP2 POP POP JUMP JUMPDEST PUSH0 PUSH1 0xFF DUP3 AND SWAP1 POP SWAP2 SWAP1 POP JUMP JUMPDEST PUSH2 0x7FA7 DUP2 PUSH2 0x7F92 JUMP JUMPDEST DUP2 EQ PUSH2 0x7FB1 JUMPI PUSH0 DUP1 REVERT JUMPDEST POP JUMP JUMPDEST PUSH0 DUP2 CALLDATALOAD SWAP1 POP PUSH2 0x7FC2 DUP2 PUSH2 0x7F9E JUMP JUMPDEST SWAP3 SWAP2 POP POP JUMP JUMPDEST PUSH0 DUP1 PUSH1 0x40 DUP4 DUP6 SUB SLT ISZERO PUSH2 0x7FDE JUMPI PUSH2 0x7FDD PUSH2 0x7483 JUMP JUMPDEST JUMPDEST PUSH0 PUSH2 0x7FEB DUP6 DUP3 DUP7 ADD PUSH2 0x74AA JUMP JUMPDEST SWAP3 POP POP PUSH1 0x20 PUSH2 0x7FFC DUP6 DUP3 DUP7 ADD PUSH2 0x7FB4 JUMP JUMPDEST SWAP2 POP POP SWAP3 POP SWAP3 SWAP1 POP JUMP JUMPDEST PUSH0 DUP1 REVERT JUMPDEST PUSH0 DUP1 DUP4 PUSH1 0x1F DUP5 ADD SLT PUSH2 0x801F JUMPI PUSH2 0x801E PUSH2 0x77AC JUMP JUMPDEST JUMPDEST DUP3 CALLDATALOAD SWAP1 POP PUSH8 0xFFFFFFFFFFFFFFFF DUP2 GT ISZERO PUSH2 0x803C JUMPI PUSH2 0x803B PUSH2 0x8006 JUMP JUMPDEST JUMPDEST PUSH1 0x20 DUP4 ADD SWAP2 POP DUP4 PUSH1 0x1 DUP3 MUL DUP4 ADD GT ISZERO PUSH2 0x8058 JUMPI PUSH2 0x8057 PUSH2 0x7B42 JUMP JUMPDEST JUMPDEST SWAP3 POP SWAP3 SWAP1 POP JUMP JUMPDEST PUSH0 DUP1 PUSH0 DUP1 PUSH0 DUP1 PUSH0 PUSH1 0xC0 DUP9 DUP11 SUB SLT ISZERO PUSH2 0x807A JUMPI PUSH2 0x8079 PUSH2 0x7483 JUMP JUMPDEST JUMPDEST PUSH0 PUSH2 0x8087 DUP11 DUP3 DUP12 ADD PUSH2 0x74AA JUMP JUMPDEST SWAP8 POP POP PUSH1 0x20 PUSH2 0x8098 DUP11 DUP3 DUP12 ADD PUSH2 0x7FB4 JUMP JUMPDEST SWAP7 POP POP PUSH1 0x40 PUSH2 0x80A9 DUP11 DUP3 DUP12 ADD PUSH2 0x7911 JUMP JUMPDEST SWAP6 POP POP PUSH1 0x60 DUP9 ADD CALLDATALOAD PUSH8 0xFFFFFFFFFFFFFFFF DUP2 GT ISZERO PUSH2 0x80CA JUMPI PUSH2 0x80C9 PUSH2 0x7487 JUMP JUMPDEST JUMPDEST PUSH2 0x80D6 DUP11 DUP3 DUP12 ADD PUSH2 0x800A JUMP JUMPDEST SWAP5 POP SWAP5 POP POP PUSH1 0x80 DUP9 ADD CALLDATALOAD PUSH8 0xFFFFFFFFFFFFFFFF DUP2 GT ISZERO PUSH2 0x80F9 JUMPI PUSH2 0x80F8 PUSH2 0x7487 JUMP JUMPDEST JUMPDEST PUSH2 0x8105 DUP11 DUP3 DUP12 ADD PUSH2 0x7A42 JUMP JUMPDEST SWAP3 POP POP PUSH1 0xA0 DUP9 ADD CALLDATALOAD PUSH8 0xFFFFFFFFFFFFFFFF DUP2 GT ISZERO PUSH2 0x8126 JUMPI PUSH2 0x8125 PUSH2 0x7487 JUMP JUMPDEST JUMPDEST PUSH2 0x8132 DUP11 DUP3 DUP12 ADD PUSH2 0x7A42 JUMP JUMPDEST SWAP2 POP POP SWAP3 SWAP6 SWAP9 SWAP2 SWAP5 SWAP8 POP SWAP3 SWAP6 POP JUMP JUMPDEST PUSH0 DUP1 PUSH0 DUP1 PUSH0 PUSH1 0x80 DUP7 DUP9 SUB SLT ISZERO PUSH2 0x815A JUMPI PUSH2 0x8159 PUSH2 0x7483 JUMP JUMPDEST JUMPDEST PUSH0 PUSH2 0x8167 DUP9 DUP3 DUP10 ADD PUSH2 0x74AA JUMP JUMPDEST SWAP6 POP POP PUSH1 0x20 PUSH2 0x8178 DUP9 DUP3 DUP10 ADD PUSH2 0x7FB4 JUMP JUMPDEST SWAP5 POP POP PUSH1 0x40 DUP7 ADD CALLDATALOAD PUSH8 0xFFFFFFFFFFFFFFFF DUP2 GT ISZERO PUSH2 0x8199 JUMPI PUSH2 0x8198 PUSH2 0x7487 JUMP JUMPDEST JUMPDEST PUSH2 0x81A5 DUP9 DUP3 DUP10 ADD PUSH2 0x800A JUMP JUMPDEST SWAP4 POP SWAP4 POP POP PUSH1 0x60 DUP7 ADD CALLDATALOAD PUSH8 0xFFFFFFFFFFFFFFFF DUP2 GT ISZERO PUSH2 0x81C8 JUMPI PUSH2 0x81C7 PUSH2 0x7487 JUMP JUMPDEST JUMPDEST PUSH2 0x81D4 DUP9 DUP3 DUP10 ADD PUSH2 0x7A42 JUMP JUMPDEST SWAP2 POP POP SWAP3 SWAP6 POP SWAP3 SWAP6 SWAP1 SWAP4 POP JUMP JUMPDEST PUSH2 0x81EA DUP2 PUSH2 0x75A7 JUMP JUMPDEST DUP2 EQ PUSH2 0x81F4 JUMPI PUSH0 DUP1 REVERT JUMPDEST POP JUMP JUMPDEST PUSH0 DUP2 CALLDATALOAD SWAP1 POP PUSH2 0x8205 DUP2 PUSH2 0x81E1 JUMP JUMPDEST SWAP3 SWAP2 POP POP JUMP JUMPDEST PUSH0 DUP1 PUSH0 PUSH1 0x60 DUP5 DUP7 SUB SLT ISZERO PUSH2 0x8222 JUMPI PUSH2 0x8221 PUSH2 0x7483 JUMP JUMPDEST JUMPDEST PUSH0 PUSH2 0x822F DUP7 DUP3 DUP8 ADD PUSH2 0x74AA JUMP JUMPDEST SWAP4 POP POP PUSH1 0x20 PUSH2 0x8240 DUP7 DUP3 DUP8 ADD PUSH2 0x81F7 JUMP JUMPDEST SWAP3 POP POP PUSH1 0x40 PUSH2 0x8251 DUP7 DUP3 DUP8 ADD PUSH2 0x74AA JUMP JUMPDEST SWAP2 POP POP SWAP3 POP SWAP3 POP SWAP3 JUMP JUMPDEST PUSH0 DUP3 DUP3 MSTORE PUSH1 0x20 DUP3 ADD SWAP1 POP SWAP3 SWAP2 POP POP JUMP JUMPDEST PUSH0 PUSH2 0x8275 DUP3 PUSH2 0x7537 JUMP JUMPDEST PUSH2 0x827F DUP2 DUP6 PUSH2 0x825B JUMP JUMPDEST SWAP4 POP PUSH2 0x828F DUP2 DUP6 PUSH1 0x20 DUP7 ADD PUSH2 0x7551 JUMP JUMPDEST PUSH2 0x8298 DUP2 PUSH2 0x755F JUMP JUMPDEST DUP5 ADD SWAP2 POP POP SWAP3 SWAP2 POP POP JUMP JUMPDEST PUSH2 0x82AC DUP2 PUSH2 0x7517 JUMP JUMPDEST DUP3 MSTORE POP POP JUMP JUMPDEST PUSH1 0x3 DUP2 LT PUSH2 0x82C3 JUMPI PUSH2 0x82C2 PUSH2 0x75C1 JUMP JUMPDEST JUMPDEST POP JUMP JUMPDEST PUSH0 DUP2 SWAP1 POP PUSH2 0x82D3 DUP3 PUSH2 0x82B2 JUMP JUMPDEST SWAP2 SWAP1 POP JUMP JUMPDEST PUSH0 PUSH2 0x82E2 DUP3 PUSH2 0x82C6 JUMP JUMPDEST SWAP1 POP SWAP2 SWAP1 POP JUMP JUMPDEST PUSH2 0x82F2 DUP2 PUSH2 0x82D8 JUMP JUMPDEST DUP3 MSTORE POP POP JUMP JUMPDEST PUSH2 0x8301 DUP2 PUSH2 0x748B JUMP JUMPDEST DUP3 MSTORE POP POP JUMP JUMPDEST PUSH0 PUSH1 0x80 DUP4 ADD PUSH0 DUP4 ADD MLOAD DUP5 DUP3 SUB PUSH0 DUP7 ADD MSTORE PUSH2 0x8321 DUP3 DUP3 PUSH2 0x826B JUMP JUMPDEST SWAP2 POP POP PUSH1 0x20 DUP4 ADD MLOAD PUSH2 0x8336 PUSH1 0x20 DUP7 ADD DUP3 PUSH2 0x82A3 JUMP JUMPDEST POP PUSH1 0x40 DUP4 ADD MLOAD PUSH2 0x8349 PUSH1 0x40 DUP7 ADD DUP3 PUSH2 0x82E9 JUMP JUMPDEST POP PUSH1 0x60 DUP4 ADD MLOAD PUSH2 0x835C PUSH1 0x60 DUP7 ADD DUP3 PUSH2 0x82F8 JUMP JUMPDEST POP DUP1 SWAP2 POP POP SWAP3 SWAP2 POP POP JUMP JUMPDEST PUSH0 PUSH1 0x20 DUP3 ADD SWAP1 POP DUP2 DUP2 SUB PUSH0 DUP4 ADD MSTORE PUSH2 0x837F DUP2 DUP5 PUSH2 0x8307 JUMP JUMPDEST SWAP1 POP SWAP3 SWAP2 POP POP JUMP JUMPDEST PUSH0 DUP1 PUSH0 DUP1 PUSH1 0x60 DUP6 DUP8 SUB SLT ISZERO PUSH2 0x839F JUMPI PUSH2 0x839E PUSH2 0x7483 JUMP JUMPDEST JUMPDEST PUSH0 PUSH2 0x83AC DUP8 DUP3 DUP9 ADD PUSH2 0x74AA JUMP JUMPDEST SWAP5 POP POP PUSH1 0x20 PUSH2 0x83BD DUP8 DUP3 DUP9 ADD PUSH2 0x7FB4 JUMP JUMPDEST SWAP4 POP POP PUSH1 0x40 DUP6 ADD CALLDATALOAD PUSH8 0xFFFFFFFFFFFFFFFF DUP2 GT ISZERO PUSH2 0x83DE JUMPI PUSH2 0x83DD PUSH2 0x7487 JUMP JUMPDEST JUMPDEST PUSH2 0x83EA DUP8 DUP3 DUP9 ADD PUSH2 0x800A JUMP JUMPDEST SWAP3 POP SWAP3 POP POP SWAP3 SWAP6 SWAP2 SWAP5 POP SWAP3 POP JUMP JUMPDEST PUSH0 DUP1 PUSH0 DUP1 PUSH1 0x80 DUP6 DUP8 SUB SLT ISZERO PUSH2 0x8410 JUMPI PUSH2 0x840F PUSH2 0x7483 JUMP JUMPDEST JUMPDEST PUSH0 DUP6 ADD CALLDATALOAD PUSH8 0xFFFFFFFFFFFFFFFF DUP2 GT ISZERO PUSH2 0x842D JUMPI PUSH2 0x842C PUSH2 0x7487 JUMP JUMPDEST JUMPDEST PUSH2 0x8439 DUP8 DUP3 DUP9 ADD PUSH2 0x7BAE JUMP JUMPDEST SWAP5 POP POP PUSH1 0x20 DUP6 ADD CALLDATALOAD PUSH8 0xFFFFFFFFFFFFFFFF DUP2 GT ISZERO PUSH2 0x845A JUMPI PUSH2 0x8459 PUSH2 0x7487 JUMP JUMPDEST JUMPDEST PUSH2 0x8466 DUP8 DUP3 DUP9 ADD PUSH2 0x7C6E JUMP JUMPDEST SWAP4 POP POP PUSH1 0x40 DUP6 ADD CALLDATALOAD PUSH8 0xFFFFFFFFFFFFFFFF DUP2 GT ISZERO PUSH2 0x8487 JUMPI PUSH2 0x8486 PUSH2 0x7487 JUMP JUMPDEST JUMPDEST PUSH2 0x8493 DUP8 DUP3 DUP9 ADD PUSH2 0x7D4C JUMP JUMPDEST SWAP3 POP POP PUSH1 0x60 DUP6 ADD CALLDATALOAD PUSH8 0xFFFFFFFFFFFFFFFF DUP2 GT ISZERO PUSH2 0x84B4 JUMPI PUSH2 0x84B3 PUSH2 0x7487 JUMP JUMPDEST JUMPDEST PUSH2 0x84C0 DUP8 DUP3 DUP9 ADD PUSH2 0x78AB JUMP JUMPDEST SWAP2 POP POP SWAP3 SWAP6 SWAP2 SWAP5 POP SWAP3 POP JUMP JUMPDEST PUSH0 PUSH32 0xFF00000000000000000000000000000000000000000000000000000000000000 DUP3 AND SWAP1 POP SWAP2 SWAP1 POP JUMP JUMPDEST PUSH2 0x8500 DUP2 PUSH2 0x84CC JUMP JUMPDEST DUP3 MSTORE POP POP JUMP JUMPDEST PUSH0 DUP2 MLOAD SWAP1 POP SWAP2 SWAP1 POP JUMP JUMPDEST PUSH0 DUP3 DUP3 MSTORE PUSH1 0x20 DUP3 ADD SWAP1 POP SWAP3 SWAP2 POP POP JUMP JUMPDEST PUSH0 DUP2 SWAP1 POP PUSH1 0x20 DUP3 ADD SWAP1 POP SWAP2 SWAP1 POP JUMP JUMPDEST PUSH0 PUSH2 0x853A DUP4 DUP4 PUSH2 0x82F8 JUMP JUMPDEST PUSH1 0x20 DUP4 ADD SWAP1 POP SWAP3 SWAP2 POP POP JUMP JUMPDEST PUSH0 PUSH1 0x20 DUP3 ADD SWAP1 POP SWAP2 SWAP1 POP JUMP JUMPDEST PUSH0 PUSH2 0x855C DUP3 PUSH2 0x8506 JUMP JUMPDEST PUSH2 0x8566 DUP2 DUP6 PUSH2 0x8510 JUMP JUMPDEST SWAP4 POP PUSH2 0x8571 DUP4 PUSH2 0x8520 JUMP JUMPDEST DUP1 PUSH0 JUMPDEST DUP4 DUP2 LT ISZERO PUSH2 0x85A1 JUMPI DUP2 MLOAD PUSH2 0x8588 DUP9 DUP3 PUSH2 0x852F JUMP JUMPDEST SWAP8 POP PUSH2 0x8593 DUP4 PUSH2 0x8546 JUMP JUMPDEST SWAP3 POP POP PUSH1 0x1 DUP2 ADD SWAP1 POP PUSH2 0x8574 JUMP JUMPDEST POP DUP6 SWAP4 POP POP POP POP SWAP3 SWAP2 POP POP JUMP JUMPDEST PUSH0 PUSH1 0xE0 DUP3 ADD SWAP1 POP PUSH2 0x85C1 PUSH0 DUP4 ADD DUP11 PUSH2 0x84F7 JUMP JUMPDEST DUP2 DUP2 SUB PUSH1 0x20 DUP4 ADD MSTORE PUSH2 0x85D3 DUP2 DUP10 PUSH2 0x756F JUMP JUMPDEST SWAP1 POP DUP2 DUP2 SUB PUSH1 0x40 DUP4 ADD MSTORE PUSH2 0x85E7 DUP2 DUP9 PUSH2 0x756F JUMP JUMPDEST SWAP1 POP PUSH2 0x85F6 PUSH1 0x60 DUP4 ADD DUP8 PUSH2 0x74E9 JUMP JUMPDEST PUSH2 0x8603 PUSH1 0x80 DUP4 ADD DUP7 PUSH2 0x7528 JUMP JUMPDEST PUSH2 0x8610 PUSH1 0xA0 DUP4 ADD DUP6 PUSH2 0x7E64 JUMP JUMPDEST DUP2 DUP2 SUB PUSH1 0xC0 DUP4 ADD MSTORE PUSH2 0x8622 DUP2 DUP5 PUSH2 0x8552 JUMP JUMPDEST SWAP1 POP SWAP9 SWAP8 POP POP POP POP POP POP POP POP JUMP JUMPDEST PUSH0 DUP1 PUSH0 DUP1 PUSH1 0x80 DUP6 DUP8 SUB SLT ISZERO PUSH2 0x8648 JUMPI PUSH2 0x8647 PUSH2 0x7483 JUMP JUMPDEST JUMPDEST PUSH0 PUSH2 0x8655 DUP8 DUP3 DUP9 ADD PUSH2 0x74AA JUMP JUMPDEST SWAP5 POP POP PUSH1 0x20 PUSH2 0x8666 DUP8 DUP3 DUP9 ADD PUSH2 0x7FB4 JUMP JUMPDEST SWAP4 POP POP PUSH1 0x40 PUSH2 0x8677 DUP8 DUP3 DUP9 ADD PUSH2 0x7911 JUMP JUMPDEST SWAP3 POP POP PUSH1 0x60 DUP6 ADD CALLDATALOAD PUSH8 0xFFFFFFFFFFFFFFFF DUP2 GT ISZERO PUSH2 0x8698 JUMPI PUSH2 0x8697 PUSH2 0x7487 JUMP JUMPDEST JUMPDEST PUSH2 0x86A4 DUP8 DUP3 DUP9 ADD PUSH2 0x7A42 JUMP JUMPDEST SWAP2 POP POP SWAP3 SWAP6 SWAP2 SWAP5 POP SWAP3 POP JUMP JUMPDEST PUSH0 DUP1 PUSH1 0x40 DUP4 DUP6 SUB SLT ISZERO PUSH2 0x86C6 JUMPI PUSH2 0x86C5 PUSH2 0x7483 JUMP JUMPDEST JUMPDEST PUSH0 PUSH2 0x86D3 DUP6 DUP3 DUP7 ADD PUSH2 0x74AA JUMP JUMPDEST SWAP3 POP POP PUSH1 0x20 PUSH2 0x86E4 DUP6 DUP3 DUP7 ADD PUSH2 0x74AA JUMP JUMPDEST SWAP2 POP POP SWAP3 POP SWAP3 SWAP1 POP JUMP JUMPDEST PUSH0 PUSH6 0xFFFFFFFFFFFF DUP3 AND SWAP1 POP SWAP2 SWAP1 POP JUMP JUMPDEST PUSH2 0x8708 DUP2 PUSH2 0x86EE JUMP JUMPDEST DUP3 MSTORE POP POP JUMP JUMPDEST PUSH0 PUSH1 0x20 DUP3 ADD SWAP1 POP PUSH2 0x8721 PUSH0 DUP4 ADD DUP5 PUSH2 0x86FF JUMP JUMPDEST SWAP3 SWAP2 POP POP JUMP JUMPDEST PUSH0 PUSH1 0x80 DUP3 ADD SWAP1 POP PUSH2 0x873A PUSH0 DUP4 ADD DUP8 PUSH2 0x74E9 JUMP JUMPDEST PUSH2 0x8747 PUSH1 0x20 DUP4 ADD DUP7 PUSH2 0x7528 JUMP JUMPDEST PUSH2 0x8754 PUSH1 0x40 DUP4 ADD DUP6 PUSH2 0x74E9 JUMP JUMPDEST PUSH2 0x8761 PUSH1 0x60 DUP4 ADD DUP5 PUSH2 0x75B2 JUMP JUMPDEST SWAP6 SWAP5 POP POP POP POP POP JUMP JUMPDEST PUSH0 DUP1 PUSH0 PUSH1 0x60 DUP5 DUP7 SUB SLT ISZERO PUSH2 0x8781 JUMPI PUSH2 0x8780 PUSH2 0x7483 JUMP JUMPDEST JUMPDEST PUSH0 PUSH2 0x878E DUP7 DUP3 DUP8 ADD PUSH2 0x7911 JUMP JUMPDEST SWAP4 POP POP PUSH1 0x20 PUSH2 0x879F DUP7 DUP3 DUP8 ADD PUSH2 0x74AA JUMP JUMPDEST SWAP3 POP POP PUSH1 0x40 DUP5 ADD CALLDATALOAD PUSH8 0xFFFFFFFFFFFFFFFF DUP2 GT ISZERO PUSH2 0x87C0 JUMPI PUSH2 0x87BF PUSH2 0x7487 JUMP JUMPDEST JUMPDEST PUSH2 0x87CC DUP7 DUP3 DUP8 ADD PUSH2 0x7A42 JUMP JUMPDEST SWAP2 POP POP SWAP3 POP SWAP3 POP SWAP3 JUMP JUMPDEST PUSH1 0x5 DUP2 LT PUSH2 0x87E7 JUMPI PUSH2 0x87E6 PUSH2 0x75C1 JUMP JUMPDEST JUMPDEST POP JUMP JUMPDEST PUSH0 DUP2 SWAP1 POP PUSH2 0x87F7 DUP3 PUSH2 0x87D6 JUMP JUMPDEST SWAP2 SWAP1 POP JUMP JUMPDEST PUSH0 PUSH2 0x8806 DUP3 PUSH2 0x87EA JUMP JUMPDEST SWAP1 POP SWAP2 SWAP1 POP JUMP JUMPDEST PUSH2 0x8816 DUP2 PUSH2 0x87FC JUMP JUMPDEST DUP3 MSTORE POP POP JUMP JUMPDEST PUSH1 0x3 DUP2 LT PUSH2 0x882D JUMPI PUSH2 0x882C PUSH2 0x75C1 JUMP JUMPDEST JUMPDEST POP JUMP JUMPDEST PUSH0 DUP2 SWAP1 POP PUSH2 0x883D DUP3 PUSH2 0x881C JUMP JUMPDEST SWAP2 SWAP1 POP JUMP JUMPDEST PUSH0 PUSH2 0x884C DUP3 PUSH2 0x8830 JUMP JUMPDEST SWAP1 POP SWAP2 SWAP1 POP JUMP JUMPDEST PUSH2 0x885C DUP2 PUSH2 0x8842 JUMP JUMPDEST DUP3 MSTORE POP POP JUMP JUMPDEST PUSH0 PUSH2 0x120 DUP3 ADD SWAP1 POP PUSH2 0x8876 PUSH0 DUP4 ADD DUP13 PUSH2 0x7528 JUMP JUMPDEST DUP2 DUP2 SUB PUSH1 0x20 DUP4 ADD MSTORE PUSH2 0x8888 DUP2 DUP12 PUSH2 0x756F JUMP JUMPDEST SWAP1 POP PUSH2 0x8897 PUSH1 0x40 DUP4 ADD DUP11 PUSH2 0x74E9 JUMP JUMPDEST PUSH2 0x88A4 PUSH1 0x60 DUP4 ADD DUP10 PUSH2 0x74E9 JUMP JUMPDEST PUSH2 0x88B1 PUSH1 0x80 DUP4 ADD DUP9 PUSH2 0x880D JUMP JUMPDEST PUSH2 0x88BE PUSH1 0xA0 DUP4 ADD DUP8 PUSH2 0x8853 JUMP JUMPDEST PUSH2 0x88CB PUSH1 0xC0 DUP4 ADD DUP7 PUSH2 0x74E9 JUMP JUMPDEST PUSH2 0x88D8 PUSH1 0xE0 DUP4 ADD DUP6 PUSH2 0x74E9 JUMP JUMPDEST PUSH2 0x88E6 PUSH2 0x100 DUP4 ADD DUP5 PUSH2 0x74E9 JUMP JUMPDEST SWAP11 SWAP10 POP POP POP POP POP POP POP POP POP POP JUMP JUMPDEST PUSH0 DUP1 PUSH0 DUP1 PUSH0 PUSH1 0xA0 DUP7 DUP9 SUB SLT ISZERO PUSH2 0x890D JUMPI PUSH2 0x890C PUSH2 0x7483 JUMP JUMPDEST JUMPDEST PUSH0 PUSH2 0x891A DUP9 DUP3 DUP10 ADD PUSH2 0x7911 JUMP JUMPDEST SWAP6 POP POP PUSH1 0x20 PUSH2 0x892B DUP9 DUP3 DUP10 ADD PUSH2 0x7911 JUMP JUMPDEST SWAP5 POP POP PUSH1 0x40 DUP7 ADD CALLDATALOAD PUSH8 0xFFFFFFFFFFFFFFFF DUP2 GT ISZERO PUSH2 0x894C JUMPI PUSH2 0x894B PUSH2 0x7487 JUMP JUMPDEST JUMPDEST PUSH2 0x8958 DUP9 DUP3 DUP10 ADD PUSH2 0x7C6E JUMP JUMPDEST SWAP4 POP POP PUSH1 0x60 DUP7 ADD CALLDATALOAD PUSH8 0xFFFFFFFFFFFFFFFF DUP2 GT ISZERO PUSH2 0x8979 JUMPI PUSH2 0x8978 PUSH2 0x7487 JUMP JUMPDEST JUMPDEST PUSH2 0x8985 DUP9 DUP3 DUP10 ADD PUSH2 0x7C6E JUMP JUMPDEST SWAP3 POP POP PUSH1 0x80 DUP7 ADD CALLDATALOAD PUSH8 0xFFFFFFFFFFFFFFFF DUP2 GT ISZERO PUSH2 0x89A6 JUMPI PUSH2 0x89A5 PUSH2 0x7487 JUMP JUMPDEST JUMPDEST PUSH2 0x89B2 DUP9 DUP3 DUP10 ADD PUSH2 0x7A42 JUMP JUMPDEST SWAP2 POP POP SWAP3 SWAP6 POP SWAP3 SWAP6 SWAP1 SWAP4 POP JUMP JUMPDEST PUSH0 DUP1 DUP4 PUSH1 0x1F DUP5 ADD SLT PUSH2 0x89D4 JUMPI PUSH2 0x89D3 PUSH2 0x77AC JUMP JUMPDEST JUMPDEST DUP3 CALLDATALOAD SWAP1 POP PUSH8 0xFFFFFFFFFFFFFFFF DUP2 GT ISZERO PUSH2 0x89F1 JUMPI PUSH2 0x89F0 PUSH2 0x8006 JUMP JUMPDEST JUMPDEST PUSH1 0x20 DUP4 ADD SWAP2 POP DUP4 PUSH1 0x1 DUP3 MUL DUP4 ADD GT ISZERO PUSH2 0x8A0D JUMPI PUSH2 0x8A0C PUSH2 0x7B42 JUMP JUMPDEST JUMPDEST SWAP3 POP SWAP3 SWAP1 POP JUMP JUMPDEST PUSH0 DUP1 PUSH0 DUP1 PUSH1 0x60 DUP6 DUP8 SUB SLT ISZERO PUSH2 0x8A2C JUMPI PUSH2 0x8A2B PUSH2 0x7483 JUMP JUMPDEST JUMPDEST PUSH0 PUSH2 0x8A39 DUP8 DUP3 DUP9 ADD PUSH2 0x7911 JUMP JUMPDEST SWAP5 POP POP PUSH1 0x20 PUSH2 0x8A4A DUP8 DUP3 DUP9 ADD PUSH2 0x74AA JUMP JUMPDEST SWAP4 POP POP PUSH1 0x40 DUP6 ADD CALLDATALOAD PUSH8 0xFFFFFFFFFFFFFFFF DUP2 GT ISZERO PUSH2 0x8A6B JUMPI PUSH2 0x8A6A PUSH2 0x7487 JUMP JUMPDEST JUMPDEST PUSH2 0x8A77 DUP8 DUP3 DUP9 ADD PUSH2 0x89BF JUMP JUMPDEST SWAP3 POP SWAP3 POP POP SWAP3 SWAP6 SWAP2 SWAP5 POP SWAP3 POP JUMP JUMPDEST PUSH2 0x8A8E DUP2 PUSH2 0x75A7 JUMP JUMPDEST DUP3 MSTORE POP POP JUMP JUMPDEST PUSH2 0x8A9D DUP2 PUSH2 0x7614 JUMP JUMPDEST DUP3 MSTORE POP POP JUMP JUMPDEST PUSH0 PUSH2 0x100 DUP4 ADD PUSH0 DUP4 ADD MLOAD PUSH2 0x8AB9 PUSH0 DUP7 ADD DUP3 PUSH2 0x82F8 JUMP JUMPDEST POP PUSH1 0x20 DUP4 ADD MLOAD PUSH2 0x8ACC PUSH1 0x20 DUP7 ADD DUP3 PUSH2 0x82A3 JUMP JUMPDEST POP PUSH1 0x40 DUP4 ADD MLOAD DUP5 DUP3 SUB PUSH1 0x40 DUP7 ADD MSTORE PUSH2 0x8AE4 DUP3 DUP3 PUSH2 0x826B JUMP JUMPDEST SWAP2 POP POP PUSH1 0x60 DUP4 ADD MLOAD PUSH2 0x8AF9 PUSH1 0x60 DUP7 ADD DUP3 PUSH2 0x82F8 JUMP JUMPDEST POP PUSH1 0x80 DUP4 ADD MLOAD PUSH2 0x8B0C PUSH1 0x80 DUP7 ADD DUP3 PUSH2 0x8A85 JUMP JUMPDEST POP PUSH1 0xA0 DUP4 ADD MLOAD PUSH2 0x8B1F PUSH1 0xA0 DUP7 ADD DUP3 PUSH2 0x8A94 JUMP JUMPDEST POP PUSH1 0xC0 DUP4 ADD MLOAD PUSH2 0x8B32 PUSH1 0xC0 DUP7 ADD DUP3 PUSH2 0x82A3 JUMP JUMPDEST POP PUSH1 0xE0 DUP4 ADD MLOAD PUSH2 0x8B45 PUSH1 0xE0 DUP7 ADD DUP3 PUSH2 0x82F8 JUMP JUMPDEST POP DUP1 SWAP2 POP POP SWAP3 SWAP2 POP POP JUMP JUMPDEST PUSH0 PUSH1 0x20 DUP3 ADD SWAP1 POP DUP2 DUP2 SUB PUSH0 DUP4 ADD MSTORE PUSH2 0x8B68 DUP2 DUP5 PUSH2 0x8AA3 JUMP JUMPDEST SWAP1 POP SWAP3 SWAP2 POP POP JUMP JUMPDEST PUSH1 0x5 DUP2 LT PUSH2 0x8B7C JUMPI PUSH0 DUP1 REVERT JUMPDEST POP JUMP JUMPDEST PUSH0 DUP2 CALLDATALOAD SWAP1 POP PUSH2 0x8B8D DUP2 PUSH2 0x8B70 JUMP JUMPDEST SWAP3 SWAP2 POP POP JUMP JUMPDEST PUSH0 DUP1 PUSH1 0x40 DUP4 DUP6 SUB SLT ISZERO PUSH2 0x8BA9 JUMPI PUSH2 0x8BA8 PUSH2 0x7483 JUMP JUMPDEST JUMPDEST PUSH0 PUSH2 0x8BB6 DUP6 DUP3 DUP7 ADD PUSH2 0x8B7F JUMP JUMPDEST SWAP3 POP POP PUSH1 0x20 PUSH2 0x8BC7 DUP6 DUP3 DUP7 ADD PUSH2 0x74AA JUMP JUMPDEST SWAP2 POP POP SWAP3 POP SWAP3 SWAP1 POP JUMP JUMPDEST PUSH0 DUP1 PUSH0 PUSH1 0x60 DUP5 DUP7 SUB SLT ISZERO PUSH2 0x8BE8 JUMPI PUSH2 0x8BE7 PUSH2 0x7483 JUMP JUMPDEST JUMPDEST PUSH0 PUSH2 0x8BF5 DUP7 DUP3 DUP8 ADD PUSH2 0x74AA JUMP JUMPDEST SWAP4 POP POP PUSH1 0x20 PUSH2 0x8C06 DUP7 DUP3 DUP8 ADD PUSH2 0x7911 JUMP JUMPDEST SWAP3 POP POP PUSH1 0x40 PUSH2 0x8C17 DUP7 DUP3 DUP8 ADD PUSH2 0x74AA JUMP JUMPDEST SWAP2 POP POP SWAP3 POP SWAP3 POP SWAP3 JUMP JUMPDEST PUSH0 DUP1 PUSH0 DUP1 PUSH0 PUSH1 0xA0 DUP7 DUP9 SUB SLT ISZERO PUSH2 0x8C3A JUMPI PUSH2 0x8C39 PUSH2 0x7483 JUMP JUMPDEST JUMPDEST PUSH0 PUSH2 0x8C47 DUP9 DUP3 DUP10 ADD PUSH2 0x7911 JUMP JUMPDEST SWAP6 POP POP PUSH1 0x20 PUSH2 0x8C58 DUP9 DUP3 DUP10 ADD PUSH2 0x7911 JUMP JUMPDEST SWAP5 POP POP PUSH1 0x40 PUSH2 0x8C69 DUP9 DUP3 DUP10 ADD PUSH2 0x74AA JUMP JUMPDEST SWAP4 POP POP PUSH1 0x60 PUSH2 0x8C7A DUP9 DUP3 DUP10 ADD PUSH2 0x74AA JUMP JUMPDEST SWAP3 POP POP PUSH1 0x80 DUP7 ADD CALLDATALOAD PUSH8 0xFFFFFFFFFFFFFFFF DUP2 GT ISZERO PUSH2 0x8C9B JUMPI PUSH2 0x8C9A PUSH2 0x7487 JUMP JUMPDEST JUMPDEST PUSH2 0x8CA7 DUP9 DUP3 DUP10 ADD PUSH2 0x7A42 JUMP JUMPDEST SWAP2 POP POP SWAP3 SWAP6 POP SWAP3 SWAP6 SWAP1 SWAP4 POP JUMP JUMPDEST PUSH1 0x3 DUP2 LT PUSH2 0x8CC0 JUMPI PUSH0 DUP1 REVERT JUMPDEST POP JUMP JUMPDEST PUSH0 DUP2 CALLDATALOAD SWAP1 POP PUSH2 0x8CD1 DUP2 PUSH2 0x8CB4 JUMP JUMPDEST SWAP3 SWAP2 POP POP JUMP JUMPDEST PUSH0 DUP1 PUSH0 PUSH1 0x60 DUP5 DUP7 SUB SLT ISZERO PUSH2 0x8CEE JUMPI PUSH2 0x8CED PUSH2 0x7483 JUMP JUMPDEST JUMPDEST PUSH0 PUSH2 0x8CFB DUP7 DUP3 DUP8 ADD PUSH2 0x7911 JUMP JUMPDEST SWAP4 POP POP PUSH1 0x20 DUP5 ADD CALLDATALOAD PUSH8 0xFFFFFFFFFFFFFFFF DUP2 GT ISZERO PUSH2 0x8D1C JUMPI PUSH2 0x8D1B PUSH2 0x7487 JUMP JUMPDEST JUMPDEST PUSH2 0x8D28 DUP7 DUP3 DUP8 ADD PUSH2 0x78AB JUMP JUMPDEST SWAP3 POP POP PUSH1 0x40 PUSH2 0x8D39 DUP7 DUP3 DUP8 ADD PUSH2 0x8CC3 JUMP JUMPDEST SWAP2 POP POP SWAP3 POP SWAP3 POP SWAP3 JUMP JUMPDEST PUSH32 0x4E487B7100000000000000000000000000000000000000000000000000000000 PUSH0 MSTORE PUSH1 0x22 PUSH1 0x4 MSTORE PUSH1 0x24 PUSH0 REVERT JUMPDEST PUSH0 PUSH1 0x2 DUP3 DIV SWAP1 POP PUSH1 0x1 DUP3 AND DUP1 PUSH2 0x8D87 JUMPI PUSH1 0x7F DUP3 AND SWAP2 POP JUMPDEST PUSH1 0x20 DUP3 LT DUP2 SUB PUSH2 0x8D9A JUMPI PUSH2 0x8D99 PUSH2 0x8D43 JUMP JUMPDEST JUMPDEST POP SWAP2 SWAP1 POP JUMP JUMPDEST PUSH32 0x4E487B7100000000000000000000000000000000000000000000000000000000 PUSH0 MSTORE PUSH1 0x32 PUSH1 0x4 MSTORE PUSH1 0x24 PUSH0 REVERT JUMPDEST PUSH0 PUSH1 0x40 DUP3 ADD SWAP1 POP PUSH2 0x8DE0 PUSH0 DUP4 ADD DUP6 PUSH2 0x7528 JUMP JUMPDEST PUSH2 0x8DED PUSH1 0x20 DUP4 ADD DUP5 PUSH2 0x74E9 JUMP JUMPDEST SWAP4 SWAP3 POP POP POP JUMP JUMPDEST PUSH32 0x50726F706F73616C20616C726561647920657865637574656400000000000000 PUSH0 DUP3 ADD MSTORE POP JUMP JUMPDEST PUSH0 PUSH2 0x8E28 PUSH1 0x19 DUP4 PUSH2 0x7541 JUMP JUMPDEST SWAP2 POP PUSH2 0x8E33 DUP3 PUSH2 0x8DF4 JUMP JUMPDEST PUSH1 0x20 DUP3 ADD SWAP1 POP SWAP2 SWAP1 POP JUMP JUMPDEST PUSH0 PUSH1 0x20 DUP3 ADD SWAP1 POP DUP2 DUP2 SUB PUSH0 DUP4 ADD MSTORE PUSH2 0x8E55 DUP2 PUSH2 0x8E1C JUMP JUMPDEST SWAP1 POP SWAP2 SWAP1 POP JUMP JUMPDEST PUSH32 0x566F74696E67206973207374696C6C206F6E676F696E67000000000000000000 PUSH0 DUP3 ADD MSTORE POP JUMP JUMPDEST PUSH0 PUSH2 0x8E90 PUSH1 0x17 DUP4 PUSH2 0x7541 JUMP JUMPDEST SWAP2 POP PUSH2 0x8E9B DUP3 PUSH2 0x8E5C JUMP JUMPDEST PUSH1 0x20 DUP3 ADD SWAP1 POP SWAP2 SWAP1 POP JUMP JUMPDEST PUSH0 PUSH1 0x20 DUP3 ADD SWAP1 POP DUP2 DUP2 SUB PUSH0 DUP4 ADD MSTORE PUSH2 0x8EBD DUP2 PUSH2 0x8E84 JUMP JUMPDEST SWAP1 POP SWAP2 SWAP1 POP JUMP JUMPDEST PUSH0 DUP2 SWAP1 POP SWAP2 SWAP1 POP JUMP JUMPDEST PUSH0 PUSH2 0x8EE7 PUSH2 0x8EE2 PUSH2 0x8EDD DUP5 PUSH2 0x86EE JUMP JUMPDEST PUSH2 0x8EC4 JUMP JUMPDEST PUSH2 0x748B JUMP JUMPDEST SWAP1 POP SWAP2 SWAP1 POP JUMP JUMPDEST PUSH2 0x8EF7 DUP2 PUSH2 0x8ECD JUMP JUMPDEST DUP3 MSTORE POP POP JUMP JUMPDEST PUSH0 PUSH1 0x40 DUP3 ADD SWAP1 POP PUSH2 0x8F10 PUSH0 DUP4 ADD DUP6 PUSH2 0x74E9 JUMP JUMPDEST PUSH2 0x8F1D PUSH1 0x20 DUP4 ADD DUP5 PUSH2 0x8EEE JUMP JUMPDEST SWAP4 SWAP3 POP POP POP JUMP JUMPDEST PUSH32 0x4E487B7100000000000000000000000000000000000000000000000000000000 PUSH0 MSTORE PUSH1 0x11 PUSH1 0x4 MSTORE PUSH1 0x24 PUSH0 REVERT JUMPDEST PUSH0 PUSH2 0x8F5B DUP3 PUSH2 0x748B JUMP JUMPDEST SWAP2 POP PUSH2 0x8F66 DUP4 PUSH2 0x748B JUMP JUMPDEST SWAP3 POP DUP3 DUP3 MUL PUSH2 0x8F74 DUP2 PUSH2 0x748B JUMP JUMPDEST SWAP2 POP DUP3 DUP3 DIV DUP5 EQ DUP4 ISZERO OR PUSH2 0x8F8B JUMPI PUSH2 0x8F8A PUSH2 0x8F24 JUMP JUMPDEST JUMPDEST POP SWAP3 SWAP2 POP POP JUMP JUMPDEST PUSH0 DUP2 MLOAD SWAP1 POP PUSH2 0x8FA0 DUP2 PUSH2 0x7F9E JUMP JUMPDEST SWAP3 SWAP2 POP POP JUMP JUMPDEST PUSH0 PUSH1 0x20 DUP3 DUP5 SUB SLT ISZERO PUSH2 0x8FBB JUMPI PUSH2 0x8FBA PUSH2 0x7483 JUMP JUMPDEST JUMPDEST PUSH0 PUSH2 0x8FC8 DUP5 DUP3 DUP6 ADD PUSH2 0x8F92 JUMP JUMPDEST SWAP2 POP POP SWAP3 SWAP2 POP POP JUMP JUMPDEST PUSH0 DUP2 PUSH1 0x1 SHR SWAP1 POP SWAP2 SWAP1 POP JUMP JUMPDEST PUSH0 DUP1 DUP3 SWAP2 POP DUP4 SWAP1 POP JUMPDEST PUSH1 0x1 DUP6 GT ISZERO PUSH2 0x9026 JUMPI DUP1 DUP7 DIV DUP2 GT ISZERO PUSH2 0x9002 JUMPI PUSH2 0x9001 PUSH2 0x8F24 JUMP JUMPDEST JUMPDEST PUSH1 0x1 DUP6 AND ISZERO PUSH2 0x9011 JUMPI DUP1 DUP3 MUL SWAP2 POP JUMPDEST DUP1 DUP2 MUL SWAP1 POP PUSH2 0x901F DUP6 PUSH2 0x8FD1 JUMP JUMPDEST SWAP5 POP PUSH2 0x8FE6 JUMP JUMPDEST SWAP5 POP SWAP5 SWAP3 POP POP POP JUMP JUMPDEST PUSH0 DUP3 PUSH2 0x903E JUMPI PUSH1 0x1 SWAP1 POP PUSH2 0x90F9 JUMP JUMPDEST DUP2 PUSH2 0x904B JUMPI PUSH0 SWAP1 POP PUSH2 0x90F9 JUMP JUMPDEST DUP2 PUSH1 0x1 DUP2 EQ PUSH2 0x9061 JUMPI PUSH1 0x2 DUP2 EQ PUSH2 0x906B JUMPI PUSH2 0x909A JUMP JUMPDEST PUSH1 0x1 SWAP2 POP POP PUSH2 0x90F9 JUMP JUMPDEST PUSH1 0xFF DUP5 GT ISZERO PUSH2 0x907D JUMPI PUSH2 0x907C PUSH2 0x8F24 JUMP JUMPDEST JUMPDEST DUP4 PUSH1 0x2 EXP SWAP2 POP DUP5 DUP3 GT ISZERO PUSH2 0x9094 JUMPI PUSH2 0x9093 PUSH2 0x8F24 JUMP JUMPDEST JUMPDEST POP PUSH2 0x90F9 JUMP JUMPDEST POP PUSH1 0x20 DUP4 LT PUSH2 0x133 DUP4 LT AND PUSH1 0x4E DUP5 LT PUSH1 0xB DUP5 LT AND OR ISZERO PUSH2 0x90CF JUMPI DUP3 DUP3 EXP SWAP1 POP DUP4 DUP2 GT ISZERO PUSH2 0x90CA JUMPI PUSH2 0x90C9 PUSH2 0x8F24 JUMP JUMPDEST JUMPDEST PUSH2 0x90F9 JUMP JUMPDEST PUSH2 0x90DC DUP5 DUP5 DUP5 PUSH1 0x1 PUSH2 0x8FDD JUMP JUMPDEST SWAP3 POP SWAP1 POP DUP2 DUP5 DIV DUP2 GT ISZERO PUSH2 0x90F3 JUMPI PUSH2 0x90F2 PUSH2 0x8F24 JUMP JUMPDEST JUMPDEST DUP2 DUP2 MUL SWAP1 POP JUMPDEST SWAP4 SWAP3 POP POP POP JUMP JUMPDEST PUSH0 PUSH2 0x910A DUP3 PUSH2 0x748B JUMP JUMPDEST SWAP2 POP PUSH2 0x9115 DUP4 PUSH2 0x7F92 JUMP JUMPDEST SWAP3 POP PUSH2 0x9142 PUSH32 0xFFFFFFFFFFFFFFFFFFFFFFFFFFFFFFFFFFFFFFFFFFFFFFFFFFFFFFFFFFFFFFFF DUP5 DUP5 PUSH2 0x902F JUMP JUMPDEST SWAP1 POP SWAP3 SWAP2 POP POP JUMP JUMPDEST PUSH0 PUSH1 0x60 DUP3 ADD SWAP1 POP PUSH2 0x915D PUSH0 DUP4 ADD DUP7 PUSH2 0x7528 JUMP JUMPDEST PUSH2 0x916A PUSH1 0x20 DUP4 ADD DUP6 PUSH2 0x7528 JUMP JUMPDEST PUSH2 0x9177 PUSH1 0x40 DUP4 ADD DUP5 PUSH2 0x74E9 JUMP JUMPDEST SWAP5 SWAP4 POP POP POP POP JUMP JUMPDEST PUSH0 DUP2 MLOAD SWAP1 POP PUSH2 0x918D DUP2 PUSH2 0x81E1 JUMP JUMPDEST SWAP3 SWAP2 POP POP JUMP JUMPDEST PUSH0 PUSH1 0x20 DUP3 DUP5 SUB SLT ISZERO PUSH2 0x91A8 JUMPI PUSH2 0x91A7 PUSH2 0x7483 JUMP JUMPDEST JUMPDEST PUSH0 PUSH2 0x91B5 DUP5 DUP3 DUP6 ADD PUSH2 0x917F JUMP JUMPDEST SWAP2 POP POP SWAP3 SWAP2 POP POP JUMP JUMPDEST PUSH0 PUSH2 0x91C8 DUP3 PUSH2 0x748B JUMP JUMPDEST SWAP2 POP PUSH2 0x91D3 DUP4 PUSH2 0x748B JUMP JUMPDEST SWAP3 POP DUP3 DUP3 ADD SWAP1 POP DUP1 DUP3 GT ISZERO PUSH2 0x91EB JUMPI PUSH2 0x91EA PUSH2 0x8F24 JUMP JUMPDEST JUMPDEST SWAP3 SWAP2 POP POP JUMP JUMPDEST PUSH0 DUP2 MLOAD SWAP1 POP PUSH2 0x91FF DUP2 PUSH2 0x7494 JUMP JUMPDEST SWAP3 SWAP2 POP POP JUMP JUMPDEST PUSH0 PUSH1 0x20 DUP3 DUP5 SUB SLT ISZERO PUSH2 0x921A JUMPI PUSH2 0x9219 PUSH2 0x7483 JUMP JUMPDEST JUMPDEST PUSH0 PUSH2 0x9227 DUP5 DUP3 DUP6 ADD PUSH2 0x91F1 JUMP JUMPDEST SWAP2 POP POP SWAP3 SWAP2 POP POP JUMP JUMPDEST PUSH32 0x4F6E6C7920696E69746961746F722063616E2063616E63656C00000000000000 PUSH0 DUP3 ADD MSTORE POP JUMP JUMPDEST PUSH0 PUSH2 0x9264 PUSH1 0x19 DUP4 PUSH2 0x7541 JUMP JUMPDEST SWAP2 POP PUSH2 0x926F DUP3 PUSH2 0x9230 JUMP JUMPDEST PUSH1 0x20 DUP3 ADD SWAP1 POP SWAP2 SWAP1 POP JUMP JUMPDEST PUSH0 PUSH1 0x20 DUP3 ADD SWAP1 POP DUP2 DUP2 SUB PUSH0 DUP4 ADD MSTORE PUSH2 0x9291 DUP2 PUSH2 0x9258 JUMP JUMPDEST SWAP1 POP SWAP2 SWAP1 POP JUMP JUMPDEST PUSH32 0x546F6B656E207472616E73666572206661696C65640000000000000000000000 PUSH0 DUP3 ADD MSTORE POP JUMP JUMPDEST PUSH0 PUSH2 0x92CC PUSH1 0x15 DUP4 PUSH2 0x7541 JUMP JUMPDEST SWAP2 POP PUSH2 0x92D7 DUP3 PUSH2 0x9298 JUMP JUMPDEST PUSH1 0x20 DUP3 ADD SWAP1 POP SWAP2 SWAP1 POP JUMP JUMPDEST PUSH0 PUSH1 0x20 DUP3 ADD SWAP1 POP DUP2 DUP2 SUB PUSH0 DUP4 ADD MSTORE PUSH2 0x92F9 DUP2 PUSH2 0x92C0 JUMP JUMPDEST SWAP1 POP SWAP2 SWAP1 POP JUMP JUMPDEST PUSH0 DUP2 SWAP1 POP SWAP3 SWAP2 POP POP JUMP JUMPDEST PUSH0 PUSH2 0x9315 DUP4 DUP6 PUSH2 0x9300 JUMP JUMPDEST SWAP4 POP PUSH2 0x9322 DUP4 DUP6 DUP5 PUSH2 0x785C JUMP JUMPDEST DUP3 DUP5 ADD SWAP1 POP SWAP4 SWAP3 POP POP POP JUMP JUMPDEST PUSH0 PUSH2 0x933A DUP3 DUP5 DUP7 PUSH2 0x930A JUMP JUMPDEST SWAP2 POP DUP2 SWAP1 POP SWAP4 SWAP3 POP POP POP JUMP JUMPDEST PUSH2 0x934F DUP2 PUSH2 0x7F92 JUMP JUMPDEST DUP3 MSTORE POP POP JUMP JUMPDEST PUSH0 PUSH1 0xE0 DUP3 ADD SWAP1 POP PUSH2 0x9368 PUSH0 DUP4 ADD DUP11 PUSH2 0x7E64 JUMP JUMPDEST PUSH2 0x9375 PUSH1 0x20 DUP4 ADD DUP10 PUSH2 0x74E9 JUMP JUMPDEST PUSH2 0x9382 PUSH1 0x40 DUP4 ADD DUP9 PUSH2 0x9346 JUMP JUMPDEST PUSH2 0x938F PUSH1 0x60 DUP4 ADD DUP8 PUSH2 0x7528 JUMP JUMPDEST PUSH2 0x939C PUSH1 0x80 DUP4 ADD DUP7 PUSH2 0x74E9 JUMP JUMPDEST PUSH2 0x93A9 PUSH1 0xA0 DUP4 ADD DUP6 PUSH2 0x7E64 JUMP JUMPDEST PUSH2 0x93B6 PUSH1 0xC0 DUP4 ADD DUP5 PUSH2 0x7E64 JUMP JUMPDEST SWAP9 SWAP8 POP POP POP POP POP POP POP POP JUMP JUMPDEST PUSH32 0x416C726561647920766F74656400000000000000000000000000000000000000 PUSH0 DUP3 ADD MSTORE POP JUMP JUMPDEST PUSH0 PUSH2 0x93F6 PUSH1 0xD DUP4 PUSH2 0x7541 JUMP JUMPDEST SWAP2 POP PUSH2 0x9401 DUP3 PUSH2 0x93C2 JUMP JUMPDEST PUSH1 0x20 DUP3 ADD SWAP1 POP SWAP2 SWAP1 POP JUMP JUMPDEST PUSH0 PUSH1 0x20 DUP3 ADD SWAP1 POP DUP2 DUP2 SUB PUSH0 DUP4 ADD MSTORE PUSH2 0x9423 DUP2 PUSH2 0x93EA JUMP JUMPDEST SWAP1 POP SWAP2 SWAP1 POP JUMP JUMPDEST PUSH32 0x43616E277420766F746520627920796F757273656C6600000000000000000000 PUSH0 DUP3 ADD MSTORE POP JUMP JUMPDEST PUSH0 PUSH2 0x945E PUSH1 0x16 DUP4 PUSH2 0x7541 JUMP JUMPDEST SWAP2 POP PUSH2 0x9469 DUP3 PUSH2 0x942A JUMP JUMPDEST PUSH1 0x20 DUP3 ADD SWAP1 POP SWAP2 SWAP1 POP JUMP JUMPDEST PUSH0 PUSH1 0x20 DUP3 ADD SWAP1 POP DUP2 DUP2 SUB PUSH0 DUP4 ADD MSTORE PUSH2 0x948B DUP2 PUSH2 0x9452 JUMP JUMPDEST SWAP1 POP SWAP2 SWAP1 POP JUMP JUMPDEST PUSH32 0x496E76616C696420746F6B656E20616D6F756E7420666F72206E6F6E2D696E76 PUSH0 DUP3 ADD MSTORE PUSH32 0x6573746D656E742070726F706F73616C73000000000000000000000000000000 PUSH1 0x20 DUP3 ADD MSTORE POP JUMP JUMPDEST PUSH0 PUSH2 0x94EC PUSH1 0x31 DUP4 PUSH2 0x7541 JUMP JUMPDEST SWAP2 POP PUSH2 0x94F7 DUP3 PUSH2 0x9492 JUMP JUMPDEST PUSH1 0x40 DUP3 ADD SWAP1 POP SWAP2 SWAP1 POP JUMP JUMPDEST PUSH0 PUSH1 0x20 DUP3 ADD SWAP1 POP DUP2 DUP2 SUB PUSH0 DUP4 ADD MSTORE PUSH2 0x9519 DUP2 PUSH2 0x94E0 JUMP JUMPDEST SWAP1 POP SWAP2 SWAP1 POP JUMP JUMPDEST PUSH32 0x4E6F7420656E6F7567682050726F666920746F6B656E73000000000000000000 PUSH0 DUP3 ADD MSTORE POP JUMP JUMPDEST PUSH0 PUSH2 0x9554 PUSH1 0x17 DUP4 PUSH2 0x7541 JUMP JUMPDEST SWAP2 POP PUSH2 0x955F DUP3 PUSH2 0x9520 JUMP JUMPDEST PUSH1 0x20 DUP3 ADD SWAP1 POP SWAP2 SWAP1 POP JUMP JUMPDEST PUSH0 PUSH1 0x20 DUP3 ADD SWAP1 POP DUP2 DUP2 SUB PUSH0 DUP4 ADD MSTORE PUSH2 0x9581 DUP2 PUSH2 0x9548 JUMP JUMPDEST SWAP1 POP SWAP2 SWAP1 POP JUMP JUMPDEST PUSH0 PUSH1 0x60 DUP3 ADD SWAP1 POP PUSH2 0x959B PUSH0 DUP4 ADD DUP7 PUSH2 0x75B2 JUMP JUMPDEST PUSH2 0x95A8 PUSH1 0x20 DUP4 ADD DUP6 PUSH2 0x74E9 JUMP JUMPDEST PUSH2 0x95B5 PUSH1 0x40 DUP4 ADD DUP5 PUSH2 0x74E9 JUMP JUMPDEST SWAP5 SWAP4 POP POP POP POP JUMP JUMPDEST PUSH0 PUSH2 0x95C7 DUP3 PUSH2 0x86EE JUMP JUMPDEST SWAP2 POP PUSH2 0x95D2 DUP4 PUSH2 0x86EE JUMP JUMPDEST SWAP3 POP DUP3 DUP3 SUB SWAP1 POP PUSH6 0xFFFFFFFFFFFF DUP2 GT ISZERO PUSH2 0x95F0 JUMPI PUSH2 0x95EF PUSH2 0x8F24 JUMP JUMPDEST JUMPDEST SWAP3 SWAP2 POP POP JUMP JUMPDEST PUSH0 PUSH1 0x60 DUP3 ADD SWAP1 POP PUSH2 0x9609 PUSH0 DUP4 ADD DUP7 PUSH2 0x7528 JUMP JUMPDEST PUSH2 0x9616 PUSH1 0x20 DUP4 ADD DUP6 PUSH2 0x74E9 JUMP JUMPDEST PUSH2 0x9623 PUSH1 0x40 DUP4 ADD DUP5 PUSH2 0x74E9 JUMP JUMPDEST SWAP5 SWAP4 POP POP POP POP JUMP JUMPDEST PUSH0 PUSH1 0xA0 DUP3 ADD SWAP1 POP PUSH2 0x963E PUSH0 DUP4 ADD DUP9 PUSH2 0x7E64 JUMP JUMPDEST PUSH2 0x964B PUSH1 0x20 DUP4 ADD DUP8 PUSH2 0x74E9 JUMP JUMPDEST PUSH2 0x9658 PUSH1 0x40 DUP4 ADD DUP7 PUSH2 0x9346 JUMP JUMPDEST PUSH2 0x9665 PUSH1 0x60 DUP4 ADD DUP6 PUSH2 0x7528 JUMP JUMPDEST PUSH2 0x9672 PUSH1 0x80 DUP4 ADD DUP5 PUSH2 0x74E9 JUMP JUMPDEST SWAP7 SWAP6 POP POP POP POP POP POP JUMP JUMPDEST PUSH32 0x4F6E6C792070726F706F7365722063616E20737461727420766F74696E670000 PUSH0 DUP3 ADD MSTORE POP JUMP JUMPDEST PUSH0 PUSH2 0x96B0 PUSH1 0x1E DUP4 PUSH2 0x7541 JUMP JUMPDEST SWAP2 POP PUSH2 0x96BB DUP3 PUSH2 0x967C JUMP JUMPDEST PUSH1 0x20 DUP3 ADD SWAP1 POP SWAP2 SWAP1 POP JUMP JUMPDEST PUSH0 PUSH1 0x20 DUP3 ADD SWAP1 POP DUP2 DUP2 SUB PUSH0 DUP4 ADD MSTORE PUSH2 0x96DD DUP2 PUSH2 0x96A4 JUMP JUMPDEST SWAP1 POP SWAP2 SWAP1 POP JUMP JUMPDEST PUSH32 0x566F74696E6720616C7265616479207374617274656400000000000000000000 PUSH0 DUP3 ADD MSTORE POP JUMP JUMPDEST PUSH0 PUSH2 0x9718 PUSH1 0x16 DUP4 PUSH2 0x7541 JUMP JUMPDEST SWAP2 POP PUSH2 0x9723 DUP3 PUSH2 0x96E4 JUMP JUMPDEST PUSH1 0x20 DUP3 ADD SWAP1 POP SWAP2 SWAP1 POP JUMP JUMPDEST PUSH0 PUSH1 0x20 DUP3 ADD SWAP1 POP DUP2 DUP2 SUB PUSH0 DUP4 ADD MSTORE PUSH2 0x9745 DUP2 PUSH2 0x970C JUMP JUMPDEST SWAP1 POP SWAP2 SWAP1 POP JUMP JUMPDEST PUSH0 DUP2 SWAP1 POP DUP2 PUSH0 MSTORE PUSH1 0x20 PUSH0 KECCAK256 SWAP1 POP SWAP2 SWAP1 POP JUMP JUMPDEST PUSH0 DUP2 SLOAD PUSH2 0x976A DUP2 PUSH2 0x8D70 JUMP JUMPDEST PUSH2 0x9774 DUP2 DUP7 PUSH2 0x7541 JUMP JUMPDEST SWAP5 POP PUSH1 0x1 DUP3 AND PUSH0 DUP2 EQ PUSH2 0x978E JUMPI PUSH1 0x1 DUP2 EQ PUSH2 0x97A4 JUMPI PUSH2 0x97D6 JUMP JUMPDEST PUSH1 0xFF NOT DUP4 AND DUP7 MSTORE DUP2 ISZERO ISZERO PUSH1 0x20 MUL DUP7 ADD SWAP4 POP PUSH2 0x97D6 JUMP JUMPDEST PUSH2 0x97AD DUP6 PUSH2 0x974C JUMP JUMPDEST PUSH0 JUMPDEST DUP4 DUP2 LT ISZERO PUSH2 0x97CE JUMPI DUP2 SLOAD DUP2 DUP10 ADD MSTORE PUSH1 0x1 DUP3 ADD SWAP2 POP PUSH1 0x20 DUP2 ADD SWAP1 POP PUSH2 0x97AF JUMP JUMPDEST DUP1 DUP9 ADD SWAP6 POP POP POP JUMPDEST POP POP POP SWAP3 SWAP2 POP POP JUMP JUMPDEST PUSH0 PUSH1 0xA0 DUP3 ADD SWAP1 POP PUSH2 0x97F2 PUSH0 DUP4 ADD DUP9 PUSH2 0x74E9 JUMP JUMPDEST PUSH2 0x97FF PUSH1 0x20 DUP4 ADD DUP8 PUSH2 0x74E9 JUMP JUMPDEST PUSH2 0x980C PUSH1 0x40 DUP4 ADD DUP7 PUSH2 0x74E9 JUMP JUMPDEST PUSH2 0x9819 PUSH1 0x60 DUP4 ADD DUP6 PUSH2 0x74E9 JUMP JUMPDEST DUP2 DUP2 SUB PUSH1 0x80 DUP4 ADD MSTORE PUSH2 0x982B DUP2 DUP5 PUSH2 0x975E JUMP JUMPDEST SWAP1 POP SWAP7 SWAP6 POP POP POP POP POP POP JUMP JUMPDEST PUSH0 PUSH2 0x9841 DUP3 PUSH2 0x86EE JUMP JUMPDEST SWAP2 POP PUSH2 0x984C DUP4 PUSH2 0x86EE JUMP JUMPDEST SWAP3 POP DUP3 DUP3 ADD SWAP1 POP PUSH6 0xFFFFFFFFFFFF DUP2 GT ISZERO PUSH2 0x986A JUMPI PUSH2 0x9869 PUSH2 0x8F24 JUMP JUMPDEST JUMPDEST SWAP3 SWAP2 POP POP JUMP JUMPDEST PUSH0 DUP2 MLOAD SWAP1 POP SWAP2 SWAP1 POP JUMP JUMPDEST PUSH0 DUP3 DUP3 MSTORE PUSH1 0x20 DUP3 ADD SWAP1 POP SWAP3 SWAP2 POP POP JUMP JUMPDEST PUSH0 DUP2 SWAP1 POP PUSH1 0x20 DUP3 ADD SWAP1 POP SWAP2 SWAP1 POP JUMP JUMPDEST PUSH0 PUSH2 0x98A4 DUP4 DUP4 PUSH2 0x82A3 JUMP JUMPDEST PUSH1 0x20 DUP4 ADD SWAP1 POP SWAP3 SWAP2 POP POP JUMP JUMPDEST PUSH0 PUSH1 0x20 DUP3 ADD SWAP1 POP SWAP2 SWAP1 POP JUMP JUMPDEST PUSH0 PUSH2 0x98C6 DUP3 PUSH2 0x9870 JUMP JUMPDEST PUSH2 0x98D0 DUP2 DUP6 PUSH2 0x987A JUMP JUMPDEST SWAP4 POP PUSH2 0x98DB DUP4 PUSH2 0x988A JUMP JUMPDEST DUP1 PUSH0 JUMPDEST DUP4 DUP2 LT ISZERO PUSH2 0x990B JUMPI DUP2 MLOAD PUSH2 0x98F2 DUP9 DUP3 PUSH2 0x9899 JUMP JUMPDEST SWAP8 POP PUSH2 0x98FD DUP4 PUSH2 0x98B0 JUMP JUMPDEST SWAP3 POP POP PUSH1 0x1 DUP2 ADD SWAP1 POP PUSH2 0x98DE JUMP JUMPDEST POP DUP6 SWAP4 POP POP POP POP SWAP3 SWAP2 POP POP JUMP JUMPDEST PUSH0 DUP2 MLOAD SWAP1 POP SWAP2 SWAP1 POP JUMP JUMPDEST PUSH0 DUP3 DUP3 MSTORE PUSH1 0x20 DUP3 ADD SWAP1 POP SWAP3 SWAP2 POP POP JUMP JUMPDEST PUSH0 DUP2 SWAP1 POP PUSH1 0x20 DUP3 ADD SWAP1 POP SWAP2 SWAP1 POP JUMP JUMPDEST PUSH0 DUP2 MLOAD SWAP1 POP SWAP2 SWAP1 POP JUMP JUMPDEST PUSH0 DUP3 DUP3 MSTORE PUSH1 0x20 DUP3 ADD SWAP1 POP SWAP3 SWAP2 POP POP JUMP JUMPDEST PUSH0 PUSH2 0x9965 DUP3 PUSH2 0x9941 JUMP JUMPDEST PUSH2 0x996F DUP2 DUP6 PUSH2 0x994B JUMP JUMPDEST SWAP4 POP PUSH2 0x997F DUP2 DUP6 PUSH1 0x20 DUP7 ADD PUSH2 0x7551 JUMP JUMPDEST PUSH2 0x9988 DUP2 PUSH2 0x755F JUMP JUMPDEST DUP5 ADD SWAP2 POP POP SWAP3 SWAP2 POP POP JUMP JUMPDEST PUSH0 PUSH2 0x999E DUP4 DUP4 PUSH2 0x995B JUMP JUMPDEST SWAP1 POP SWAP3 SWAP2 POP POP JUMP JUMPDEST PUSH0 PUSH1 0x20 DUP3 ADD SWAP1 POP SWAP2 SWAP1 POP JUMP JUMPDEST PUSH0 PUSH2 0x99BC DUP3 PUSH2 0x9918 JUMP JUMPDEST PUSH2 0x99C6 DUP2 DUP6 PUSH2 0x9922 JUMP JUMPDEST SWAP4 POP DUP4 PUSH1 0x20 DUP3 MUL DUP6 ADD PUSH2 0x99D8 DUP6 PUSH2 0x9932 JUMP JUMPDEST DUP1 PUSH0 JUMPDEST DUP6 DUP2 LT ISZERO PUSH2 0x9A13 JUMPI DUP5 DUP5 SUB DUP10 MSTORE DUP2 MLOAD PUSH2 0x99F4 DUP6 DUP3 PUSH2 0x9993 JUMP JUMPDEST SWAP5 POP PUSH2 0x99FF DUP4 PUSH2 0x99A6 JUMP JUMPDEST SWAP3 POP PUSH1 0x20 DUP11 ADD SWAP10 POP POP PUSH1 0x1 DUP2 ADD SWAP1 POP PUSH2 0x99DB JUMP JUMPDEST POP DUP3 SWAP8 POP DUP8 SWAP6 POP POP POP POP POP POP SWAP3 SWAP2 POP POP JUMP JUMPDEST PUSH0 PUSH1 0x80 DUP3 ADD SWAP1 POP DUP2 DUP2 SUB PUSH0 DUP4 ADD MSTORE PUSH2 0x9A3D DUP2 DUP8 PUSH2 0x98BC JUMP JUMPDEST SWAP1 POP DUP2 DUP2 SUB PUSH1 0x20 DUP4 ADD MSTORE PUSH2 0x9A51 DUP2 DUP7 PUSH2 0x8552 JUMP JUMPDEST SWAP1 POP DUP2 DUP2 SUB PUSH1 0x40 DUP4 ADD MSTORE PUSH2 0x9A65 DUP2 DUP6 PUSH2 0x99B2 JUMP JUMPDEST SWAP1 POP PUSH2 0x9A74 PUSH1 0x60 DUP4 ADD DUP5 PUSH2 0x7E64 JUMP JUMPDEST SWAP6 SWAP5 POP POP POP POP POP JUMP JUMPDEST PUSH32 0x4E6F7420656E6F756768205752415020746F6B656E7320696E20636F6E747261 PUSH0 DUP3 ADD MSTORE PUSH32 0x6374000000000000000000000000000000000000000000000000000000000000 PUSH1 0x20 DUP3 ADD MSTORE POP JUMP JUMPDEST PUSH0 PUSH2 0x9AD7 PUSH1 0x22 DUP4 PUSH2 0x7541 JUMP JUMPDEST SWAP2 POP PUSH2 0x9AE2 DUP3 PUSH2 0x9A7D JUMP JUMPDEST PUSH1 0x40 DUP3 ADD SWAP1 POP SWAP2 SWAP1 POP JUMP JUMPDEST PUSH0 PUSH1 0x20 DUP3 ADD SWAP1 POP DUP2 DUP2 SUB PUSH0 DUP4 ADD MSTORE PUSH2 0x9B04 DUP2 PUSH2 0x9ACB JUMP JUMPDEST SWAP1 POP SWAP2 SWAP1 POP JUMP JUMPDEST PUSH32 0x4E487B7100000000000000000000000000000000000000000000000000000000 PUSH0 MSTORE PUSH1 0x12 PUSH1 0x4 MSTORE PUSH1 0x24 PUSH0 REVERT JUMPDEST PUSH0 PUSH2 0x9B42 DUP3 PUSH2 0x748B JUMP JUMPDEST SWAP2 POP PUSH2 0x9B4D DUP4 PUSH2 0x748B JUMP JUMPDEST SWAP3 POP DUP3 PUSH2 0x9B5D JUMPI PUSH2 0x9B5C PUSH2 0x9B0B JUMP JUMPDEST JUMPDEST DUP3 DUP3 DIV SWAP1 POP SWAP3 SWAP2 POP POP JUMP JUMPDEST PUSH32 0x496E76616C69642071756F72756D20636F6E646974696F6E7300000000000000 PUSH0 DUP3 ADD MSTORE POP JUMP JUMPDEST PUSH0 PUSH2 0x9B9C PUSH1 0x19 DUP4 PUSH2 0x7541 JUMP JUMPDEST SWAP2 POP PUSH2 0x9BA7 DUP3 PUSH2 0x9B68 JUMP JUMPDEST PUSH1 0x20 DUP3 ADD SWAP1 POP SWAP2 SWAP1 POP JUMP JUMPDEST PUSH0 PUSH1 0x20 DUP3 ADD SWAP1 POP DUP2 DUP2 SUB PUSH0 DUP4 ADD MSTORE PUSH2 0x9BC9 DUP2 PUSH2 0x9B90 JUMP JUMPDEST SWAP1 POP SWAP2 SWAP1 POP JUMP JUMPDEST PUSH32 0x55736572206973206E6F742061206D656D626572000000000000000000000000 PUSH0 DUP3 ADD MSTORE POP JUMP JUMPDEST PUSH0 PUSH2 0x9C04 PUSH1 0x14 DUP4 PUSH2 0x7541 JUMP JUMPDEST SWAP2 POP PUSH2 0x9C0F DUP3 PUSH2 0x9BD0 JUMP JUMPDEST PUSH1 0x20 DUP3 ADD SWAP1 POP SWAP2 SWAP1 POP JUMP JUMPDEST PUSH0 PUSH1 0x20 DUP3 ADD SWAP1 POP DUP2 DUP2 SUB PUSH0 DUP4 ADD MSTORE PUSH2 0x9C31 DUP2 PUSH2 0x9BF8 JUMP JUMPDEST SWAP1 POP SWAP2 SWAP1 POP JUMP JUMPDEST PUSH32 0x54686520737570706F72746564207573657220686173206E6F7420766F746564 PUSH0 DUP3 ADD MSTORE PUSH32 0x2079657400000000000000000000000000000000000000000000000000000000 PUSH1 0x20 DUP3 ADD MSTORE POP JUMP JUMPDEST PUSH0 PUSH2 0x9C92 PUSH1 0x24 DUP4 PUSH2 0x7541 JUMP JUMPDEST SWAP2 POP PUSH2 0x9C9D DUP3 PUSH2 0x9C38 JUMP JUMPDEST PUSH1 0x40 DUP3 ADD SWAP1 POP SWAP2 SWAP1 POP JUMP JUMPDEST PUSH0 PUSH1 0x20 DUP3 ADD SWAP1 POP DUP2 DUP2 SUB PUSH0 DUP4 ADD MSTORE PUSH2 0x9CBF DUP2 PUSH2 0x9C86 JUMP JUMPDEST SWAP1 POP SWAP2 SWAP1 POP JUMP JUMPDEST PUSH32 0x4E6F7420656E6F756768207772617020746F6B656E7300000000000000000000 PUSH0 DUP3 ADD MSTORE POP JUMP JUMPDEST PUSH0 PUSH2 0x9CFA PUSH1 0x16 DUP4 PUSH2 0x7541 JUMP JUMPDEST SWAP2 POP PUSH2 0x9D05 DUP3 PUSH2 0x9CC6 JUMP JUMPDEST PUSH1 0x20 DUP3 ADD SWAP1 POP SWAP2 SWAP1 POP JUMP JUMPDEST PUSH0 PUSH1 0x20 DUP3 ADD SWAP1 POP DUP2 DUP2 SUB PUSH0 DUP4 ADD MSTORE PUSH2 0x9D27 DUP2 PUSH2 0x9CEE JUMP JUMPDEST SWAP1 POP SWAP2 SWAP1 POP JUMP JUMPDEST PUSH0 PUSH1 0x20 PUSH1 0x1F DUP4 ADD DIV SWAP1 POP SWAP2 SWAP1 POP JUMP JUMPDEST PUSH0 DUP3 DUP3 SHL SWAP1 POP SWAP3 SWAP2 POP POP JUMP JUMPDEST PUSH0 PUSH1 0x8 DUP4 MUL PUSH2 0x9D78 PUSH32 0xFFFFFFFFFFFFFFFFFFFFFFFFFFFFFFFFFFFFFFFFFFFFFFFFFFFFFFFFFFFFFFFF DUP3 PUSH2 0x9D3D JUMP JUMPDEST PUSH2 0x9D82 DUP7 DUP4 PUSH2 0x9D3D JUMP JUMPDEST SWAP6 POP DUP1 NOT DUP5 AND SWAP4 POP DUP1 DUP7 AND DUP5 OR SWAP3 POP POP POP SWAP4 SWAP3 POP POP POP JUMP JUMPDEST PUSH0 PUSH2 0x9DB4 PUSH2 0x9DAF PUSH2 0x9DAA DUP5 PUSH2 0x748B JUMP JUMPDEST PUSH2 0x8EC4 JUMP JUMPDEST PUSH2 0x748B JUMP JUMPDEST SWAP1 POP SWAP2 SWAP1 POP JUMP JUMPDEST PUSH0 DUP2 SWAP1 POP SWAP2 SWAP1 POP JUMP JUMPDEST PUSH2 0x9DCD DUP4 PUSH2 0x9D9A JUMP JUMPDEST PUSH2 0x9DE1 PUSH2 0x9DD9 DUP3 PUSH2 0x9DBB JUMP JUMPDEST DUP5 DUP5 SLOAD PUSH2 0x9D49 JUMP JUMPDEST DUP3 SSTORE POP POP POP POP JUMP JUMPDEST PUSH0 SWAP1 JUMP JUMPDEST PUSH2 0x9DF5 PUSH2 0x9DE9 JUMP JUMPDEST PUSH2 0x9E00 DUP2 DUP5 DUP5 PUSH2 0x9DC4 JUMP JUMPDEST POP POP POP JUMP JUMPDEST JUMPDEST DUP2 DUP2 LT ISZERO PUSH2 0x9E23 JUMPI PUSH2 0x9E18 PUSH0 DUP3 PUSH2 0x9DED JUMP JUMPDEST PUSH1 0x1 DUP2 ADD SWAP1 POP PUSH2 0x9E06 JUMP JUMPDEST POP POP JUMP JUMPDEST PUSH1 0x1F DUP3 GT ISZERO PUSH2 0x9E68 JUMPI PUSH2 0x9E39 DUP2 PUSH2 0x974C JUMP JUMPDEST PUSH2 0x9E42 DUP5 PUSH2 0x9D2E JUMP JUMPDEST DUP2 ADD PUSH1 0x20 DUP6 LT ISZERO PUSH2 0x9E51 JUMPI DUP2 SWAP1 POP JUMPDEST PUSH2 0x9E65 PUSH2 0x9E5D DUP6 PUSH2 0x9D2E JUMP JUMPDEST DUP4 ADD DUP3 PUSH2 0x9E05 JUMP JUMPDEST POP POP JUMPDEST POP POP POP JUMP JUMPDEST PUSH0 DUP3 DUP3 SHR SWAP1 POP SWAP3 SWAP2 POP POP JUMP JUMPDEST PUSH0 PUSH2 0x9E88 PUSH0 NOT DUP5 PUSH1 0x8 MUL PUSH2 0x9E6D JUMP JUMPDEST NOT DUP1 DUP4 AND SWAP2 POP POP SWAP3 SWAP2 POP POP JUMP JUMPDEST PUSH0 PUSH2 0x9EA0 DUP4 DUP4 PUSH2 0x9E79 JUMP JUMPDEST SWAP2 POP DUP3 PUSH1 0x2 MUL DUP3 OR SWAP1 POP SWAP3 SWAP2 POP POP JUMP JUMPDEST PUSH2 0x9EB9 DUP3 PUSH2 0x7537 JUMP JUMPDEST PUSH8 0xFFFFFFFFFFFFFFFF DUP2 GT ISZERO PUSH2 0x9ED2 JUMPI PUSH2 0x9ED1 PUSH2 0x77B4 JUMP JUMPDEST JUMPDEST PUSH2 0x9EDC DUP3 SLOAD PUSH2 0x8D70 JUMP JUMPDEST PUSH2 0x9EE7 DUP3 DUP3 DUP6 PUSH2 0x9E27 JUMP JUMPDEST PUSH0 PUSH1 0x20 SWAP1 POP PUSH1 0x1F DUP4 GT PUSH1 0x1 DUP2 EQ PUSH2 0x9F18 JUMPI PUSH0 DUP5 ISZERO PUSH2 0x9F06 JUMPI DUP3 DUP8 ADD MLOAD SWAP1 POP JUMPDEST PUSH2 0x9F10 DUP6 DUP3 PUSH2 0x9E95 JUMP JUMPDEST DUP7 SSTORE POP PUSH2 0x9F77 JUMP JUMPDEST PUSH1 0x1F NOT DUP5 AND PUSH2 0x9F26 DUP7 PUSH2 0x974C JUMP JUMPDEST PUSH0 JUMPDEST DUP3 DUP2 LT ISZERO PUSH2 0x9F4D JUMPI DUP5 DUP10 ADD MLOAD DUP3 SSTORE PUSH1 0x1 DUP3 ADD SWAP2 POP PUSH1 0x20 DUP6 ADD SWAP5 POP PUSH1 0x20 DUP2 ADD SWAP1 POP PUSH2 0x9F28 JUMP JUMPDEST DUP7 DUP4 LT ISZERO PUSH2 0x9F6A JUMPI DUP5 DUP10 ADD MLOAD PUSH2 0x9F66 PUSH1 0x1F DUP10 AND DUP3 PUSH2 0x9E79 JUMP JUMPDEST DUP4 SSTORE POP JUMPDEST PUSH1 0x1 PUSH1 0x2 DUP9 MUL ADD DUP9 SSTORE POP POP POP JUMPDEST POP POP POP POP POP POP JUMP JUMPDEST PUSH0 PUSH1 0xA0 DUP3 ADD SWAP1 POP PUSH2 0x9F92 PUSH0 DUP4 ADD DUP9 PUSH2 0x74E9 JUMP JUMPDEST PUSH2 0x9F9F PUSH1 0x20 DUP4 ADD DUP8 PUSH2 0x7625 JUMP JUMPDEST DUP2 DUP2 SUB PUSH1 0x40 DUP4 ADD MSTORE PUSH2 0x9FB1 DUP2 DUP7 PUSH2 0x756F JUMP JUMPDEST SWAP1 POP PUSH2 0x9FC0 PUSH1 0x60 DUP4 ADD DUP6 PUSH2 0x7528 JUMP JUMPDEST PUSH2 0x9FCD PUSH1 0x80 DUP4 ADD DUP5 PUSH2 0x74E9 JUMP JUMPDEST SWAP7 SWAP6 POP POP POP POP POP POP JUMP JUMPDEST PUSH32 0x566F74696E67206973206E6F7420616374697665000000000000000000000000 PUSH0 DUP3 ADD MSTORE POP JUMP JUMPDEST PUSH0 PUSH2 0xA00B PUSH1 0x14 DUP4 PUSH2 0x7541 JUMP JUMPDEST SWAP2 POP PUSH2 0xA016 DUP3 PUSH2 0x9FD7 JUMP JUMPDEST PUSH1 0x20 DUP3 ADD SWAP1 POP SWAP2 SWAP1 POP JUMP JUMPDEST PUSH0 PUSH1 0x20 DUP3 ADD SWAP1 POP DUP2 DUP2 SUB PUSH0 DUP4 ADD MSTORE PUSH2 0xA038 DUP2 PUSH2 0x9FFF JUMP JUMPDEST SWAP1 POP SWAP2 SWAP1 POP JUMP JUMPDEST PUSH32 0x566F74696E6720706572696F642068617320656E646564000000000000000000 PUSH0 DUP3 ADD MSTORE POP JUMP JUMPDEST PUSH0 PUSH2 0xA073 PUSH1 0x17 DUP4 PUSH2 0x7541 JUMP JUMPDEST SWAP2 POP PUSH2 0xA07E DUP3 PUSH2 0xA03F JUMP JUMPDEST PUSH1 0x20 DUP3 ADD SWAP1 POP SWAP2 SWAP1 POP JUMP JUMPDEST PUSH0 PUSH1 0x20 DUP3 ADD SWAP1 POP DUP2 DUP2 SUB PUSH0 DUP4 ADD MSTORE PUSH2 0xA0A0 DUP2 PUSH2 0xA067 JUMP JUMPDEST SWAP1 POP SWAP2 SWAP1 POP JUMP JUMPDEST PUSH0 PUSH1 0x60 DUP3 ADD SWAP1 POP PUSH2 0xA0BA PUSH0 DUP4 ADD DUP7 PUSH2 0x74E9 JUMP JUMPDEST PUSH2 0xA0C7 PUSH1 0x20 DUP4 ADD DUP6 PUSH2 0x7EC3 JUMP JUMPDEST PUSH2 0xA0D4 PUSH1 0x40 DUP4 ADD DUP5 PUSH2 0x7E64 JUMP JUMPDEST SWAP5 SWAP4 POP POP POP POP JUMP JUMPDEST PUSH0 PUSH2 0xA0E6 DUP3 PUSH2 0x9941 JUMP JUMPDEST PUSH2 0xA0F0 DUP2 DUP6 PUSH2 0x9300 JUMP JUMPDEST SWAP4 POP PUSH2 0xA100 DUP2 DUP6 PUSH1 0x20 DUP7 ADD PUSH2 0x7551 JUMP JUMPDEST DUP1 DUP5 ADD SWAP2 POP POP SWAP3 SWAP2 POP POP JUMP JUMPDEST PUSH0 PUSH2 0xA117 DUP3 DUP5 PUSH2 0xA0DC JUMP JUMPDEST SWAP2 POP DUP2 SWAP1 POP SWAP3 SWAP2 POP POP JUMP JUMPDEST PUSH0 PUSH2 0xA12C DUP3 PUSH2 0x7F92 JUMP JUMPDEST SWAP2 POP PUSH2 0xA137 DUP4 PUSH2 0x7F92 JUMP JUMPDEST SWAP3 POP DUP3 DUP3 ADD SWAP1 POP PUSH1 0xFF DUP2 GT ISZERO PUSH2 0xA150 JUMPI PUSH2 0xA14F PUSH2 0x8F24 JUMP JUMPDEST JUMPDEST SWAP3 SWAP2 POP POP JUMP JUMPDEST PUSH0 PUSH2 0xA160 DUP3 PUSH2 0x748B JUMP JUMPDEST SWAP2 POP PUSH2 0xA16B DUP4 PUSH2 0x748B JUMP JUMPDEST SWAP3 POP DUP3 DUP3 SUB SWAP1 POP DUP2 DUP2 GT ISZERO PUSH2 0xA183 JUMPI PUSH2 0xA182 PUSH2 0x8F24 JUMP JUMPDEST JUMPDEST SWAP3 SWAP2 POP POP JUMP JUMPDEST PUSH0 PUSH1 0x80 DUP3 ADD SWAP1 POP PUSH2 0xA19C PUSH0 DUP4 ADD DUP8 PUSH2 0x74E9 JUMP JUMPDEST PUSH2 0xA1A9 PUSH1 0x20 DUP4 ADD DUP7 PUSH2 0x9346 JUMP JUMPDEST PUSH2 0xA1B6 PUSH1 0x40 DUP4 ADD DUP6 PUSH2 0x74E9 JUMP JUMPDEST DUP2 DUP2 SUB PUSH1 0x60 DUP4 ADD MSTORE PUSH2 0xA1C8 DUP2 DUP5 PUSH2 0x756F JUMP JUMPDEST SWAP1 POP SWAP6 SWAP5 POP POP POP POP POP JUMP JUMPDEST PUSH0 DUP3 DUP3 MSTORE PUSH1 0x20 DUP3 ADD SWAP1 POP SWAP3 SWAP2 POP POP JUMP JUMPDEST PUSH0 PUSH2 0xA1ED DUP3 PUSH2 0x9941 JUMP JUMPDEST PUSH2 0xA1F7 DUP2 DUP6 PUSH2 0xA1D3 JUMP JUMPDEST SWAP4 POP PUSH2 0xA207 DUP2 DUP6 PUSH1 0x20 DUP7 ADD PUSH2 0x7551 JUMP JUMPDEST PUSH2 0xA210 DUP2 PUSH2 0x755F JUMP JUMPDEST DUP5 ADD SWAP2 POP POP SWAP3 SWAP2 POP POP JUMP JUMPDEST PUSH0 PUSH1 0xA0 DUP3 ADD SWAP1 POP PUSH2 0xA22E PUSH0 DUP4 ADD DUP9 PUSH2 0x74E9 JUMP JUMPDEST PUSH2 0xA23B PUSH1 0x20 DUP4 ADD DUP8 PUSH2 0x9346 JUMP JUMPDEST PUSH2 0xA248 PUSH1 0x40 DUP4 ADD DUP7 PUSH2 0x74E9 JUMP JUMPDEST DUP2 DUP2 SUB PUSH1 0x60 DUP4 ADD MSTORE PUSH2 0xA25A DUP2 DUP6 PUSH2 0x756F JUMP JUMPDEST SWAP1 POP DUP2 DUP2 SUB PUSH1 0x80 DUP4 ADD MSTORE PUSH2 0xA26E DUP2 DUP5 PUSH2 0xA1E3 JUMP JUMPDEST SWAP1 POP SWAP7 SWAP6 POP POP POP POP POP POP JUMP JUMPDEST PUSH0 PUSH1 0x60 DUP3 ADD SWAP1 POP PUSH2 0xA28D PUSH0 DUP4 ADD DUP7 PUSH2 0x74E9 JUMP JUMPDEST PUSH2 0xA29A PUSH1 0x20 DUP4 ADD DUP6 PUSH2 0x74E9 JUMP JUMPDEST PUSH2 0xA2A7 PUSH1 0x40 DUP4 ADD DUP5 PUSH2 0x74E9 JUMP JUMPDEST SWAP5 SWAP4 POP POP POP POP JUMP JUMPDEST PUSH0 DUP2 MLOAD SWAP1 POP SWAP2 SWAP1 POP JUMP JUMPDEST PUSH0 DUP3 DUP3 MSTORE PUSH1 0x20 DUP3 ADD SWAP1 POP SWAP3 SWAP2 POP POP JUMP JUMPDEST PUSH0 DUP2 SWAP1 POP PUSH1 0x20 DUP3 ADD SWAP1 POP SWAP2 SWAP1 POP JUMP JUMPDEST PUSH0 PUSH2 0xA2E3 DUP4 DUP4 PUSH2 0x826B JUMP JUMPDEST SWAP1 POP SWAP3 SWAP2 POP POP JUMP JUMPDEST PUSH0 PUSH1 0x20 DUP3 ADD SWAP1 POP SWAP2 SWAP1 POP JUMP JUMPDEST PUSH0 PUSH2 0xA301 DUP3 PUSH2 0xA2AF JUMP JUMPDEST PUSH2 0xA30B DUP2 DUP6 PUSH2 0xA2B9 JUMP JUMPDEST SWAP4 POP DUP4 PUSH1 0x20 DUP3 MUL DUP6 ADD PUSH2 0xA31D DUP6 PUSH2 0xA2C9 JUMP JUMPDEST DUP1 PUSH0 JUMPDEST DUP6 DUP2 LT ISZERO PUSH2 0xA358 JUMPI DUP5 DUP5 SUB DUP10 MSTORE DUP2 MLOAD PUSH2 0xA339 DUP6 DUP3 PUSH2 0xA2D8 JUMP JUMPDEST SWAP5 POP PUSH2 0xA344 DUP4 PUSH2 0xA2EB JUMP JUMPDEST SWAP3 POP PUSH1 0x20 DUP11 ADD SWAP10 POP POP PUSH1 0x1 DUP2 ADD SWAP1 POP PUSH2 0xA320 JUMP JUMPDEST POP DUP3 SWAP8 POP DUP8 SWAP6 POP POP POP POP POP POP SWAP3 SWAP2 POP POP JUMP JUMPDEST PUSH0 PUSH2 0x120 DUP3 ADD SWAP1 POP PUSH2 0xA37E PUSH0 DUP4 ADD DUP13 PUSH2 0x74E9 JUMP JUMPDEST PUSH2 0xA38B PUSH1 0x20 DUP4 ADD DUP12 PUSH2 0x7528 JUMP JUMPDEST DUP2 DUP2 SUB PUSH1 0x40 DUP4 ADD MSTORE PUSH2 0xA39D DUP2 DUP11 PUSH2 0x98BC JUMP JUMPDEST SWAP1 POP DUP2 DUP2 SUB PUSH1 0x60 DUP4 ADD MSTORE PUSH2 0xA3B1 DUP2 DUP10 PUSH2 0x8552 JUMP JUMPDEST SWAP1 POP DUP2 DUP2 SUB PUSH1 0x80 DUP4 ADD MSTORE PUSH2 0xA3C5 DUP2 DUP9 PUSH2 0xA2F7 JUMP JUMPDEST SWAP1 POP DUP2 DUP2 SUB PUSH1 0xA0 DUP4 ADD MSTORE PUSH2 0xA3D9 DUP2 DUP8 PUSH2 0x99B2 JUMP JUMPDEST SWAP1 POP PUSH2 0xA3E8 PUSH1 0xC0 DUP4 ADD DUP7 PUSH2 0x74E9 JUMP JUMPDEST PUSH2 0xA3F5 PUSH1 0xE0 DUP4 ADD DUP6 PUSH2 0x74E9 JUMP JUMPDEST DUP2 DUP2 SUB PUSH2 0x100 DUP4 ADD MSTORE PUSH2 0xA408 DUP2 DUP5 PUSH2 0x756F JUMP JUMPDEST SWAP1 POP SWAP11 SWAP10 POP POP POP POP POP POP POP POP POP POP JUMP JUMPDEST PUSH0 PUSH1 0x40 DUP3 ADD SWAP1 POP PUSH2 0xA42B PUSH0 DUP4 ADD DUP6 PUSH2 0x7E64 JUMP JUMPDEST DUP2 DUP2 SUB PUSH1 0x20 DUP4 ADD MSTORE PUSH2 0xA43D DUP2 DUP5 PUSH2 0xA1E3 JUMP JUMPDEST SWAP1 POP SWAP4 SWAP3 POP POP POP JUMP JUMPDEST PUSH0 DUP2 MLOAD SWAP1 POP PUSH2 0xA454 DUP2 PUSH2 0x7D82 JUMP JUMPDEST SWAP3 SWAP2 POP POP JUMP JUMPDEST PUSH0 PUSH1 0x20 DUP3 DUP5 SUB SLT ISZERO PUSH2 0xA46F JUMPI PUSH2 0xA46E PUSH2 0x7483 JUMP JUMPDEST JUMPDEST PUSH0 PUSH2 0xA47C DUP5 DUP3 DUP6 ADD PUSH2 0xA446 JUMP JUMPDEST SWAP2 POP POP SWAP3 SWAP2 POP POP JUMP JUMPDEST PUSH0 DUP2 SWAP1 POP SWAP2 SWAP1 POP JUMP JUMPDEST PUSH0 PUSH2 0xA4A8 PUSH2 0xA4A3 PUSH2 0xA49E DUP5 PUSH2 0xA485 JUMP JUMPDEST PUSH2 0x8EC4 JUMP JUMPDEST PUSH2 0x7F92 JUMP JUMPDEST SWAP1 POP SWAP2 SWAP1 POP JUMP JUMPDEST PUSH2 0xA4B8 DUP2 PUSH2 0xA48E JUMP JUMPDEST DUP3 MSTORE POP POP JUMP JUMPDEST PUSH0 PUSH1 0x40 DUP3 ADD SWAP1 POP PUSH2 0xA4D1 PUSH0 DUP4 ADD DUP6 PUSH2 0xA4AF JUMP JUMPDEST PUSH2 0xA4DE PUSH1 0x20 DUP4 ADD DUP5 PUSH2 0x74E9 JUMP JUMPDEST SWAP4 SWAP3 POP POP POP JUMP JUMPDEST PUSH0 DUP2 SWAP1 POP SWAP2 SWAP1 POP JUMP JUMPDEST PUSH0 PUSH2 0xA508 PUSH2 0xA503 PUSH2 0xA4FE DUP5 PUSH2 0xA4E5 JUMP JUMPDEST PUSH2 0x8EC4 JUMP JUMPDEST PUSH2 0x7F92 JUMP JUMPDEST SWAP1 POP SWAP2 SWAP1 POP JUMP JUMPDEST PUSH2 0xA518 DUP2 PUSH2 0xA4EE JUMP JUMPDEST DUP3 MSTORE POP POP JUMP JUMPDEST PUSH0 PUSH1 0x40 DUP3 ADD SWAP1 POP PUSH2 0xA531 PUSH0 DUP4 ADD DUP6 PUSH2 0xA50F JUMP JUMPDEST PUSH2 0xA53E PUSH1 0x20 DUP4 ADD DUP5 PUSH2 0x74E9 JUMP JUMPDEST SWAP4 SWAP3 POP POP POP JUMP JUMPDEST PUSH0 PUSH1 0xA0 DUP3 ADD SWAP1 POP PUSH2 0xA558 PUSH0 DUP4 ADD DUP9 PUSH2 0x7E64 JUMP JUMPDEST PUSH2 0xA565 PUSH1 0x20 DUP4 ADD DUP8 PUSH2 0x7E64 JUMP JUMPDEST PUSH2 0xA572 PUSH1 0x40 DUP4 ADD DUP7 PUSH2 0x7E64 JUMP JUMPDEST PUSH2 0xA57F PUSH1 0x60 DUP4 ADD DUP6 PUSH2 0x74E9 JUMP JUMPDEST PUSH2 0xA58C PUSH1 0x80 DUP4 ADD DUP5 PUSH2 0x7528 JUMP JUMPDEST SWAP7 SWAP6 POP POP POP POP POP POP JUMP JUMPDEST PUSH0 PUSH1 0x80 DUP3 ADD SWAP1 POP PUSH2 0xA5A9 PUSH0 DUP4 ADD DUP8 PUSH2 0x7E64 JUMP JUMPDEST PUSH2 0xA5B6 PUSH1 0x20 DUP4 ADD DUP7 PUSH2 0x9346 JUMP JUMPDEST PUSH2 0xA5C3 PUSH1 0x40 DUP4 ADD DUP6 PUSH2 0x7E64 JUMP JUMPDEST PUSH2 0xA5D0 PUSH1 0x60 DUP4 ADD DUP5 PUSH2 0x7E64 JUMP JUMPDEST SWAP6 SWAP5 POP POP POP POP POP JUMP INVALID PUSH20 0x7570706F72743D627261766F2671756F72756D3D PUSH2 0x6761 PUSH10 0x6E73742C666F722C6162 PUSH20 0x7461696EA2646970667358221220376161FD36C6 DUP5 RETURN 0x25 0x28 MSIZE SWAP3 0xBD SUB 0x2B BLOCKHASH PUSH4 0xD3F5BCF 0xDC SHR SELFDESTRUCT 0xD4 KECCAK256 0xA6 SWAP7 DIV 0xC5 PUSH2 0x3664 PUSH20 0x6F6C634300081A003361016060405273DA82D8E1 DUP9 0xE3 SSTORE 0xC3 DUP1 0xD7 PUSH23 0x16B2B63B0267AA68ED600B5F6101000A81548173FFFFFF SELFDESTRUCT SELFDESTRUCT SELFDESTRUCT SELFDESTRUCT SELFDESTRUCT SELFDESTRUCT SELFDESTRUCT SELFDESTRUCT SELFDESTRUCT SELFDESTRUCT SELFDESTRUCT SELFDESTRUCT SELFDESTRUCT SELFDESTRUCT SELFDESTRUCT SELFDESTRUCT SELFDESTRUCT MUL NOT AND SWAP1 DUP4 PUSH20 0xFFFFFFFFFFFFFFFFFFFFFFFFFFFFFFFFFFFFFFFF AND MUL OR SWAP1 SSTORE POP PUSH20 0xA0FDDC85DA6FBE53D2E7D55CBDA9A22C3620816C PUSH1 0xC PUSH0 PUSH2 0x100 EXP DUP2 SLOAD DUP2 PUSH20 0xFFFFFFFFFFFFFFFFFFFFFFFFFFFFFFFFFFFFFFFF MUL NOT AND SWAP1 DUP4 PUSH20 0xFFFFFFFFFFFFFFFFFFFFFFFFFFFFFFFFFFFFFFFF AND MUL OR SWAP1 SSTORE POP PUSH20 0x58E4A1126170CFA7CCF016A9362AE1A9F1C70914 PUSH1 0xD PUSH0 PUSH2 0x100 EXP DUP2 SLOAD DUP2 PUSH20 0xFFFFFFFFFFFFFFFFFFFFFFFFFFFFFFFFFFFFFFFF MUL NOT AND SWAP1 DUP4 PUSH20 0xFFFFFFFFFFFFFFFFFFFFFFFFFFFFFFFFFFFFFFFF AND MUL OR SWAP1 SSTORE POP PUSH20 0xB6458438E80AD9BD3DD3DDB5FB1942A139C1FFD3 PUSH1 0xE PUSH0 PUSH2 0x100 EXP DUP2 SLOAD DUP2 PUSH20 0xFFFFFFFFFFFFFFFFFFFFFFFFFFFFFFFFFFFFFFFF MUL NOT AND SWAP1 DUP4 PUSH20 0xFFFFFFFFFFFFFFFFFFFFFFFFFFFFFFFFFFFFFFFF AND MUL OR SWAP1 SSTORE POP CALLVALUE DUP1 ISZERO PUSH2 0x160 JUMPI PUSH0 DUP1 REVERT JUMPDEST POP PUSH1 0x40 MLOAD PUSH2 0x45D4 CODESIZE SUB DUP1 PUSH2 0x45D4 DUP4 CODECOPY DUP2 DUP2 ADD PUSH1 0x40 MSTORE DUP2 ADD SWAP1 PUSH2 0x182 SWAP2 SWAP1 PUSH2 0x52D JUMP JUMPDEST DUP3 DUP1 PUSH1 0x40 MLOAD DUP1 PUSH1 0x40 ADD PUSH1 0x40 MSTORE DUP1 PUSH1 0x1 DUP2 MSTORE PUSH1 0x20 ADD PUSH32 0x3100000000000000000000000000000000000000000000000000000000000000 DUP2 MSTORE POP DUP6 DUP6 DUP2 PUSH1 0x3 SWAP1 DUP2 PUSH2 0x1CB SWAP2 SWAP1 PUSH2 0x7B9 JUMP JUMPDEST POP DUP1 PUSH1 0x4 SWAP1 DUP2 PUSH2 0x1DB SWAP2 SWAP1 PUSH2 0x7B9 JUMP JUMPDEST POP POP POP PUSH2 0x1F2 PUSH1 0x5 DUP4 PUSH2 0x298 PUSH1 0x20 SHL SWAP1 SWAP2 SWAP1 PUSH1 0x20 SHR JUMP JUMPDEST PUSH2 0x120 DUP2 DUP2 MSTORE POP POP PUSH2 0x20E PUSH1 0x6 DUP3 PUSH2 0x298 PUSH1 0x20 SHL SWAP1 SWAP2 SWAP1 PUSH1 0x20 SHR JUMP JUMPDEST PUSH2 0x140 DUP2 DUP2 MSTORE POP POP DUP2 DUP1 MLOAD SWAP1 PUSH1 0x20 ADD KECCAK256 PUSH1 0xE0 DUP2 DUP2 MSTORE POP POP DUP1 DUP1 MLOAD SWAP1 PUSH1 0x20 ADD KECCAK256 PUSH2 0x100 DUP2 DUP2 MSTORE POP POP CHAINID PUSH1 0xA0 DUP2 DUP2 MSTORE POP POP PUSH2 0x24B PUSH2 0x2E5 PUSH1 0x20 SHL PUSH1 0x20 SHR JUMP JUMPDEST PUSH1 0x80 DUP2 DUP2 MSTORE POP POP ADDRESS PUSH20 0xFFFFFFFFFFFFFFFFFFFFFFFFFFFFFFFFFFFFFFFF AND PUSH1 0xC0 DUP2 PUSH20 0xFFFFFFFFFFFFFFFFFFFFFFFFFFFFFFFFFFFFFFFF AND DUP2 MSTORE POP POP POP POP POP DUP1 PUSH1 0xF DUP2 SWAP1 SSTORE POP POP POP POP PUSH2 0xA3A JUMP JUMPDEST PUSH0 PUSH1 0x20 DUP4 MLOAD LT ISZERO PUSH2 0x2B9 JUMPI PUSH2 0x2B2 DUP4 PUSH2 0x33F PUSH1 0x20 SHL PUSH1 0x20 SHR JUMP JUMPDEST SWAP1 POP PUSH2 0x2DF JUMP JUMPDEST DUP3 PUSH2 0x2C9 DUP4 PUSH2 0x3A4 PUSH1 0x20 SHL PUSH1 0x20 SHR JUMP JUMPDEST PUSH0 ADD SWAP1 DUP2 PUSH2 0x2D7 SWAP2 SWAP1 PUSH2 0x7B9 JUMP JUMPDEST POP PUSH1 0xFF PUSH0 SHL SWAP1 POP JUMPDEST SWAP3 SWAP2 POP POP JUMP JUMPDEST PUSH0 PUSH32 0x8B73C3C69BB8FE3D512ECC4CF759CC79239F7B179B0FFACAA9A75D522B39400F PUSH1 0xE0 MLOAD PUSH2 0x100 MLOAD CHAINID ADDRESS PUSH1 0x40 MLOAD PUSH1 0x20 ADD PUSH2 0x324 SWAP6 SWAP5 SWAP4 SWAP3 SWAP2 SWAP1 PUSH2 0x8EE JUMP JUMPDEST PUSH1 0x40 MLOAD PUSH1 0x20 DUP2 DUP4 SUB SUB DUP2 MSTORE SWAP1 PUSH1 0x40 MSTORE DUP1 MLOAD SWAP1 PUSH1 0x20 ADD KECCAK256 SWAP1 POP SWAP1 JUMP JUMPDEST PUSH0 DUP1 DUP3 SWAP1 POP PUSH1 0x1F DUP2 MLOAD GT ISZERO PUSH2 0x38B JUMPI DUP3 PUSH1 0x40 MLOAD PUSH32 0x305A27A900000000000000000000000000000000000000000000000000000000 DUP2 MSTORE PUSH1 0x4 ADD PUSH2 0x382 SWAP2 SWAP1 PUSH2 0x987 JUMP JUMPDEST PUSH1 0x40 MLOAD DUP1 SWAP2 SUB SWAP1 REVERT JUMPDEST DUP1 MLOAD DUP2 PUSH2 0x397 SWAP1 PUSH2 0x9D4 JUMP JUMPDEST PUSH0 SHR OR PUSH0 SHL SWAP2 POP POP SWAP2 SWAP1 POP JUMP JUMPDEST PUSH0 DUP2 SWAP1 POP SWAP2 SWAP1 POP JUMP JUMPDEST PUSH0 PUSH1 0x40 MLOAD SWAP1 POP SWAP1 JUMP JUMPDEST PUSH0 DUP1 REVERT JUMPDEST PUSH0 DUP1 REVERT JUMPDEST PUSH0 DUP1 REVERT JUMPDEST PUSH0 DUP1 REVERT JUMPDEST PUSH0 PUSH1 0x1F NOT PUSH1 0x1F DUP4 ADD AND SWAP1 POP SWAP2 SWAP1 POP JUMP JUMPDEST PUSH32 0x4E487B7100000000000000000000000000000000000000000000000000000000 PUSH0 MSTORE PUSH1 0x41 PUSH1 0x4 MSTORE PUSH1 0x24 PUSH0 REVERT JUMPDEST PUSH2 0x40C DUP3 PUSH2 0x3C6 JUMP JUMPDEST DUP2 ADD DUP2 DUP2 LT PUSH8 0xFFFFFFFFFFFFFFFF DUP3 GT OR ISZERO PUSH2 0x42B JUMPI PUSH2 0x42A PUSH2 0x3D6 JUMP JUMPDEST JUMPDEST DUP1 PUSH1 0x40 MSTORE POP POP POP JUMP JUMPDEST PUSH0 PUSH2 0x43D PUSH2 0x3AD JUMP JUMPDEST SWAP1 POP PUSH2 0x449 DUP3 DUP3 PUSH2 0x403 JUMP JUMPDEST SWAP2 SWAP1 POP JUMP JUMPDEST PUSH0 PUSH8 0xFFFFFFFFFFFFFFFF DUP3 GT ISZERO PUSH2 0x468 JUMPI PUSH2 0x467 PUSH2 0x3D6 JUMP JUMPDEST JUMPDEST PUSH2 0x471 DUP3 PUSH2 0x3C6 JUMP JUMPDEST SWAP1 POP PUSH1 0x20 DUP2 ADD SWAP1 POP SWAP2 SWAP1 POP JUMP JUMPDEST DUP3 DUP2 DUP4 MCOPY PUSH0 DUP4 DUP4 ADD MSTORE POP POP POP JUMP JUMPDEST PUSH0 PUSH2 0x49E PUSH2 0x499 DUP5 PUSH2 0x44E JUMP JUMPDEST PUSH2 0x434 JUMP JUMPDEST SWAP1 POP DUP3 DUP2 MSTORE PUSH1 0x20 DUP2 ADD DUP5 DUP5 DUP5 ADD GT ISZERO PUSH2 0x4BA JUMPI PUSH2 0x4B9 PUSH2 0x3C2 JUMP JUMPDEST JUMPDEST PUSH2 0x4C5 DUP5 DUP3 DUP6 PUSH2 0x47E JUMP JUMPDEST POP SWAP4 SWAP3 POP POP POP JUMP JUMPDEST PUSH0 DUP3 PUSH1 0x1F DUP4 ADD SLT PUSH2 0x4E1 JUMPI PUSH2 0x4E0 PUSH2 0x3BE JUMP JUMPDEST JUMPDEST DUP2 MLOAD PUSH2 0x4F1 DUP5 DUP3 PUSH1 0x20 DUP7 ADD PUSH2 0x48C JUMP JUMPDEST SWAP2 POP POP SWAP3 SWAP2 POP POP JUMP JUMPDEST PUSH0 DUP2 SWAP1 POP SWAP2 SWAP1 POP JUMP JUMPDEST PUSH2 0x50C DUP2 PUSH2 0x4FA JUMP JUMPDEST DUP2 EQ PUSH2 0x516 JUMPI PUSH0 DUP1 REVERT JUMPDEST POP JUMP JUMPDEST PUSH0 DUP2 MLOAD SWAP1 POP PUSH2 0x527 DUP2 PUSH2 0x503 JUMP JUMPDEST SWAP3 SWAP2 POP POP JUMP JUMPDEST PUSH0 DUP1 PUSH0 PUSH1 0x60 DUP5 DUP7 SUB SLT ISZERO PUSH2 0x544 JUMPI PUSH2 0x543 PUSH2 0x3B6 JUMP JUMPDEST JUMPDEST PUSH0 DUP5 ADD MLOAD PUSH8 0xFFFFFFFFFFFFFFFF DUP2 GT ISZERO PUSH2 0x561 JUMPI PUSH2 0x560 PUSH2 0x3BA JUMP JUMPDEST JUMPDEST PUSH2 0x56D DUP7 DUP3 DUP8 ADD PUSH2 0x4CD JUMP JUMPDEST SWAP4 POP POP PUSH1 0x20 DUP5 ADD MLOAD PUSH8 0xFFFFFFFFFFFFFFFF DUP2 GT ISZERO PUSH2 0x58E JUMPI PUSH2 0x58D PUSH2 0x3BA JUMP JUMPDEST JUMPDEST PUSH2 0x59A DUP7 DUP3 DUP8 ADD PUSH2 0x4CD JUMP JUMPDEST SWAP3 POP POP PUSH1 0x40 PUSH2 0x5AB DUP7 DUP3 DUP8 ADD PUSH2 0x519 JUMP JUMPDEST SWAP2 POP POP SWAP3 POP SWAP3 POP SWAP3 JUMP JUMPDEST PUSH0 DUP2 MLOAD SWAP1 POP SWAP2 SWAP1 POP JUMP JUMPDEST PUSH32 0x4E487B7100000000000000000000000000000000000000000000000000000000 PUSH0 MSTORE PUSH1 0x22 PUSH1 0x4 MSTORE PUSH1 0x24 PUSH0 REVERT JUMPDEST PUSH0 PUSH1 0x2 DUP3 DIV SWAP1 POP PUSH1 0x1 DUP3 AND DUP1 PUSH2 0x603 JUMPI PUSH1 0x7F DUP3 AND SWAP2 POP JUMPDEST PUSH1 0x20 DUP3 LT DUP2 SUB PUSH2 0x616 JUMPI PUSH2 0x615 PUSH2 0x5BF JUMP JUMPDEST JUMPDEST POP SWAP2 SWAP1 POP JUMP JUMPDEST PUSH0 DUP2 SWAP1 POP DUP2 PUSH0 MSTORE PUSH1 0x20 PUSH0 KECCAK256 SWAP1 POP SWAP2 SWAP1 POP JUMP JUMPDEST PUSH0 PUSH1 0x20 PUSH1 0x1F DUP4 ADD DIV SWAP1 POP SWAP2 SWAP1 POP JUMP JUMPDEST PUSH0 DUP3 DUP3 SHL SWAP1 POP SWAP3 SWAP2 POP POP JUMP JUMPDEST PUSH0 PUSH1 0x8 DUP4 MUL PUSH2 0x678 PUSH32 0xFFFFFFFFFFFFFFFFFFFFFFFFFFFFFFFFFFFFFFFFFFFFFFFFFFFFFFFFFFFFFFFF DUP3 PUSH2 0x63D JUMP JUMPDEST PUSH2 0x682 DUP7 DUP4 PUSH2 0x63D JUMP JUMPDEST SWAP6 POP DUP1 NOT DUP5 AND SWAP4 POP DUP1 DUP7 AND DUP5 OR SWAP3 POP POP POP SWAP4 SWAP3 POP POP POP JUMP JUMPDEST PUSH0 DUP2 SWAP1 POP SWAP2 SWAP1 POP JUMP JUMPDEST PUSH0 PUSH2 0x6BD PUSH2 0x6B8 PUSH2 0x6B3 DUP5 PUSH2 0x4FA JUMP JUMPDEST PUSH2 0x69A JUMP JUMPDEST PUSH2 0x4FA JUMP JUMPDEST SWAP1 POP SWAP2 SWAP1 POP JUMP JUMPDEST PUSH0 DUP2 SWAP1 POP SWAP2 SWAP1 POP JUMP JUMPDEST PUSH2 0x6D6 DUP4 PUSH2 0x6A3 JUMP JUMPDEST PUSH2 0x6EA PUSH2 0x6E2 DUP3 PUSH2 0x6C4 JUMP JUMPDEST DUP5 DUP5 SLOAD PUSH2 0x649 JUMP JUMPDEST DUP3 SSTORE POP POP POP POP JUMP JUMPDEST PUSH0 SWAP1 JUMP JUMPDEST PUSH2 0x6FE PUSH2 0x6F2 JUMP JUMPDEST PUSH2 0x709 DUP2 DUP5 DUP5 PUSH2 0x6CD JUMP JUMPDEST POP POP POP JUMP JUMPDEST JUMPDEST DUP2 DUP2 LT ISZERO PUSH2 0x72C JUMPI PUSH2 0x721 PUSH0 DUP3 PUSH2 0x6F6 JUMP JUMPDEST PUSH1 0x1 DUP2 ADD SWAP1 POP PUSH2 0x70F JUMP JUMPDEST POP POP JUMP JUMPDEST PUSH1 0x1F DUP3 GT ISZERO PUSH2 0x771 JUMPI PUSH2 0x742 DUP2 PUSH2 0x61C JUMP JUMPDEST PUSH2 0x74B DUP5 PUSH2 0x62E JUMP JUMPDEST DUP2 ADD PUSH1 0x20 DUP6 LT ISZERO PUSH2 0x75A JUMPI DUP2 SWAP1 POP JUMPDEST PUSH2 0x76E PUSH2 0x766 DUP6 PUSH2 0x62E JUMP JUMPDEST DUP4 ADD DUP3 PUSH2 0x70E JUMP JUMPDEST POP POP JUMPDEST POP POP POP JUMP JUMPDEST PUSH0 DUP3 DUP3 SHR SWAP1 POP SWAP3 SWAP2 POP POP JUMP JUMPDEST PUSH0 PUSH2 0x791 PUSH0 NOT DUP5 PUSH1 0x8 MUL PUSH2 0x776 JUMP JUMPDEST NOT DUP1 DUP4 AND SWAP2 POP POP SWAP3 SWAP2 POP POP JUMP JUMPDEST PUSH0 PUSH2 0x7A9 DUP4 DUP4 PUSH2 0x782 JUMP JUMPDEST SWAP2 POP DUP3 PUSH1 0x2 MUL DUP3 OR SWAP1 POP SWAP3 SWAP2 POP POP JUMP JUMPDEST PUSH2 0x7C2 DUP3 PUSH2 0x5B5 JUMP JUMPDEST PUSH8 0xFFFFFFFFFFFFFFFF DUP2 GT ISZERO PUSH2 0x7DB JUMPI PUSH2 0x7DA PUSH2 0x3D6 JUMP JUMPDEST JUMPDEST PUSH2 0x7E5 DUP3 SLOAD PUSH2 0x5EC JUMP JUMPDEST PUSH2 0x7F0 DUP3 DUP3 DUP6 PUSH2 0x730 JUMP JUMPDEST PUSH0 PUSH1 0x20 SWAP1 POP PUSH1 0x1F DUP4 GT PUSH1 0x1 DUP2 EQ PUSH2 0x821 JUMPI PUSH0 DUP5 ISZERO PUSH2 0x80F JUMPI DUP3 DUP8 ADD MLOAD SWAP1 POP JUMPDEST PUSH2 0x819 DUP6 DUP3 PUSH2 0x79E JUMP JUMPDEST DUP7 SSTORE POP PUSH2 0x880 JUMP JUMPDEST PUSH1 0x1F NOT DUP5 AND PUSH2 0x82F DUP7 PUSH2 0x61C JUMP JUMPDEST PUSH0 JUMPDEST DUP3 DUP2 LT ISZERO PUSH2 0x856 JUMPI DUP5 DUP10 ADD MLOAD DUP3 SSTORE PUSH1 0x1 DUP3 ADD SWAP2 POP PUSH1 0x20 DUP6 ADD SWAP5 POP PUSH1 0x20 DUP2 ADD SWAP1 POP PUSH2 0x831 JUMP JUMPDEST DUP7 DUP4 LT ISZERO PUSH2 0x873 JUMPI DUP5 DUP10 ADD MLOAD PUSH2 0x86F PUSH1 0x1F DUP10 AND DUP3 PUSH2 0x782 JUMP JUMPDEST DUP4 SSTORE POP JUMPDEST PUSH1 0x1 PUSH1 0x2 DUP9 MUL ADD DUP9 SSTORE POP POP POP JUMPDEST POP POP POP POP POP POP JUMP JUMPDEST PUSH0 DUP2 SWAP1 POP SWAP2 SWAP1 POP JUMP JUMPDEST PUSH2 0x89A DUP2 PUSH2 0x888 JUMP JUMPDEST DUP3 MSTORE POP POP JUMP JUMPDEST PUSH2 0x8A9 DUP2 PUSH2 0x4FA JUMP JUMPDEST DUP3 MSTORE POP POP JUMP JUMPDEST PUSH0 PUSH20 0xFFFFFFFFFFFFFFFFFFFFFFFFFFFFFFFFFFFFFFFF DUP3 AND SWAP1 POP SWAP2 SWAP1 POP JUMP JUMPDEST PUSH0 PUSH2 0x8D8 DUP3 PUSH2 0x8AF JUMP JUMPDEST SWAP1 POP SWAP2 SWAP1 POP JUMP JUMPDEST PUSH2 0x8E8 DUP2 PUSH2 0x8CE JUMP JUMPDEST DUP3 MSTORE POP POP JUMP JUMPDEST PUSH0 PUSH1 0xA0 DUP3 ADD SWAP1 POP PUSH2 0x901 PUSH0 DUP4 ADD DUP9 PUSH2 0x891 JUMP JUMPDEST PUSH2 0x90E PUSH1 0x20 DUP4 ADD DUP8 PUSH2 0x891 JUMP JUMPDEST PUSH2 0x91B PUSH1 0x40 DUP4 ADD DUP7 PUSH2 0x891 JUMP JUMPDEST PUSH2 0x928 PUSH1 0x60 DUP4 ADD DUP6 PUSH2 0x8A0 JUMP JUMPDEST PUSH2 0x935 PUSH1 0x80 DUP4 ADD DUP5 PUSH2 0x8DF JUMP JUMPDEST SWAP7 SWAP6 POP POP POP POP POP POP JUMP JUMPDEST PUSH0 DUP3 DUP3 MSTORE PUSH1 0x20 DUP3 ADD SWAP1 POP SWAP3 SWAP2 POP POP JUMP JUMPDEST PUSH0 PUSH2 0x959 DUP3 PUSH2 0x5B5 JUMP JUMPDEST PUSH2 0x963 DUP2 DUP6 PUSH2 0x93F JUMP JUMPDEST SWAP4 POP PUSH2 0x973 DUP2 DUP6 PUSH1 0x20 DUP7 ADD PUSH2 0x47E JUMP JUMPDEST PUSH2 0x97C DUP2 PUSH2 0x3C6 JUMP JUMPDEST DUP5 ADD SWAP2 POP POP SWAP3 SWAP2 POP POP JUMP JUMPDEST PUSH0 PUSH1 0x20 DUP3 ADD SWAP1 POP DUP2 DUP2 SUB PUSH0 DUP4 ADD MSTORE PUSH2 0x99F DUP2 DUP5 PUSH2 0x94F JUMP JUMPDEST SWAP1 POP SWAP3 SWAP2 POP POP JUMP JUMPDEST PUSH0 DUP2 MLOAD SWAP1 POP SWAP2 SWAP1 POP JUMP JUMPDEST PUSH0 DUP2 SWAP1 POP PUSH1 0x20 DUP3 ADD SWAP1 POP SWAP2 SWAP1 POP JUMP JUMPDEST PUSH0 PUSH2 0x9CB DUP3 MLOAD PUSH2 0x888 JUMP JUMPDEST DUP1 SWAP2 POP POP SWAP2 SWAP1 POP JUMP JUMPDEST PUSH0 PUSH2 0x9DE DUP3 PUSH2 0x9A7 JUMP JUMPDEST DUP3 PUSH2 0x9E8 DUP5 PUSH2 0x9B1 JUMP JUMPDEST SWAP1 POP PUSH2 0x9F3 DUP2 PUSH2 0x9C0 JUMP JUMPDEST SWAP3 POP PUSH1 0x20 DUP3 LT ISZERO PUSH2 0xA33 JUMPI PUSH2 0xA2E PUSH32 0xFFFFFFFFFFFFFFFFFFFFFFFFFFFFFFFFFFFFFFFFFFFFFFFFFFFFFFFFFFFFFFFF DUP4 PUSH1 0x20 SUB PUSH1 0x8 MUL PUSH2 0x63D JUMP JUMPDEST DUP4 AND SWAP3 POP JUMPDEST POP POP SWAP2 SWAP1 POP JUMP JUMPDEST PUSH1 0x80 MLOAD PUSH1 0xA0 MLOAD PUSH1 0xC0 MLOAD PUSH1 0xE0 MLOAD PUSH2 0x100 MLOAD PUSH2 0x120 MLOAD PUSH2 0x140 MLOAD PUSH2 0x3B49 PUSH2 0xA8B PUSH0 CODECOPY PUSH0 PUSH2 0x158B ADD MSTORE PUSH0 PUSH2 0x1550 ADD MSTORE PUSH0 PUSH2 0x1993 ADD MSTORE PUSH0 PUSH2 0x1972 ADD MSTORE PUSH0 PUSH2 0x1138 ADD MSTORE PUSH0 PUSH2 0x118E ADD MSTORE PUSH0 PUSH2 0x11B7 ADD MSTORE PUSH2 0x3B49 PUSH0 RETURN INVALID PUSH1 0x80 PUSH1 0x40 MSTORE CALLVALUE DUP1 ISZERO PUSH2 0xF JUMPI PUSH0 DUP1 REVERT JUMPDEST POP PUSH1 0x4 CALLDATASIZE LT PUSH2 0x1D8 JUMPI PUSH0 CALLDATALOAD PUSH1 0xE0 SHR DUP1 PUSH4 0x70D20FDE GT PUSH2 0x102 JUMPI DUP1 PUSH4 0xA64B6E5F GT PUSH2 0xA0 JUMPI DUP1 PUSH4 0xD616F1BD GT PUSH2 0x6F JUMPI DUP1 PUSH4 0xD616F1BD EQ PUSH2 0x5AC JUMPI DUP1 PUSH4 0xDD62ED3E EQ PUSH2 0x5CA JUMPI DUP1 PUSH4 0xF1127ED8 EQ PUSH2 0x5FA JUMPI DUP1 PUSH4 0xFA8BA66E EQ PUSH2 0x62A JUMPI PUSH2 0x1D8 JUMP JUMPDEST DUP1 PUSH4 0xA64B6E5F EQ PUSH2 0x514 JUMPI DUP1 PUSH4 0xA9059CBB EQ PUSH2 0x544 JUMPI DUP1 PUSH4 0xC3CDA520 EQ PUSH2 0x574 JUMPI DUP1 PUSH4 0xD505ACCF EQ PUSH2 0x590 JUMPI PUSH2 0x1D8 JUMP JUMPDEST DUP1 PUSH4 0x8E539E8C GT PUSH2 0xDC JUMPI DUP1 PUSH4 0x8E539E8C EQ PUSH2 0x478 JUMPI DUP1 PUSH4 0x91DDADF4 EQ PUSH2 0x4A8 JUMPI DUP1 PUSH4 0x95D89B41 EQ PUSH2 0x4C6 JUMPI DUP1 PUSH4 0x9AB24EB0 EQ PUSH2 0x4E4 JUMPI PUSH2 0x1D8 JUMP JUMPDEST DUP1 PUSH4 0x70D20FDE EQ PUSH2 0x406 JUMPI DUP1 PUSH4 0x7ECEBE00 EQ PUSH2 0x424 JUMPI DUP1 PUSH4 0x84B0196E EQ PUSH2 0x454 JUMPI PUSH2 0x1D8 JUMP JUMPDEST DUP1 PUSH4 0x3644E515 GT PUSH2 0x17A JUMPI DUP1 PUSH4 0x587CDE1E GT PUSH2 0x149 JUMPI DUP1 PUSH4 0x587CDE1E EQ PUSH2 0x35A JUMPI DUP1 PUSH4 0x5C19A95C EQ PUSH2 0x38A JUMPI DUP1 PUSH4 0x6FCFFF45 EQ PUSH2 0x3A6 JUMPI DUP1 PUSH4 0x70A08231 EQ PUSH2 0x3D6 JUMPI PUSH2 0x1D8 JUMP JUMPDEST DUP1 PUSH4 0x3644E515 EQ PUSH2 0x2D2 JUMPI DUP1 PUSH4 0x3A46B1A8 EQ PUSH2 0x2F0 JUMPI DUP1 PUSH4 0x40C10F19 EQ PUSH2 0x320 JUMPI DUP1 PUSH4 0x4BF5D7E9 EQ PUSH2 0x33C JUMPI PUSH2 0x1D8 JUMP JUMPDEST DUP1 PUSH4 0xB8B4B24 GT PUSH2 0x1B6 JUMPI DUP1 PUSH4 0xB8B4B24 EQ PUSH2 0x248 JUMPI DUP1 PUSH4 0x18160DDD EQ PUSH2 0x266 JUMPI DUP1 PUSH4 0x23B872DD EQ PUSH2 0x284 JUMPI DUP1 PUSH4 0x313CE567 EQ PUSH2 0x2B4 JUMPI PUSH2 0x1D8 JUMP JUMPDEST DUP1 PUSH4 0x57D2C17 EQ PUSH2 0x1DC JUMPI DUP1 PUSH4 0x6FDDE03 EQ PUSH2 0x1FA JUMPI DUP1 PUSH4 0x95EA7B3 EQ PUSH2 0x218 JUMPI JUMPDEST PUSH0 DUP1 REVERT JUMPDEST PUSH2 0x1E4 PUSH2 0x634 JUMP JUMPDEST PUSH1 0x40 MLOAD PUSH2 0x1F1 SWAP2 SWAP1 PUSH2 0x2C81 JUMP JUMPDEST PUSH1 0x40 MLOAD DUP1 SWAP2 SUB SWAP1 RETURN JUMPDEST PUSH2 0x202 PUSH2 0x659 JUMP JUMPDEST PUSH1 0x40 MLOAD PUSH2 0x20F SWAP2 SWAP1 PUSH2 0x2D0A JUMP JUMPDEST PUSH1 0x40 MLOAD DUP1 SWAP2 SUB SWAP1 RETURN JUMPDEST PUSH2 0x232 PUSH1 0x4 DUP1 CALLDATASIZE SUB DUP2 ADD SWAP1 PUSH2 0x22D SWAP2 SWAP1 PUSH2 0x2D8B JUMP JUMPDEST PUSH2 0x6E9 JUMP JUMPDEST PUSH1 0x40 MLOAD PUSH2 0x23F SWAP2 SWAP1 PUSH2 0x2DE3 JUMP JUMPDEST PUSH1 0x40 MLOAD DUP1 SWAP2 SUB SWAP1 RETURN JUMPDEST PUSH2 0x250 PUSH2 0x70B JUMP JUMPDEST PUSH1 0x40 MLOAD PUSH2 0x25D SWAP2 SWAP1 PUSH2 0x2C81 JUMP JUMPDEST PUSH1 0x40 MLOAD DUP1 SWAP2 SUB SWAP1 RETURN JUMPDEST PUSH2 0x26E PUSH2 0x730 JUMP JUMPDEST PUSH1 0x40 MLOAD PUSH2 0x27B SWAP2 SWAP1 PUSH2 0x2E0B JUMP JUMPDEST PUSH1 0x40 MLOAD DUP1 SWAP2 SUB SWAP1 RETURN JUMPDEST PUSH2 0x29E PUSH1 0x4 DUP1 CALLDATASIZE SUB DUP2 ADD SWAP1 PUSH2 0x299 SWAP2 SWAP1 PUSH2 0x2E24 JUMP JUMPDEST PUSH2 0x739 JUMP JUMPDEST PUSH1 0x40 MLOAD PUSH2 0x2AB SWAP2 SWAP1 PUSH2 0x2DE3 JUMP JUMPDEST PUSH1 0x40 MLOAD DUP1 SWAP2 SUB SWAP1 RETURN JUMPDEST PUSH2 0x2BC PUSH2 0x767 JUMP JUMPDEST PUSH1 0x40 MLOAD PUSH2 0x2C9 SWAP2 SWAP1 PUSH2 0x2E8F JUMP JUMPDEST PUSH1 0x40 MLOAD DUP1 SWAP2 SUB SWAP1 RETURN JUMPDEST PUSH2 0x2DA PUSH2 0x76F JUMP JUMPDEST PUSH1 0x40 MLOAD PUSH2 0x2E7 SWAP2 SWAP1 PUSH2 0x2EC0 JUMP JUMPDEST PUSH1 0x40 MLOAD DUP1 SWAP2 SUB SWAP1 RETURN JUMPDEST PUSH2 0x30A PUSH1 0x4 DUP1 CALLDATASIZE SUB DUP2 ADD SWAP1 PUSH2 0x305 SWAP2 SWAP1 PUSH2 0x2D8B JUMP JUMPDEST PUSH2 0x77D JUMP JUMPDEST PUSH1 0x40 MLOAD PUSH2 0x317 SWAP2 SWAP1 PUSH2 0x2E0B JUMP JUMPDEST PUSH1 0x40 MLOAD DUP1 SWAP2 SUB SWAP1 RETURN JUMPDEST PUSH2 0x33A PUSH1 0x4 DUP1 CALLDATASIZE SUB DUP2 ADD SWAP1 PUSH2 0x335 SWAP2 SWAP1 PUSH2 0x2D8B JUMP JUMPDEST PUSH2 0x7F9 JUMP JUMPDEST STOP JUMPDEST PUSH2 0x344 PUSH2 0x825 JUMP JUMPDEST PUSH1 0x40 MLOAD PUSH2 0x351 SWAP2 SWAP1 PUSH2 0x2D0A JUMP JUMPDEST PUSH1 0x40 MLOAD DUP1 SWAP2 SUB SWAP1 RETURN JUMPDEST PUSH2 0x374 PUSH1 0x4 DUP1 CALLDATASIZE SUB DUP2 ADD SWAP1 PUSH2 0x36F SWAP2 SWAP1 PUSH2 0x2ED9 JUMP JUMPDEST PUSH2 0x8B9 JUMP JUMPDEST PUSH1 0x40 MLOAD PUSH2 0x381 SWAP2 SWAP1 PUSH2 0x2C81 JUMP JUMPDEST PUSH1 0x40 MLOAD DUP1 SWAP2 SUB SWAP1 RETURN JUMPDEST PUSH2 0x3A4 PUSH1 0x4 DUP1 CALLDATASIZE SUB DUP2 ADD SWAP1 PUSH2 0x39F SWAP2 SWAP1 PUSH2 0x2ED9 JUMP JUMPDEST PUSH2 0x91E JUMP JUMPDEST STOP JUMPDEST PUSH2 0x3C0 PUSH1 0x4 DUP1 CALLDATASIZE SUB DUP2 ADD SWAP1 PUSH2 0x3BB SWAP2 SWAP1 PUSH2 0x2ED9 JUMP JUMPDEST PUSH2 0x937 JUMP JUMPDEST PUSH1 0x40 MLOAD PUSH2 0x3CD SWAP2 SWAP1 PUSH2 0x2F22 JUMP JUMPDEST PUSH1 0x40 MLOAD DUP1 SWAP2 SUB SWAP1 RETURN JUMPDEST PUSH2 0x3F0 PUSH1 0x4 DUP1 CALLDATASIZE SUB DUP2 ADD SWAP1 PUSH2 0x3EB SWAP2 SWAP1 PUSH2 0x2ED9 JUMP JUMPDEST PUSH2 0x948 JUMP JUMPDEST PUSH1 0x40 MLOAD PUSH2 0x3FD SWAP2 SWAP1 PUSH2 0x2E0B JUMP JUMPDEST PUSH1 0x40 MLOAD DUP1 SWAP2 SUB SWAP1 RETURN JUMPDEST PUSH2 0x40E PUSH2 0x98D JUMP JUMPDEST PUSH1 0x40 MLOAD PUSH2 0x41B SWAP2 SWAP1 PUSH2 0x2C81 JUMP JUMPDEST PUSH1 0x40 MLOAD DUP1 SWAP2 SUB SWAP1 RETURN JUMPDEST PUSH2 0x43E PUSH1 0x4 DUP1 CALLDATASIZE SUB DUP2 ADD SWAP1 PUSH2 0x439 SWAP2 SWAP1 PUSH2 0x2ED9 JUMP JUMPDEST PUSH2 0x9B2 JUMP JUMPDEST PUSH1 0x40 MLOAD PUSH2 0x44B SWAP2 SWAP1 PUSH2 0x2E0B JUMP JUMPDEST PUSH1 0x40 MLOAD DUP1 SWAP2 SUB SWAP1 RETURN JUMPDEST PUSH2 0x45C PUSH2 0x9C3 JUMP JUMPDEST PUSH1 0x40 MLOAD PUSH2 0x46F SWAP8 SWAP7 SWAP6 SWAP5 SWAP4 SWAP3 SWAP2 SWAP1 PUSH2 0x302C JUMP JUMPDEST PUSH1 0x40 MLOAD DUP1 SWAP2 SUB SWAP1 RETURN JUMPDEST PUSH2 0x492 PUSH1 0x4 DUP1 CALLDATASIZE SUB DUP2 ADD SWAP1 PUSH2 0x48D SWAP2 SWAP1 PUSH2 0x30AE JUMP JUMPDEST PUSH2 0xA68 JUMP JUMPDEST PUSH1 0x40 MLOAD PUSH2 0x49F SWAP2 SWAP1 PUSH2 0x2E0B JUMP JUMPDEST PUSH1 0x40 MLOAD DUP1 SWAP2 SUB SWAP1 RETURN JUMPDEST PUSH2 0x4B0 PUSH2 0xAA8 JUMP JUMPDEST PUSH1 0x40 MLOAD PUSH2 0x4BD SWAP2 SWAP1 PUSH2 0x30F9 JUMP JUMPDEST PUSH1 0x40 MLOAD DUP1 SWAP2 SUB SWAP1 RETURN JUMPDEST PUSH2 0x4CE PUSH2 0xAB6 JUMP JUMPDEST PUSH1 0x40 MLOAD PUSH2 0x4DB SWAP2 SWAP1 PUSH2 0x2D0A JUMP JUMPDEST PUSH1 0x40 MLOAD DUP1 SWAP2 SUB SWAP1 RETURN JUMPDEST PUSH2 0x4FE PUSH1 0x4 DUP1 CALLDATASIZE SUB DUP2 ADD SWAP1 PUSH2 0x4F9 SWAP2 SWAP1 PUSH2 0x2ED9 JUMP JUMPDEST PUSH2 0xB46 JUMP JUMPDEST PUSH1 0x40 MLOAD PUSH2 0x50B SWAP2 SWAP1 PUSH2 0x2E0B JUMP JUMPDEST PUSH1 0x40 MLOAD DUP1 SWAP2 SUB SWAP1 RETURN JUMPDEST PUSH2 0x52E PUSH1 0x4 DUP1 CALLDATASIZE SUB DUP2 ADD SWAP1 PUSH2 0x529 SWAP2 SWAP1 PUSH2 0x2E24 JUMP JUMPDEST PUSH2 0xBAF JUMP JUMPDEST PUSH1 0x40 MLOAD PUSH2 0x53B SWAP2 SWAP1 PUSH2 0x2DE3 JUMP JUMPDEST PUSH1 0x40 MLOAD DUP1 SWAP2 SUB SWAP1 RETURN JUMPDEST PUSH2 0x55E PUSH1 0x4 DUP1 CALLDATASIZE SUB DUP2 ADD SWAP1 PUSH2 0x559 SWAP2 SWAP1 PUSH2 0x2D8B JUMP JUMPDEST PUSH2 0xBC6 JUMP JUMPDEST PUSH1 0x40 MLOAD PUSH2 0x56B SWAP2 SWAP1 PUSH2 0x2DE3 JUMP JUMPDEST PUSH1 0x40 MLOAD DUP1 SWAP2 SUB SWAP1 RETURN JUMPDEST PUSH2 0x58E PUSH1 0x4 DUP1 CALLDATASIZE SUB DUP2 ADD SWAP1 PUSH2 0x589 SWAP2 SWAP1 PUSH2 0x3166 JUMP JUMPDEST PUSH2 0xBE8 JUMP JUMPDEST STOP JUMPDEST PUSH2 0x5AA PUSH1 0x4 DUP1 CALLDATASIZE SUB DUP2 ADD SWAP1 PUSH2 0x5A5 SWAP2 SWAP1 PUSH2 0x31EF JUMP JUMPDEST PUSH2 0xCAD JUMP JUMPDEST STOP JUMPDEST PUSH2 0x5B4 PUSH2 0xDF2 JUMP JUMPDEST PUSH1 0x40 MLOAD PUSH2 0x5C1 SWAP2 SWAP1 PUSH2 0x2C81 JUMP JUMPDEST PUSH1 0x40 MLOAD DUP1 SWAP2 SUB SWAP1 RETURN JUMPDEST PUSH2 0x5E4 PUSH1 0x4 DUP1 CALLDATASIZE SUB DUP2 ADD SWAP1 PUSH2 0x5DF SWAP2 SWAP1 PUSH2 0x328C JUMP JUMPDEST PUSH2 0xE17 JUMP JUMPDEST PUSH1 0x40 MLOAD PUSH2 0x5F1 SWAP2 SWAP1 PUSH2 0x2E0B JUMP JUMPDEST PUSH1 0x40 MLOAD DUP1 SWAP2 SUB SWAP1 RETURN JUMPDEST PUSH2 0x614 PUSH1 0x4 DUP1 CALLDATASIZE SUB DUP2 ADD SWAP1 PUSH2 0x60F SWAP2 SWAP1 PUSH2 0x32F4 JUMP JUMPDEST PUSH2 0xE99 JUMP JUMPDEST PUSH1 0x40 MLOAD PUSH2 0x621 SWAP2 SWAP1 PUSH2 0x33A2 JUMP JUMPDEST PUSH1 0x40 MLOAD DUP1 SWAP2 SUB SWAP1 RETURN JUMPDEST PUSH2 0x632 PUSH2 0xEB3 JUMP JUMPDEST STOP JUMPDEST PUSH1 0xE PUSH0 SWAP1 SLOAD SWAP1 PUSH2 0x100 EXP SWAP1 DIV PUSH20 0xFFFFFFFFFFFFFFFFFFFFFFFFFFFFFFFFFFFFFFFF AND DUP2 JUMP JUMPDEST PUSH1 0x60 PUSH1 0x3 DUP1 SLOAD PUSH2 0x668 SWAP1 PUSH2 0x33E8 JUMP JUMPDEST DUP1 PUSH1 0x1F ADD PUSH1 0x20 DUP1 SWAP2 DIV MUL PUSH1 0x20 ADD PUSH1 0x40 MLOAD SWAP1 DUP2 ADD PUSH1 0x40 MSTORE DUP1 SWAP3 SWAP2 SWAP1 DUP2 DUP2 MSTORE PUSH1 0x20 ADD DUP3 DUP1 SLOAD PUSH2 0x694 SWAP1 PUSH2 0x33E8 JUMP JUMPDEST DUP1 ISZERO PUSH2 0x6DF JUMPI DUP1 PUSH1 0x1F LT PUSH2 0x6B6 JUMPI PUSH2 0x100 DUP1 DUP4 SLOAD DIV MUL DUP4 MSTORE SWAP2 PUSH1 0x20 ADD SWAP2 PUSH2 0x6DF JUMP JUMPDEST DUP3 ADD SWAP2 SWAP1 PUSH0 MSTORE PUSH1 0x20 PUSH0 KECCAK256 SWAP1 JUMPDEST DUP2 SLOAD DUP2 MSTORE SWAP1 PUSH1 0x1 ADD SWAP1 PUSH1 0x20 ADD DUP1 DUP4 GT PUSH2 0x6C2 JUMPI DUP3 SWAP1 SUB PUSH1 0x1F AND DUP3 ADD SWAP2 JUMPDEST POP POP POP POP POP SWAP1 POP SWAP1 JUMP JUMPDEST PUSH0 DUP1 PUSH2 0x6F3 PUSH2 0xF99 JUMP JUMPDEST SWAP1 POP PUSH2 0x700 DUP2 DUP6 DUP6 PUSH2 0xFA0 JUMP JUMPDEST PUSH1 0x1 SWAP2 POP POP SWAP3 SWAP2 POP POP JUMP JUMPDEST PUSH1 0xB PUSH0 SWAP1 SLOAD SWAP1 PUSH2 0x100 EXP SWAP1 DIV PUSH20 0xFFFFFFFFFFFFFFFFFFFFFFFFFFFFFFFFFFFFFFFF AND DUP2 JUMP JUMPDEST PUSH0 PUSH1 0x2 SLOAD SWAP1 POP SWAP1 JUMP JUMPDEST PUSH0 DUP1 PUSH2 0x743 PUSH2 0xF99 JUMP JUMPDEST SWAP1 POP PUSH2 0x750 DUP6 DUP3 DUP6 PUSH2 0xFB2 JUMP JUMPDEST PUSH2 0x75B DUP6 DUP6 DUP6 PUSH2 0x1045 JUMP JUMPDEST PUSH1 0x1 SWAP2 POP POP SWAP4 SWAP3 POP POP POP JUMP JUMPDEST PUSH0 PUSH1 0xC SWAP1 POP SWAP1 JUMP JUMPDEST PUSH0 PUSH2 0x778 PUSH2 0x1135 JUMP JUMPDEST SWAP1 POP SWAP1 JUMP JUMPDEST PUSH0 PUSH2 0x7D5 PUSH2 0x78A DUP4 PUSH2 0x11EB JUMP JUMPDEST PUSH1 0x9 PUSH0 DUP7 PUSH20 0xFFFFFFFFFFFFFFFFFFFFFFFFFFFFFFFFFFFFFFFF AND PUSH20 0xFFFFFFFFFFFFFFFFFFFFFFFFFFFFFFFFFFFFFFFF AND DUP2 MSTORE PUSH1 0x20 ADD SWAP1 DUP2 MSTORE PUSH1 0x20 ADD PUSH0 KECCAK256 PUSH2 0x1256 SWAP1 SWAP2 SWAP1 PUSH4 0xFFFFFFFF AND JUMP JUMPDEST PUSH26 0xFFFFFFFFFFFFFFFFFFFFFFFFFFFFFFFFFFFFFFFFFFFFFFFFFFFF AND SWAP1 POP SWAP3 SWAP2 POP POP JUMP JUMPDEST PUSH2 0x821 DUP3 PUSH2 0x805 PUSH2 0x767 JUMP JUMPDEST PUSH1 0xA PUSH2 0x811 SWAP2 SWAP1 PUSH2 0x3574 JUMP JUMPDEST DUP4 PUSH2 0x81C SWAP2 SWAP1 PUSH2 0x35BE JUMP JUMPDEST PUSH2 0x1343 JUMP JUMPDEST POP POP JUMP JUMPDEST PUSH1 0x60 PUSH2 0x82F PUSH2 0x13C2 JUMP JUMPDEST PUSH6 0xFFFFFFFFFFFF AND PUSH2 0x83F PUSH2 0xAA8 JUMP JUMPDEST PUSH6 0xFFFFFFFFFFFF AND EQ PUSH2 0x87E JUMPI PUSH1 0x40 MLOAD PUSH32 0x6FF0714000000000000000000000000000000000000000000000000000000000 DUP2 MSTORE PUSH1 0x4 ADD PUSH1 0x40 MLOAD DUP1 SWAP2 SUB SWAP1 REVERT JUMPDEST PUSH1 0x40 MLOAD DUP1 PUSH1 0x40 ADD PUSH1 0x40 MSTORE DUP1 PUSH1 0x1D DUP2 MSTORE PUSH1 0x20 ADD PUSH32 0x6D6F64653D626C6F636B6E756D6265722666726F6D3D64656661756C74000000 DUP2 MSTORE POP SWAP1 POP SWAP1 JUMP JUMPDEST PUSH0 PUSH1 0x8 PUSH0 DUP4 PUSH20 0xFFFFFFFFFFFFFFFFFFFFFFFFFFFFFFFFFFFFFFFF AND PUSH20 0xFFFFFFFFFFFFFFFFFFFFFFFFFFFFFFFFFFFFFFFF AND DUP2 MSTORE PUSH1 0x20 ADD SWAP1 DUP2 MSTORE PUSH1 0x20 ADD PUSH0 KECCAK256 PUSH0 SWAP1 SLOAD SWAP1 PUSH2 0x100 EXP SWAP1 DIV PUSH20 0xFFFFFFFFFFFFFFFFFFFFFFFFFFFFFFFFFFFFFFFF AND SWAP1 POP SWAP2 SWAP1 POP JUMP JUMPDEST PUSH0 PUSH2 0x927 PUSH2 0xF99 JUMP JUMPDEST SWAP1 POP PUSH2 0x933 DUP2 DUP4 PUSH2 0x13D1 JUMP JUMPDEST POP POP JUMP JUMPDEST PUSH0 PUSH2 0x941 DUP3 PUSH2 0x14E1 JUMP JUMPDEST SWAP1 POP SWAP2 SWAP1 POP JUMP JUMPDEST PUSH0 DUP1 PUSH0 DUP4 PUSH20 0xFFFFFFFFFFFFFFFFFFFFFFFFFFFFFFFFFFFFFFFF AND PUSH20 0xFFFFFFFFFFFFFFFFFFFFFFFFFFFFFFFFFFFFFFFF AND DUP2 MSTORE PUSH1 0x20 ADD SWAP1 DUP2 MSTORE PUSH1 0x20 ADD PUSH0 KECCAK256 SLOAD SWAP1 POP SWAP2 SWAP1 POP JUMP JUMPDEST PUSH1 0xD PUSH0 SWAP1 SLOAD SWAP1 PUSH2 0x100 EXP SWAP1 DIV PUSH20 0xFFFFFFFFFFFFFFFFFFFFFFFFFFFFFFFFFFFFFFFF AND DUP2 JUMP JUMPDEST PUSH0 PUSH2 0x9BC DUP3 PUSH2 0x1536 JUMP JUMPDEST SWAP1 POP SWAP2 SWAP1 POP JUMP JUMPDEST PUSH0 PUSH1 0x60 DUP1 PUSH0 DUP1 PUSH0 PUSH1 0x60 PUSH2 0x9D4 PUSH2 0x1547 JUMP JUMPDEST PUSH2 0x9DC PUSH2 0x1582 JUMP JUMPDEST CHAINID ADDRESS PUSH0 DUP1 SHL PUSH0 PUSH8 0xFFFFFFFFFFFFFFFF DUP2 GT ISZERO PUSH2 0x9FB JUMPI PUSH2 0x9FA PUSH2 0x35FF JUMP JUMPDEST JUMPDEST PUSH1 0x40 MLOAD SWAP1 DUP1 DUP3 MSTORE DUP1 PUSH1 0x20 MUL PUSH1 0x20 ADD DUP3 ADD PUSH1 0x40 MSTORE DUP1 ISZERO PUSH2 0xA29 JUMPI DUP2 PUSH1 0x20 ADD PUSH1 0x20 DUP3 MUL DUP1 CALLDATASIZE DUP4 CALLDATACOPY DUP1 DUP3 ADD SWAP2 POP POP SWAP1 POP JUMPDEST POP PUSH32 0xF00000000000000000000000000000000000000000000000000000000000000 SWAP6 SWAP5 SWAP4 SWAP3 SWAP2 SWAP1 SWAP7 POP SWAP7 POP SWAP7 POP SWAP7 POP SWAP7 POP SWAP7 POP SWAP7 POP SWAP1 SWAP2 SWAP3 SWAP4 SWAP5 SWAP6 SWAP7 JUMP JUMPDEST PUSH0 PUSH2 0xA85 PUSH2 0xA75 DUP4 PUSH2 0x11EB JUMP JUMPDEST PUSH1 0xA PUSH2 0x1256 SWAP1 SWAP2 SWAP1 PUSH4 0xFFFFFFFF AND JUMP JUMPDEST PUSH26 0xFFFFFFFFFFFFFFFFFFFFFFFFFFFFFFFFFFFFFFFFFFFFFFFFFFFF AND SWAP1 POP SWAP2 SWAP1 POP JUMP JUMPDEST PUSH0 PUSH2 0xAB1 PUSH2 0x13C2 JUMP JUMPDEST SWAP1 POP SWAP1 JUMP JUMPDEST PUSH1 0x60 PUSH1 0x4 DUP1 SLOAD PUSH2 0xAC5 SWAP1 PUSH2 0x33E8 JUMP JUMPDEST DUP1 PUSH1 0x1F ADD PUSH1 0x20 DUP1 SWAP2 DIV MUL PUSH1 0x20 ADD PUSH1 0x40 MLOAD SWAP1 DUP2 ADD PUSH1 0x40 MSTORE DUP1 SWAP3 SWAP2 SWAP1 DUP2 DUP2 MSTORE PUSH1 0x20 ADD DUP3 DUP1 SLOAD PUSH2 0xAF1 SWAP1 PUSH2 0x33E8 JUMP JUMPDEST DUP1 ISZERO PUSH2 0xB3C JUMPI DUP1 PUSH1 0x1F LT PUSH2 0xB13 JUMPI PUSH2 0x100 DUP1 DUP4 SLOAD DIV MUL DUP4 MSTORE SWAP2 PUSH1 0x20 ADD SWAP2 PUSH2 0xB3C JUMP JUMPDEST DUP3 ADD SWAP2 SWAP1 PUSH0 MSTORE PUSH1 0x20 PUSH0 KECCAK256 SWAP1 JUMPDEST DUP2 SLOAD DUP2 MSTORE SWAP1 PUSH1 0x1 ADD SWAP1 PUSH1 0x20 ADD DUP1 DUP4 GT PUSH2 0xB1F JUMPI DUP3 SWAP1 SUB PUSH1 0x1F AND DUP3 ADD SWAP2 JUMPDEST POP POP POP POP POP SWAP1 POP SWAP1 JUMP JUMPDEST PUSH0 PUSH2 0xB8C PUSH1 0x9 PUSH0 DUP5 PUSH20 0xFFFFFFFFFFFFFFFFFFFFFFFFFFFFFFFFFFFFFFFF AND PUSH20 0xFFFFFFFFFFFFFFFFFFFFFFFFFFFFFFFFFFFFFFFF AND DUP2 MSTORE PUSH1 0x20 ADD SWAP1 DUP2 MSTORE PUSH1 0x20 ADD PUSH0 KECCAK256 PUSH2 0x15BD JUMP JUMPDEST PUSH26 0xFFFFFFFFFFFFFFFFFFFFFFFFFFFFFFFFFFFFFFFFFFFFFFFFFFFF AND SWAP1 POP SWAP2 SWAP1 POP JUMP JUMPDEST PUSH0 PUSH2 0xBBB DUP5 DUP5 DUP5 PUSH2 0x1045 JUMP JUMPDEST PUSH1 0x1 SWAP1 POP SWAP4 SWAP3 POP POP POP JUMP JUMPDEST PUSH0 DUP1 PUSH2 0xBD0 PUSH2 0xF99 JUMP JUMPDEST SWAP1 POP PUSH2 0xBDD DUP2 DUP6 DUP6 PUSH2 0x1045 JUMP JUMPDEST PUSH1 0x1 SWAP2 POP POP SWAP3 SWAP2 POP POP JUMP JUMPDEST DUP4 TIMESTAMP GT ISZERO PUSH2 0xC2D JUMPI DUP4 PUSH1 0x40 MLOAD PUSH32 0x4683AF0E00000000000000000000000000000000000000000000000000000000 DUP2 MSTORE PUSH1 0x4 ADD PUSH2 0xC24 SWAP2 SWAP1 PUSH2 0x2E0B JUMP JUMPDEST PUSH1 0x40 MLOAD DUP1 SWAP2 SUB SWAP1 REVERT JUMPDEST PUSH0 PUSH2 0xC8E PUSH2 0xC86 PUSH32 0xE48329057BFD03D55E49B547132E39CFFD9C1820AD7B9D4C5307691425D15ADF DUP10 DUP10 DUP10 PUSH1 0x40 MLOAD PUSH1 0x20 ADD PUSH2 0xC6B SWAP5 SWAP4 SWAP3 SWAP2 SWAP1 PUSH2 0x362C JUMP JUMPDEST PUSH1 0x40 MLOAD PUSH1 0x20 DUP2 DUP4 SUB SUB DUP2 MSTORE SWAP1 PUSH1 0x40 MSTORE DUP1 MLOAD SWAP1 PUSH1 0x20 ADD KECCAK256 PUSH2 0x161F JUMP JUMPDEST DUP6 DUP6 DUP6 PUSH2 0x1638 JUMP JUMPDEST SWAP1 POP PUSH2 0xC9A DUP2 DUP8 PUSH2 0x1666 JUMP JUMPDEST PUSH2 0xCA4 DUP2 DUP9 PUSH2 0x13D1 JUMP JUMPDEST POP POP POP POP POP POP POP JUMP JUMPDEST DUP4 TIMESTAMP GT ISZERO PUSH2 0xCF2 JUMPI DUP4 PUSH1 0x40 MLOAD PUSH32 0x6279130200000000000000000000000000000000000000000000000000000000 DUP2 MSTORE PUSH1 0x4 ADD PUSH2 0xCE9 SWAP2 SWAP1 PUSH2 0x2E0B JUMP JUMPDEST PUSH1 0x40 MLOAD DUP1 SWAP2 SUB SWAP1 REVERT JUMPDEST PUSH0 PUSH32 0x6E71EDAE12B1B97F4D1F60370FEF10105FA2FAAE0126114A169C64845D6126C9 DUP9 DUP9 DUP9 PUSH2 0xD20 DUP13 PUSH2 0x16BD JUMP JUMPDEST DUP10 PUSH1 0x40 MLOAD PUSH1 0x20 ADD PUSH2 0xD36 SWAP7 SWAP6 SWAP5 SWAP4 SWAP3 SWAP2 SWAP1 PUSH2 0x366F JUMP JUMPDEST PUSH1 0x40 MLOAD PUSH1 0x20 DUP2 DUP4 SUB SUB DUP2 MSTORE SWAP1 PUSH1 0x40 MSTORE DUP1 MLOAD SWAP1 PUSH1 0x20 ADD KECCAK256 SWAP1 POP PUSH0 PUSH2 0xD58 DUP3 PUSH2 0x161F JUMP JUMPDEST SWAP1 POP PUSH0 PUSH2 0xD67 DUP3 DUP8 DUP8 DUP8 PUSH2 0x1638 JUMP JUMPDEST SWAP1 POP DUP10 PUSH20 0xFFFFFFFFFFFFFFFFFFFFFFFFFFFFFFFFFFFFFFFF AND DUP2 PUSH20 0xFFFFFFFFFFFFFFFFFFFFFFFFFFFFFFFFFFFFFFFF AND EQ PUSH2 0xDDB JUMPI DUP1 DUP11 PUSH1 0x40 MLOAD PUSH32 0x4B800E4600000000000000000000000000000000000000000000000000000000 DUP2 MSTORE PUSH1 0x4 ADD PUSH2 0xDD2 SWAP3 SWAP2 SWAP1 PUSH2 0x36CE JUMP JUMPDEST PUSH1 0x40 MLOAD DUP1 SWAP2 SUB SWAP1 REVERT JUMPDEST PUSH2 0xDE6 DUP11 DUP11 DUP11 PUSH2 0xFA0 JUMP JUMPDEST POP POP POP POP POP POP POP POP POP POP JUMP JUMPDEST PUSH1 0xC PUSH0 SWAP1 SLOAD SWAP1 PUSH2 0x100 EXP SWAP1 DIV PUSH20 0xFFFFFFFFFFFFFFFFFFFFFFFFFFFFFFFFFFFFFFFF AND DUP2 JUMP JUMPDEST PUSH0 PUSH1 0x1 PUSH0 DUP5 PUSH20 0xFFFFFFFFFFFFFFFFFFFFFFFFFFFFFFFFFFFFFFFF AND PUSH20 0xFFFFFFFFFFFFFFFFFFFFFFFFFFFFFFFFFFFFFFFF AND DUP2 MSTORE PUSH1 0x20 ADD SWAP1 DUP2 MSTORE PUSH1 0x20 ADD PUSH0 KECCAK256 PUSH0 DUP4 PUSH20 0xFFFFFFFFFFFFFFFFFFFFFFFFFFFFFFFFFFFFFFFF AND PUSH20 0xFFFFFFFFFFFFFFFFFFFFFFFFFFFFFFFFFFFFFFFF AND DUP2 MSTORE PUSH1 0x20 ADD SWAP1 DUP2 MSTORE PUSH1 0x20 ADD PUSH0 KECCAK256 SLOAD SWAP1 POP SWAP3 SWAP2 POP POP JUMP JUMPDEST PUSH2 0xEA1 PUSH2 0x2C06 JUMP JUMPDEST PUSH2 0xEAB DUP4 DUP4 PUSH2 0x1710 JUMP JUMPDEST SWAP1 POP SWAP3 SWAP2 POP POP JUMP JUMPDEST PUSH2 0xEEC PUSH1 0xB PUSH0 SWAP1 SLOAD SWAP1 PUSH2 0x100 EXP SWAP1 DIV PUSH20 0xFFFFFFFFFFFFFFFFFFFFFFFFFFFFFFFFFFFFFFFF AND PUSH1 0x4 PUSH1 0xF SLOAD PUSH2 0xEE7 SWAP2 SWAP1 PUSH2 0x3722 JUMP JUMPDEST PUSH2 0x7F9 JUMP JUMPDEST PUSH2 0xF25 PUSH1 0xC PUSH0 SWAP1 SLOAD SWAP1 PUSH2 0x100 EXP SWAP1 DIV PUSH20 0xFFFFFFFFFFFFFFFFFFFFFFFFFFFFFFFFFFFFFFFF AND PUSH1 0x4 PUSH1 0xF SLOAD PUSH2 0xF20 SWAP2 SWAP1 PUSH2 0x3722 JUMP JUMPDEST PUSH2 0x7F9 JUMP JUMPDEST PUSH2 0xF5E PUSH1 0xD PUSH0 SWAP1 SLOAD SWAP1 PUSH2 0x100 EXP SWAP1 DIV PUSH20 0xFFFFFFFFFFFFFFFFFFFFFFFFFFFFFFFFFFFFFFFF AND PUSH1 0x4 PUSH1 0xF SLOAD PUSH2 0xF59 SWAP2 SWAP1 PUSH2 0x3722 JUMP JUMPDEST PUSH2 0x7F9 JUMP JUMPDEST PUSH2 0xF97 PUSH1 0xE PUSH0 SWAP1 SLOAD SWAP1 PUSH2 0x100 EXP SWAP1 DIV PUSH20 0xFFFFFFFFFFFFFFFFFFFFFFFFFFFFFFFFFFFFFFFF AND PUSH1 0x4 PUSH1 0xF SLOAD PUSH2 0xF92 SWAP2 SWAP1 PUSH2 0x3722 JUMP JUMPDEST PUSH2 0x7F9 JUMP JUMPDEST JUMP JUMPDEST PUSH0 CALLER SWAP1 POP SWAP1 JUMP JUMPDEST PUSH2 0xFAD DUP4 DUP4 DUP4 PUSH1 0x1 PUSH2 0x176F JUMP JUMPDEST POP POP POP JUMP JUMPDEST PUSH0 PUSH2 0xFBD DUP5 DUP5 PUSH2 0xE17 JUMP JUMPDEST SWAP1 POP PUSH32 0xFFFFFFFFFFFFFFFFFFFFFFFFFFFFFFFFFFFFFFFFFFFFFFFFFFFFFFFFFFFFFFFF DUP2 LT ISZERO PUSH2 0x103F JUMPI DUP2 DUP2 LT ISZERO PUSH2 0x1030 JUMPI DUP3 DUP2 DUP4 PUSH1 0x40 MLOAD PUSH32 0xFB8F41B200000000000000000000000000000000000000000000000000000000 DUP2 MSTORE PUSH1 0x4 ADD PUSH2 0x1027 SWAP4 SWAP3 SWAP2 SWAP1 PUSH2 0x3752 JUMP JUMPDEST PUSH1 0x40 MLOAD DUP1 SWAP2 SUB SWAP1 REVERT JUMPDEST PUSH2 0x103E DUP5 DUP5 DUP5 DUP5 SUB PUSH0 PUSH2 0x176F JUMP JUMPDEST JUMPDEST POP POP POP POP JUMP JUMPDEST PUSH0 PUSH20 0xFFFFFFFFFFFFFFFFFFFFFFFFFFFFFFFFFFFFFFFF AND DUP4 PUSH20 0xFFFFFFFFFFFFFFFFFFFFFFFFFFFFFFFFFFFFFFFF AND SUB PUSH2 0x10B5 JUMPI PUSH0 PUSH1 0x40 MLOAD PUSH32 0x96C6FD1E00000000000000000000000000000000000000000000000000000000 DUP2 MSTORE PUSH1 0x4 ADD PUSH2 0x10AC SWAP2 SWAP1 PUSH2 0x2C81 JUMP JUMPDEST PUSH1 0x40 MLOAD DUP1 SWAP2 SUB SWAP1 REVERT JUMPDEST PUSH0 PUSH20 0xFFFFFFFFFFFFFFFFFFFFFFFFFFFFFFFFFFFFFFFF AND DUP3 PUSH20 0xFFFFFFFFFFFFFFFFFFFFFFFFFFFFFFFFFFFFFFFF AND SUB PUSH2 0x1125 JUMPI PUSH0 PUSH1 0x40 MLOAD PUSH32 0xEC442F0500000000000000000000000000000000000000000000000000000000 DUP2 MSTORE PUSH1 0x4 ADD PUSH2 0x111C SWAP2 SWAP1 PUSH2 0x2C81 JUMP JUMPDEST PUSH1 0x40 MLOAD DUP1 SWAP2 SUB SWAP1 REVERT JUMPDEST PUSH2 0x1130 DUP4 DUP4 DUP4 PUSH2 0x193E JUMP JUMPDEST POP POP POP JUMP JUMPDEST PUSH0 PUSH32 0x0 PUSH20 0xFFFFFFFFFFFFFFFFFFFFFFFFFFFFFFFFFFFFFFFF AND ADDRESS PUSH20 0xFFFFFFFFFFFFFFFFFFFFFFFFFFFFFFFFFFFFFFFF AND EQ DUP1 ISZERO PUSH2 0x11B0 JUMPI POP PUSH32 0x0 CHAINID EQ JUMPDEST ISZERO PUSH2 0x11DD JUMPI PUSH32 0x0 SWAP1 POP PUSH2 0x11E8 JUMP JUMPDEST PUSH2 0x11E5 PUSH2 0x194E JUMP JUMPDEST SWAP1 POP JUMPDEST SWAP1 JUMP JUMPDEST PUSH0 DUP1 PUSH2 0x11F5 PUSH2 0xAA8 JUMP JUMPDEST SWAP1 POP DUP1 PUSH6 0xFFFFFFFFFFFF AND DUP4 LT PUSH2 0x1245 JUMPI DUP3 DUP2 PUSH1 0x40 MLOAD PUSH32 0xECD3F81E00000000000000000000000000000000000000000000000000000000 DUP2 MSTORE PUSH1 0x4 ADD PUSH2 0x123C SWAP3 SWAP2 SWAP1 PUSH2 0x3787 JUMP JUMPDEST PUSH1 0x40 MLOAD DUP1 SWAP2 SUB SWAP1 REVERT JUMPDEST PUSH2 0x124E DUP4 PUSH2 0x19E3 JUMP JUMPDEST SWAP2 POP POP SWAP2 SWAP1 POP JUMP JUMPDEST PUSH0 DUP1 DUP4 PUSH0 ADD DUP1 SLOAD SWAP1 POP SWAP1 POP PUSH0 DUP1 DUP3 SWAP1 POP PUSH1 0x5 DUP4 GT ISZERO PUSH2 0x12D7 JUMPI PUSH0 PUSH2 0x1279 DUP5 PUSH2 0x1A3C JUMP JUMPDEST DUP5 PUSH2 0x1284 SWAP2 SWAP1 PUSH2 0x37AE JUMP JUMPDEST SWAP1 POP PUSH2 0x1292 DUP8 PUSH0 ADD DUP3 PUSH2 0x1BD6 JUMP JUMPDEST PUSH0 ADD PUSH0 SWAP1 SLOAD SWAP1 PUSH2 0x100 EXP SWAP1 DIV PUSH6 0xFFFFFFFFFFFF AND PUSH6 0xFFFFFFFFFFFF AND DUP7 PUSH6 0xFFFFFFFFFFFF AND LT ISZERO PUSH2 0x12C5 JUMPI DUP1 SWAP2 POP PUSH2 0x12D5 JUMP JUMPDEST PUSH1 0x1 DUP2 PUSH2 0x12D2 SWAP2 SWAP1 PUSH2 0x37E1 JUMP JUMPDEST SWAP3 POP JUMPDEST POP JUMPDEST PUSH0 PUSH2 0x12E6 DUP8 PUSH0 ADD DUP8 DUP6 DUP6 PUSH2 0x1BE8 JUMP JUMPDEST SWAP1 POP PUSH0 DUP2 EQ PUSH2 0x1335 JUMPI PUSH2 0x1307 DUP8 PUSH0 ADD PUSH1 0x1 DUP4 PUSH2 0x1302 SWAP2 SWAP1 PUSH2 0x37AE JUMP JUMPDEST PUSH2 0x1BD6 JUMP JUMPDEST PUSH0 ADD PUSH1 0x6 SWAP1 SLOAD SWAP1 PUSH2 0x100 EXP SWAP1 DIV PUSH26 0xFFFFFFFFFFFFFFFFFFFFFFFFFFFFFFFFFFFFFFFFFFFFFFFFFFFF AND PUSH2 0x1337 JUMP JUMPDEST PUSH0 JUMPDEST SWAP5 POP POP POP POP POP SWAP3 SWAP2 POP POP JUMP JUMPDEST PUSH0 PUSH20 0xFFFFFFFFFFFFFFFFFFFFFFFFFFFFFFFFFFFFFFFF AND DUP3 PUSH20 0xFFFFFFFFFFFFFFFFFFFFFFFFFFFFFFFFFFFFFFFF AND SUB PUSH2 0x13B3 JUMPI PUSH0 PUSH1 0x40 MLOAD PUSH32 0xEC442F0500000000000000000000000000000000000000000000000000000000 DUP2 MSTORE PUSH1 0x4 ADD PUSH2 0x13AA SWAP2 SWAP1 PUSH2 0x2C81 JUMP JUMPDEST PUSH1 0x40 MLOAD DUP1 SWAP2 SUB SWAP1 REVERT JUMPDEST PUSH2 0x13BE PUSH0 DUP4 DUP4 PUSH2 0x193E JUMP JUMPDEST POP POP JUMP JUMPDEST PUSH0 PUSH2 0x13CC NUMBER PUSH2 0x19E3 JUMP JUMPDEST SWAP1 POP SWAP1 JUMP JUMPDEST PUSH0 PUSH2 0x13DB DUP4 PUSH2 0x8B9 JUMP JUMPDEST SWAP1 POP DUP2 PUSH1 0x8 PUSH0 DUP6 PUSH20 0xFFFFFFFFFFFFFFFFFFFFFFFFFFFFFFFFFFFFFFFF AND PUSH20 0xFFFFFFFFFFFFFFFFFFFFFFFFFFFFFFFFFFFFFFFF AND DUP2 MSTORE PUSH1 0x20 ADD SWAP1 DUP2 MSTORE PUSH1 0x20 ADD PUSH0 KECCAK256 PUSH0 PUSH2 0x100 EXP DUP2 SLOAD DUP2 PUSH20 0xFFFFFFFFFFFFFFFFFFFFFFFFFFFFFFFFFFFFFFFF MUL NOT AND SWAP1 DUP4 PUSH20 0xFFFFFFFFFFFFFFFFFFFFFFFFFFFFFFFFFFFFFFFF AND MUL OR SWAP1 SSTORE POP DUP2 PUSH20 0xFFFFFFFFFFFFFFFFFFFFFFFFFFFFFFFFFFFFFFFF AND DUP2 PUSH20 0xFFFFFFFFFFFFFFFFFFFFFFFFFFFFFFFFFFFFFFFF AND DUP5 PUSH20 0xFFFFFFFFFFFFFFFFFFFFFFFFFFFFFFFFFFFFFFFF AND PUSH32 0x3134E8A2E6D97E929A7E54011EA5485D7D196DD5F0BA4D4EF95803E8E3FC257F PUSH1 0x40 MLOAD PUSH1 0x40 MLOAD DUP1 SWAP2 SUB SWAP1 LOG4 PUSH2 0x14DC DUP2 DUP4 PUSH2 0x14D7 DUP7 PUSH2 0x1C5D JUMP JUMPDEST PUSH2 0x1C6E JUMP JUMPDEST POP POP POP JUMP JUMPDEST PUSH0 PUSH2 0x152F PUSH2 0x152A PUSH1 0x9 PUSH0 DUP6 PUSH20 0xFFFFFFFFFFFFFFFFFFFFFFFFFFFFFFFFFFFFFFFF AND PUSH20 0xFFFFFFFFFFFFFFFFFFFFFFFFFFFFFFFFFFFFFFFF AND DUP2 MSTORE PUSH1 0x20 ADD SWAP1 DUP2 MSTORE PUSH1 0x20 ADD PUSH0 KECCAK256 PUSH2 0x1EDE JUMP JUMPDEST PUSH2 0x1EED JUMP JUMPDEST SWAP1 POP SWAP2 SWAP1 POP JUMP JUMPDEST PUSH0 PUSH2 0x1540 DUP3 PUSH2 0x1F44 JUMP JUMPDEST SWAP1 POP SWAP2 SWAP1 POP JUMP JUMPDEST PUSH1 0x60 PUSH2 0x157D PUSH1 0x5 PUSH32 0x0 PUSH2 0x1F8A SWAP1 SWAP2 SWAP1 PUSH4 0xFFFFFFFF AND JUMP JUMPDEST SWAP1 POP SWAP1 JUMP JUMPDEST PUSH1 0x60 PUSH2 0x15B8 PUSH1 0x6 PUSH32 0x0 PUSH2 0x1F8A SWAP1 SWAP2 SWAP1 PUSH4 0xFFFFFFFF AND JUMP JUMPDEST SWAP1 POP SWAP1 JUMP JUMPDEST PUSH0 DUP1 DUP3 PUSH0 ADD DUP1 SLOAD SWAP1 POP SWAP1 POP PUSH0 DUP2 EQ PUSH2 0x1615 JUMPI PUSH2 0x15E7 DUP4 PUSH0 ADD PUSH1 0x1 DUP4 PUSH2 0x15E2 SWAP2 SWAP1 PUSH2 0x37AE JUMP JUMPDEST PUSH2 0x1BD6 JUMP JUMPDEST PUSH0 ADD PUSH1 0x6 SWAP1 SLOAD SWAP1 PUSH2 0x100 EXP SWAP1 DIV PUSH26 0xFFFFFFFFFFFFFFFFFFFFFFFFFFFFFFFFFFFFFFFFFFFFFFFFFFFF AND PUSH2 0x1617 JUMP JUMPDEST PUSH0 JUMPDEST SWAP2 POP POP SWAP2 SWAP1 POP JUMP JUMPDEST PUSH0 PUSH2 0x1631 PUSH2 0x162B PUSH2 0x1135 JUMP JUMPDEST DUP4 PUSH2 0x2037 JUMP JUMPDEST SWAP1 POP SWAP2 SWAP1 POP JUMP JUMPDEST PUSH0 DUP1 PUSH0 DUP1 PUSH2 0x1648 DUP9 DUP9 DUP9 DUP9 PUSH2 0x2077 JUMP JUMPDEST SWAP3 POP SWAP3 POP SWAP3 POP PUSH2 0x1658 DUP3 DUP3 PUSH2 0x215E JUMP JUMPDEST DUP3 SWAP4 POP POP POP POP SWAP5 SWAP4 POP POP POP POP JUMP JUMPDEST PUSH0 PUSH2 0x1670 DUP4 PUSH2 0x16BD JUMP JUMPDEST SWAP1 POP DUP1 DUP3 EQ PUSH2 0x16B8 JUMPI DUP3 DUP2 PUSH1 0x40 MLOAD PUSH32 0x752D88C000000000000000000000000000000000000000000000000000000000 DUP2 MSTORE PUSH1 0x4 ADD PUSH2 0x16AF SWAP3 SWAP2 SWAP1 PUSH2 0x3814 JUMP JUMPDEST PUSH1 0x40 MLOAD DUP1 SWAP2 SUB SWAP1 REVERT JUMPDEST POP POP POP JUMP JUMPDEST PUSH0 PUSH1 0x7 PUSH0 DUP4 PUSH20 0xFFFFFFFFFFFFFFFFFFFFFFFFFFFFFFFFFFFFFFFF AND PUSH20 0xFFFFFFFFFFFFFFFFFFFFFFFFFFFFFFFFFFFFFFFF AND DUP2 MSTORE PUSH1 0x20 ADD SWAP1 DUP2 MSTORE PUSH1 0x20 ADD PUSH0 KECCAK256 PUSH0 DUP2 SLOAD DUP1 SWAP3 SWAP2 SWAP1 PUSH1 0x1 ADD SWAP2 SWAP1 POP SSTORE SWAP1 POP SWAP2 SWAP1 POP JUMP JUMPDEST PUSH2 0x1718 PUSH2 0x2C06 JUMP JUMPDEST PUSH2 0x1767 DUP3 PUSH1 0x9 PUSH0 DUP7 PUSH20 0xFFFFFFFFFFFFFFFFFFFFFFFFFFFFFFFFFFFFFFFF AND PUSH20 0xFFFFFFFFFFFFFFFFFFFFFFFFFFFFFFFFFFFFFFFF AND DUP2 MSTORE PUSH1 0x20 ADD SWAP1 DUP2 MSTORE PUSH1 0x20 ADD PUSH0 KECCAK256 PUSH2 0x22C0 SWAP1 SWAP2 SWAP1 PUSH4 0xFFFFFFFF AND JUMP JUMPDEST SWAP1 POP SWAP3 SWAP2 POP POP JUMP JUMPDEST PUSH0 PUSH20 0xFFFFFFFFFFFFFFFFFFFFFFFFFFFFFFFFFFFFFFFF AND DUP5 PUSH20 0xFFFFFFFFFFFFFFFFFFFFFFFFFFFFFFFFFFFFFFFF AND SUB PUSH2 0x17DF JUMPI PUSH0 PUSH1 0x40 MLOAD PUSH32 0xE602DF0500000000000000000000000000000000000000000000000000000000 DUP2 MSTORE PUSH1 0x4 ADD PUSH2 0x17D6 SWAP2 SWAP1 PUSH2 0x2C81 JUMP JUMPDEST PUSH1 0x40 MLOAD DUP1 SWAP2 SUB SWAP1 REVERT JUMPDEST PUSH0 PUSH20 0xFFFFFFFFFFFFFFFFFFFFFFFFFFFFFFFFFFFFFFFF AND DUP4 PUSH20 0xFFFFFFFFFFFFFFFFFFFFFFFFFFFFFFFFFFFFFFFF AND SUB PUSH2 0x184F JUMPI PUSH0 PUSH1 0x40 MLOAD PUSH32 0x94280D6200000000000000000000000000000000000000000000000000000000 DUP2 MSTORE PUSH1 0x4 ADD PUSH2 0x1846 SWAP2 SWAP1 PUSH2 0x2C81 JUMP JUMPDEST PUSH1 0x40 MLOAD DUP1 SWAP2 SUB SWAP1 REVERT JUMPDEST DUP2 PUSH1 0x1 PUSH0 DUP7 PUSH20 0xFFFFFFFFFFFFFFFFFFFFFFFFFFFFFFFFFFFFFFFF AND PUSH20 0xFFFFFFFFFFFFFFFFFFFFFFFFFFFFFFFFFFFFFFFF AND DUP2 MSTORE PUSH1 0x20 ADD SWAP1 DUP2 MSTORE PUSH1 0x20 ADD PUSH0 KECCAK256 PUSH0 DUP6 PUSH20 0xFFFFFFFFFFFFFFFFFFFFFFFFFFFFFFFFFFFFFFFF AND PUSH20 0xFFFFFFFFFFFFFFFFFFFFFFFFFFFFFFFFFFFFFFFF AND DUP2 MSTORE PUSH1 0x20 ADD SWAP1 DUP2 MSTORE PUSH1 0x20 ADD PUSH0 KECCAK256 DUP2 SWAP1 SSTORE POP DUP1 ISZERO PUSH2 0x1938 JUMPI DUP3 PUSH20 0xFFFFFFFFFFFFFFFFFFFFFFFFFFFFFFFFFFFFFFFF AND DUP5 PUSH20 0xFFFFFFFFFFFFFFFFFFFFFFFFFFFFFFFFFFFFFFFF AND PUSH32 0x8C5BE1E5EBEC7D5BD14F71427D1E84F3DD0314C0F7B2291E5B200AC8C7C3B925 DUP5 PUSH1 0x40 MLOAD PUSH2 0x192F SWAP2 SWAP1 PUSH2 0x2E0B JUMP JUMPDEST PUSH1 0x40 MLOAD DUP1 SWAP2 SUB SWAP1 LOG3 JUMPDEST POP POP POP POP JUMP JUMPDEST PUSH2 0x1949 DUP4 DUP4 DUP4 PUSH2 0x238F JUMP JUMPDEST POP POP POP JUMP JUMPDEST PUSH0 PUSH32 0x8B73C3C69BB8FE3D512ECC4CF759CC79239F7B179B0FFACAA9A75D522B39400F PUSH32 0x0 PUSH32 0x0 CHAINID ADDRESS PUSH1 0x40 MLOAD PUSH1 0x20 ADD PUSH2 0x19C8 SWAP6 SWAP5 SWAP4 SWAP3 SWAP2 SWAP1 PUSH2 0x383B JUMP JUMPDEST PUSH1 0x40 MLOAD PUSH1 0x20 DUP2 DUP4 SUB SUB DUP2 MSTORE SWAP1 PUSH1 0x40 MSTORE DUP1 MLOAD SWAP1 PUSH1 0x20 ADD KECCAK256 SWAP1 POP SWAP1 JUMP JUMPDEST PUSH0 PUSH6 0xFFFFFFFFFFFF DUP1 AND DUP3 GT ISZERO PUSH2 0x1A34 JUMPI PUSH1 0x30 DUP3 PUSH1 0x40 MLOAD PUSH32 0x6DFCC65000000000000000000000000000000000000000000000000000000000 DUP2 MSTORE PUSH1 0x4 ADD PUSH2 0x1A2B SWAP3 SWAP2 SWAP1 PUSH2 0x38CE JUMP JUMPDEST PUSH1 0x40 MLOAD DUP1 SWAP2 SUB SWAP1 REVERT JUMPDEST DUP2 SWAP1 POP SWAP2 SWAP1 POP JUMP JUMPDEST PUSH0 PUSH1 0x1 DUP3 GT PUSH2 0x1A4D JUMPI DUP2 SWAP1 POP PUSH2 0x1BD1 JUMP JUMPDEST PUSH0 DUP3 SWAP1 POP PUSH0 PUSH1 0x1 SWAP1 POP PUSH17 0x100000000000000000000000000000000 DUP3 LT PUSH2 0x1A7D JUMPI PUSH1 0x80 DUP3 SWAP1 SHR SWAP2 POP PUSH1 0x40 DUP2 SWAP1 SHL SWAP1 POP JUMPDEST PUSH9 0x10000000000000000 DUP3 LT PUSH2 0x1A9C JUMPI PUSH1 0x40 DUP3 SWAP1 SHR SWAP2 POP PUSH1 0x20 DUP2 SWAP1 SHL SWAP1 POP JUMPDEST PUSH5 0x100000000 DUP3 LT PUSH2 0x1AB7 JUMPI PUSH1 0x20 DUP3 SWAP1 SHR SWAP2 POP PUSH1 0x10 DUP2 SWAP1 SHL SWAP1 POP JUMPDEST PUSH3 0x10000 DUP3 LT PUSH2 0x1AD0 JUMPI PUSH1 0x10 DUP3 SWAP1 SHR SWAP2 POP PUSH1 0x8 DUP2 SWAP1 SHL SWAP1 POP JUMPDEST PUSH2 0x100 DUP3 LT PUSH2 0x1AE8 JUMPI PUSH1 0x8 DUP3 SWAP1 SHR SWAP2 POP PUSH1 0x4 DUP2 SWAP1 SHL SWAP1 POP JUMPDEST PUSH1 0x10 DUP3 LT PUSH2 0x1AFF JUMPI PUSH1 0x4 DUP3 SWAP1 SHR SWAP2 POP PUSH1 0x2 DUP2 SWAP1 SHL SWAP1 POP JUMPDEST PUSH1 0x4 DUP3 LT PUSH2 0x1B0F JUMPI PUSH1 0x1 DUP2 SWAP1 SHL SWAP1 POP JUMPDEST PUSH1 0x1 DUP2 PUSH1 0x3 MUL SWAP1 SHR SWAP1 POP PUSH1 0x1 DUP2 DUP6 DUP2 PUSH2 0x1B2B JUMPI PUSH2 0x1B2A PUSH2 0x36F5 JUMP JUMPDEST JUMPDEST DIV DUP3 ADD SWAP1 SHR SWAP1 POP PUSH1 0x1 DUP2 DUP6 DUP2 PUSH2 0x1B44 JUMPI PUSH2 0x1B43 PUSH2 0x36F5 JUMP JUMPDEST JUMPDEST DIV DUP3 ADD SWAP1 SHR SWAP1 POP PUSH1 0x1 DUP2 DUP6 DUP2 PUSH2 0x1B5D JUMPI PUSH2 0x1B5C PUSH2 0x36F5 JUMP JUMPDEST JUMPDEST DIV DUP3 ADD SWAP1 SHR SWAP1 POP PUSH1 0x1 DUP2 DUP6 DUP2 PUSH2 0x1B76 JUMPI PUSH2 0x1B75 PUSH2 0x36F5 JUMP JUMPDEST JUMPDEST DIV DUP3 ADD SWAP1 SHR SWAP1 POP PUSH1 0x1 DUP2 DUP6 DUP2 PUSH2 0x1B8F JUMPI PUSH2 0x1B8E PUSH2 0x36F5 JUMP JUMPDEST JUMPDEST DIV DUP3 ADD SWAP1 SHR SWAP1 POP PUSH1 0x1 DUP2 DUP6 DUP2 PUSH2 0x1BA8 JUMPI PUSH2 0x1BA7 PUSH2 0x36F5 JUMP JUMPDEST JUMPDEST DIV DUP3 ADD SWAP1 SHR SWAP1 POP PUSH2 0x1BCA DUP2 DUP6 DUP2 PUSH2 0x1BC2 JUMPI PUSH2 0x1BC1 PUSH2 0x36F5 JUMP JUMPDEST JUMPDEST DIV DUP3 GT PUSH2 0x243D JUMP JUMPDEST DUP2 SUB SWAP3 POP POP POP JUMPDEST SWAP2 SWAP1 POP JUMP JUMPDEST PUSH0 DUP3 PUSH0 MSTORE DUP2 PUSH1 0x20 PUSH0 KECCAK256 ADD SWAP1 POP SWAP3 SWAP2 POP POP JUMP JUMPDEST PUSH0 JUMPDEST DUP2 DUP4 LT ISZERO PUSH2 0x1C52 JUMPI PUSH0 PUSH2 0x1BFD DUP5 DUP5 PUSH2 0x2448 JUMP JUMPDEST SWAP1 POP DUP5 PUSH6 0xFFFFFFFFFFFF AND PUSH2 0x1C12 DUP8 DUP4 PUSH2 0x1BD6 JUMP JUMPDEST PUSH0 ADD PUSH0 SWAP1 SLOAD SWAP1 PUSH2 0x100 EXP SWAP1 DIV PUSH6 0xFFFFFFFFFFFF AND PUSH6 0xFFFFFFFFFFFF AND GT ISZERO PUSH2 0x1C3C JUMPI DUP1 SWAP3 POP PUSH2 0x1C4C JUMP JUMPDEST PUSH1 0x1 DUP2 PUSH2 0x1C49 SWAP2 SWAP1 PUSH2 0x37E1 JUMP JUMPDEST SWAP4 POP JUMPDEST POP PUSH2 0x1BEA JUMP JUMPDEST DUP2 SWAP1 POP SWAP5 SWAP4 POP POP POP POP JUMP JUMPDEST PUSH0 PUSH2 0x1C67 DUP3 PUSH2 0x948 JUMP JUMPDEST SWAP1 POP SWAP2 SWAP1 POP JUMP JUMPDEST DUP2 PUSH20 0xFFFFFFFFFFFFFFFFFFFFFFFFFFFFFFFFFFFFFFFF AND DUP4 PUSH20 0xFFFFFFFFFFFFFFFFFFFFFFFFFFFFFFFFFFFFFFFF AND EQ ISZERO DUP1 ISZERO PUSH2 0x1CA9 JUMPI POP PUSH0 DUP2 GT JUMPDEST ISZERO PUSH2 0x1ED9 JUMPI PUSH0 PUSH20 0xFFFFFFFFFFFFFFFFFFFFFFFFFFFFFFFFFFFFFFFF AND DUP4 PUSH20 0xFFFFFFFFFFFFFFFFFFFFFFFFFFFFFFFFFFFFFFFF AND EQ PUSH2 0x1DC3 JUMPI PUSH0 DUP1 PUSH2 0x1D34 PUSH1 0x9 PUSH0 DUP8 PUSH20 0xFFFFFFFFFFFFFFFFFFFFFFFFFFFFFFFFFFFFFFFF AND PUSH20 0xFFFFFFFFFFFFFFFFFFFFFFFFFFFFFFFFFFFFFFFF AND DUP2 MSTORE PUSH1 0x20 ADD SWAP1 DUP2 MSTORE PUSH1 0x20 ADD PUSH0 KECCAK256 PUSH2 0x246D PUSH2 0x1D2F DUP7 PUSH2 0x2482 JUMP JUMPDEST PUSH2 0x24EF JUMP JUMPDEST PUSH26 0xFFFFFFFFFFFFFFFFFFFFFFFFFFFFFFFFFFFFFFFFFFFFFFFFFFFF AND SWAP2 POP PUSH26 0xFFFFFFFFFFFFFFFFFFFFFFFFFFFFFFFFFFFFFFFFFFFFFFFFFFFF AND SWAP2 POP DUP5 PUSH20 0xFFFFFFFFFFFFFFFFFFFFFFFFFFFFFFFFFFFFFFFF AND PUSH32 0xDEC2BACDD2F05B59DE34DA9B523DFF8BE42E5E38E818C82FDB0BAE774387A724 DUP4 DUP4 PUSH1 0x40 MLOAD PUSH2 0x1DB8 SWAP3 SWAP2 SWAP1 PUSH2 0x38F5 JUMP JUMPDEST PUSH1 0x40 MLOAD DUP1 SWAP2 SUB SWAP1 LOG2 POP POP JUMPDEST PUSH0 PUSH20 0xFFFFFFFFFFFFFFFFFFFFFFFFFFFFFFFFFFFFFFFF AND DUP3 PUSH20 0xFFFFFFFFFFFFFFFFFFFFFFFFFFFFFFFFFFFFFFFF AND EQ PUSH2 0x1ED8 JUMPI PUSH0 DUP1 PUSH2 0x1E49 PUSH1 0x9 PUSH0 DUP7 PUSH20 0xFFFFFFFFFFFFFFFFFFFFFFFFFFFFFFFFFFFFFFFF AND PUSH20 0xFFFFFFFFFFFFFFFFFFFFFFFFFFFFFFFFFFFFFFFF AND DUP2 MSTORE PUSH1 0x20 ADD SWAP1 DUP2 MSTORE PUSH1 0x20 ADD PUSH0 KECCAK256 PUSH2 0x252E PUSH2 0x1E44 DUP7 PUSH2 0x2482 JUMP JUMPDEST PUSH2 0x24EF JUMP JUMPDEST PUSH26 0xFFFFFFFFFFFFFFFFFFFFFFFFFFFFFFFFFFFFFFFFFFFFFFFFFFFF AND SWAP2 POP PUSH26 0xFFFFFFFFFFFFFFFFFFFFFFFFFFFFFFFFFFFFFFFFFFFFFFFFFFFF AND SWAP2 POP DUP4 PUSH20 0xFFFFFFFFFFFFFFFFFFFFFFFFFFFFFFFFFFFFFFFF AND PUSH32 0xDEC2BACDD2F05B59DE34DA9B523DFF8BE42E5E38E818C82FDB0BAE774387A724 DUP4 DUP4 PUSH1 0x40 MLOAD PUSH2 0x1ECD SWAP3 SWAP2 SWAP1 PUSH2 0x38F5 JUMP JUMPDEST PUSH1 0x40 MLOAD DUP1 SWAP2 SUB SWAP1 LOG2 POP POP JUMPDEST JUMPDEST POP POP POP JUMP JUMPDEST PUSH0 DUP2 PUSH0 ADD DUP1 SLOAD SWAP1 POP SWAP1 POP SWAP2 SWAP1 POP JUMP JUMPDEST PUSH0 PUSH4 0xFFFFFFFF DUP1 AND DUP3 GT ISZERO PUSH2 0x1F3C JUMPI PUSH1 0x20 DUP3 PUSH1 0x40 MLOAD PUSH32 0x6DFCC65000000000000000000000000000000000000000000000000000000000 DUP2 MSTORE PUSH1 0x4 ADD PUSH2 0x1F33 SWAP3 SWAP2 SWAP1 PUSH2 0x3955 JUMP JUMPDEST PUSH1 0x40 MLOAD DUP1 SWAP2 SUB SWAP1 REVERT JUMPDEST DUP2 SWAP1 POP SWAP2 SWAP1 POP JUMP JUMPDEST PUSH0 PUSH1 0x7 PUSH0 DUP4 PUSH20 0xFFFFFFFFFFFFFFFFFFFFFFFFFFFFFFFFFFFFFFFF AND PUSH20 0xFFFFFFFFFFFFFFFFFFFFFFFFFFFFFFFFFFFFFFFF AND DUP2 MSTORE PUSH1 0x20 ADD SWAP1 DUP2 MSTORE PUSH1 0x20 ADD PUSH0 KECCAK256 SLOAD SWAP1 POP SWAP2 SWAP1 POP JUMP JUMPDEST PUSH1 0x60 PUSH1 0xFF PUSH0 SHL DUP4 EQ PUSH2 0x1FA6 JUMPI PUSH2 0x1F9F DUP4 PUSH2 0x2543 JUMP JUMPDEST SWAP1 POP PUSH2 0x2031 JUMP JUMPDEST DUP2 DUP1 SLOAD PUSH2 0x1FB2 SWAP1 PUSH2 0x33E8 JUMP JUMPDEST DUP1 PUSH1 0x1F ADD PUSH1 0x20 DUP1 SWAP2 DIV MUL PUSH1 0x20 ADD PUSH1 0x40 MLOAD SWAP1 DUP2 ADD PUSH1 0x40 MSTORE DUP1 SWAP3 SWAP2 SWAP1 DUP2 DUP2 MSTORE PUSH1 0x20 ADD DUP3 DUP1 SLOAD PUSH2 0x1FDE SWAP1 PUSH2 0x33E8 JUMP JUMPDEST DUP1 ISZERO PUSH2 0x2029 JUMPI DUP1 PUSH1 0x1F LT PUSH2 0x2000 JUMPI PUSH2 0x100 DUP1 DUP4 SLOAD DIV MUL DUP4 MSTORE SWAP2 PUSH1 0x20 ADD SWAP2 PUSH2 0x2029 JUMP JUMPDEST DUP3 ADD SWAP2 SWAP1 PUSH0 MSTORE PUSH1 0x20 PUSH0 KECCAK256 SWAP1 JUMPDEST DUP2 SLOAD DUP2 MSTORE SWAP1 PUSH1 0x1 ADD SWAP1 PUSH1 0x20 ADD DUP1 DUP4 GT PUSH2 0x200C JUMPI DUP3 SWAP1 SUB PUSH1 0x1F AND DUP3 ADD SWAP2 JUMPDEST POP POP POP POP POP SWAP1 POP JUMPDEST SWAP3 SWAP2 POP POP JUMP JUMPDEST PUSH0 PUSH1 0x40 MLOAD PUSH32 0x1901000000000000000000000000000000000000000000000000000000000000 DUP2 MSTORE DUP4 PUSH1 0x2 DUP3 ADD MSTORE DUP3 PUSH1 0x22 DUP3 ADD MSTORE PUSH1 0x42 DUP2 KECCAK256 SWAP2 POP POP SWAP3 SWAP2 POP POP JUMP JUMPDEST PUSH0 DUP1 PUSH0 PUSH32 0x7FFFFFFFFFFFFFFFFFFFFFFFFFFFFFFF5D576E7357A4501DDFE92F46681B20A0 DUP5 PUSH0 SHR GT ISZERO PUSH2 0x20B3 JUMPI PUSH0 PUSH1 0x3 DUP6 SWAP3 POP SWAP3 POP SWAP3 POP PUSH2 0x2154 JUMP JUMPDEST PUSH0 PUSH1 0x1 DUP9 DUP9 DUP9 DUP9 PUSH1 0x40 MLOAD PUSH0 DUP2 MSTORE PUSH1 0x20 ADD PUSH1 0x40 MSTORE PUSH1 0x40 MLOAD PUSH2 0x20D6 SWAP5 SWAP4 SWAP3 SWAP2 SWAP1 PUSH2 0x397C JUMP JUMPDEST PUSH1 0x20 PUSH1 0x40 MLOAD PUSH1 0x20 DUP2 SUB SWAP1 DUP1 DUP5 SUB SWAP1 DUP6 GAS STATICCALL ISZERO DUP1 ISZERO PUSH2 0x20F6 JUMPI RETURNDATASIZE PUSH0 DUP1 RETURNDATACOPY RETURNDATASIZE PUSH0 REVERT JUMPDEST POP POP POP PUSH1 0x20 PUSH1 0x40 MLOAD SUB MLOAD SWAP1 POP PUSH0 PUSH20 0xFFFFFFFFFFFFFFFFFFFFFFFFFFFFFFFFFFFFFFFF AND DUP2 PUSH20 0xFFFFFFFFFFFFFFFFFFFFFFFFFFFFFFFFFFFFFFFF AND SUB PUSH2 0x2147 JUMPI PUSH0 PUSH1 0x1 PUSH0 DUP1 SHL SWAP4 POP SWAP4 POP SWAP4 POP POP PUSH2 0x2154 JUMP JUMPDEST DUP1 PUSH0 DUP1 PUSH0 SHL SWAP4 POP SWAP4 POP SWAP4 POP POP JUMPDEST SWAP5 POP SWAP5 POP SWAP5 SWAP2 POP POP JUMP JUMPDEST PUSH0 PUSH1 0x3 DUP2 GT ISZERO PUSH2 0x2171 JUMPI PUSH2 0x2170 PUSH2 0x39BF JUMP JUMPDEST JUMPDEST DUP3 PUSH1 0x3 DUP2 GT ISZERO PUSH2 0x2184 JUMPI PUSH2 0x2183 PUSH2 0x39BF JUMP JUMPDEST JUMPDEST SUB ISZERO PUSH2 0x22BC JUMPI PUSH1 0x1 PUSH1 0x3 DUP2 GT ISZERO PUSH2 0x219E JUMPI PUSH2 0x219D PUSH2 0x39BF JUMP JUMPDEST JUMPDEST DUP3 PUSH1 0x3 DUP2 GT ISZERO PUSH2 0x21B1 JUMPI PUSH2 0x21B0 PUSH2 0x39BF JUMP JUMPDEST JUMPDEST SUB PUSH2 0x21E8 JUMPI PUSH1 0x40 MLOAD PUSH32 0xF645EEDF00000000000000000000000000000000000000000000000000000000 DUP2 MSTORE PUSH1 0x4 ADD PUSH1 0x40 MLOAD DUP1 SWAP2 SUB SWAP1 REVERT JUMPDEST PUSH1 0x2 PUSH1 0x3 DUP2 GT ISZERO PUSH2 0x21FC JUMPI PUSH2 0x21FB PUSH2 0x39BF JUMP JUMPDEST JUMPDEST DUP3 PUSH1 0x3 DUP2 GT ISZERO PUSH2 0x220F JUMPI PUSH2 0x220E PUSH2 0x39BF JUMP JUMPDEST JUMPDEST SUB PUSH2 0x2253 JUMPI DUP1 PUSH0 SHR PUSH1 0x40 MLOAD PUSH32 0xFCE698F700000000000000000000000000000000000000000000000000000000 DUP2 MSTORE PUSH1 0x4 ADD PUSH2 0x224A SWAP2 SWAP1 PUSH2 0x2E0B JUMP JUMPDEST PUSH1 0x40 MLOAD DUP1 SWAP2 SUB SWAP1 REVERT JUMPDEST PUSH1 0x3 DUP1 DUP2 GT ISZERO PUSH2 0x2266 JUMPI PUSH2 0x2265 PUSH2 0x39BF JUMP JUMPDEST JUMPDEST DUP3 PUSH1 0x3 DUP2 GT ISZERO PUSH2 0x2279 JUMPI PUSH2 0x2278 PUSH2 0x39BF JUMP JUMPDEST JUMPDEST SUB PUSH2 0x22BB JUMPI DUP1 PUSH1 0x40 MLOAD PUSH32 0xD78BCE0C00000000000000000000000000000000000000000000000000000000 DUP2 MSTORE PUSH1 0x4 ADD PUSH2 0x22B2 SWAP2 SWAP1 PUSH2 0x2EC0 JUMP JUMPDEST PUSH1 0x40 MLOAD DUP1 SWAP2 SUB SWAP1 REVERT JUMPDEST JUMPDEST POP POP JUMP JUMPDEST PUSH2 0x22C8 PUSH2 0x2C06 JUMP JUMPDEST DUP3 PUSH0 ADD DUP3 PUSH4 0xFFFFFFFF AND DUP2 SLOAD DUP2 LT PUSH2 0x22E3 JUMPI PUSH2 0x22E2 PUSH2 0x39EC JUMP JUMPDEST JUMPDEST SWAP1 PUSH0 MSTORE PUSH1 0x20 PUSH0 KECCAK256 ADD PUSH1 0x40 MLOAD DUP1 PUSH1 0x40 ADD PUSH1 0x40 MSTORE SWAP1 DUP2 PUSH0 DUP3 ADD PUSH0 SWAP1 SLOAD SWAP1 PUSH2 0x100 EXP SWAP1 DIV PUSH6 0xFFFFFFFFFFFF AND PUSH6 0xFFFFFFFFFFFF AND PUSH6 0xFFFFFFFFFFFF AND DUP2 MSTORE PUSH1 0x20 ADD PUSH0 DUP3 ADD PUSH1 0x6 SWAP1 SLOAD SWAP1 PUSH2 0x100 EXP SWAP1 DIV PUSH26 0xFFFFFFFFFFFFFFFFFFFFFFFFFFFFFFFFFFFFFFFFFFFFFFFFFFFF AND PUSH26 0xFFFFFFFFFFFFFFFFFFFFFFFFFFFFFFFFFFFFFFFFFFFFFFFFFFFF AND PUSH26 0xFFFFFFFFFFFFFFFFFFFFFFFFFFFFFFFFFFFFFFFFFFFFFFFFFFFF AND DUP2 MSTORE POP POP SWAP1 POP SWAP3 SWAP2 POP POP JUMP JUMPDEST PUSH2 0x239A DUP4 DUP4 DUP4 PUSH2 0x25B5 JUMP JUMPDEST PUSH0 PUSH20 0xFFFFFFFFFFFFFFFFFFFFFFFFFFFFFFFFFFFFFFFF AND DUP4 PUSH20 0xFFFFFFFFFFFFFFFFFFFFFFFFFFFFFFFFFFFFFFFF AND SUB PUSH2 0x242D JUMPI PUSH0 PUSH2 0x23D6 PUSH2 0x730 JUMP JUMPDEST SWAP1 POP PUSH0 PUSH2 0x23E1 PUSH2 0x27CE JUMP JUMPDEST SWAP1 POP DUP1 DUP3 GT ISZERO PUSH2 0x242A JUMPI DUP2 DUP2 PUSH1 0x40 MLOAD PUSH32 0x1CB15D2600000000000000000000000000000000000000000000000000000000 DUP2 MSTORE PUSH1 0x4 ADD PUSH2 0x2421 SWAP3 SWAP2 SWAP1 PUSH2 0x38F5 JUMP JUMPDEST PUSH1 0x40 MLOAD DUP1 SWAP2 SUB SWAP1 REVERT JUMPDEST POP POP JUMPDEST PUSH2 0x2438 DUP4 DUP4 DUP4 PUSH2 0x27F1 JUMP JUMPDEST POP POP POP JUMP JUMPDEST PUSH0 DUP2 ISZERO ISZERO SWAP1 POP SWAP2 SWAP1 POP JUMP JUMPDEST PUSH0 PUSH1 0x2 DUP3 DUP5 XOR PUSH2 0x2458 SWAP2 SWAP1 PUSH2 0x3722 JUMP JUMPDEST DUP3 DUP5 AND PUSH2 0x2465 SWAP2 SWAP1 PUSH2 0x37E1 JUMP JUMPDEST SWAP1 POP SWAP3 SWAP2 POP POP JUMP JUMPDEST PUSH0 DUP2 DUP4 PUSH2 0x247A SWAP2 SWAP1 PUSH2 0x3A19 JUMP JUMPDEST SWAP1 POP SWAP3 SWAP2 POP POP JUMP JUMPDEST PUSH0 PUSH26 0xFFFFFFFFFFFFFFFFFFFFFFFFFFFFFFFFFFFFFFFFFFFFFFFFFFFF DUP1 AND DUP3 GT ISZERO PUSH2 0x24E7 JUMPI PUSH1 0xD0 DUP3 PUSH1 0x40 MLOAD PUSH32 0x6DFCC65000000000000000000000000000000000000000000000000000000000 DUP2 MSTORE PUSH1 0x4 ADD PUSH2 0x24DE SWAP3 SWAP2 SWAP1 PUSH2 0x3A9F JUMP JUMPDEST PUSH1 0x40 MLOAD DUP1 SWAP2 SUB SWAP1 REVERT JUMPDEST DUP2 SWAP1 POP SWAP2 SWAP1 POP JUMP JUMPDEST PUSH0 DUP1 PUSH2 0x2522 PUSH2 0x24FC PUSH2 0xAA8 JUMP JUMPDEST PUSH2 0x2512 PUSH2 0x2508 DUP9 PUSH2 0x15BD JUMP JUMPDEST DUP7 DUP9 PUSH4 0xFFFFFFFF AND JUMP JUMPDEST DUP8 PUSH2 0x28A9 SWAP1 SWAP3 SWAP2 SWAP1 PUSH4 0xFFFFFFFF AND JUMP JUMPDEST SWAP2 POP SWAP2 POP SWAP4 POP SWAP4 SWAP2 POP POP JUMP JUMPDEST PUSH0 DUP2 DUP4 PUSH2 0x253B SWAP2 SWAP1 PUSH2 0x3AC6 JUMP JUMPDEST SWAP1 POP SWAP3 SWAP2 POP POP JUMP JUMPDEST PUSH1 0x60 PUSH0 PUSH2 0x254F DUP4 PUSH2 0x28C4 JUMP JUMPDEST SWAP1 POP PUSH0 PUSH1 0x20 PUSH8 0xFFFFFFFFFFFFFFFF DUP2 GT ISZERO PUSH2 0x256D JUMPI PUSH2 0x256C PUSH2 0x35FF JUMP JUMPDEST JUMPDEST PUSH1 0x40 MLOAD SWAP1 DUP1 DUP3 MSTORE DUP1 PUSH1 0x1F ADD PUSH1 0x1F NOT AND PUSH1 0x20 ADD DUP3 ADD PUSH1 0x40 MSTORE DUP1 ISZERO PUSH2 0x259F JUMPI DUP2 PUSH1 0x20 ADD PUSH1 0x1 DUP3 MUL DUP1 CALLDATASIZE DUP4 CALLDATACOPY DUP1 DUP3 ADD SWAP2 POP POP SWAP1 POP JUMPDEST POP SWAP1 POP DUP2 DUP2 MSTORE DUP4 PUSH1 0x20 DUP3 ADD MSTORE DUP1 SWAP3 POP POP POP SWAP2 SWAP1 POP JUMP JUMPDEST PUSH0 PUSH20 0xFFFFFFFFFFFFFFFFFFFFFFFFFFFFFFFFFFFFFFFF AND DUP4 PUSH20 0xFFFFFFFFFFFFFFFFFFFFFFFFFFFFFFFFFFFFFFFF AND SUB PUSH2 0x2605 JUMPI DUP1 PUSH1 0x2 PUSH0 DUP3 DUP3 SLOAD PUSH2 0x25F9 SWAP2 SWAP1 PUSH2 0x37E1 JUMP JUMPDEST SWAP3 POP POP DUP2 SWAP1 SSTORE POP PUSH2 0x26D3 JUMP JUMPDEST PUSH0 DUP1 PUSH0 DUP6 PUSH20 0xFFFFFFFFFFFFFFFFFFFFFFFFFFFFFFFFFFFFFFFF AND PUSH20 0xFFFFFFFFFFFFFFFFFFFFFFFFFFFFFFFFFFFFFFFF AND DUP2 MSTORE PUSH1 0x20 ADD SWAP1 DUP2 MSTORE PUSH1 0x20 ADD PUSH0 KECCAK256 SLOAD SWAP1 POP DUP2 DUP2 LT ISZERO PUSH2 0x268E JUMPI DUP4 DUP2 DUP4 PUSH1 0x40 MLOAD PUSH32 0xE450D38C00000000000000000000000000000000000000000000000000000000 DUP2 MSTORE PUSH1 0x4 ADD PUSH2 0x2685 SWAP4 SWAP3 SWAP2 SWAP1 PUSH2 0x3752 JUMP JUMPDEST PUSH1 0x40 MLOAD DUP1 SWAP2 SUB SWAP1 REVERT JUMPDEST DUP2 DUP2 SUB PUSH0 DUP1 DUP7 PUSH20 0xFFFFFFFFFFFFFFFFFFFFFFFFFFFFFFFFFFFFFFFF AND PUSH20 0xFFFFFFFFFFFFFFFFFFFFFFFFFFFFFFFFFFFFFFFF AND DUP2 MSTORE PUSH1 0x20 ADD SWAP1 DUP2 MSTORE PUSH1 0x20 ADD PUSH0 KECCAK256 DUP2 SWAP1 SSTORE POP POP JUMPDEST PUSH0 PUSH20 0xFFFFFFFFFFFFFFFFFFFFFFFFFFFFFFFFFFFFFFFF AND DUP3 PUSH20 0xFFFFFFFFFFFFFFFFFFFFFFFFFFFFFFFFFFFFFFFF AND SUB PUSH2 0x271A JUMPI DUP1 PUSH1 0x2 PUSH0 DUP3 DUP3 SLOAD SUB SWAP3 POP POP DUP2 SWAP1 SSTORE POP PUSH2 0x2764 JUMP JUMPDEST DUP1 PUSH0 DUP1 DUP5 PUSH20 0xFFFFFFFFFFFFFFFFFFFFFFFFFFFFFFFFFFFFFFFF AND PUSH20 0xFFFFFFFFFFFFFFFFFFFFFFFFFFFFFFFFFFFFFFFF AND DUP2 MSTORE PUSH1 0x20 ADD SWAP1 DUP2 MSTORE PUSH1 0x20 ADD PUSH0 KECCAK256 PUSH0 DUP3 DUP3 SLOAD ADD SWAP3 POP POP DUP2 SWAP1 SSTORE POP JUMPDEST DUP2 PUSH20 0xFFFFFFFFFFFFFFFFFFFFFFFFFFFFFFFFFFFFFFFF AND DUP4 PUSH20 0xFFFFFFFFFFFFFFFFFFFFFFFFFFFFFFFFFFFFFFFF AND PUSH32 0xDDF252AD1BE2C89B69C2B068FC378DAA952BA7F163C4A11628F55A4DF523B3EF DUP4 PUSH1 0x40 MLOAD PUSH2 0x27C1 SWAP2 SWAP1 PUSH2 0x2E0B JUMP JUMPDEST PUSH1 0x40 MLOAD DUP1 SWAP2 SUB SWAP1 LOG3 POP POP POP JUMP JUMPDEST PUSH0 PUSH26 0xFFFFFFFFFFFFFFFFFFFFFFFFFFFFFFFFFFFFFFFFFFFFFFFFFFFF DUP1 AND SWAP1 POP SWAP1 JUMP JUMPDEST PUSH0 PUSH20 0xFFFFFFFFFFFFFFFFFFFFFFFFFFFFFFFFFFFFFFFF AND DUP4 PUSH20 0xFFFFFFFFFFFFFFFFFFFFFFFFFFFFFFFFFFFFFFFF AND SUB PUSH2 0x283D JUMPI PUSH2 0x283A PUSH1 0xA PUSH2 0x252E PUSH2 0x2835 DUP5 PUSH2 0x2482 JUMP JUMPDEST PUSH2 0x24EF JUMP JUMPDEST POP POP JUMPDEST PUSH0 PUSH20 0xFFFFFFFFFFFFFFFFFFFFFFFFFFFFFFFFFFFFFFFF AND DUP3 PUSH20 0xFFFFFFFFFFFFFFFFFFFFFFFFFFFFFFFFFFFFFFFF AND SUB PUSH2 0x2889 JUMPI PUSH2 0x2886 PUSH1 0xA PUSH2 0x246D PUSH2 0x2881 DUP5 PUSH2 0x2482 JUMP JUMPDEST PUSH2 0x24EF JUMP JUMPDEST POP POP JUMPDEST PUSH2 0x28A4 PUSH2 0x2895 DUP5 PUSH2 0x8B9 JUMP JUMPDEST PUSH2 0x289E DUP5 PUSH2 0x8B9 JUMP JUMPDEST DUP4 PUSH2 0x1C6E JUMP JUMPDEST POP POP POP JUMP JUMPDEST PUSH0 DUP1 PUSH2 0x28B8 DUP6 PUSH0 ADD DUP6 DUP6 PUSH2 0x2912 JUMP JUMPDEST SWAP2 POP SWAP2 POP SWAP4 POP SWAP4 SWAP2 POP POP JUMP JUMPDEST PUSH0 DUP1 PUSH1 0xFF DUP4 PUSH0 SHR AND SWAP1 POP PUSH1 0x1F DUP2 GT ISZERO PUSH2 0x2909 JUMPI PUSH1 0x40 MLOAD PUSH32 0xB3512B0C00000000000000000000000000000000000000000000000000000000 DUP2 MSTORE PUSH1 0x4 ADD PUSH1 0x40 MLOAD DUP1 SWAP2 SUB SWAP1 REVERT JUMPDEST DUP1 SWAP2 POP POP SWAP2 SWAP1 POP JUMP JUMPDEST PUSH0 DUP1 PUSH0 DUP6 DUP1 SLOAD SWAP1 POP SWAP1 POP PUSH0 DUP2 GT ISZERO PUSH2 0x2B1E JUMPI PUSH0 PUSH2 0x293B DUP8 PUSH1 0x1 DUP5 PUSH2 0x2936 SWAP2 SWAP1 PUSH2 0x37AE JUMP JUMPDEST PUSH2 0x1BD6 JUMP JUMPDEST SWAP1 POP PUSH0 DUP2 PUSH0 ADD PUSH0 SWAP1 SLOAD SWAP1 PUSH2 0x100 EXP SWAP1 DIV PUSH6 0xFFFFFFFFFFFF AND SWAP1 POP PUSH0 DUP3 PUSH0 ADD PUSH1 0x6 SWAP1 SLOAD SWAP1 PUSH2 0x100 EXP SWAP1 DIV PUSH26 0xFFFFFFFFFFFFFFFFFFFFFFFFFFFFFFFFFFFFFFFFFFFFFFFFFFFF AND SWAP1 POP DUP8 PUSH6 0xFFFFFFFFFFFF AND DUP3 PUSH6 0xFFFFFFFFFFFF AND GT ISZERO PUSH2 0x29CC JUMPI PUSH1 0x40 MLOAD PUSH32 0x2520601D00000000000000000000000000000000000000000000000000000000 DUP2 MSTORE PUSH1 0x4 ADD PUSH1 0x40 MLOAD DUP1 SWAP2 SUB SWAP1 REVERT JUMPDEST DUP8 PUSH6 0xFFFFFFFFFFFF AND DUP3 PUSH6 0xFFFFFFFFFFFF AND SUB PUSH2 0x2A36 JUMPI DUP7 DUP4 PUSH0 ADD PUSH1 0x6 PUSH2 0x100 EXP DUP2 SLOAD DUP2 PUSH26 0xFFFFFFFFFFFFFFFFFFFFFFFFFFFFFFFFFFFFFFFFFFFFFFFFFFFF MUL NOT AND SWAP1 DUP4 PUSH26 0xFFFFFFFFFFFFFFFFFFFFFFFFFFFFFFFFFFFFFFFFFFFFFFFFFFFF AND MUL OR SWAP1 SSTORE POP PUSH2 0x2B0F JUMP JUMPDEST DUP9 PUSH1 0x40 MLOAD DUP1 PUSH1 0x40 ADD PUSH1 0x40 MSTORE DUP1 DUP11 PUSH6 0xFFFFFFFFFFFF AND DUP2 MSTORE PUSH1 0x20 ADD DUP10 PUSH26 0xFFFFFFFFFFFFFFFFFFFFFFFFFFFFFFFFFFFFFFFFFFFFFFFFFFFF AND DUP2 MSTORE POP SWAP1 DUP1 PUSH1 0x1 DUP2 SLOAD ADD DUP1 DUP3 SSTORE DUP1 SWAP2 POP POP PUSH1 0x1 SWAP1 SUB SWAP1 PUSH0 MSTORE PUSH1 0x20 PUSH0 KECCAK256 ADD PUSH0 SWAP1 SWAP2 SWAP1 SWAP2 SWAP1 SWAP2 POP PUSH0 DUP3 ADD MLOAD DUP2 PUSH0 ADD PUSH0 PUSH2 0x100 EXP DUP2 SLOAD DUP2 PUSH6 0xFFFFFFFFFFFF MUL NOT AND SWAP1 DUP4 PUSH6 0xFFFFFFFFFFFF AND MUL OR SWAP1 SSTORE POP PUSH1 0x20 DUP3 ADD MLOAD DUP2 PUSH0 ADD PUSH1 0x6 PUSH2 0x100 EXP DUP2 SLOAD DUP2 PUSH26 0xFFFFFFFFFFFFFFFFFFFFFFFFFFFFFFFFFFFFFFFFFFFFFFFFFFFF MUL NOT AND SWAP1 DUP4 PUSH26 0xFFFFFFFFFFFFFFFFFFFFFFFFFFFFFFFFFFFFFFFFFFFFFFFFFFFF AND MUL OR SWAP1 SSTORE POP POP POP JUMPDEST DUP1 DUP8 SWAP6 POP SWAP6 POP POP POP POP POP PUSH2 0x2BFE JUMP JUMPDEST DUP6 PUSH1 0x40 MLOAD DUP1 PUSH1 0x40 ADD PUSH1 0x40 MSTORE DUP1 DUP8 PUSH6 0xFFFFFFFFFFFF AND DUP2 MSTORE PUSH1 0x20 ADD DUP7 PUSH26 0xFFFFFFFFFFFFFFFFFFFFFFFFFFFFFFFFFFFFFFFFFFFFFFFFFFFF AND DUP2 MSTORE POP SWAP1 DUP1 PUSH1 0x1 DUP2 SLOAD ADD DUP1 DUP3 SSTORE DUP1 SWAP2 POP POP PUSH1 0x1 SWAP1 SUB SWAP1 PUSH0 MSTORE PUSH1 0x20 PUSH0 KECCAK256 ADD PUSH0 SWAP1 SWAP2 SWAP1 SWAP2 SWAP1 SWAP2 POP PUSH0 DUP3 ADD MLOAD DUP2 PUSH0 ADD PUSH0 PUSH2 0x100 EXP DUP2 SLOAD DUP2 PUSH6 0xFFFFFFFFFFFF MUL NOT AND SWAP1 DUP4 PUSH6 0xFFFFFFFFFFFF AND MUL OR SWAP1 SSTORE POP PUSH1 0x20 DUP3 ADD MLOAD DUP2 PUSH0 ADD PUSH1 0x6 PUSH2 0x100 EXP DUP2 SLOAD DUP2 PUSH26 0xFFFFFFFFFFFFFFFFFFFFFFFFFFFFFFFFFFFFFFFFFFFFFFFFFFFF MUL NOT AND SWAP1 DUP4 PUSH26 0xFFFFFFFFFFFFFFFFFFFFFFFFFFFFFFFFFFFFFFFFFFFFFFFFFFFF AND MUL OR SWAP1 SSTORE POP POP POP PUSH0 DUP5 SWAP3 POP SWAP3 POP POP JUMPDEST SWAP4 POP SWAP4 SWAP2 POP POP JUMP JUMPDEST PUSH1 0x40 MLOAD DUP1 PUSH1 0x40 ADD PUSH1 0x40 MSTORE DUP1 PUSH0 PUSH6 0xFFFFFFFFFFFF AND DUP2 MSTORE PUSH1 0x20 ADD PUSH0 PUSH26 0xFFFFFFFFFFFFFFFFFFFFFFFFFFFFFFFFFFFFFFFFFFFFFFFFFFFF AND DUP2 MSTORE POP SWAP1 JUMP JUMPDEST PUSH0 PUSH20 0xFFFFFFFFFFFFFFFFFFFFFFFFFFFFFFFFFFFFFFFF DUP3 AND SWAP1 POP SWAP2 SWAP1 POP JUMP JUMPDEST PUSH0 PUSH2 0x2C6B DUP3 PUSH2 0x2C42 JUMP JUMPDEST SWAP1 POP SWAP2 SWAP1 POP JUMP JUMPDEST PUSH2 0x2C7B DUP2 PUSH2 0x2C61 JUMP JUMPDEST DUP3 MSTORE POP POP JUMP JUMPDEST PUSH0 PUSH1 0x20 DUP3 ADD SWAP1 POP PUSH2 0x2C94 PUSH0 DUP4 ADD DUP5 PUSH2 0x2C72 JUMP JUMPDEST SWAP3 SWAP2 POP POP JUMP JUMPDEST PUSH0 DUP2 MLOAD SWAP1 POP SWAP2 SWAP1 POP JUMP JUMPDEST PUSH0 DUP3 DUP3 MSTORE PUSH1 0x20 DUP3 ADD SWAP1 POP SWAP3 SWAP2 POP POP JUMP JUMPDEST DUP3 DUP2 DUP4 MCOPY PUSH0 DUP4 DUP4 ADD MSTORE POP POP POP JUMP JUMPDEST PUSH0 PUSH1 0x1F NOT PUSH1 0x1F DUP4 ADD AND SWAP1 POP SWAP2 SWAP1 POP JUMP JUMPDEST PUSH0 PUSH2 0x2CDC DUP3 PUSH2 0x2C9A JUMP JUMPDEST PUSH2 0x2CE6 DUP2 DUP6 PUSH2 0x2CA4 JUMP JUMPDEST SWAP4 POP PUSH2 0x2CF6 DUP2 DUP6 PUSH1 0x20 DUP7 ADD PUSH2 0x2CB4 JUMP JUMPDEST PUSH2 0x2CFF DUP2 PUSH2 0x2CC2 JUMP JUMPDEST DUP5 ADD SWAP2 POP POP SWAP3 SWAP2 POP POP JUMP JUMPDEST PUSH0 PUSH1 0x20 DUP3 ADD SWAP1 POP DUP2 DUP2 SUB PUSH0 DUP4 ADD MSTORE PUSH2 0x2D22 DUP2 DUP5 PUSH2 0x2CD2 JUMP JUMPDEST SWAP1 POP SWAP3 SWAP2 POP POP JUMP JUMPDEST PUSH0 DUP1 REVERT JUMPDEST PUSH2 0x2D37 DUP2 PUSH2 0x2C61 JUMP JUMPDEST DUP2 EQ PUSH2 0x2D41 JUMPI PUSH0 DUP1 REVERT JUMPDEST POP JUMP JUMPDEST PUSH0 DUP2 CALLDATALOAD SWAP1 POP PUSH2 0x2D52 DUP2 PUSH2 0x2D2E JUMP JUMPDEST SWAP3 SWAP2 POP POP JUMP JUMPDEST PUSH0 DUP2 SWAP1 POP SWAP2 SWAP1 POP JUMP JUMPDEST PUSH2 0x2D6A DUP2 PUSH2 0x2D58 JUMP JUMPDEST DUP2 EQ PUSH2 0x2D74 JUMPI PUSH0 DUP1 REVERT JUMPDEST POP JUMP JUMPDEST PUSH0 DUP2 CALLDATALOAD SWAP1 POP PUSH2 0x2D85 DUP2 PUSH2 0x2D61 JUMP JUMPDEST SWAP3 SWAP2 POP POP JUMP JUMPDEST PUSH0 DUP1 PUSH1 0x40 DUP4 DUP6 SUB SLT ISZERO PUSH2 0x2DA1 JUMPI PUSH2 0x2DA0 PUSH2 0x2D2A JUMP JUMPDEST JUMPDEST PUSH0 PUSH2 0x2DAE DUP6 DUP3 DUP7 ADD PUSH2 0x2D44 JUMP JUMPDEST SWAP3 POP POP PUSH1 0x20 PUSH2 0x2DBF DUP6 DUP3 DUP7 ADD PUSH2 0x2D77 JUMP JUMPDEST SWAP2 POP POP SWAP3 POP SWAP3 SWAP1 POP JUMP JUMPDEST PUSH0 DUP2 ISZERO ISZERO SWAP1 POP SWAP2 SWAP1 POP JUMP JUMPDEST PUSH2 0x2DDD DUP2 PUSH2 0x2DC9 JUMP JUMPDEST DUP3 MSTORE POP POP JUMP JUMPDEST PUSH0 PUSH1 0x20 DUP3 ADD SWAP1 POP PUSH2 0x2DF6 PUSH0 DUP4 ADD DUP5 PUSH2 0x2DD4 JUMP JUMPDEST SWAP3 SWAP2 POP POP JUMP JUMPDEST PUSH2 0x2E05 DUP2 PUSH2 0x2D58 JUMP JUMPDEST DUP3 MSTORE POP POP JUMP JUMPDEST PUSH0 PUSH1 0x20 DUP3 ADD SWAP1 POP PUSH2 0x2E1E PUSH0 DUP4 ADD DUP5 PUSH2 0x2DFC JUMP JUMPDEST SWAP3 SWAP2 POP POP JUMP JUMPDEST PUSH0 DUP1 PUSH0 PUSH1 0x60 DUP5 DUP7 SUB SLT ISZERO PUSH2 0x2E3B JUMPI PUSH2 0x2E3A PUSH2 0x2D2A JUMP JUMPDEST JUMPDEST PUSH0 PUSH2 0x2E48 DUP7 DUP3 DUP8 ADD PUSH2 0x2D44 JUMP JUMPDEST SWAP4 POP POP PUSH1 0x20 PUSH2 0x2E59 DUP7 DUP3 DUP8 ADD PUSH2 0x2D44 JUMP JUMPDEST SWAP3 POP POP PUSH1 0x40 PUSH2 0x2E6A DUP7 DUP3 DUP8 ADD PUSH2 0x2D77 JUMP JUMPDEST SWAP2 POP POP SWAP3 POP SWAP3 POP SWAP3 JUMP JUMPDEST PUSH0 PUSH1 0xFF DUP3 AND SWAP1 POP SWAP2 SWAP1 POP JUMP JUMPDEST PUSH2 0x2E89 DUP2 PUSH2 0x2E74 JUMP JUMPDEST DUP3 MSTORE POP POP JUMP JUMPDEST PUSH0 PUSH1 0x20 DUP3 ADD SWAP1 POP PUSH2 0x2EA2 PUSH0 DUP4 ADD DUP5 PUSH2 0x2E80 JUMP JUMPDEST SWAP3 SWAP2 POP POP JUMP JUMPDEST PUSH0 DUP2 SWAP1 POP SWAP2 SWAP1 POP JUMP JUMPDEST PUSH2 0x2EBA DUP2 PUSH2 0x2EA8 JUMP JUMPDEST DUP3 MSTORE POP POP JUMP JUMPDEST PUSH0 PUSH1 0x20 DUP3 ADD SWAP1 POP PUSH2 0x2ED3 PUSH0 DUP4 ADD DUP5 PUSH2 0x2EB1 JUMP JUMPDEST SWAP3 SWAP2 POP POP JUMP JUMPDEST PUSH0 PUSH1 0x20 DUP3 DUP5 SUB SLT ISZERO PUSH2 0x2EEE JUMPI PUSH2 0x2EED PUSH2 0x2D2A JUMP JUMPDEST JUMPDEST PUSH0 PUSH2 0x2EFB DUP5 DUP3 DUP6 ADD PUSH2 0x2D44 JUMP JUMPDEST SWAP2 POP POP SWAP3 SWAP2 POP POP JUMP JUMPDEST PUSH0 PUSH4 0xFFFFFFFF DUP3 AND SWAP1 POP SWAP2 SWAP1 POP JUMP JUMPDEST PUSH2 0x2F1C DUP2 PUSH2 0x2F04 JUMP JUMPDEST DUP3 MSTORE POP POP JUMP JUMPDEST PUSH0 PUSH1 0x20 DUP3 ADD SWAP1 POP PUSH2 0x2F35 PUSH0 DUP4 ADD DUP5 PUSH2 0x2F13 JUMP JUMPDEST SWAP3 SWAP2 POP POP JUMP JUMPDEST PUSH0 PUSH32 0xFF00000000000000000000000000000000000000000000000000000000000000 DUP3 AND SWAP1 POP SWAP2 SWAP1 POP JUMP JUMPDEST PUSH2 0x2F6F DUP2 PUSH2 0x2F3B JUMP JUMPDEST DUP3 MSTORE POP POP JUMP JUMPDEST PUSH0 DUP2 MLOAD SWAP1 POP SWAP2 SWAP1 POP JUMP JUMPDEST PUSH0 DUP3 DUP3 MSTORE PUSH1 0x20 DUP3 ADD SWAP1 POP SWAP3 SWAP2 POP POP JUMP JUMPDEST PUSH0 DUP2 SWAP1 POP PUSH1 0x20 DUP3 ADD SWAP1 POP SWAP2 SWAP1 POP JUMP JUMPDEST PUSH2 0x2FA7 DUP2 PUSH2 0x2D58 JUMP JUMPDEST DUP3 MSTORE POP POP JUMP JUMPDEST PUSH0 PUSH2 0x2FB8 DUP4 DUP4 PUSH2 0x2F9E JUMP JUMPDEST PUSH1 0x20 DUP4 ADD SWAP1 POP SWAP3 SWAP2 POP POP JUMP JUMPDEST PUSH0 PUSH1 0x20 DUP3 ADD SWAP1 POP SWAP2 SWAP1 POP JUMP JUMPDEST PUSH0 PUSH2 0x2FDA DUP3 PUSH2 0x2F75 JUMP JUMPDEST PUSH2 0x2FE4 DUP2 DUP6 PUSH2 0x2F7F JUMP JUMPDEST SWAP4 POP PUSH2 0x2FEF DUP4 PUSH2 0x2F8F JUMP JUMPDEST DUP1 PUSH0 JUMPDEST DUP4 DUP2 LT ISZERO PUSH2 0x301F JUMPI DUP2 MLOAD PUSH2 0x3006 DUP9 DUP3 PUSH2 0x2FAD JUMP JUMPDEST SWAP8 POP PUSH2 0x3011 DUP4 PUSH2 0x2FC4 JUMP JUMPDEST SWAP3 POP POP PUSH1 0x1 DUP2 ADD SWAP1 POP PUSH2 0x2FF2 JUMP JUMPDEST POP DUP6 SWAP4 POP POP POP POP SWAP3 SWAP2 POP POP JUMP JUMPDEST PUSH0 PUSH1 0xE0 DUP3 ADD SWAP1 POP PUSH2 0x303F PUSH0 DUP4 ADD DUP11 PUSH2 0x2F66 JUMP JUMPDEST DUP2 DUP2 SUB PUSH1 0x20 DUP4 ADD MSTORE PUSH2 0x3051 DUP2 DUP10 PUSH2 0x2CD2 JUMP JUMPDEST SWAP1 POP DUP2 DUP2 SUB PUSH1 0x40 DUP4 ADD MSTORE PUSH2 0x3065 DUP2 DUP9 PUSH2 0x2CD2 JUMP JUMPDEST SWAP1 POP PUSH2 0x3074 PUSH1 0x60 DUP4 ADD DUP8 PUSH2 0x2DFC JUMP JUMPDEST PUSH2 0x3081 PUSH1 0x80 DUP4 ADD DUP7 PUSH2 0x2C72 JUMP JUMPDEST PUSH2 0x308E PUSH1 0xA0 DUP4 ADD DUP6 PUSH2 0x2EB1 JUMP JUMPDEST DUP2 DUP2 SUB PUSH1 0xC0 DUP4 ADD MSTORE PUSH2 0x30A0 DUP2 DUP5 PUSH2 0x2FD0 JUMP JUMPDEST SWAP1 POP SWAP9 SWAP8 POP POP POP POP POP POP POP POP JUMP JUMPDEST PUSH0 PUSH1 0x20 DUP3 DUP5 SUB SLT ISZERO PUSH2 0x30C3 JUMPI PUSH2 0x30C2 PUSH2 0x2D2A JUMP JUMPDEST JUMPDEST PUSH0 PUSH2 0x30D0 DUP5 DUP3 DUP6 ADD PUSH2 0x2D77 JUMP JUMPDEST SWAP2 POP POP SWAP3 SWAP2 POP POP JUMP JUMPDEST PUSH0 PUSH6 0xFFFFFFFFFFFF DUP3 AND SWAP1 POP SWAP2 SWAP1 POP JUMP JUMPDEST PUSH2 0x30F3 DUP2 PUSH2 0x30D9 JUMP JUMPDEST DUP3 MSTORE POP POP JUMP JUMPDEST PUSH0 PUSH1 0x20 DUP3 ADD SWAP1 POP PUSH2 0x310C PUSH0 DUP4 ADD DUP5 PUSH2 0x30EA JUMP JUMPDEST SWAP3 SWAP2 POP POP JUMP JUMPDEST PUSH2 0x311B DUP2 PUSH2 0x2E74 JUMP JUMPDEST DUP2 EQ PUSH2 0x3125 JUMPI PUSH0 DUP1 REVERT JUMPDEST POP JUMP JUMPDEST PUSH0 DUP2 CALLDATALOAD SWAP1 POP PUSH2 0x3136 DUP2 PUSH2 0x3112 JUMP JUMPDEST SWAP3 SWAP2 POP POP JUMP JUMPDEST PUSH2 0x3145 DUP2 PUSH2 0x2EA8 JUMP JUMPDEST DUP2 EQ PUSH2 0x314F JUMPI PUSH0 DUP1 REVERT JUMPDEST POP JUMP JUMPDEST PUSH0 DUP2 CALLDATALOAD SWAP1 POP PUSH2 0x3160 DUP2 PUSH2 0x313C JUMP JUMPDEST SWAP3 SWAP2 POP POP JUMP JUMPDEST PUSH0 DUP1 PUSH0 DUP1 PUSH0 DUP1 PUSH1 0xC0 DUP8 DUP10 SUB SLT ISZERO PUSH2 0x3180 JUMPI PUSH2 0x317F PUSH2 0x2D2A JUMP JUMPDEST JUMPDEST PUSH0 PUSH2 0x318D DUP10 DUP3 DUP11 ADD PUSH2 0x2D44 JUMP JUMPDEST SWAP7 POP POP PUSH1 0x20 PUSH2 0x319E DUP10 DUP3 DUP11 ADD PUSH2 0x2D77 JUMP JUMPDEST SWAP6 POP POP PUSH1 0x40 PUSH2 0x31AF DUP10 DUP3 DUP11 ADD PUSH2 0x2D77 JUMP JUMPDEST SWAP5 POP POP PUSH1 0x60 PUSH2 0x31C0 DUP10 DUP3 DUP11 ADD PUSH2 0x3128 JUMP JUMPDEST SWAP4 POP POP PUSH1 0x80 PUSH2 0x31D1 DUP10 DUP3 DUP11 ADD PUSH2 0x3152 JUMP JUMPDEST SWAP3 POP POP PUSH1 0xA0 PUSH2 0x31E2 DUP10 DUP3 DUP11 ADD PUSH2 0x3152 JUMP JUMPDEST SWAP2 POP POP SWAP3 SWAP6 POP SWAP3 SWAP6 POP SWAP3 SWAP6 JUMP JUMPDEST PUSH0 DUP1 PUSH0 DUP1 PUSH0 DUP1 PUSH0 PUSH1 0xE0 DUP9 DUP11 SUB SLT ISZERO PUSH2 0x320A JUMPI PUSH2 0x3209 PUSH2 0x2D2A JUMP JUMPDEST JUMPDEST PUSH0 PUSH2 0x3217 DUP11 DUP3 DUP12 ADD PUSH2 0x2D44 JUMP JUMPDEST SWAP8 POP POP PUSH1 0x20 PUSH2 0x3228 DUP11 DUP3 DUP12 ADD PUSH2 0x2D44 JUMP JUMPDEST SWAP7 POP POP PUSH1 0x40 PUSH2 0x3239 DUP11 DUP3 DUP12 ADD PUSH2 0x2D77 JUMP JUMPDEST SWAP6 POP POP PUSH1 0x60 PUSH2 0x324A DUP11 DUP3 DUP12 ADD PUSH2 0x2D77 JUMP JUMPDEST SWAP5 POP POP PUSH1 0x80 PUSH2 0x325B DUP11 DUP3 DUP12 ADD PUSH2 0x3128 JUMP JUMPDEST SWAP4 POP POP PUSH1 0xA0 PUSH2 0x326C DUP11 DUP3 DUP12 ADD PUSH2 0x3152 JUMP JUMPDEST SWAP3 POP POP PUSH1 0xC0 PUSH2 0x327D DUP11 DUP3 DUP12 ADD PUSH2 0x3152 JUMP JUMPDEST SWAP2 POP POP SWAP3 SWAP6 SWAP9 SWAP2 SWAP5 SWAP8 POP SWAP3 SWAP6 POP JUMP JUMPDEST PUSH0 DUP1 PUSH1 0x40 DUP4 DUP6 SUB SLT ISZERO PUSH2 0x32A2 JUMPI PUSH2 0x32A1 PUSH2 0x2D2A JUMP JUMPDEST JUMPDEST PUSH0 PUSH2 0x32AF DUP6 DUP3 DUP7 ADD PUSH2 0x2D44 JUMP JUMPDEST SWAP3 POP POP PUSH1 0x20 PUSH2 0x32C0 DUP6 DUP3 DUP7 ADD PUSH2 0x2D44 JUMP JUMPDEST SWAP2 POP POP SWAP3 POP SWAP3 SWAP1 POP JUMP JUMPDEST PUSH2 0x32D3 DUP2 PUSH2 0x2F04 JUMP JUMPDEST DUP2 EQ PUSH2 0x32DD JUMPI PUSH0 DUP1 REVERT JUMPDEST POP JUMP JUMPDEST PUSH0 DUP2 CALLDATALOAD SWAP1 POP PUSH2 0x32EE DUP2 PUSH2 0x32CA JUMP JUMPDEST SWAP3 SWAP2 POP POP JUMP JUMPDEST PUSH0 DUP1 PUSH1 0x40 DUP4 DUP6 SUB SLT ISZERO PUSH2 0x330A JUMPI PUSH2 0x3309 PUSH2 0x2D2A JUMP JUMPDEST JUMPDEST PUSH0 PUSH2 0x3317 DUP6 DUP3 DUP7 ADD PUSH2 0x2D44 JUMP JUMPDEST SWAP3 POP POP PUSH1 0x20 PUSH2 0x3328 DUP6 DUP3 DUP7 ADD PUSH2 0x32E0 JUMP JUMPDEST SWAP2 POP POP SWAP3 POP SWAP3 SWAP1 POP JUMP JUMPDEST PUSH2 0x333B DUP2 PUSH2 0x30D9 JUMP JUMPDEST DUP3 MSTORE POP POP JUMP JUMPDEST PUSH0 PUSH26 0xFFFFFFFFFFFFFFFFFFFFFFFFFFFFFFFFFFFFFFFFFFFFFFFFFFFF DUP3 AND SWAP1 POP SWAP2 SWAP1 POP JUMP JUMPDEST PUSH2 0x336F DUP2 PUSH2 0x3341 JUMP JUMPDEST DUP3 MSTORE POP POP JUMP JUMPDEST PUSH1 0x40 DUP3 ADD PUSH0 DUP3 ADD MLOAD PUSH2 0x3389 PUSH0 DUP6 ADD DUP3 PUSH2 0x3332 JUMP JUMPDEST POP PUSH1 0x20 DUP3 ADD MLOAD PUSH2 0x339C PUSH1 0x20 DUP6 ADD DUP3 PUSH2 0x3366 JUMP JUMPDEST POP POP POP POP JUMP JUMPDEST PUSH0 PUSH1 0x40 DUP3 ADD SWAP1 POP PUSH2 0x33B5 PUSH0 DUP4 ADD DUP5 PUSH2 0x3375 JUMP JUMPDEST SWAP3 SWAP2 POP POP JUMP JUMPDEST PUSH32 0x4E487B7100000000000000000000000000000000000000000000000000000000 PUSH0 MSTORE PUSH1 0x22 PUSH1 0x4 MSTORE PUSH1 0x24 PUSH0 REVERT JUMPDEST PUSH0 PUSH1 0x2 DUP3 DIV SWAP1 POP PUSH1 0x1 DUP3 AND DUP1 PUSH2 0x33FF JUMPI PUSH1 0x7F DUP3 AND SWAP2 POP JUMPDEST PUSH1 0x20 DUP3 LT DUP2 SUB PUSH2 0x3412 JUMPI PUSH2 0x3411 PUSH2 0x33BB JUMP JUMPDEST JUMPDEST POP SWAP2 SWAP1 POP JUMP JUMPDEST PUSH32 0x4E487B7100000000000000000000000000000000000000000000000000000000 PUSH0 MSTORE PUSH1 0x11 PUSH1 0x4 MSTORE PUSH1 0x24 PUSH0 REVERT JUMPDEST PUSH0 DUP2 PUSH1 0x1 SHR SWAP1 POP SWAP2 SWAP1 POP JUMP JUMPDEST PUSH0 DUP1 DUP3 SWAP2 POP DUP4 SWAP1 POP JUMPDEST PUSH1 0x1 DUP6 GT ISZERO PUSH2 0x349A JUMPI DUP1 DUP7 DIV DUP2 GT ISZERO PUSH2 0x3476 JUMPI PUSH2 0x3475 PUSH2 0x3418 JUMP JUMPDEST JUMPDEST PUSH1 0x1 DUP6 AND ISZERO PUSH2 0x3485 JUMPI DUP1 DUP3 MUL SWAP2 POP JUMPDEST DUP1 DUP2 MUL SWAP1 POP PUSH2 0x3493 DUP6 PUSH2 0x3445 JUMP JUMPDEST SWAP5 POP PUSH2 0x345A JUMP JUMPDEST SWAP5 POP SWAP5 SWAP3 POP POP POP JUMP JUMPDEST PUSH0 DUP3 PUSH2 0x34B2 JUMPI PUSH1 0x1 SWAP1 POP PUSH2 0x356D JUMP JUMPDEST DUP2 PUSH2 0x34BF JUMPI PUSH0 SWAP1 POP PUSH2 0x356D JUMP JUMPDEST DUP2 PUSH1 0x1 DUP2 EQ PUSH2 0x34D5 JUMPI PUSH1 0x2 DUP2 EQ PUSH2 0x34DF JUMPI PUSH2 0x350E JUMP JUMPDEST PUSH1 0x1 SWAP2 POP POP PUSH2 0x356D JUMP JUMPDEST PUSH1 0xFF DUP5 GT ISZERO PUSH2 0x34F1 JUMPI PUSH2 0x34F0 PUSH2 0x3418 JUMP JUMPDEST JUMPDEST DUP4 PUSH1 0x2 EXP SWAP2 POP DUP5 DUP3 GT ISZERO PUSH2 0x3508 JUMPI PUSH2 0x3507 PUSH2 0x3418 JUMP JUMPDEST JUMPDEST POP PUSH2 0x356D JUMP JUMPDEST POP PUSH1 0x20 DUP4 LT PUSH2 0x133 DUP4 LT AND PUSH1 0x4E DUP5 LT PUSH1 0xB DUP5 LT AND OR ISZERO PUSH2 0x3543 JUMPI DUP3 DUP3 EXP SWAP1 POP DUP4 DUP2 GT ISZERO PUSH2 0x353E JUMPI PUSH2 0x353D PUSH2 0x3418 JUMP JUMPDEST JUMPDEST PUSH2 0x356D JUMP JUMPDEST PUSH2 0x3550 DUP5 DUP5 DUP5 PUSH1 0x1 PUSH2 0x3451 JUMP JUMPDEST SWAP3 POP SWAP1 POP DUP2 DUP5 DIV DUP2 GT ISZERO PUSH2 0x3567 JUMPI PUSH2 0x3566 PUSH2 0x3418 JUMP JUMPDEST JUMPDEST DUP2 DUP2 MUL SWAP1 POP JUMPDEST SWAP4 SWAP3 POP POP POP JUMP JUMPDEST PUSH0 PUSH2 0x357E DUP3 PUSH2 0x2D58 JUMP JUMPDEST SWAP2 POP PUSH2 0x3589 DUP4 PUSH2 0x2E74 JUMP JUMPDEST SWAP3 POP PUSH2 0x35B6 PUSH32 0xFFFFFFFFFFFFFFFFFFFFFFFFFFFFFFFFFFFFFFFFFFFFFFFFFFFFFFFFFFFFFFFF DUP5 DUP5 PUSH2 0x34A3 JUMP JUMPDEST SWAP1 POP SWAP3 SWAP2 POP POP JUMP JUMPDEST PUSH0 PUSH2 0x35C8 DUP3 PUSH2 0x2D58 JUMP JUMPDEST SWAP2 POP PUSH2 0x35D3 DUP4 PUSH2 0x2D58 JUMP JUMPDEST SWAP3 POP DUP3 DUP3 MUL PUSH2 0x35E1 DUP2 PUSH2 0x2D58 JUMP JUMPDEST SWAP2 POP DUP3 DUP3 DIV DUP5 EQ DUP4 ISZERO OR PUSH2 0x35F8 JUMPI PUSH2 0x35F7 PUSH2 0x3418 JUMP JUMPDEST JUMPDEST POP SWAP3 SWAP2 POP POP JUMP JUMPDEST PUSH32 0x4E487B7100000000000000000000000000000000000000000000000000000000 PUSH0 MSTORE PUSH1 0x41 PUSH1 0x4 MSTORE PUSH1 0x24 PUSH0 REVERT JUMPDEST PUSH0 PUSH1 0x80 DUP3 ADD SWAP1 POP PUSH2 0x363F PUSH0 DUP4 ADD DUP8 PUSH2 0x2EB1 JUMP JUMPDEST PUSH2 0x364C PUSH1 0x20 DUP4 ADD DUP7 PUSH2 0x2C72 JUMP JUMPDEST PUSH2 0x3659 PUSH1 0x40 DUP4 ADD DUP6 PUSH2 0x2DFC JUMP JUMPDEST PUSH2 0x3666 PUSH1 0x60 DUP4 ADD DUP5 PUSH2 0x2DFC JUMP JUMPDEST SWAP6 SWAP5 POP POP POP POP POP JUMP JUMPDEST PUSH0 PUSH1 0xC0 DUP3 ADD SWAP1 POP PUSH2 0x3682 PUSH0 DUP4 ADD DUP10 PUSH2 0x2EB1 JUMP JUMPDEST PUSH2 0x368F PUSH1 0x20 DUP4 ADD DUP9 PUSH2 0x2C72 JUMP JUMPDEST PUSH2 0x369C PUSH1 0x40 DUP4 ADD DUP8 PUSH2 0x2C72 JUMP JUMPDEST PUSH2 0x36A9 PUSH1 0x60 DUP4 ADD DUP7 PUSH2 0x2DFC JUMP JUMPDEST PUSH2 0x36B6 PUSH1 0x80 DUP4 ADD DUP6 PUSH2 0x2DFC JUMP JUMPDEST PUSH2 0x36C3 PUSH1 0xA0 DUP4 ADD DUP5 PUSH2 0x2DFC JUMP JUMPDEST SWAP8 SWAP7 POP POP POP POP POP POP POP JUMP JUMPDEST PUSH0 PUSH1 0x40 DUP3 ADD SWAP1 POP PUSH2 0x36E1 PUSH0 DUP4 ADD DUP6 PUSH2 0x2C72 JUMP JUMPDEST PUSH2 0x36EE PUSH1 0x20 DUP4 ADD DUP5 PUSH2 0x2C72 JUMP JUMPDEST SWAP4 SWAP3 POP POP POP JUMP JUMPDEST PUSH32 0x4E487B7100000000000000000000000000000000000000000000000000000000 PUSH0 MSTORE PUSH1 0x12 PUSH1 0x4 MSTORE PUSH1 0x24 PUSH0 REVERT JUMPDEST PUSH0 PUSH2 0x372C DUP3 PUSH2 0x2D58 JUMP JUMPDEST SWAP2 POP PUSH2 0x3737 DUP4 PUSH2 0x2D58 JUMP JUMPDEST SWAP3 POP DUP3 PUSH2 0x3747 JUMPI PUSH2 0x3746 PUSH2 0x36F5 JUMP JUMPDEST JUMPDEST DUP3 DUP3 DIV SWAP1 POP SWAP3 SWAP2 POP POP JUMP JUMPDEST PUSH0 PUSH1 0x60 DUP3 ADD SWAP1 POP PUSH2 0x3765 PUSH0 DUP4 ADD DUP7 PUSH2 0x2C72 JUMP JUMPDEST PUSH2 0x3772 PUSH1 0x20 DUP4 ADD DUP6 PUSH2 0x2DFC JUMP JUMPDEST PUSH2 0x377F PUSH1 0x40 DUP4 ADD DUP5 PUSH2 0x2DFC JUMP JUMPDEST SWAP5 SWAP4 POP POP POP POP JUMP JUMPDEST PUSH0 PUSH1 0x40 DUP3 ADD SWAP1 POP PUSH2 0x379A PUSH0 DUP4 ADD DUP6 PUSH2 0x2DFC JUMP JUMPDEST PUSH2 0x37A7 PUSH1 0x20 DUP4 ADD DUP5 PUSH2 0x30EA JUMP JUMPDEST SWAP4 SWAP3 POP POP POP JUMP JUMPDEST PUSH0 PUSH2 0x37B8 DUP3 PUSH2 0x2D58 JUMP JUMPDEST SWAP2 POP PUSH2 0x37C3 DUP4 PUSH2 0x2D58 JUMP JUMPDEST SWAP3 POP DUP3 DUP3 SUB SWAP1 POP DUP2 DUP2 GT ISZERO PUSH2 0x37DB JUMPI PUSH2 0x37DA PUSH2 0x3418 JUMP JUMPDEST JUMPDEST SWAP3 SWAP2 POP POP JUMP JUMPDEST PUSH0 PUSH2 0x37EB DUP3 PUSH2 0x2D58 JUMP JUMPDEST SWAP2 POP PUSH2 0x37F6 DUP4 PUSH2 0x2D58 JUMP JUMPDEST SWAP3 POP DUP3 DUP3 ADD SWAP1 POP DUP1 DUP3 GT ISZERO PUSH2 0x380E JUMPI PUSH2 0x380D PUSH2 0x3418 JUMP JUMPDEST JUMPDEST SWAP3 SWAP2 POP POP JUMP JUMPDEST PUSH0 PUSH1 0x40 DUP3 ADD SWAP1 POP PUSH2 0x3827 PUSH0 DUP4 ADD DUP6 PUSH2 0x2C72 JUMP JUMPDEST PUSH2 0x3834 PUSH1 0x20 DUP4 ADD DUP5 PUSH2 0x2DFC JUMP JUMPDEST SWAP4 SWAP3 POP POP POP JUMP JUMPDEST PUSH0 PUSH1 0xA0 DUP3 ADD SWAP1 POP PUSH2 0x384E PUSH0 DUP4 ADD DUP9 PUSH2 0x2EB1 JUMP JUMPDEST PUSH2 0x385B PUSH1 0x20 DUP4 ADD DUP8 PUSH2 0x2EB1 JUMP JUMPDEST PUSH2 0x3868 PUSH1 0x40 DUP4 ADD DUP7 PUSH2 0x2EB1 JUMP JUMPDEST PUSH2 0x3875 PUSH1 0x60 DUP4 ADD DUP6 PUSH2 0x2DFC JUMP JUMPDEST PUSH2 0x3882 PUSH1 0x80 DUP4 ADD DUP5 PUSH2 0x2C72 JUMP JUMPDEST SWAP7 SWAP6 POP POP POP POP POP POP JUMP JUMPDEST PUSH0 DUP2 SWAP1 POP SWAP2 SWAP1 POP JUMP JUMPDEST PUSH0 DUP2 SWAP1 POP SWAP2 SWAP1 POP JUMP JUMPDEST PUSH0 PUSH2 0x38B8 PUSH2 0x38B3 PUSH2 0x38AE DUP5 PUSH2 0x388C JUMP JUMPDEST PUSH2 0x3895 JUMP JUMPDEST PUSH2 0x2E74 JUMP JUMPDEST SWAP1 POP SWAP2 SWAP1 POP JUMP JUMPDEST PUSH2 0x38C8 DUP2 PUSH2 0x389E JUMP JUMPDEST DUP3 MSTORE POP POP JUMP JUMPDEST PUSH0 PUSH1 0x40 DUP3 ADD SWAP1 POP PUSH2 0x38E1 PUSH0 DUP4 ADD DUP6 PUSH2 0x38BF JUMP JUMPDEST PUSH2 0x38EE PUSH1 0x20 DUP4 ADD DUP5 PUSH2 0x2DFC JUMP JUMPDEST SWAP4 SWAP3 POP POP POP JUMP JUMPDEST PUSH0 PUSH1 0x40 DUP3 ADD SWAP1 POP PUSH2 0x3908 PUSH0 DUP4 ADD DUP6 PUSH2 0x2DFC JUMP JUMPDEST PUSH2 0x3915 PUSH1 0x20 DUP4 ADD DUP5 PUSH2 0x2DFC JUMP JUMPDEST SWAP4 SWAP3 POP POP POP JUMP JUMPDEST PUSH0 DUP2 SWAP1 POP SWAP2 SWAP1 POP JUMP JUMPDEST PUSH0 PUSH2 0x393F PUSH2 0x393A PUSH2 0x3935 DUP5 PUSH2 0x391C JUMP JUMPDEST PUSH2 0x3895 JUMP JUMPDEST PUSH2 0x2E74 JUMP JUMPDEST SWAP1 POP SWAP2 SWAP1 POP JUMP JUMPDEST PUSH2 0x394F DUP2 PUSH2 0x3925 JUMP JUMPDEST DUP3 MSTORE POP POP JUMP JUMPDEST PUSH0 PUSH1 0x40 DUP3 ADD SWAP1 POP PUSH2 0x3968 PUSH0 DUP4 ADD DUP6 PUSH2 0x3946 JUMP JUMPDEST PUSH2 0x3975 PUSH1 0x20 DUP4 ADD DUP5 PUSH2 0x2DFC JUMP JUMPDEST SWAP4 SWAP3 POP POP POP JUMP JUMPDEST PUSH0 PUSH1 0x80 DUP3 ADD SWAP1 POP PUSH2 0x398F PUSH0 DUP4 ADD DUP8 PUSH2 0x2EB1 JUMP JUMPDEST PUSH2 0x399C PUSH1 0x20 DUP4 ADD DUP7 PUSH2 0x2E80 JUMP JUMPDEST PUSH2 0x39A9 PUSH1 0x40 DUP4 ADD DUP6 PUSH2 0x2EB1 JUMP JUMPDEST PUSH2 0x39B6 PUSH1 0x60 DUP4 ADD DUP5 PUSH2 0x2EB1 JUMP JUMPDEST SWAP6 SWAP5 POP POP POP POP POP JUMP JUMPDEST PUSH32 0x4E487B7100000000000000000000000000000000000000000000000000000000 PUSH0 MSTORE PUSH1 0x21 PUSH1 0x4 MSTORE PUSH1 0x24 PUSH0 REVERT JUMPDEST PUSH32 0x4E487B7100000000000000000000000000000000000000000000000000000000 PUSH0 MSTORE PUSH1 0x32 PUSH1 0x4 MSTORE PUSH1 0x24 PUSH0 REVERT JUMPDEST PUSH0 PUSH2 0x3A23 DUP3 PUSH2 0x3341 JUMP JUMPDEST SWAP2 POP PUSH2 0x3A2E DUP4 PUSH2 0x3341 JUMP JUMPDEST SWAP3 POP DUP3 DUP3 SUB SWAP1 POP PUSH26 0xFFFFFFFFFFFFFFFFFFFFFFFFFFFFFFFFFFFFFFFFFFFFFFFFFFFF DUP2 GT ISZERO PUSH2 0x3A60 JUMPI PUSH2 0x3A5F PUSH2 0x3418 JUMP JUMPDEST JUMPDEST SWAP3 SWAP2 POP POP JUMP JUMPDEST PUSH0 DUP2 SWAP1 POP SWAP2 SWAP1 POP JUMP JUMPDEST PUSH0 PUSH2 0x3A89 PUSH2 0x3A84 PUSH2 0x3A7F DUP5 PUSH2 0x3A66 JUMP JUMPDEST PUSH2 0x3895 JUMP JUMPDEST PUSH2 0x2E74 JUMP JUMPDEST SWAP1 POP SWAP2 SWAP1 POP JUMP JUMPDEST PUSH2 0x3A99 DUP2 PUSH2 0x3A6F JUMP JUMPDEST DUP3 MSTORE POP POP JUMP JUMPDEST PUSH0 PUSH1 0x40 DUP3 ADD SWAP1 POP PUSH2 0x3AB2 PUSH0 DUP4 ADD DUP6 PUSH2 0x3A90 JUMP JUMPDEST PUSH2 0x3ABF PUSH1 0x20 DUP4 ADD DUP5 PUSH2 0x2DFC JUMP JUMPDEST SWAP4 SWAP3 POP POP POP JUMP JUMPDEST PUSH0 PUSH2 0x3AD0 DUP3 PUSH2 0x3341 JUMP JUMPDEST SWAP2 POP PUSH2 0x3ADB DUP4 PUSH2 0x3341 JUMP JUMPDEST SWAP3 POP DUP3 DUP3 ADD SWAP1 POP PUSH26 0xFFFFFFFFFFFFFFFFFFFFFFFFFFFFFFFFFFFFFFFFFFFFFFFFFFFF DUP2 GT ISZERO PUSH2 0x3B0D JUMPI PUSH2 0x3B0C PUSH2 0x3418 JUMP JUMPDEST JUMPDEST SWAP3 SWAP2 POP POP JUMP INVALID LOG2 PUSH5 0x6970667358 0x22 SLT KECCAK256 0xFC PUSH21 0x86741823FB6B7C8D841A0AF8E44E9917CAD44F2ABD 0xF8 0xD3 PUSH14 0x45FC0AD97FE464736F6C63430008 BYTE STOP CALLER "
		},
		"gasEstimates": {
			"creation": {
				"codeDepositCost": "8510200",
				"executionCost": "infinite",
				"totalCost": "infinite"
			},
			"external": {
				"BALLOT_TYPEHASH()": "436",
				"CLOCK_MODE()": "infinite",
				"COUNTING_MODE()": "infinite",
				"EXTENDED_BALLOT_TYPEHASH()": "415",
				"WrapTokenPrice()": "2536",
				"addMember(address,string,uint8)": "infinite",
				"buyWrapWithEth(uint256)": "infinite",
				"buyWrapWithProfi(uint256)": "infinite",
				"cancel(address[],uint256[],bytes[],bytes32)": "infinite",
				"cancelVoting(uint256)": "infinite",
				"castVote(uint256,bool,uint256)": "infinite",
				"castVote(uint256,uint8)": "infinite",
				"castVoteBySig(uint256,uint8,address,bytes)": "infinite",
				"castVoteWithReason(uint256,uint8,string)": "infinite",
				"castVoteWithReasonAndParams(uint256,uint8,string,bytes)": "infinite",
				"castVoteWithReasonAndParamsBySig(uint256,uint8,address,string,bytes,bytes)": "infinite",
				"clock()": "449",
				"eip712Domain()": "infinite",
				"execute(address[],uint256[],bytes[],bytes32)": "infinite",
				"executeProposal(uint256)": "infinite",
				"getBalanceProfi(address)": "infinite",
				"getProposal(uint256)": "infinite",
				"getUser(address)": "infinite",
				"getVotes(address,uint256)": "infinite",
				"getVotesWithParams(address,uint256,bytes)": "infinite",
				"hasVoted(uint256,address)": "3201",
				"hashProposal(address[],uint256[],bytes[],bytes32)": "infinite",
				"name()": "infinite",
				"newStartupInvestment(address,uint256)": "infinite",
				"nonces(address)": "2920",
				"onERC1155BatchReceived(address,address,uint256[],uint256[],bytes)": "infinite",
				"onERC1155Received(address,address,uint256,uint256,bytes)": "infinite",
				"onERC721Received(address,address,uint256,bytes)": "infinite",
				"proposalDeadline(uint256)": "infinite",
				"proposalEta(uint256)": "infinite",
				"proposalNeedsQueuing(uint256)": "703",
				"proposalProposer(uint256)": "2992",
				"proposalSnapshot(uint256)": "infinite",
				"proposalThreshold()": "413",
				"proposals(uint256)": "infinite",
				"propose(address[],uint256[],bytes[],string)": "infinite",
				"propose(uint8,string,uint8,address,uint256)": "infinite",
				"queue(address[],uint256[],bytes[],bytes32)": "infinite",
				"quorum(uint256)": "infinite",
				"quorumReached(uint256)": "infinite",
				"relay(address,uint256,bytes)": "infinite",
				"removeUserFromDao(address)": "27301",
				"startVoting(uint256,uint256)": "infinite",
				"state(uint256)": "infinite",
				"supportVote(uint256,address,uint256)": "infinite",
				"supportsInterface(bytes4)": "855",
				"version()": "infinite",
				"voteSupports(uint256,address)": "infinite",
				"votes(uint256,address)": "infinite",
				"votingDelay()": "444",
				"votingPeriod()": "446",
				"votingProposals(uint8,uint256)": "infinite",
				"votings(uint256)": "infinite"
			},
			"internal": {
				"_countVote(uint256,address,uint8,uint256,bytes memory)": "infinite",
				"_createProposal(address[] memory,uint256[] memory,bytes memory[] memory,string memory,enum DaoSystem.QuorumType,enum DaoSystem.ProposalType,address,uint256)": "infinite",
				"_executeProposal(uint256)": "infinite",
				"_getVotes(address,uint256,bytes memory)": "infinite",
				"_quorumReached(uint256)": "infinite",
				"_voteSucceeded(uint256)": "4340",
				"checkVotingRequires(struct DaoSystem.Voting memory)": "infinite",
				"startupInvestment(address,uint256)": "infinite"
			}
		},
		"methodIdentifiers": {
			"BALLOT_TYPEHASH()": "deaaa7cc",
			"CLOCK_MODE()": "4bf5d7e9",
			"COUNTING_MODE()": "dd4e2ba5",
			"EXTENDED_BALLOT_TYPEHASH()": "2fe3e261",
			"WrapTokenPrice()": "740c3b98",
			"addMember(address,string,uint8)": "fc13f6af",
			"buyWrapWithEth(uint256)": "cac26ce2",
			"buyWrapWithProfi(uint256)": "3e135400",
			"cancel(address[],uint256[],bytes[],bytes32)": "452115d6",
			"cancelVoting(uint256)": "549bdd6e",
			"castVote(uint256,bool,uint256)": "6036e9e0",
			"castVote(uint256,uint8)": "56781388",
			"castVoteBySig(uint256,uint8,address,bytes)": "8ff262e3",
			"castVoteWithReason(uint256,uint8,string)": "7b3c71d3",
			"castVoteWithReasonAndParams(uint256,uint8,string,bytes)": "5f398a14",
			"castVoteWithReasonAndParamsBySig(uint256,uint8,address,string,bytes,bytes)": "5b8d0e0d",
			"clock()": "91ddadf4",
			"eip712Domain()": "84b0196e",
			"execute(address[],uint256[],bytes[],bytes32)": "2656227d",
			"executeProposal(uint256)": "0d61b519",
			"getBalanceProfi(address)": "4f7a0dbe",
			"getProposal(uint256)": "c7f758a8",
			"getUser(address)": "6f77926b",
			"getVotes(address,uint256)": "eb9019d4",
			"getVotesWithParams(address,uint256,bytes)": "9a802a6d",
			"hasVoted(uint256,address)": "43859632",
			"hashProposal(address[],uint256[],bytes[],bytes32)": "c59057e4",
			"name()": "06fdde03",
			"newStartupInvestment(address,uint256)": "4348a4dd",
			"nonces(address)": "7ecebe00",
			"onERC1155BatchReceived(address,address,uint256[],uint256[],bytes)": "bc197c81",
			"onERC1155Received(address,address,uint256,uint256,bytes)": "f23a6e61",
			"onERC721Received(address,address,uint256,bytes)": "150b7a02",
			"proposalDeadline(uint256)": "c01f9e37",
			"proposalEta(uint256)": "ab58fb8e",
			"proposalNeedsQueuing(uint256)": "a9a95294",
			"proposalProposer(uint256)": "143489d0",
			"proposalSnapshot(uint256)": "2d63f693",
			"proposalThreshold()": "b58131b0",
			"proposals(uint256)": "013cf08b",
			"propose(address[],uint256[],bytes[],string)": "7d5e81e2",
			"propose(uint8,string,uint8,address,uint256)": "08eaef12",
			"queue(address[],uint256[],bytes[],bytes32)": "160cbed7",
			"quorum(uint256)": "f8ce560a",
			"quorumReached(uint256)": "d4a8dd98",
			"relay(address,uint256,bytes)": "c28bc2fa",
			"removeUserFromDao(address)": "d4f168c2",
			"startVoting(uint256,uint256)": "90fe5609",
			"state(uint256)": "3e4f49e6",
			"supportVote(uint256,address,uint256)": "e20615e6",
			"supportsInterface(bytes4)": "01ffc9a7",
			"version()": "54fd4d50",
			"voteSupports(uint256,address)": "992703b4",
			"votes(uint256,address)": "d23254b4",
			"votingDelay()": "3932abb1",
			"votingPeriod()": "02a251a3",
			"votingProposals(uint8,uint256)": "cf71a80a",
			"votings(uint256)": "a598d03c"
		}
	},
	"abi": [
		{
			"inputs": [],
			"stateMutability": "nonpayable",
			"type": "constructor"
		},
		{
			"inputs": [],
			"name": "FailedCall",
			"type": "error"
		},
		{
			"inputs": [
				{
					"internalType": "address",
					"name": "voter",
					"type": "address"
				}
			],
			"name": "GovernorAlreadyCastVote",
			"type": "error"
		},
		{
			"inputs": [
				{
					"internalType": "uint256",
					"name": "proposalId",
					"type": "uint256"
				}
			],
			"name": "GovernorAlreadyQueuedProposal",
			"type": "error"
		},
		{
			"inputs": [],
			"name": "GovernorDisabledDeposit",
			"type": "error"
		},
		{
			"inputs": [
				{
					"internalType": "address",
					"name": "proposer",
					"type": "address"
				},
				{
					"internalType": "uint256",
					"name": "votes",
					"type": "uint256"
				},
				{
					"internalType": "uint256",
					"name": "threshold",
					"type": "uint256"
				}
			],
			"name": "GovernorInsufficientProposerVotes",
			"type": "error"
		},
		{
			"inputs": [
				{
					"internalType": "uint256",
					"name": "targets",
					"type": "uint256"
				},
				{
					"internalType": "uint256",
					"name": "calldatas",
					"type": "uint256"
				},
				{
					"internalType": "uint256",
					"name": "values",
					"type": "uint256"
				}
			],
			"name": "GovernorInvalidProposalLength",
			"type": "error"
		},
		{
			"inputs": [
				{
					"internalType": "address",
					"name": "voter",
					"type": "address"
				}
			],
			"name": "GovernorInvalidSignature",
			"type": "error"
		},
		{
			"inputs": [],
			"name": "GovernorInvalidVoteParams",
			"type": "error"
		},
		{
			"inputs": [],
			"name": "GovernorInvalidVoteType",
			"type": "error"
		},
		{
			"inputs": [
				{
					"internalType": "uint256",
					"name": "votingPeriod",
					"type": "uint256"
				}
			],
			"name": "GovernorInvalidVotingPeriod",
			"type": "error"
		},
		{
			"inputs": [
				{
					"internalType": "uint256",
					"name": "proposalId",
					"type": "uint256"
				}
			],
			"name": "GovernorNonexistentProposal",
			"type": "error"
		},
		{
			"inputs": [
				{
					"internalType": "uint256",
					"name": "proposalId",
					"type": "uint256"
				}
			],
			"name": "GovernorNotQueuedProposal",
			"type": "error"
		},
		{
			"inputs": [
				{
					"internalType": "address",
					"name": "account",
					"type": "address"
				}
			],
			"name": "GovernorOnlyExecutor",
			"type": "error"
		},
		{
			"inputs": [
				{
					"internalType": "address",
					"name": "account",
					"type": "address"
				}
			],
			"name": "GovernorOnlyProposer",
			"type": "error"
		},
		{
			"inputs": [],
			"name": "GovernorQueueNotImplemented",
			"type": "error"
		},
		{
			"inputs": [
				{
					"internalType": "address",
					"name": "proposer",
					"type": "address"
				}
			],
			"name": "GovernorRestrictedProposer",
			"type": "error"
		},
		{
			"inputs": [
				{
					"internalType": "uint256",
					"name": "proposalId",
					"type": "uint256"
				},
				{
					"internalType": "enum IGovernor.ProposalState",
					"name": "current",
					"type": "uint8"
				},
				{
					"internalType": "bytes32",
					"name": "expectedStates",
					"type": "bytes32"
				}
			],
			"name": "GovernorUnexpectedProposalState",
			"type": "error"
		},
		{
			"inputs": [
				{
					"internalType": "address",
					"name": "account",
					"type": "address"
				},
				{
					"internalType": "uint256",
					"name": "currentNonce",
					"type": "uint256"
				}
			],
			"name": "InvalidAccountNonce",
			"type": "error"
		},
		{
			"inputs": [],
			"name": "InvalidShortString",
			"type": "error"
		},
		{
			"inputs": [
				{
					"internalType": "uint8",
					"name": "bits",
					"type": "uint8"
				},
				{
					"internalType": "uint256",
					"name": "value",
					"type": "uint256"
				}
			],
			"name": "SafeCastOverflowedUintDowncast",
			"type": "error"
		},
		{
			"inputs": [
				{
					"internalType": "string",
					"name": "str",
					"type": "string"
				}
			],
			"name": "StringTooLong",
			"type": "error"
		},
		{
			"anonymous": false,
			"inputs": [],
			"name": "EIP712DomainChanged",
			"type": "event"
		},
		{
			"anonymous": false,
			"inputs": [
				{
					"indexed": true,
					"internalType": "address",
					"name": "startup",
					"type": "address"
				},
				{
					"indexed": false,
					"internalType": "uint256",
					"name": "amount",
					"type": "uint256"
				}
			],
			"name": "NewStartupInvestment",
			"type": "event"
		},
		{
			"anonymous": false,
			"inputs": [
				{
					"indexed": false,
					"internalType": "uint256",
					"name": "proposalId",
					"type": "uint256"
				}
			],
			"name": "ProposalCanceled",
			"type": "event"
		},
		{
			"anonymous": false,
			"inputs": [
				{
					"indexed": true,
					"internalType": "address",
					"name": "creator",
					"type": "address"
				},
				{
					"indexed": false,
					"internalType": "uint256",
					"name": "id",
					"type": "uint256"
				},
				{
					"indexed": false,
					"internalType": "enum DaoSystem.ProposalType",
					"name": "proposalType",
					"type": "uint8"
				},
				{
					"indexed": false,
					"internalType": "string",
					"name": "description",
					"type": "string"
				},
				{
					"indexed": false,
					"internalType": "address",
					"name": "targetAddress",
					"type": "address"
				},
				{
					"indexed": false,
					"internalType": "uint256",
					"name": "targetAmount",
					"type": "uint256"
				},
				{
					"indexed": true,
					"internalType": "bool",
					"name": "executed",
					"type": "bool"
				}
			],
			"name": "ProposalCreated",
			"type": "event"
		},
		{
			"anonymous": false,
			"inputs": [
				{
					"indexed": false,
					"internalType": "uint256",
					"name": "proposalId",
					"type": "uint256"
				},
				{
					"indexed": false,
					"internalType": "address",
					"name": "proposer",
					"type": "address"
				},
				{
					"indexed": false,
					"internalType": "address[]",
					"name": "targets",
					"type": "address[]"
				},
				{
					"indexed": false,
					"internalType": "uint256[]",
					"name": "values",
					"type": "uint256[]"
				},
				{
					"indexed": false,
					"internalType": "string[]",
					"name": "signatures",
					"type": "string[]"
				},
				{
					"indexed": false,
					"internalType": "bytes[]",
					"name": "calldatas",
					"type": "bytes[]"
				},
				{
					"indexed": false,
					"internalType": "uint256",
					"name": "voteStart",
					"type": "uint256"
				},
				{
					"indexed": false,
					"internalType": "uint256",
					"name": "voteEnd",
					"type": "uint256"
				},
				{
					"indexed": false,
					"internalType": "string",
					"name": "description",
					"type": "string"
				}
			],
			"name": "ProposalCreated",
			"type": "event"
		},
		{
			"anonymous": false,
			"inputs": [
				{
					"indexed": true,
					"internalType": "uint256",
					"name": "proposalId",
					"type": "uint256"
				},
				{
					"indexed": true,
					"internalType": "enum DaoSystem.VotingStatus",
					"name": "status",
					"type": "uint8"
				}
			],
			"name": "ProposalExecuted",
			"type": "event"
		},
		{
			"anonymous": false,
			"inputs": [
				{
					"indexed": false,
					"internalType": "uint256",
					"name": "proposalId",
					"type": "uint256"
				}
			],
			"name": "ProposalExecuted",
			"type": "event"
		},
		{
			"anonymous": false,
			"inputs": [
				{
					"indexed": false,
					"internalType": "uint256",
					"name": "proposalId",
					"type": "uint256"
				},
				{
					"indexed": false,
					"internalType": "uint256",
					"name": "etaSeconds",
					"type": "uint256"
				}
			],
			"name": "ProposalQueued",
			"type": "event"
		},
		{
			"anonymous": false,
			"inputs": [
				{
					"indexed": true,
					"internalType": "address",
					"name": "startup",
					"type": "address"
				},
				{
					"indexed": false,
					"internalType": "uint256",
					"name": "amount",
					"type": "uint256"
				}
			],
			"name": "StartupInvestment",
			"type": "event"
		},
		{
			"anonymous": false,
			"inputs": [
				{
					"indexed": true,
					"internalType": "address",
					"name": "voter",
					"type": "address"
				},
				{
					"indexed": true,
					"internalType": "uint256",
					"name": "proposalId",
					"type": "uint256"
				},
				{
					"indexed": false,
					"internalType": "bool",
					"name": "support",
					"type": "bool"
				},
				{
					"indexed": false,
					"internalType": "uint256",
					"name": "votingPower",
					"type": "uint256"
				},
				{
					"indexed": false,
					"internalType": "uint256",
					"name": "profiAmount",
					"type": "uint256"
				}
			],
			"name": "VoteCast",
			"type": "event"
		},
		{
			"anonymous": false,
			"inputs": [
				{
					"indexed": true,
					"internalType": "address",
					"name": "voter",
					"type": "address"
				},
				{
					"indexed": false,
					"internalType": "uint256",
					"name": "proposalId",
					"type": "uint256"
				},
				{
					"indexed": false,
					"internalType": "uint8",
					"name": "support",
					"type": "uint8"
				},
				{
					"indexed": false,
					"internalType": "uint256",
					"name": "weight",
					"type": "uint256"
				},
				{
					"indexed": false,
					"internalType": "string",
					"name": "reason",
					"type": "string"
				}
			],
			"name": "VoteCast",
			"type": "event"
		},
		{
			"anonymous": false,
			"inputs": [
				{
					"indexed": true,
					"internalType": "address",
					"name": "voter",
					"type": "address"
				},
				{
					"indexed": false,
					"internalType": "uint256",
					"name": "proposalId",
					"type": "uint256"
				},
				{
					"indexed": false,
					"internalType": "uint8",
					"name": "support",
					"type": "uint8"
				},
				{
					"indexed": false,
					"internalType": "uint256",
					"name": "weight",
					"type": "uint256"
				},
				{
					"indexed": false,
					"internalType": "string",
					"name": "reason",
					"type": "string"
				},
				{
					"indexed": false,
					"internalType": "bytes",
					"name": "params",
					"type": "bytes"
				}
			],
			"name": "VoteCastWithParams",
			"type": "event"
		},
		{
			"anonymous": false,
			"inputs": [
				{
					"indexed": true,
					"internalType": "address",
					"name": "supporter",
					"type": "address"
				},
				{
					"indexed": true,
					"internalType": "address",
					"name": "voter",
					"type": "address"
				},
				{
					"indexed": true,
					"internalType": "uint256",
					"name": "proposalId",
					"type": "uint256"
				},
				{
					"indexed": false,
					"internalType": "uint256",
					"name": "additionalVotes",
					"type": "uint256"
				}
			],
			"name": "VoteSupported",
			"type": "event"
		},
		{
			"anonymous": false,
			"inputs": [
				{
					"indexed": true,
					"internalType": "uint256",
					"name": "id",
					"type": "uint256"
				}
			],
			"name": "VotingCancelled",
			"type": "event"
		},
		{
			"anonymous": false,
			"inputs": [
				{
					"indexed": true,
					"internalType": "uint256",
					"name": "id",
					"type": "uint256"
				},
				{
					"indexed": false,
					"internalType": "uint256",
					"name": "startTime",
					"type": "uint256"
				},
				{
					"indexed": false,
					"internalType": "uint256",
					"name": "endTime",
					"type": "uint256"
				},
				{
					"indexed": true,
					"internalType": "address",
					"name": "initiator",
					"type": "address"
				},
				{
					"indexed": false,
					"internalType": "uint256",
					"name": "votesFor",
					"type": "uint256"
				},
				{
					"indexed": false,
					"internalType": "uint256",
					"name": "votesAgainst",
					"type": "uint256"
				},
				{
					"indexed": true,
					"internalType": "enum DaoSystem.VotingStatus",
					"name": "votingStatus",
					"type": "uint8"
				},
				{
					"indexed": false,
					"internalType": "string",
					"name": "description",
					"type": "string"
				}
			],
			"name": "VotingStarted",
			"type": "event"
		},
		{
			"inputs": [],
			"name": "BALLOT_TYPEHASH",
			"outputs": [
				{
					"internalType": "bytes32",
					"name": "",
					"type": "bytes32"
				}
			],
			"stateMutability": "view",
			"type": "function"
		},
		{
			"inputs": [],
			"name": "CLOCK_MODE",
			"outputs": [
				{
					"internalType": "string",
					"name": "",
					"type": "string"
				}
			],
			"stateMutability": "pure",
			"type": "function"
		},
		{
			"inputs": [],
			"name": "COUNTING_MODE",
			"outputs": [
				{
					"internalType": "string",
					"name": "",
					"type": "string"
				}
			],
			"stateMutability": "pure",
			"type": "function"
		},
		{
			"inputs": [],
			"name": "EXTENDED_BALLOT_TYPEHASH",
			"outputs": [
				{
					"internalType": "bytes32",
					"name": "",
					"type": "bytes32"
				}
			],
			"stateMutability": "view",
			"type": "function"
		},
		{
			"inputs": [],
			"name": "WrapTokenPrice",
			"outputs": [
				{
					"internalType": "uint256",
					"name": "",
					"type": "uint256"
				}
			],
			"stateMutability": "view",
			"type": "function"
		},
		{
			"inputs": [
				{
					"internalType": "address",
					"name": "memberAddress",
					"type": "address"
				},
				{
					"internalType": "string",
					"name": "name",
					"type": "string"
				},
				{
					"internalType": "enum DaoSystem.UserStatus",
					"name": "status",
					"type": "uint8"
				}
			],
			"name": "addMember",
			"outputs": [],
			"stateMutability": "nonpayable",
			"type": "function"
		},
		{
			"inputs": [
				{
					"internalType": "uint256",
					"name": "amount",
					"type": "uint256"
				}
			],
			"name": "buyWrapWithEth",
			"outputs": [],
			"stateMutability": "payable",
			"type": "function"
		},
		{
			"inputs": [
				{
					"internalType": "uint256",
					"name": "amount",
					"type": "uint256"
				}
			],
			"name": "buyWrapWithProfi",
			"outputs": [],
			"stateMutability": "nonpayable",
			"type": "function"
		},
		{
			"inputs": [
				{
					"internalType": "address[]",
					"name": "targets",
					"type": "address[]"
				},
				{
					"internalType": "uint256[]",
					"name": "values",
					"type": "uint256[]"
				},
				{
					"internalType": "bytes[]",
					"name": "calldatas",
					"type": "bytes[]"
				},
				{
					"internalType": "bytes32",
					"name": "descriptionHash",
					"type": "bytes32"
				}
			],
			"name": "cancel",
			"outputs": [
				{
					"internalType": "uint256",
					"name": "",
					"type": "uint256"
				}
			],
			"stateMutability": "nonpayable",
			"type": "function"
		},
		{
			"inputs": [
				{
					"internalType": "uint256",
					"name": "proposalId",
					"type": "uint256"
				}
			],
			"name": "cancelVoting",
			"outputs": [],
			"stateMutability": "nonpayable",
			"type": "function"
		},
		{
			"inputs": [
				{
					"internalType": "uint256",
					"name": "proposalId",
					"type": "uint256"
				},
				{
					"internalType": "uint8",
					"name": "support",
					"type": "uint8"
				}
			],
			"name": "castVote",
			"outputs": [
				{
					"internalType": "uint256",
					"name": "",
					"type": "uint256"
				}
			],
			"stateMutability": "nonpayable",
			"type": "function"
		},
		{
			"inputs": [
				{
					"internalType": "uint256",
					"name": "proposalId",
					"type": "uint256"
				},
				{
					"internalType": "bool",
					"name": "support",
					"type": "bool"
				},
				{
					"internalType": "uint256",
					"name": "tokenAmount",
					"type": "uint256"
				}
			],
			"name": "castVote",
			"outputs": [],
			"stateMutability": "nonpayable",
			"type": "function"
		},
		{
			"inputs": [
				{
					"internalType": "uint256",
					"name": "proposalId",
					"type": "uint256"
				},
				{
					"internalType": "uint8",
					"name": "support",
					"type": "uint8"
				},
				{
					"internalType": "address",
					"name": "voter",
					"type": "address"
				},
				{
					"internalType": "bytes",
					"name": "signature",
					"type": "bytes"
				}
			],
			"name": "castVoteBySig",
			"outputs": [
				{
					"internalType": "uint256",
					"name": "",
					"type": "uint256"
				}
			],
			"stateMutability": "nonpayable",
			"type": "function"
		},
		{
			"inputs": [
				{
					"internalType": "uint256",
					"name": "proposalId",
					"type": "uint256"
				},
				{
					"internalType": "uint8",
					"name": "support",
					"type": "uint8"
				},
				{
					"internalType": "string",
					"name": "reason",
					"type": "string"
				}
			],
			"name": "castVoteWithReason",
			"outputs": [
				{
					"internalType": "uint256",
					"name": "",
					"type": "uint256"
				}
			],
			"stateMutability": "nonpayable",
			"type": "function"
		},
		{
			"inputs": [
				{
					"internalType": "uint256",
					"name": "proposalId",
					"type": "uint256"
				},
				{
					"internalType": "uint8",
					"name": "support",
					"type": "uint8"
				},
				{
					"internalType": "string",
					"name": "reason",
					"type": "string"
				},
				{
					"internalType": "bytes",
					"name": "params",
					"type": "bytes"
				}
			],
			"name": "castVoteWithReasonAndParams",
			"outputs": [
				{
					"internalType": "uint256",
					"name": "",
					"type": "uint256"
				}
			],
			"stateMutability": "nonpayable",
			"type": "function"
		},
		{
			"inputs": [
				{
					"internalType": "uint256",
					"name": "proposalId",
					"type": "uint256"
				},
				{
					"internalType": "uint8",
					"name": "support",
					"type": "uint8"
				},
				{
					"internalType": "address",
					"name": "voter",
					"type": "address"
				},
				{
					"internalType": "string",
					"name": "reason",
					"type": "string"
				},
				{
					"internalType": "bytes",
					"name": "params",
					"type": "bytes"
				},
				{
					"internalType": "bytes",
					"name": "signature",
					"type": "bytes"
				}
			],
			"name": "castVoteWithReasonAndParamsBySig",
			"outputs": [
				{
					"internalType": "uint256",
					"name": "",
					"type": "uint256"
				}
			],
			"stateMutability": "nonpayable",
			"type": "function"
		},
		{
			"inputs": [],
			"name": "clock",
			"outputs": [
				{
					"internalType": "uint48",
					"name": "",
					"type": "uint48"
				}
			],
			"stateMutability": "view",
			"type": "function"
		},
		{
			"inputs": [],
			"name": "eip712Domain",
			"outputs": [
				{
					"internalType": "bytes1",
					"name": "fields",
					"type": "bytes1"
				},
				{
					"internalType": "string",
					"name": "name",
					"type": "string"
				},
				{
					"internalType": "string",
					"name": "version",
					"type": "string"
				},
				{
					"internalType": "uint256",
					"name": "chainId",
					"type": "uint256"
				},
				{
					"internalType": "address",
					"name": "verifyingContract",
					"type": "address"
				},
				{
					"internalType": "bytes32",
					"name": "salt",
					"type": "bytes32"
				},
				{
					"internalType": "uint256[]",
					"name": "extensions",
					"type": "uint256[]"
				}
			],
			"stateMutability": "view",
			"type": "function"
		},
		{
			"inputs": [
				{
					"internalType": "address[]",
					"name": "targets",
					"type": "address[]"
				},
				{
					"internalType": "uint256[]",
					"name": "values",
					"type": "uint256[]"
				},
				{
					"internalType": "bytes[]",
					"name": "calldatas",
					"type": "bytes[]"
				},
				{
					"internalType": "bytes32",
					"name": "descriptionHash",
					"type": "bytes32"
				}
			],
			"name": "execute",
			"outputs": [
				{
					"internalType": "uint256",
					"name": "",
					"type": "uint256"
				}
			],
			"stateMutability": "payable",
			"type": "function"
		},
		{
			"inputs": [
				{
					"internalType": "uint256",
					"name": "proposalId",
					"type": "uint256"
				}
			],
			"name": "executeProposal",
			"outputs": [],
			"stateMutability": "nonpayable",
			"type": "function"
		},
		{
			"inputs": [
				{
					"internalType": "address",
					"name": "user",
					"type": "address"
				}
			],
			"name": "getBalanceProfi",
			"outputs": [
				{
					"internalType": "uint256",
					"name": "",
					"type": "uint256"
				}
			],
			"stateMutability": "view",
			"type": "function"
		},
		{
			"inputs": [
				{
					"internalType": "uint256",
					"name": "proposalId",
					"type": "uint256"
				}
			],
			"name": "getProposal",
			"outputs": [
				{
					"components": [
						{
							"internalType": "uint256",
							"name": "id",
							"type": "uint256"
						},
						{
							"internalType": "address",
							"name": "proposer",
							"type": "address"
						},
						{
							"internalType": "string",
							"name": "description",
							"type": "string"
						},
						{
							"internalType": "uint256",
							"name": "votingId",
							"type": "uint256"
						},
						{
							"internalType": "bool",
							"name": "executed",
							"type": "bool"
						},
						{
							"internalType": "enum DaoSystem.ProposalType",
							"name": "proposalType",
							"type": "uint8"
						},
						{
							"internalType": "address",
							"name": "targetAddress",
							"type": "address"
						},
						{
							"internalType": "uint256",
							"name": "targetAmount",
							"type": "uint256"
						}
					],
					"internalType": "struct DaoSystem.Proposal",
					"name": "",
					"type": "tuple"
				}
			],
			"stateMutability": "view",
			"type": "function"
		},
		{
			"inputs": [
				{
					"internalType": "address",
					"name": "userAddress",
					"type": "address"
				}
			],
			"name": "getUser",
			"outputs": [
				{
					"components": [
						{
							"internalType": "string",
							"name": "name",
							"type": "string"
						},
						{
							"internalType": "address",
							"name": "userAddress",
							"type": "address"
						},
						{
							"internalType": "enum DaoSystem.UserStatus",
							"name": "status",
							"type": "uint8"
						},
						{
							"internalType": "uint256",
							"name": "wrapTokenBalance",
							"type": "uint256"
						}
					],
					"internalType": "struct DaoSystem.User",
					"name": "",
					"type": "tuple"
				}
			],
			"stateMutability": "view",
			"type": "function"
		},
		{
			"inputs": [
				{
					"internalType": "address",
					"name": "account",
					"type": "address"
				},
				{
					"internalType": "uint256",
					"name": "timepoint",
					"type": "uint256"
				}
			],
			"name": "getVotes",
			"outputs": [
				{
					"internalType": "uint256",
					"name": "",
					"type": "uint256"
				}
			],
			"stateMutability": "view",
			"type": "function"
		},
		{
			"inputs": [
				{
					"internalType": "address",
					"name": "account",
					"type": "address"
				},
				{
					"internalType": "uint256",
					"name": "timepoint",
					"type": "uint256"
				},
				{
					"internalType": "bytes",
					"name": "params",
					"type": "bytes"
				}
			],
			"name": "getVotesWithParams",
			"outputs": [
				{
					"internalType": "uint256",
					"name": "",
					"type": "uint256"
				}
			],
			"stateMutability": "view",
			"type": "function"
		},
		{
			"inputs": [
				{
					"internalType": "uint256",
					"name": "proposalId",
					"type": "uint256"
				},
				{
					"internalType": "address",
					"name": "account",
					"type": "address"
				}
			],
			"name": "hasVoted",
			"outputs": [
				{
					"internalType": "bool",
					"name": "",
					"type": "bool"
				}
			],
			"stateMutability": "view",
			"type": "function"
		},
		{
			"inputs": [
				{
					"internalType": "address[]",
					"name": "targets",
					"type": "address[]"
				},
				{
					"internalType": "uint256[]",
					"name": "values",
					"type": "uint256[]"
				},
				{
					"internalType": "bytes[]",
					"name": "calldatas",
					"type": "bytes[]"
				},
				{
					"internalType": "bytes32",
					"name": "descriptionHash",
					"type": "bytes32"
				}
			],
			"name": "hashProposal",
			"outputs": [
				{
					"internalType": "uint256",
					"name": "",
					"type": "uint256"
				}
			],
			"stateMutability": "pure",
			"type": "function"
		},
		{
			"inputs": [],
			"name": "name",
			"outputs": [
				{
					"internalType": "string",
					"name": "",
					"type": "string"
				}
			],
			"stateMutability": "view",
			"type": "function"
		},
		{
			"inputs": [
				{
					"internalType": "address",
					"name": "startupAddress",
					"type": "address"
				},
				{
					"internalType": "uint256",
					"name": "amount",
					"type": "uint256"
				}
			],
			"name": "newStartupInvestment",
			"outputs": [],
			"stateMutability": "nonpayable",
			"type": "function"
		},
		{
			"inputs": [
				{
					"internalType": "address",
					"name": "owner",
					"type": "address"
				}
			],
			"name": "nonces",
			"outputs": [
				{
					"internalType": "uint256",
					"name": "",
					"type": "uint256"
				}
			],
			"stateMutability": "view",
			"type": "function"
		},
		{
			"inputs": [
				{
					"internalType": "address",
					"name": "",
					"type": "address"
				},
				{
					"internalType": "address",
					"name": "",
					"type": "address"
				},
				{
					"internalType": "uint256[]",
					"name": "",
					"type": "uint256[]"
				},
				{
					"internalType": "uint256[]",
					"name": "",
					"type": "uint256[]"
				},
				{
					"internalType": "bytes",
					"name": "",
					"type": "bytes"
				}
			],
			"name": "onERC1155BatchReceived",
			"outputs": [
				{
					"internalType": "bytes4",
					"name": "",
					"type": "bytes4"
				}
			],
			"stateMutability": "nonpayable",
			"type": "function"
		},
		{
			"inputs": [
				{
					"internalType": "address",
					"name": "",
					"type": "address"
				},
				{
					"internalType": "address",
					"name": "",
					"type": "address"
				},
				{
					"internalType": "uint256",
					"name": "",
					"type": "uint256"
				},
				{
					"internalType": "uint256",
					"name": "",
					"type": "uint256"
				},
				{
					"internalType": "bytes",
					"name": "",
					"type": "bytes"
				}
			],
			"name": "onERC1155Received",
			"outputs": [
				{
					"internalType": "bytes4",
					"name": "",
					"type": "bytes4"
				}
			],
			"stateMutability": "nonpayable",
			"type": "function"
		},
		{
			"inputs": [
				{
					"internalType": "address",
					"name": "",
					"type": "address"
				},
				{
					"internalType": "address",
					"name": "",
					"type": "address"
				},
				{
					"internalType": "uint256",
					"name": "",
					"type": "uint256"
				},
				{
					"internalType": "bytes",
					"name": "",
					"type": "bytes"
				}
			],
			"name": "onERC721Received",
			"outputs": [
				{
					"internalType": "bytes4",
					"name": "",
					"type": "bytes4"
				}
			],
			"stateMutability": "nonpayable",
			"type": "function"
		},
		{
			"inputs": [
				{
					"internalType": "uint256",
					"name": "proposalId",
					"type": "uint256"
				}
			],
			"name": "proposalDeadline",
			"outputs": [
				{
					"internalType": "uint256",
					"name": "",
					"type": "uint256"
				}
			],
			"stateMutability": "view",
			"type": "function"
		},
		{
			"inputs": [
				{
					"internalType": "uint256",
					"name": "proposalId",
					"type": "uint256"
				}
			],
			"name": "proposalEta",
			"outputs": [
				{
					"internalType": "uint256",
					"name": "",
					"type": "uint256"
				}
			],
			"stateMutability": "view",
			"type": "function"
		},
		{
			"inputs": [
				{
					"internalType": "uint256",
					"name": "",
					"type": "uint256"
				}
			],
			"name": "proposalNeedsQueuing",
			"outputs": [
				{
					"internalType": "bool",
					"name": "",
					"type": "bool"
				}
			],
			"stateMutability": "view",
			"type": "function"
		},
		{
			"inputs": [
				{
					"internalType": "uint256",
					"name": "proposalId",
					"type": "uint256"
				}
			],
			"name": "proposalProposer",
			"outputs": [
				{
					"internalType": "address",
					"name": "",
					"type": "address"
				}
			],
			"stateMutability": "view",
			"type": "function"
		},
		{
			"inputs": [
				{
					"internalType": "uint256",
					"name": "proposalId",
					"type": "uint256"
				}
			],
			"name": "proposalSnapshot",
			"outputs": [
				{
					"internalType": "uint256",
					"name": "",
					"type": "uint256"
				}
			],
			"stateMutability": "view",
			"type": "function"
		},
		{
			"inputs": [],
			"name": "proposalThreshold",
			"outputs": [
				{
					"internalType": "uint256",
					"name": "",
					"type": "uint256"
				}
			],
			"stateMutability": "view",
			"type": "function"
		},
		{
			"inputs": [
				{
					"internalType": "uint256",
					"name": "",
					"type": "uint256"
				}
			],
			"name": "proposals",
			"outputs": [
				{
					"internalType": "uint256",
					"name": "id",
					"type": "uint256"
				},
				{
					"internalType": "address",
					"name": "proposer",
					"type": "address"
				},
				{
					"internalType": "string",
					"name": "description",
					"type": "string"
				},
				{
					"internalType": "uint256",
					"name": "votingId",
					"type": "uint256"
				},
				{
					"internalType": "bool",
					"name": "executed",
					"type": "bool"
				},
				{
					"internalType": "enum DaoSystem.ProposalType",
					"name": "proposalType",
					"type": "uint8"
				},
				{
					"internalType": "address",
					"name": "targetAddress",
					"type": "address"
				},
				{
					"internalType": "uint256",
					"name": "targetAmount",
					"type": "uint256"
				}
			],
			"stateMutability": "view",
			"type": "function"
		},
		{
			"inputs": [
				{
					"internalType": "enum DaoSystem.ProposalType",
					"name": "proposalType",
					"type": "uint8"
				},
				{
					"internalType": "string",
					"name": "description",
					"type": "string"
				},
				{
					"internalType": "enum DaoSystem.QuorumType",
					"name": "quorumType",
					"type": "uint8"
				},
				{
					"internalType": "address",
					"name": "targetAddress",
					"type": "address"
				},
				{
					"internalType": "uint256",
					"name": "targetAmount",
					"type": "uint256"
				}
			],
			"name": "propose",
			"outputs": [],
			"stateMutability": "nonpayable",
			"type": "function"
		},
		{
			"inputs": [
				{
					"internalType": "address[]",
					"name": "targets",
					"type": "address[]"
				},
				{
					"internalType": "uint256[]",
					"name": "values",
					"type": "uint256[]"
				},
				{
					"internalType": "bytes[]",
					"name": "calldatas",
					"type": "bytes[]"
				},
				{
					"internalType": "string",
					"name": "description",
					"type": "string"
				}
			],
			"name": "propose",
			"outputs": [
				{
					"internalType": "uint256",
					"name": "",
					"type": "uint256"
				}
			],
			"stateMutability": "nonpayable",
			"type": "function"
		},
		{
			"inputs": [
				{
					"internalType": "address[]",
					"name": "targets",
					"type": "address[]"
				},
				{
					"internalType": "uint256[]",
					"name": "values",
					"type": "uint256[]"
				},
				{
					"internalType": "bytes[]",
					"name": "calldatas",
					"type": "bytes[]"
				},
				{
					"internalType": "bytes32",
					"name": "descriptionHash",
					"type": "bytes32"
				}
			],
			"name": "queue",
			"outputs": [
				{
					"internalType": "uint256",
					"name": "",
					"type": "uint256"
				}
			],
			"stateMutability": "nonpayable",
			"type": "function"
		},
		{
			"inputs": [
				{
					"internalType": "uint256",
					"name": "",
					"type": "uint256"
				}
			],
			"name": "quorum",
			"outputs": [
				{
					"internalType": "uint256",
					"name": "",
					"type": "uint256"
				}
			],
			"stateMutability": "pure",
			"type": "function"
		},
		{
			"inputs": [
				{
					"internalType": "uint256",
					"name": "proposalId",
					"type": "uint256"
				}
			],
			"name": "quorumReached",
			"outputs": [
				{
					"internalType": "bool",
					"name": "",
					"type": "bool"
				}
			],
			"stateMutability": "view",
			"type": "function"
		},
		{
			"inputs": [
				{
					"internalType": "address",
					"name": "target",
					"type": "address"
				},
				{
					"internalType": "uint256",
					"name": "value",
					"type": "uint256"
				},
				{
					"internalType": "bytes",
					"name": "data",
					"type": "bytes"
				}
			],
			"name": "relay",
			"outputs": [],
			"stateMutability": "payable",
			"type": "function"
		},
		{
			"inputs": [
				{
					"internalType": "address",
					"name": "memberAddress",
					"type": "address"
				}
			],
			"name": "removeUserFromDao",
			"outputs": [],
			"stateMutability": "nonpayable",
			"type": "function"
		},
		{
			"inputs": [
				{
					"internalType": "uint256",
					"name": "proposalId",
					"type": "uint256"
				},
				{
					"internalType": "uint256",
					"name": "timeForVoting",
					"type": "uint256"
				}
			],
			"name": "startVoting",
			"outputs": [],
			"stateMutability": "nonpayable",
			"type": "function"
		},
		{
			"inputs": [
				{
					"internalType": "uint256",
					"name": "proposalId",
					"type": "uint256"
				}
			],
			"name": "state",
			"outputs": [
				{
					"internalType": "enum IGovernor.ProposalState",
					"name": "",
					"type": "uint8"
				}
			],
			"stateMutability": "view",
			"type": "function"
		},
		{
			"inputs": [
				{
					"internalType": "uint256",
					"name": "proposalId",
					"type": "uint256"
				},
				{
					"internalType": "address",
					"name": "voter",
					"type": "address"
				},
				{
					"internalType": "uint256",
					"name": "wrapTokenAmount",
					"type": "uint256"
				}
			],
			"name": "supportVote",
			"outputs": [],
			"stateMutability": "nonpayable",
			"type": "function"
		},
		{
			"inputs": [
				{
					"internalType": "bytes4",
					"name": "interfaceId",
					"type": "bytes4"
				}
			],
			"name": "supportsInterface",
			"outputs": [
				{
					"internalType": "bool",
					"name": "",
					"type": "bool"
				}
			],
			"stateMutability": "view",
			"type": "function"
		},
		{
			"inputs": [],
			"name": "version",
			"outputs": [
				{
					"internalType": "string",
					"name": "",
					"type": "string"
				}
			],
			"stateMutability": "view",
			"type": "function"
		},
		{
			"inputs": [
				{
					"internalType": "uint256",
					"name": "",
					"type": "uint256"
				},
				{
					"internalType": "address",
					"name": "",
					"type": "address"
				}
			],
			"name": "voteSupports",
			"outputs": [
				{
					"internalType": "uint256",
					"name": "proposalId",
					"type": "uint256"
				},
				{
					"internalType": "address",
					"name": "voter",
					"type": "address"
				},
				{
					"internalType": "uint256",
					"name": "wrapTokens",
					"type": "uint256"
				},
				{
					"internalType": "bool",
					"name": "support",
					"type": "bool"
				}
			],
			"stateMutability": "view",
			"type": "function"
		},
		{
			"inputs": [
				{
					"internalType": "uint256",
					"name": "",
					"type": "uint256"
				},
				{
					"internalType": "address",
					"name": "",
					"type": "address"
				}
			],
			"name": "votes",
			"outputs": [
				{
					"internalType": "uint256",
					"name": "",
					"type": "uint256"
				}
			],
			"stateMutability": "view",
			"type": "function"
		},
		{
			"inputs": [],
			"name": "votingDelay",
			"outputs": [
				{
					"internalType": "uint256",
					"name": "",
					"type": "uint256"
				}
			],
			"stateMutability": "pure",
			"type": "function"
		},
		{
			"inputs": [],
			"name": "votingPeriod",
			"outputs": [
				{
					"internalType": "uint256",
					"name": "",
					"type": "uint256"
				}
			],
			"stateMutability": "pure",
			"type": "function"
		},
		{
			"inputs": [
				{
					"internalType": "enum DaoSystem.VotingStatus",
					"name": "",
					"type": "uint8"
				},
				{
					"internalType": "uint256",
					"name": "",
					"type": "uint256"
				}
			],
			"name": "votingProposals",
			"outputs": [
				{
					"internalType": "uint256",
					"name": "",
					"type": "uint256"
				}
			],
			"stateMutability": "view",
			"type": "function"
		},
		{
			"inputs": [
				{
					"internalType": "uint256",
					"name": "",
					"type": "uint256"
				}
			],
			"name": "votings",
			"outputs": [
				{
					"internalType": "address",
					"name": "initiator",
					"type": "address"
				},
				{
					"internalType": "string",
					"name": "description",
					"type": "string"
				},
				{
					"internalType": "uint256",
					"name": "startTime",
					"type": "uint256"
				},
				{
					"internalType": "uint256",
					"name": "endTime",
					"type": "uint256"
				},
				{
					"internalType": "enum DaoSystem.VotingStatus",
					"name": "status",
					"type": "uint8"
				},
				{
					"internalType": "enum DaoSystem.QuorumType",
					"name": "quorumType",
					"type": "uint8"
				},
				{
					"internalType": "uint256",
					"name": "votesFor",
					"type": "uint256"
				},
				{
					"internalType": "uint256",
					"name": "votesAgainst",
					"type": "uint256"
				},
				{
					"internalType": "uint256",
					"name": "totalVotes",
					"type": "uint256"
				}
			],
			"stateMutability": "view",
			"type": "function"
		},
		{
			"stateMutability": "payable",
			"type": "receive"
		}
	]
}